{
  "contractName": "BlogNFT",
  "abi": [
    {
      "inputs": [],
      "stateMutability": "nonpayable",
      "type": "constructor"
    },
    {
      "inputs": [
        {
          "internalType": "address",
          "name": "sender",
          "type": "address"
        },
        {
          "internalType": "uint256",
          "name": "tokenId",
          "type": "uint256"
        },
        {
          "internalType": "address",
          "name": "owner",
          "type": "address"
        }
      ],
      "name": "ERC721IncorrectOwner",
      "type": "error"
    },
    {
      "inputs": [
        {
          "internalType": "address",
          "name": "operator",
          "type": "address"
        },
        {
          "internalType": "uint256",
          "name": "tokenId",
          "type": "uint256"
        }
      ],
      "name": "ERC721InsufficientApproval",
      "type": "error"
    },
    {
      "inputs": [
        {
          "internalType": "address",
          "name": "approver",
          "type": "address"
        }
      ],
      "name": "ERC721InvalidApprover",
      "type": "error"
    },
    {
      "inputs": [
        {
          "internalType": "address",
          "name": "operator",
          "type": "address"
        }
      ],
      "name": "ERC721InvalidOperator",
      "type": "error"
    },
    {
      "inputs": [
        {
          "internalType": "address",
          "name": "owner",
          "type": "address"
        }
      ],
      "name": "ERC721InvalidOwner",
      "type": "error"
    },
    {
      "inputs": [
        {
          "internalType": "address",
          "name": "receiver",
          "type": "address"
        }
      ],
      "name": "ERC721InvalidReceiver",
      "type": "error"
    },
    {
      "inputs": [
        {
          "internalType": "address",
          "name": "sender",
          "type": "address"
        }
      ],
      "name": "ERC721InvalidSender",
      "type": "error"
    },
    {
      "inputs": [
        {
          "internalType": "uint256",
          "name": "tokenId",
          "type": "uint256"
        }
      ],
      "name": "ERC721NonexistentToken",
      "type": "error"
    },
    {
      "anonymous": false,
      "inputs": [
        {
          "indexed": true,
          "internalType": "address",
          "name": "owner",
          "type": "address"
        },
        {
          "indexed": true,
          "internalType": "address",
          "name": "approved",
          "type": "address"
        },
        {
          "indexed": true,
          "internalType": "uint256",
          "name": "tokenId",
          "type": "uint256"
        }
      ],
      "name": "Approval",
      "type": "event"
    },
    {
      "anonymous": false,
      "inputs": [
        {
          "indexed": true,
          "internalType": "address",
          "name": "owner",
          "type": "address"
        },
        {
          "indexed": true,
          "internalType": "address",
          "name": "operator",
          "type": "address"
        },
        {
          "indexed": false,
          "internalType": "bool",
          "name": "approved",
          "type": "bool"
        }
      ],
      "name": "ApprovalForAll",
      "type": "event"
    },
    {
      "anonymous": false,
      "inputs": [
        {
          "indexed": false,
          "internalType": "uint256",
          "name": "_fromTokenId",
          "type": "uint256"
        },
        {
          "indexed": false,
          "internalType": "uint256",
          "name": "_toTokenId",
          "type": "uint256"
        }
      ],
      "name": "BatchMetadataUpdate",
      "type": "event"
    },
    {
      "anonymous": false,
      "inputs": [
        {
          "indexed": false,
          "internalType": "uint256",
          "name": "_tokenId",
          "type": "uint256"
        }
      ],
      "name": "MetadataUpdate",
      "type": "event"
    },
    {
      "anonymous": false,
      "inputs": [
        {
          "indexed": true,
          "internalType": "address",
          "name": "from",
          "type": "address"
        },
        {
          "indexed": true,
          "internalType": "address",
          "name": "to",
          "type": "address"
        },
        {
          "indexed": true,
          "internalType": "uint256",
          "name": "tokenId",
          "type": "uint256"
        }
      ],
      "name": "Transfer",
      "type": "event"
    },
    {
      "anonymous": false,
      "inputs": [
        {
          "indexed": true,
          "internalType": "address",
          "name": "author",
          "type": "address"
        },
        {
          "indexed": true,
          "internalType": "uint256",
          "name": "tokenId",
          "type": "uint256"
        },
        {
          "indexed": false,
          "internalType": "string",
          "name": "tokenURI",
          "type": "string"
        },
        {
          "indexed": false,
          "internalType": "string",
          "name": "contentReference",
          "type": "string"
        }
      ],
      "name": "postnftcreated",
      "type": "event"
    },
    {
      "inputs": [
        {
          "internalType": "address",
          "name": "to",
          "type": "address"
        },
        {
          "internalType": "uint256",
          "name": "tokenId",
          "type": "uint256"
        }
      ],
      "name": "approve",
      "outputs": [],
      "stateMutability": "nonpayable",
      "type": "function"
    },
    {
      "inputs": [
        {
          "internalType": "address",
          "name": "owner",
          "type": "address"
        }
      ],
      "name": "balanceOf",
      "outputs": [
        {
          "internalType": "uint256",
          "name": "",
          "type": "uint256"
        }
      ],
      "stateMutability": "view",
      "type": "function"
    },
    {
      "inputs": [
        {
          "internalType": "uint256",
          "name": "tokenId",
          "type": "uint256"
        }
      ],
      "name": "getApproved",
      "outputs": [
        {
          "internalType": "address",
          "name": "",
          "type": "address"
        }
      ],
      "stateMutability": "view",
      "type": "function"
    },
    {
      "inputs": [
        {
          "internalType": "address",
          "name": "owner",
          "type": "address"
        },
        {
          "internalType": "address",
          "name": "operator",
          "type": "address"
        }
      ],
      "name": "isApprovedForAll",
      "outputs": [
        {
          "internalType": "bool",
          "name": "",
          "type": "bool"
        }
      ],
      "stateMutability": "view",
      "type": "function"
    },
    {
      "inputs": [],
      "name": "name",
      "outputs": [
        {
          "internalType": "string",
          "name": "",
          "type": "string"
        }
      ],
      "stateMutability": "view",
      "type": "function"
    },
    {
      "inputs": [
        {
          "internalType": "uint256",
          "name": "tokenId",
          "type": "uint256"
        }
      ],
      "name": "ownerOf",
      "outputs": [
        {
          "internalType": "address",
          "name": "",
          "type": "address"
        }
      ],
      "stateMutability": "view",
      "type": "function"
    },
    {
      "inputs": [
        {
          "internalType": "address",
          "name": "from",
          "type": "address"
        },
        {
          "internalType": "address",
          "name": "to",
          "type": "address"
        },
        {
          "internalType": "uint256",
          "name": "tokenId",
          "type": "uint256"
        }
      ],
      "name": "safeTransferFrom",
      "outputs": [],
      "stateMutability": "nonpayable",
      "type": "function"
    },
    {
      "inputs": [
        {
          "internalType": "address",
          "name": "from",
          "type": "address"
        },
        {
          "internalType": "address",
          "name": "to",
          "type": "address"
        },
        {
          "internalType": "uint256",
          "name": "tokenId",
          "type": "uint256"
        },
        {
          "internalType": "bytes",
          "name": "data",
          "type": "bytes"
        }
      ],
      "name": "safeTransferFrom",
      "outputs": [],
      "stateMutability": "nonpayable",
      "type": "function"
    },
    {
      "inputs": [
        {
          "internalType": "address",
          "name": "operator",
          "type": "address"
        },
        {
          "internalType": "bool",
          "name": "approved",
          "type": "bool"
        }
      ],
      "name": "setApprovalForAll",
      "outputs": [],
      "stateMutability": "nonpayable",
      "type": "function"
    },
    {
      "inputs": [
        {
          "internalType": "bytes4",
          "name": "interfaceId",
          "type": "bytes4"
        }
      ],
      "name": "supportsInterface",
      "outputs": [
        {
          "internalType": "bool",
          "name": "",
          "type": "bool"
        }
      ],
      "stateMutability": "view",
      "type": "function"
    },
    {
      "inputs": [],
      "name": "symbol",
      "outputs": [
        {
          "internalType": "string",
          "name": "",
          "type": "string"
        }
      ],
      "stateMutability": "view",
      "type": "function"
    },
    {
      "inputs": [
        {
          "internalType": "uint256",
          "name": "tokenId",
          "type": "uint256"
        }
      ],
      "name": "tokenURI",
      "outputs": [
        {
          "internalType": "string",
          "name": "",
          "type": "string"
        }
      ],
      "stateMutability": "view",
      "type": "function"
    },
    {
      "inputs": [
        {
          "internalType": "address",
          "name": "from",
          "type": "address"
        },
        {
          "internalType": "address",
          "name": "to",
          "type": "address"
        },
        {
          "internalType": "uint256",
          "name": "tokenId",
          "type": "uint256"
        }
      ],
      "name": "transferFrom",
      "outputs": [],
      "stateMutability": "nonpayable",
      "type": "function"
    },
    {
      "inputs": [
        {
          "internalType": "address",
          "name": "author",
          "type": "address"
        },
        {
          "internalType": "string",
          "name": "tokenURI",
          "type": "string"
        },
        {
          "internalType": "string",
          "name": "contentReference",
          "type": "string"
        }
      ],
      "name": "createPostNFT",
      "outputs": [
        {
          "internalType": "uint256",
          "name": "",
          "type": "uint256"
        }
      ],
      "stateMutability": "nonpayable",
      "type": "function"
    },
    {
      "inputs": [
        {
          "internalType": "uint256",
          "name": "tokenId",
          "type": "uint256"
        }
      ],
      "name": "getcontentreference",
      "outputs": [
        {
          "internalType": "string",
          "name": "",
          "type": "string"
        }
      ],
      "stateMutability": "view",
      "type": "function"
    }
  ],
  "bytecode": "0x608060405234801562000010575f80fd5b506040518060400160405280601181526020017f426c6f67506f7374436f707972696768740000000000000000000000000000008152506040518060400160405280600481526020017f424e465400000000000000000000000000000000000000000000000000000000815250815f90816200008d91906200030c565b5080600190816200009f91906200030c565b505050620003f0565b5f81519050919050565b7f4e487b71000000000000000000000000000000000000000000000000000000005f52604160045260245ffd5b7f4e487b71000000000000000000000000000000000000000000000000000000005f52602260045260245ffd5b5f60028204905060018216806200012457607f821691505b6020821081036200013a5762000139620000df565b5b50919050565b5f819050815f5260205f209050919050565b5f6020601f8301049050919050565b5f82821b905092915050565b5f600883026200019e7fffffffffffffffffffffffffffffffffffffffffffffffffffffffffffffffff8262000161565b620001aa868362000161565b95508019841693508086168417925050509392505050565b5f819050919050565b5f819050919050565b5f620001f4620001ee620001e884620001c2565b620001cb565b620001c2565b9050919050565b5f819050919050565b6200020f83620001d4565b620002276200021e82620001fb565b8484546200016d565b825550505050565b5f90565b6200023d6200022f565b6200024a81848462000204565b505050565b5b818110156200027157620002655f8262000233565b60018101905062000250565b5050565b601f821115620002c0576200028a8162000140565b620002958462000152565b81016020851015620002a5578190505b620002bd620002b48562000152565b8301826200024f565b50505b505050565b5f82821c905092915050565b5f620002e25f1984600802620002c5565b1980831691505092915050565b5f620002fc8383620002d1565b9150826002028217905092915050565b6200031782620000a8565b67ffffffffffffffff811115620003335762000332620000b2565b5b6200033f82546200010c565b6200034c82828562000275565b5f60209050601f83116001811462000382575f84156200036d578287015190505b620003798582620002ef565b865550620003e8565b601f198416620003928662000140565b5f5b82811015620003bb5784890151825560018201915060208501945060208101905062000394565b86831015620003db5784890151620003d7601f891682620002d1565b8355505b6001600288020188555050505b505050505050565b61249280620003fe5f395ff3fe608060405234801561000f575f80fd5b50600436106100f3575f3560e01c80636352211e11610095578063b88d4fde11610064578063b88d4fde14610293578063c87b56dd146102af578063d263015d146102df578063e985e9c51461030f576100f3565b80636352211e146101f957806370a082311461022957806395d89b4114610259578063a22cb46514610277576100f3565b8063095ea7b3116100d1578063095ea7b3146101755780630bae1c1c1461019157806323b872dd146101c157806342842e0e146101dd576100f3565b806301ffc9a7146100f757806306fdde0314610127578063081812fc14610145575b5f80fd5b610111600480360381019061010c91906118fc565b61033f565b60405161011e9190611941565b60405180910390f35b61012f61039f565b60405161013c91906119e4565b60405180910390f35b61015f600480360381019061015a9190611a37565b61042e565b60405161016c9190611aa1565b60405180910390f35b61018f600480360381019061018a9190611ae4565b610449565b005b6101ab60048036038101906101a69190611c4e565b61045f565b6040516101b89190611ce5565b60405180910390f35b6101db60048036038101906101d69190611cfe565b61050d565b005b6101f760048036038101906101f29190611cfe565b61060c565b005b610213600480360381019061020e9190611a37565b61062b565b6040516102209190611aa1565b60405180910390f35b610243600480360381019061023e9190611d4e565b61063c565b6040516102509190611ce5565b60405180910390f35b6102616106f2565b60405161026e91906119e4565b60405180910390f35b610291600480360381019061028c9190611da3565b610782565b005b6102ad60048036038101906102a89190611e7f565b610798565b005b6102c960048036038101906102c49190611a37565b6107b5565b6040516102d691906119e4565b60405180910390f35b6102f960048036038101906102f49190611a37565b6108c0565b60405161030691906119e4565b60405180910390f35b61032960048036038101906103249190611eff565b610961565b6040516103369190611941565b60405180910390f35b5f634906490660e01b7bffffffffffffffffffffffffffffffffffffffffffffffffffffffff1916827bffffffffffffffffffffffffffffffffffffffffffffffffffffffff191614806103985750610397826109ef565b5b9050919050565b60605f80546103ad90611f6a565b80601f01602080910402602001604051908101604052809291908181526020018280546103d990611f6a565b80156104245780601f106103fb57610100808354040283529160200191610424565b820191905f5260205f20905b81548152906001019060200180831161040757829003601f168201915b5050505050905090565b5f61043882610ad0565b5061044282610b56565b9050919050565b61045b8282610456610b8f565b610b96565b5050565b5f600160075461046f9190611fc7565b60078190555061048184600754610ba8565b61048d60075484610c9b565b8160085f60075481526020019081526020015f2090816104ad9190612197565b506007548473ffffffffffffffffffffffffffffffffffffffff167f05c09cfec2660b005718287a8b179f6c80016f16ed44be7f1cca87eee0736a1485856040516104f9929190612266565b60405180910390a360075490509392505050565b5f73ffffffffffffffffffffffffffffffffffffffff168273ffffffffffffffffffffffffffffffffffffffff160361057d575f6040517f64a0ae920000000000000000000000000000000000000000000000000000000081526004016105749190611aa1565b60405180910390fd5b5f610590838361058b610b8f565b610cf5565b90508373ffffffffffffffffffffffffffffffffffffffff168173ffffffffffffffffffffffffffffffffffffffff1614610606578382826040517f64283d7b0000000000000000000000000000000000000000000000000000000081526004016105fd9392919061229b565b60405180910390fd5b50505050565b61062683838360405180602001604052805f815250610798565b505050565b5f61063582610ad0565b9050919050565b5f8073ffffffffffffffffffffffffffffffffffffffff168273ffffffffffffffffffffffffffffffffffffffff16036106ad575f6040517f89c62b640000000000000000000000000000000000000000000000000000000081526004016106a49190611aa1565b60405180910390fd5b60035f8373ffffffffffffffffffffffffffffffffffffffff1673ffffffffffffffffffffffffffffffffffffffff1681526020019081526020015f20549050919050565b60606001805461070190611f6a565b80601f016020809104026020016040519081016040528092919081815260200182805461072d90611f6a565b80156107785780601f1061074f57610100808354040283529160200191610778565b820191905f5260205f20905b81548152906001019060200180831161075b57829003601f168201915b5050505050905090565b61079461078d610b8f565b8383610f00565b5050565b6107a384848461050d565b6107af84848484611069565b50505050565b60606107c082610ad0565b505f60065f8481526020019081526020015f2080546107de90611f6a565b80601f016020809104026020016040519081016040528092919081815260200182805461080a90611f6a565b80156108555780601f1061082c57610100808354040283529160200191610855565b820191905f5260205f20905b81548152906001019060200180831161083857829003601f168201915b505050505090505f61086561121b565b90505f8151036108795781925050506108bb565b5f825111156108ad57808260405160200161089592919061230a565b604051602081830303815290604052925050506108bb565b6108b684611231565b925050505b919050565b606060085f8381526020019081526020015f2080546108de90611f6a565b80601f016020809104026020016040519081016040528092919081815260200182805461090a90611f6a565b80156109555780601f1061092c57610100808354040283529160200191610955565b820191905f5260205f20905b81548152906001019060200180831161093857829003601f168201915b50505050509050919050565b5f60055f8473ffffffffffffffffffffffffffffffffffffffff1673ffffffffffffffffffffffffffffffffffffffff1681526020019081526020015f205f8373ffffffffffffffffffffffffffffffffffffffff1673ffffffffffffffffffffffffffffffffffffffff1681526020019081526020015f205f9054906101000a900460ff16905092915050565b5f7f80ac58cd000000000000000000000000000000000000000000000000000000007bffffffffffffffffffffffffffffffffffffffffffffffffffffffff1916827bffffffffffffffffffffffffffffffffffffffffffffffffffffffff19161480610ab957507f5b5e139f000000000000000000000000000000000000000000000000000000007bffffffffffffffffffffffffffffffffffffffffffffffffffffffff1916827bffffffffffffffffffffffffffffffffffffffffffffffffffffffff1916145b80610ac95750610ac882611297565b5b9050919050565b5f80610adb83611300565b90505f73ffffffffffffffffffffffffffffffffffffffff168173ffffffffffffffffffffffffffffffffffffffff1603610b4d57826040517f7e273289000000000000000000000000000000000000000000000000000000008152600401610b449190611ce5565b60405180910390fd5b80915050919050565b5f60045f8381526020019081526020015f205f9054906101000a900473ffffffffffffffffffffffffffffffffffffffff169050919050565b5f33905090565b610ba38383836001611339565b505050565b5f73ffffffffffffffffffffffffffffffffffffffff168273ffffffffffffffffffffffffffffffffffffffff1603610c18575f6040517f64a0ae92000000000000000000000000000000000000000000000000000000008152600401610c0f9190611aa1565b60405180910390fd5b5f610c2483835f610cf5565b90505f73ffffffffffffffffffffffffffffffffffffffff168173ffffffffffffffffffffffffffffffffffffffff1614610c96575f6040517f73c6ac6e000000000000000000000000000000000000000000000000000000008152600401610c8d9190611aa1565b60405180910390fd5b505050565b8060065f8481526020019081526020015f209081610cb99190612197565b507ff8e1a15aba9398e019f0b49df1a4fde98ee17ae345cb5f6b5e2c27f5033e8ce782604051610ce99190611ce5565b60405180910390a15050565b5f80610d0084611300565b90505f73ffffffffffffffffffffffffffffffffffffffff168373ffffffffffffffffffffffffffffffffffffffff1614610d4157610d408184866114f8565b5b5f73ffffffffffffffffffffffffffffffffffffffff168173ffffffffffffffffffffffffffffffffffffffff1614610dcc57610d805f855f80611339565b600160035f8373ffffffffffffffffffffffffffffffffffffffff1673ffffffffffffffffffffffffffffffffffffffff1681526020019081526020015f205f82825403925050819055505b5f73ffffffffffffffffffffffffffffffffffffffff168573ffffffffffffffffffffffffffffffffffffffff1614610e4b57600160035f8773ffffffffffffffffffffffffffffffffffffffff1673ffffffffffffffffffffffffffffffffffffffff1681526020019081526020015f205f82825401925050819055505b8460025f8681526020019081526020015f205f6101000a81548173ffffffffffffffffffffffffffffffffffffffff021916908373ffffffffffffffffffffffffffffffffffffffff160217905550838573ffffffffffffffffffffffffffffffffffffffff168273ffffffffffffffffffffffffffffffffffffffff167fddf252ad1be2c89b69c2b068fc378daa952ba7f163c4a11628f55a4df523b3ef60405160405180910390a4809150509392505050565b5f73ffffffffffffffffffffffffffffffffffffffff168273ffffffffffffffffffffffffffffffffffffffff1603610f7057816040517f5b08ba18000000000000000000000000000000000000000000000000000000008152600401610f679190611aa1565b60405180910390fd5b8060055f8573ffffffffffffffffffffffffffffffffffffffff1673ffffffffffffffffffffffffffffffffffffffff1681526020019081526020015f205f8473ffffffffffffffffffffffffffffffffffffffff1673ffffffffffffffffffffffffffffffffffffffff1681526020019081526020015f205f6101000a81548160ff0219169083151502179055508173ffffffffffffffffffffffffffffffffffffffff168373ffffffffffffffffffffffffffffffffffffffff167f17307eab39ab6107e8899845ad3d59bd9653f200f220920489ca2b5937696c318360405161105c9190611941565b60405180910390a3505050565b5f8373ffffffffffffffffffffffffffffffffffffffff163b1115611215578273ffffffffffffffffffffffffffffffffffffffff1663150b7a026110ac610b8f565b8685856040518563ffffffff1660e01b81526004016110ce949392919061237f565b6020604051808303815f875af192505050801561110957506040513d601f19601f8201168201806040525081019061110691906123dd565b60015b61118a573d805f8114611137576040519150601f19603f3d011682016040523d82523d5f602084013e61113c565b606091505b505f81510361118257836040517f64a0ae920000000000000000000000000000000000000000000000000000000081526004016111799190611aa1565b60405180910390fd5b805181602001fd5b63150b7a0260e01b7bffffffffffffffffffffffffffffffffffffffffffffffffffffffff1916817bffffffffffffffffffffffffffffffffffffffffffffffffffffffff19161461121357836040517f64a0ae9200000000000000000000000000000000000000000000000000000000815260040161120a9190611aa1565b60405180910390fd5b505b50505050565b606060405180602001604052805f815250905090565b606061123c82610ad0565b505f61124661121b565b90505f8151116112645760405180602001604052805f81525061128f565b8061126e846115bb565b60405160200161127f92919061230a565b6040516020818303038152906040525b915050919050565b5f7f01ffc9a7000000000000000000000000000000000000000000000000000000007bffffffffffffffffffffffffffffffffffffffffffffffffffffffff1916827bffffffffffffffffffffffffffffffffffffffffffffffffffffffff1916149050919050565b5f60025f8381526020019081526020015f205f9054906101000a900473ffffffffffffffffffffffffffffffffffffffff169050919050565b808061137157505f73ffffffffffffffffffffffffffffffffffffffff168273ffffffffffffffffffffffffffffffffffffffff1614155b156114a3575f61138084610ad0565b90505f73ffffffffffffffffffffffffffffffffffffffff168373ffffffffffffffffffffffffffffffffffffffff16141580156113ea57508273ffffffffffffffffffffffffffffffffffffffff168173ffffffffffffffffffffffffffffffffffffffff1614155b80156113fd57506113fb8184610961565b155b1561143f57826040517fa9fbf51f0000000000000000000000000000000000000000000000000000000081526004016114369190611aa1565b60405180910390fd5b81156114a157838573ffffffffffffffffffffffffffffffffffffffff168273ffffffffffffffffffffffffffffffffffffffff167f8c5be1e5ebec7d5bd14f71427d1e84f3dd0314c0f7b2291e5b200ac8c7c3b92560405160405180910390a45b505b8360045f8581526020019081526020015f205f6101000a81548173ffffffffffffffffffffffffffffffffffffffff021916908373ffffffffffffffffffffffffffffffffffffffff16021790555050505050565b611503838383611685565b6115b6575f73ffffffffffffffffffffffffffffffffffffffff168373ffffffffffffffffffffffffffffffffffffffff160361157757806040517f7e27328900000000000000000000000000000000000000000000000000000000815260040161156e9190611ce5565b60405180910390fd5b81816040517f177e802f0000000000000000000000000000000000000000000000000000000081526004016115ad929190612408565b60405180910390fd5b505050565b60605f60016115c984611745565b0190505f8167ffffffffffffffff8111156115e7576115e6611b2a565b5b6040519080825280601f01601f1916602001820160405280156116195781602001600182028036833780820191505090505b5090505f82602001820190505b60011561167a578080600190039150507f3031323334353637383961626364656600000000000000000000000000000000600a86061a8153600a858161166f5761166e61242f565b5b0494505f8503611626575b819350505050919050565b5f8073ffffffffffffffffffffffffffffffffffffffff168373ffffffffffffffffffffffffffffffffffffffff161415801561173c57508273ffffffffffffffffffffffffffffffffffffffff168473ffffffffffffffffffffffffffffffffffffffff1614806116fd57506116fc8484610961565b5b8061173b57508273ffffffffffffffffffffffffffffffffffffffff1661172383610b56565b73ffffffffffffffffffffffffffffffffffffffff16145b5b90509392505050565b5f805f90507a184f03e93ff9f4daa797ed6e38ed64bf6a1f01000000000000000083106117a1577a184f03e93ff9f4daa797ed6e38ed64bf6a1f01000000000000000083816117975761179661242f565b5b0492506040810190505b6d04ee2d6d415b85acef810000000083106117de576d04ee2d6d415b85acef810000000083816117d4576117d361242f565b5b0492506020810190505b662386f26fc10000831061180d57662386f26fc1000083816118035761180261242f565b5b0492506010810190505b6305f5e1008310611836576305f5e100838161182c5761182b61242f565b5b0492506008810190505b612710831061185b5761271083816118515761185061242f565b5b0492506004810190505b6064831061187e57606483816118745761187361242f565b5b0492506002810190505b600a831061188d576001810190505b80915050919050565b5f604051905090565b5f80fd5b5f80fd5b5f7fffffffff0000000000000000000000000000000000000000000000000000000082169050919050565b6118db816118a7565b81146118e5575f80fd5b50565b5f813590506118f6816118d2565b92915050565b5f602082840312156119115761191061189f565b5b5f61191e848285016118e8565b91505092915050565b5f8115159050919050565b61193b81611927565b82525050565b5f6020820190506119545f830184611932565b92915050565b5f81519050919050565b5f82825260208201905092915050565b5f5b83811015611991578082015181840152602081019050611976565b5f8484015250505050565b5f601f19601f8301169050919050565b5f6119b68261195a565b6119c08185611964565b93506119d0818560208601611974565b6119d98161199c565b840191505092915050565b5f6020820190508181035f8301526119fc81846119ac565b905092915050565b5f819050919050565b611a1681611a04565b8114611a20575f80fd5b50565b5f81359050611a3181611a0d565b92915050565b5f60208284031215611a4c57611a4b61189f565b5b5f611a5984828501611a23565b91505092915050565b5f73ffffffffffffffffffffffffffffffffffffffff82169050919050565b5f611a8b82611a62565b9050919050565b611a9b81611a81565b82525050565b5f602082019050611ab45f830184611a92565b92915050565b611ac381611a81565b8114611acd575f80fd5b50565b5f81359050611ade81611aba565b92915050565b5f8060408385031215611afa57611af961189f565b5b5f611b0785828601611ad0565b9250506020611b1885828601611a23565b9150509250929050565b5f80fd5b5f80fd5b7f4e487b71000000000000000000000000000000000000000000000000000000005f52604160045260245ffd5b611b608261199c565b810181811067ffffffffffffffff82111715611b7f57611b7e611b2a565b5b80604052505050565b5f611b91611896565b9050611b9d8282611b57565b919050565b5f67ffffffffffffffff821115611bbc57611bbb611b2a565b5b611bc58261199c565b9050602081019050919050565b828183375f83830152505050565b5f611bf2611bed84611ba2565b611b88565b905082815260208101848484011115611c0e57611c0d611b26565b5b611c19848285611bd2565b509392505050565b5f82601f830112611c3557611c34611b22565b5b8135611c45848260208601611be0565b91505092915050565b5f805f60608486031215611c6557611c6461189f565b5b5f611c7286828701611ad0565b935050602084013567ffffffffffffffff811115611c9357611c926118a3565b5b611c9f86828701611c21565b925050604084013567ffffffffffffffff811115611cc057611cbf6118a3565b5b611ccc86828701611c21565b9150509250925092565b611cdf81611a04565b82525050565b5f602082019050611cf85f830184611cd6565b92915050565b5f805f60608486031215611d1557611d1461189f565b5b5f611d2286828701611ad0565b9350506020611d3386828701611ad0565b9250506040611d4486828701611a23565b9150509250925092565b5f60208284031215611d6357611d6261189f565b5b5f611d7084828501611ad0565b91505092915050565b611d8281611927565b8114611d8c575f80fd5b50565b5f81359050611d9d81611d79565b92915050565b5f8060408385031215611db957611db861189f565b5b5f611dc685828601611ad0565b9250506020611dd785828601611d8f565b9150509250929050565b5f67ffffffffffffffff821115611dfb57611dfa611b2a565b5b611e048261199c565b9050602081019050919050565b5f611e23611e1e84611de1565b611b88565b905082815260208101848484011115611e3f57611e3e611b26565b5b611e4a848285611bd2565b509392505050565b5f82601f830112611e6657611e65611b22565b5b8135611e76848260208601611e11565b91505092915050565b5f805f8060808587031215611e9757611e9661189f565b5b5f611ea487828801611ad0565b9450506020611eb587828801611ad0565b9350506040611ec687828801611a23565b925050606085013567ffffffffffffffff811115611ee757611ee66118a3565b5b611ef387828801611e52565b91505092959194509250565b5f8060408385031215611f1557611f1461189f565b5b5f611f2285828601611ad0565b9250506020611f3385828601611ad0565b9150509250929050565b7f4e487b71000000000000000000000000000000000000000000000000000000005f52602260045260245ffd5b5f6002820490506001821680611f8157607f821691505b602082108103611f9457611f93611f3d565b5b50919050565b7f4e487b71000000000000000000000000000000000000000000000000000000005f52601160045260245ffd5b5f611fd182611a04565b9150611fdc83611a04565b9250828201905080821115611ff457611ff3611f9a565b5b92915050565b5f819050815f5260205f209050919050565b5f6020601f8301049050919050565b5f82821b905092915050565b5f600883026120567fffffffffffffffffffffffffffffffffffffffffffffffffffffffffffffffff8261201b565b612060868361201b565b95508019841693508086168417925050509392505050565b5f819050919050565b5f61209b61209661209184611a04565b612078565b611a04565b9050919050565b5f819050919050565b6120b483612081565b6120c86120c0826120a2565b848454612027565b825550505050565b5f90565b6120dc6120d0565b6120e78184846120ab565b505050565b5b8181101561210a576120ff5f826120d4565b6001810190506120ed565b5050565b601f82111561214f5761212081611ffa565b6121298461200c565b81016020851015612138578190505b61214c6121448561200c565b8301826120ec565b50505b505050565b5f82821c905092915050565b5f61216f5f1984600802612154565b1980831691505092915050565b5f6121878383612160565b9150826002028217905092915050565b6121a08261195a565b67ffffffffffffffff8111156121b9576121b8611b2a565b5b6121c38254611f6a565b6121ce82828561210e565b5f60209050601f8311600181146121ff575f84156121ed578287015190505b6121f7858261217c565b86555061225e565b601f19841661220d86611ffa565b5f5b828110156122345784890151825560018201915060208501945060208101905061220f565b86831015612251578489015161224d601f891682612160565b8355505b6001600288020188555050505b505050505050565b5f6040820190508181035f83015261227e81856119ac565b9050818103602083015261229281846119ac565b90509392505050565b5f6060820190506122ae5f830186611a92565b6122bb6020830185611cd6565b6122c86040830184611a92565b949350505050565b5f81905092915050565b5f6122e48261195a565b6122ee81856122d0565b93506122fe818560208601611974565b80840191505092915050565b5f61231582856122da565b915061232182846122da565b91508190509392505050565b5f81519050919050565b5f82825260208201905092915050565b5f6123518261232d565b61235b8185612337565b935061236b818560208601611974565b6123748161199c565b840191505092915050565b5f6080820190506123925f830187611a92565b61239f6020830186611a92565b6123ac6040830185611cd6565b81810360608301526123be8184612347565b905095945050505050565b5f815190506123d7816118d2565b92915050565b5f602082840312156123f2576123f161189f565b5b5f6123ff848285016123c9565b91505092915050565b5f60408201905061241b5f830185611a92565b6124286020830184611cd6565b9392505050565b7f4e487b71000000000000000000000000000000000000000000000000000000005f52601260045260245ffdfea2646970667358221220f5d3f6695023f8be96d0fe704251652abed403d5b6d1d925f6ff407b721ca22f64736f6c63430008150033",
  "immutableReferences": {},
  "source": "// SPDX-License-Identifier: MIT\npragma solidity ^0.8.0;\n\nimport \"@openzeppelin/contracts/token/ERC721/extensions/ERC721URIStorage.sol\";\n\ncontract BlogNFT is ERC721URIStorage {\n\n    uint256 private latestTokenId;\n    mapping(uint256 => string) private tokenContentReference;\n\n    event postnftcreated(address indexed author, uint256 indexed tokenId, string tokenURI, string contentReference);\n\n    constructor() ERC721(\"BlogPostCopyright\", \"BNFT\") {}\n\n    function createPostNFT(address author, string memory tokenURI, string memory contentReference) external returns (uint256) {\n        latestTokenId = latestTokenId + 1;\n        _mint(author, latestTokenId);\n        _setTokenURI(latestTokenId, tokenURI);\n        tokenContentReference[latestTokenId] = contentReference;\n        emit postnftcreated(author, latestTokenId, tokenURI, contentReference);\n        return latestTokenId;\n    }\n\n    function getcontentreference(uint256 tokenId) external view returns (string memory) {\n        return tokenContentReference[tokenId];\n    }\n}\n",
  "sourcePath": "/Users/sangmokhan/Documents/CSE426Project/contract/contracts/BlogPostCopyright.sol",
  "compiler": {
    "name": "solc",
    "version": "0.8.21+commit.d9974bed.Emscripten.clang"
  },
  "schemaVersion": "3.4.16",
  "updatedAt": "2023-10-30T20:44:46.174Z",
  "devdoc": {
    "errors": {
      "ERC721IncorrectOwner(address,uint256,address)": [
        {
          "details": "Indicates an error related to the ownership over a particular token. Used in transfers.",
          "params": {
            "owner": "Address of the current owner of a token.",
            "sender": "Address whose tokens are being transferred.",
            "tokenId": "Identifier number of a token."
          }
        }
      ],
      "ERC721InsufficientApproval(address,uint256)": [
        {
          "details": "Indicates a failure with the `operator`s approval. Used in transfers.",
          "params": {
            "operator": "Address that may be allowed to operate on tokens without being their owner.",
            "tokenId": "Identifier number of a token."
          }
        }
      ],
      "ERC721InvalidApprover(address)": [
        {
          "details": "Indicates a failure with the `approver` of a token to be approved. Used in approvals.",
          "params": {
            "approver": "Address initiating an approval operation."
          }
        }
      ],
      "ERC721InvalidOperator(address)": [
        {
          "details": "Indicates a failure with the `operator` to be approved. Used in approvals.",
          "params": {
            "operator": "Address that may be allowed to operate on tokens without being their owner."
          }
        }
      ],
      "ERC721InvalidOwner(address)": [
        {
          "details": "Indicates that an address can't be an owner. For example, `address(0)` is a forbidden owner in EIP-20. Used in balance queries.",
          "params": {
            "owner": "Address of the current owner of a token."
          }
        }
      ],
      "ERC721InvalidReceiver(address)": [
        {
          "details": "Indicates a failure with the token `receiver`. Used in transfers.",
          "params": {
            "receiver": "Address to which tokens are being transferred."
          }
        }
      ],
      "ERC721InvalidSender(address)": [
        {
          "details": "Indicates a failure with the token `sender`. Used in transfers.",
          "params": {
            "sender": "Address whose tokens are being transferred."
          }
        }
      ],
      "ERC721NonexistentToken(uint256)": [
        {
          "details": "Indicates a `tokenId` whose `owner` is the zero address.",
          "params": {
            "tokenId": "Identifier number of a token."
          }
        }
      ]
    },
    "events": {
      "Approval(address,address,uint256)": {
        "details": "Emitted when `owner` enables `approved` to manage the `tokenId` token."
      },
      "ApprovalForAll(address,address,bool)": {
        "details": "Emitted when `owner` enables or disables (`approved`) `operator` to manage all of its assets."
      },
      "BatchMetadataUpdate(uint256,uint256)": {
        "details": "This event emits when the metadata of a range of tokens is changed. So that the third-party platforms such as NFT market could timely update the images and related attributes of the NFTs."
      },
      "MetadataUpdate(uint256)": {
        "details": "This event emits when the metadata of a token is changed. So that the third-party platforms such as NFT market could timely update the images and related attributes of the NFT."
      },
      "Transfer(address,address,uint256)": {
        "details": "Emitted when `tokenId` token is transferred from `from` to `to`."
      }
    },
    "kind": "dev",
    "methods": {
      "approve(address,uint256)": {
        "details": "See {IERC721-approve}."
      },
      "balanceOf(address)": {
        "details": "See {IERC721-balanceOf}."
      },
      "getApproved(uint256)": {
        "details": "See {IERC721-getApproved}."
      },
      "isApprovedForAll(address,address)": {
        "details": "See {IERC721-isApprovedForAll}."
      },
      "name()": {
        "details": "See {IERC721Metadata-name}."
      },
      "ownerOf(uint256)": {
        "details": "See {IERC721-ownerOf}."
      },
      "safeTransferFrom(address,address,uint256)": {
        "details": "See {IERC721-safeTransferFrom}."
      },
      "safeTransferFrom(address,address,uint256,bytes)": {
        "details": "See {IERC721-safeTransferFrom}."
      },
      "setApprovalForAll(address,bool)": {
        "details": "See {IERC721-setApprovalForAll}."
      },
      "supportsInterface(bytes4)": {
        "details": "See {IERC165-supportsInterface}"
      },
      "symbol()": {
        "details": "See {IERC721Metadata-symbol}."
      },
      "tokenURI(uint256)": {
        "details": "See {IERC721Metadata-tokenURI}."
      },
      "transferFrom(address,address,uint256)": {
        "details": "See {IERC721-transferFrom}."
      }
    },
    "version": 1
  },
  "userdoc": {
    "kind": "user",
    "methods": {},
    "version": 1
  }
}