{
  "contractName": "WrtingToken",
  "abi": [
    {
      "inputs": [],
      "stateMutability": "nonpayable",
      "type": "constructor"
    },
    {
      "inputs": [
        {
          "internalType": "address",
          "name": "spender",
          "type": "address"
        },
        {
          "internalType": "uint256",
          "name": "allowance",
          "type": "uint256"
        },
        {
          "internalType": "uint256",
          "name": "needed",
          "type": "uint256"
        }
      ],
      "name": "ERC20InsufficientAllowance",
      "type": "error"
    },
    {
      "inputs": [
        {
          "internalType": "address",
          "name": "sender",
          "type": "address"
        },
        {
          "internalType": "uint256",
          "name": "balance",
          "type": "uint256"
        },
        {
          "internalType": "uint256",
          "name": "needed",
          "type": "uint256"
        }
      ],
      "name": "ERC20InsufficientBalance",
      "type": "error"
    },
    {
      "inputs": [
        {
          "internalType": "address",
          "name": "approver",
          "type": "address"
        }
      ],
      "name": "ERC20InvalidApprover",
      "type": "error"
    },
    {
      "inputs": [
        {
          "internalType": "address",
          "name": "receiver",
          "type": "address"
        }
      ],
      "name": "ERC20InvalidReceiver",
      "type": "error"
    },
    {
      "inputs": [
        {
          "internalType": "address",
          "name": "sender",
          "type": "address"
        }
      ],
      "name": "ERC20InvalidSender",
      "type": "error"
    },
    {
      "inputs": [
        {
          "internalType": "address",
          "name": "spender",
          "type": "address"
        }
      ],
      "name": "ERC20InvalidSpender",
      "type": "error"
    },
    {
      "anonymous": false,
      "inputs": [
        {
          "indexed": true,
          "internalType": "address",
          "name": "owner",
          "type": "address"
        },
        {
          "indexed": true,
          "internalType": "address",
          "name": "spender",
          "type": "address"
        },
        {
          "indexed": false,
          "internalType": "uint256",
          "name": "value",
          "type": "uint256"
        }
      ],
      "name": "Approval",
      "type": "event"
    },
    {
      "anonymous": false,
      "inputs": [
        {
          "indexed": true,
          "internalType": "address",
          "name": "viewer",
          "type": "address"
        },
        {
          "indexed": false,
          "internalType": "uint256",
          "name": "amount",
          "type": "uint256"
        }
      ],
      "name": "LikedPost",
      "type": "event"
    },
    {
      "anonymous": false,
      "inputs": [
        {
          "indexed": true,
          "internalType": "address",
          "name": "publisher",
          "type": "address"
        },
        {
          "indexed": false,
          "internalType": "uint256",
          "name": "amount",
          "type": "uint256"
        }
      ],
      "name": "RewardedPublisher",
      "type": "event"
    },
    {
      "anonymous": false,
      "inputs": [
        {
          "indexed": true,
          "internalType": "address",
          "name": "from",
          "type": "address"
        },
        {
          "indexed": true,
          "internalType": "address",
          "name": "to",
          "type": "address"
        },
        {
          "indexed": false,
          "internalType": "uint256",
          "name": "value",
          "type": "uint256"
        }
      ],
      "name": "Transfer",
      "type": "event"
    },
    {
      "inputs": [
        {
          "internalType": "address",
          "name": "owner",
          "type": "address"
        },
        {
          "internalType": "address",
          "name": "spender",
          "type": "address"
        }
      ],
      "name": "allowance",
      "outputs": [
        {
          "internalType": "uint256",
          "name": "",
          "type": "uint256"
        }
      ],
      "stateMutability": "view",
      "type": "function"
    },
    {
      "inputs": [
        {
          "internalType": "address",
          "name": "spender",
          "type": "address"
        },
        {
          "internalType": "uint256",
          "name": "value",
          "type": "uint256"
        }
      ],
      "name": "approve",
      "outputs": [
        {
          "internalType": "bool",
          "name": "",
          "type": "bool"
        }
      ],
      "stateMutability": "nonpayable",
      "type": "function"
    },
    {
      "inputs": [
        {
          "internalType": "address",
          "name": "account",
          "type": "address"
        }
      ],
      "name": "balanceOf",
      "outputs": [
        {
          "internalType": "uint256",
          "name": "",
          "type": "uint256"
        }
      ],
      "stateMutability": "view",
      "type": "function"
    },
    {
      "inputs": [],
      "name": "decimals",
      "outputs": [
        {
          "internalType": "uint8",
          "name": "",
          "type": "uint8"
        }
      ],
      "stateMutability": "view",
      "type": "function"
    },
    {
      "inputs": [],
      "name": "name",
      "outputs": [
        {
          "internalType": "string",
          "name": "",
          "type": "string"
        }
      ],
      "stateMutability": "view",
      "type": "function"
    },
    {
      "inputs": [],
      "name": "symbol",
      "outputs": [
        {
          "internalType": "string",
          "name": "",
          "type": "string"
        }
      ],
      "stateMutability": "view",
      "type": "function"
    },
    {
      "inputs": [],
      "name": "totalSupply",
      "outputs": [
        {
          "internalType": "uint256",
          "name": "",
          "type": "uint256"
        }
      ],
      "stateMutability": "view",
      "type": "function"
    },
    {
      "inputs": [
        {
          "internalType": "address",
          "name": "to",
          "type": "address"
        },
        {
          "internalType": "uint256",
          "name": "value",
          "type": "uint256"
        }
      ],
      "name": "transfer",
      "outputs": [
        {
          "internalType": "bool",
          "name": "",
          "type": "bool"
        }
      ],
      "stateMutability": "nonpayable",
      "type": "function"
    },
    {
      "inputs": [
        {
          "internalType": "address",
          "name": "from",
          "type": "address"
        },
        {
          "internalType": "address",
          "name": "to",
          "type": "address"
        },
        {
          "internalType": "uint256",
          "name": "value",
          "type": "uint256"
        }
      ],
      "name": "transferFrom",
      "outputs": [
        {
          "internalType": "bool",
          "name": "",
          "type": "bool"
        }
      ],
      "stateMutability": "nonpayable",
      "type": "function"
    },
    {
      "inputs": [
        {
          "internalType": "address",
          "name": "publisher",
          "type": "address"
        }
      ],
      "name": "rewardPublisher",
      "outputs": [],
      "stateMutability": "nonpayable",
      "type": "function"
    },
    {
      "inputs": [
        {
          "internalType": "address",
          "name": "viewer",
          "type": "address"
        }
      ],
      "name": "likePost",
      "outputs": [],
      "stateMutability": "nonpayable",
      "type": "function"
    }
  ],
  "bytecode": "0x608060405234801562000010575f80fd5b506040518060400160405280600b81526020017f577274696e67546f6b656e0000000000000000000000000000000000000000008152506040518060400160405280600381526020017f575454000000000000000000000000000000000000000000000000000000000081525081600390816200008e919062000602565b508060049081620000a0919062000602565b505050620000e233620000b8620000e860201b60201c565b600a620000c691906200086f565b620f4240620000d69190620008bf565b620000f060201b60201c565b62000a08565b5f6012905090565b5f73ffffffffffffffffffffffffffffffffffffffff168273ffffffffffffffffffffffffffffffffffffffff160362000163575f6040517fec442f050000000000000000000000000000000000000000000000000000000081526004016200015a91906200094c565b60405180910390fd5b620001765f83836200017a60201b60201c565b5050565b5f73ffffffffffffffffffffffffffffffffffffffff168373ffffffffffffffffffffffffffffffffffffffff1603620001ce578060025f828254620001c1919062000967565b925050819055506200029f565b5f805f8573ffffffffffffffffffffffffffffffffffffffff1673ffffffffffffffffffffffffffffffffffffffff1681526020019081526020015f20549050818110156200025a578381836040517fe450d38c0000000000000000000000000000000000000000000000000000000081526004016200025193929190620009b2565b60405180910390fd5b8181035f808673ffffffffffffffffffffffffffffffffffffffff1673ffffffffffffffffffffffffffffffffffffffff1681526020019081526020015f2081905550505b5f73ffffffffffffffffffffffffffffffffffffffff168273ffffffffffffffffffffffffffffffffffffffff1603620002e8578060025f828254039250508190555062000332565b805f808473ffffffffffffffffffffffffffffffffffffffff1673ffffffffffffffffffffffffffffffffffffffff1681526020019081526020015f205f82825401925050819055505b8173ffffffffffffffffffffffffffffffffffffffff168373ffffffffffffffffffffffffffffffffffffffff167fddf252ad1be2c89b69c2b068fc378daa952ba7f163c4a11628f55a4df523b3ef83604051620003919190620009ed565b60405180910390a3505050565b5f81519050919050565b7f4e487b71000000000000000000000000000000000000000000000000000000005f52604160045260245ffd5b7f4e487b71000000000000000000000000000000000000000000000000000000005f52602260045260245ffd5b5f60028204905060018216806200041a57607f821691505b60208210810362000430576200042f620003d5565b5b50919050565b5f819050815f5260205f209050919050565b5f6020601f8301049050919050565b5f82821b905092915050565b5f60088302620004947fffffffffffffffffffffffffffffffffffffffffffffffffffffffffffffffff8262000457565b620004a0868362000457565b95508019841693508086168417925050509392505050565b5f819050919050565b5f819050919050565b5f620004ea620004e4620004de84620004b8565b620004c1565b620004b8565b9050919050565b5f819050919050565b6200050583620004ca565b6200051d6200051482620004f1565b84845462000463565b825550505050565b5f90565b6200053362000525565b62000540818484620004fa565b505050565b5b8181101562000567576200055b5f8262000529565b60018101905062000546565b5050565b601f821115620005b657620005808162000436565b6200058b8462000448565b810160208510156200059b578190505b620005b3620005aa8562000448565b83018262000545565b50505b505050565b5f82821c905092915050565b5f620005d85f1984600802620005bb565b1980831691505092915050565b5f620005f28383620005c7565b9150826002028217905092915050565b6200060d826200039e565b67ffffffffffffffff811115620006295762000628620003a8565b5b62000635825462000402565b620006428282856200056b565b5f60209050601f83116001811462000678575f841562000663578287015190505b6200066f8582620005e5565b865550620006de565b601f198416620006888662000436565b5f5b82811015620006b1578489015182556001820191506020850194506020810190506200068a565b86831015620006d15784890151620006cd601f891682620005c7565b8355505b6001600288020188555050505b505050505050565b7f4e487b71000000000000000000000000000000000000000000000000000000005f52601160045260245ffd5b5f8160011c9050919050565b5f808291508390505b60018511156200077057808604811115620007485762000747620006e6565b5b6001851615620007585780820291505b8081029050620007688562000713565b945062000728565b94509492505050565b5f826200078a57600190506200085c565b8162000799575f90506200085c565b8160018114620007b25760028114620007bd57620007f3565b60019150506200085c565b60ff841115620007d257620007d1620006e6565b5b8360020a915084821115620007ec57620007eb620006e6565b5b506200085c565b5060208310610133831016604e8410600b84101617156200082d5782820a905083811115620008275762000826620006e6565b5b6200085c565b6200083c84848460016200071f565b92509050818404811115620008565762000855620006e6565b5b81810290505b9392505050565b5f60ff82169050919050565b5f6200087b82620004b8565b9150620008888362000863565b9250620008b77fffffffffffffffffffffffffffffffffffffffffffffffffffffffffffffffff848462000779565b905092915050565b5f620008cb82620004b8565b9150620008d883620004b8565b9250828202620008e881620004b8565b91508282048414831517620009025762000901620006e6565b5b5092915050565b5f73ffffffffffffffffffffffffffffffffffffffff82169050919050565b5f620009348262000909565b9050919050565b620009468162000928565b82525050565b5f602082019050620009615f8301846200093b565b92915050565b5f6200097382620004b8565b91506200098083620004b8565b92508282019050808211156200099b576200099a620006e6565b5b92915050565b620009ac81620004b8565b82525050565b5f606082019050620009c75f8301866200093b565b620009d66020830185620009a1565b620009e56040830184620009a1565b949350505050565b5f60208201905062000a025f830184620009a1565b92915050565b6111808062000a165f395ff3fe608060405234801561000f575f80fd5b50600436106100a7575f3560e01c806323b872dd1161006f57806323b872dd1461014f578063313ce5671461017f57806370a082311461019d57806395d89b41146101cd578063a9059cbb146101eb578063dd62ed3e1461021b576100a7565b806302397a82146100ab57806306b71665146100c757806306fdde03146100e3578063095ea7b31461010157806318160ddd14610131575b5f80fd5b6100c560048036038101906100c09190610c13565b61024b565b005b6100e160048036038101906100dc9190610c13565b6102ca565b005b6100eb610349565b6040516100f89190610cc8565b60405180910390f35b61011b60048036038101906101169190610d1b565b6103d9565b6040516101289190610d73565b60405180910390f35b6101396103fb565b6040516101469190610d9b565b60405180910390f35b61016960048036038101906101649190610db4565b610404565b6040516101769190610d73565b60405180910390f35b610187610432565b6040516101949190610e1f565b60405180910390f35b6101b760048036038101906101b29190610c13565b61043a565b6040516101c49190610d9b565b60405180910390f35b6101d561047f565b6040516101e29190610cc8565b60405180910390f35b61020560048036038101906102009190610d1b565b61050f565b6040516102129190610d73565b60405180910390f35b61023560048036038101906102309190610e38565b610531565b6040516102429190610d9b565b60405180910390f35b5f610254610432565b600a6102609190610fd2565b600161026c919061101c565b905061027882826105b3565b8173ffffffffffffffffffffffffffffffffffffffff167ffa8a92ebf776575fb7c2efc630a26b9ee094c224c4c7544cf434dbbf28e061f2826040516102be9190610d9b565b60405180910390a25050565b5f6102d3610432565b600a6102df9190610fd2565b60146102eb919061101c565b90506102f782826105b3565b8173ffffffffffffffffffffffffffffffffffffffff167fdff4eebbbcc937c4fce2a467a1b76874a440554c2001250279d496e5f43387648260405161033d9190610d9b565b60405180910390a25050565b6060600380546103589061108a565b80601f01602080910402602001604051908101604052809291908181526020018280546103849061108a565b80156103cf5780601f106103a6576101008083540402835291602001916103cf565b820191905f5260205f20905b8154815290600101906020018083116103b257829003601f168201915b5050505050905090565b5f806103e3610632565b90506103f0818585610639565b600191505092915050565b5f600254905090565b5f8061040e610632565b905061041b85828561064b565b6104268585856106dd565b60019150509392505050565b5f6012905090565b5f805f8373ffffffffffffffffffffffffffffffffffffffff1673ffffffffffffffffffffffffffffffffffffffff1681526020019081526020015f20549050919050565b60606004805461048e9061108a565b80601f01602080910402602001604051908101604052809291908181526020018280546104ba9061108a565b80156105055780601f106104dc57610100808354040283529160200191610505565b820191905f5260205f20905b8154815290600101906020018083116104e857829003601f168201915b5050505050905090565b5f80610519610632565b90506105268185856106dd565b600191505092915050565b5f60015f8473ffffffffffffffffffffffffffffffffffffffff1673ffffffffffffffffffffffffffffffffffffffff1681526020019081526020015f205f8373ffffffffffffffffffffffffffffffffffffffff1673ffffffffffffffffffffffffffffffffffffffff1681526020019081526020015f2054905092915050565b5f73ffffffffffffffffffffffffffffffffffffffff168273ffffffffffffffffffffffffffffffffffffffff1603610623575f6040517fec442f0500000000000000000000000000000000000000000000000000000000815260040161061a91906110c9565b60405180910390fd5b61062e5f83836107cd565b5050565b5f33905090565b61064683838360016109e6565b505050565b5f6106568484610531565b90507fffffffffffffffffffffffffffffffffffffffffffffffffffffffffffffffff81146106d757818110156106c8578281836040517ffb8f41b20000000000000000000000000000000000000000000000000000000081526004016106bf939291906110e2565b60405180910390fd5b6106d684848484035f6109e6565b5b50505050565b5f73ffffffffffffffffffffffffffffffffffffffff168373ffffffffffffffffffffffffffffffffffffffff160361074d575f6040517f96c6fd1e00000000000000000000000000000000000000000000000000000000815260040161074491906110c9565b60405180910390fd5b5f73ffffffffffffffffffffffffffffffffffffffff168273ffffffffffffffffffffffffffffffffffffffff16036107bd575f6040517fec442f050000000000000000000000000000000000000000000000000000000081526004016107b491906110c9565b60405180910390fd5b6107c88383836107cd565b505050565b5f73ffffffffffffffffffffffffffffffffffffffff168373ffffffffffffffffffffffffffffffffffffffff160361081d578060025f8282546108119190611117565b925050819055506108eb565b5f805f8573ffffffffffffffffffffffffffffffffffffffff1673ffffffffffffffffffffffffffffffffffffffff1681526020019081526020015f20549050818110156108a6578381836040517fe450d38c00000000000000000000000000000000000000000000000000000000815260040161089d939291906110e2565b60405180910390fd5b8181035f808673ffffffffffffffffffffffffffffffffffffffff1673ffffffffffffffffffffffffffffffffffffffff1681526020019081526020015f2081905550505b5f73ffffffffffffffffffffffffffffffffffffffff168273ffffffffffffffffffffffffffffffffffffffff1603610932578060025f828254039250508190555061097c565b805f808473ffffffffffffffffffffffffffffffffffffffff1673ffffffffffffffffffffffffffffffffffffffff1681526020019081526020015f205f82825401925050819055505b8173ffffffffffffffffffffffffffffffffffffffff168373ffffffffffffffffffffffffffffffffffffffff167fddf252ad1be2c89b69c2b068fc378daa952ba7f163c4a11628f55a4df523b3ef836040516109d99190610d9b565b60405180910390a3505050565b5f73ffffffffffffffffffffffffffffffffffffffff168473ffffffffffffffffffffffffffffffffffffffff1603610a56575f6040517fe602df05000000000000000000000000000000000000000000000000000000008152600401610a4d91906110c9565b60405180910390fd5b5f73ffffffffffffffffffffffffffffffffffffffff168373ffffffffffffffffffffffffffffffffffffffff1603610ac6575f6040517f94280d62000000000000000000000000000000000000000000000000000000008152600401610abd91906110c9565b60405180910390fd5b8160015f8673ffffffffffffffffffffffffffffffffffffffff1673ffffffffffffffffffffffffffffffffffffffff1681526020019081526020015f205f8573ffffffffffffffffffffffffffffffffffffffff1673ffffffffffffffffffffffffffffffffffffffff1681526020019081526020015f20819055508015610baf578273ffffffffffffffffffffffffffffffffffffffff168473ffffffffffffffffffffffffffffffffffffffff167f8c5be1e5ebec7d5bd14f71427d1e84f3dd0314c0f7b2291e5b200ac8c7c3b92584604051610ba69190610d9b565b60405180910390a35b50505050565b5f80fd5b5f73ffffffffffffffffffffffffffffffffffffffff82169050919050565b5f610be282610bb9565b9050919050565b610bf281610bd8565b8114610bfc575f80fd5b50565b5f81359050610c0d81610be9565b92915050565b5f60208284031215610c2857610c27610bb5565b5b5f610c3584828501610bff565b91505092915050565b5f81519050919050565b5f82825260208201905092915050565b5f5b83811015610c75578082015181840152602081019050610c5a565b5f8484015250505050565b5f601f19601f8301169050919050565b5f610c9a82610c3e565b610ca48185610c48565b9350610cb4818560208601610c58565b610cbd81610c80565b840191505092915050565b5f6020820190508181035f830152610ce08184610c90565b905092915050565b5f819050919050565b610cfa81610ce8565b8114610d04575f80fd5b50565b5f81359050610d1581610cf1565b92915050565b5f8060408385031215610d3157610d30610bb5565b5b5f610d3e85828601610bff565b9250506020610d4f85828601610d07565b9150509250929050565b5f8115159050919050565b610d6d81610d59565b82525050565b5f602082019050610d865f830184610d64565b92915050565b610d9581610ce8565b82525050565b5f602082019050610dae5f830184610d8c565b92915050565b5f805f60608486031215610dcb57610dca610bb5565b5b5f610dd886828701610bff565b9350506020610de986828701610bff565b9250506040610dfa86828701610d07565b9150509250925092565b5f60ff82169050919050565b610e1981610e04565b82525050565b5f602082019050610e325f830184610e10565b92915050565b5f8060408385031215610e4e57610e4d610bb5565b5b5f610e5b85828601610bff565b9250506020610e6c85828601610bff565b9150509250929050565b7f4e487b71000000000000000000000000000000000000000000000000000000005f52601160045260245ffd5b5f8160011c9050919050565b5f808291508390505b6001851115610ef857808604811115610ed457610ed3610e76565b5b6001851615610ee35780820291505b8081029050610ef185610ea3565b9450610eb8565b94509492505050565b5f82610f105760019050610fcb565b81610f1d575f9050610fcb565b8160018114610f335760028114610f3d57610f6c565b6001915050610fcb565b60ff841115610f4f57610f4e610e76565b5b8360020a915084821115610f6657610f65610e76565b5b50610fcb565b5060208310610133831016604e8410600b8410161715610fa15782820a905083811115610f9c57610f9b610e76565b5b610fcb565b610fae8484846001610eaf565b92509050818404811115610fc557610fc4610e76565b5b81810290505b9392505050565b5f610fdc82610ce8565b9150610fe783610e04565b92506110147fffffffffffffffffffffffffffffffffffffffffffffffffffffffffffffffff8484610f01565b905092915050565b5f61102682610ce8565b915061103183610ce8565b925082820261103f81610ce8565b9150828204841483151761105657611055610e76565b5b5092915050565b7f4e487b71000000000000000000000000000000000000000000000000000000005f52602260045260245ffd5b5f60028204905060018216806110a157607f821691505b6020821081036110b4576110b361105d565b5b50919050565b6110c381610bd8565b82525050565b5f6020820190506110dc5f8301846110ba565b92915050565b5f6060820190506110f55f8301866110ba565b6111026020830185610d8c565b61110f6040830184610d8c565b949350505050565b5f61112182610ce8565b915061112c83610ce8565b925082820190508082111561114457611143610e76565b5b9291505056fea2646970667358221220733ad8c9eca961bd401a85e4f094eb2f3db712dc2a7c66be3fe3eadd94f5752364736f6c63430008150033",
  "immutableReferences": {},
  "source": "// SPDX-License-Identifier: MIT\npragma solidity ^0.8.0;\n\nimport \"@openzeppelin/contracts/token/ERC20/ERC20.sol\";\n\ncontract WrtingToken is ERC20 {\n    event RewardedPublisher(address indexed publisher, uint256 amount);\n    event LikedPost(address indexed viewer, uint256 amount);\n\n    constructor() ERC20(\"WrtingToken\", \"WTT\") {\n        _mint(msg.sender, 1000000 * 10 ** decimals());\n    }\n    /*\n    * Give 20 tokens to the Post Author\n    * when the new post is created\n    * args [ publisher : post author's address]\n    */\n    function rewardPublisher(address publisher) external {\n        uint256 rewardAmount = 20 * 10 ** decimals();\n        _mint(publisher, rewardAmount);\n        emit RewardedPublisher(publisher, rewardAmount); \n    }\n    /*\n    * Give 1 tokens to who clicked the like button for a post\n    * args [ viewer : the user's address who clicked like button ]\n    */\n    function likePost(address viewer) external {\n        uint256 rewardAmount = 1 * 10 ** decimals();\n        _mint(viewer, rewardAmount);\n        emit LikedPost(viewer, rewardAmount);\n    }\n}\n",
  "sourcePath": "/Users/sangmokhan/Documents/CSE426Project/contract/contracts/WrtingToken.sol",
  "compiler": {
    "name": "solc",
    "version": "0.8.21+commit.d9974bed.Emscripten.clang"
  },
  "schemaVersion": "3.4.16",
  "updatedAt": "2023-10-30T20:44:46.180Z",
  "devdoc": {
    "errors": {
      "ERC20InsufficientAllowance(address,uint256,uint256)": [
        {
          "details": "Indicates a failure with the `spender`s `allowance`. Used in transfers.",
          "params": {
            "allowance": "Amount of tokens a `spender` is allowed to operate with.",
            "needed": "Minimum amount required to perform a transfer.",
            "spender": "Address that may be allowed to operate on tokens without being their owner."
          }
        }
      ],
      "ERC20InsufficientBalance(address,uint256,uint256)": [
        {
          "details": "Indicates an error related to the current `balance` of a `sender`. Used in transfers.",
          "params": {
            "balance": "Current balance for the interacting account.",
            "needed": "Minimum amount required to perform a transfer.",
            "sender": "Address whose tokens are being transferred."
          }
        }
      ],
      "ERC20InvalidApprover(address)": [
        {
          "details": "Indicates a failure with the `approver` of a token to be approved. Used in approvals.",
          "params": {
            "approver": "Address initiating an approval operation."
          }
        }
      ],
      "ERC20InvalidReceiver(address)": [
        {
          "details": "Indicates a failure with the token `receiver`. Used in transfers.",
          "params": {
            "receiver": "Address to which tokens are being transferred."
          }
        }
      ],
      "ERC20InvalidSender(address)": [
        {
          "details": "Indicates a failure with the token `sender`. Used in transfers.",
          "params": {
            "sender": "Address whose tokens are being transferred."
          }
        }
      ],
      "ERC20InvalidSpender(address)": [
        {
          "details": "Indicates a failure with the `spender` to be approved. Used in approvals.",
          "params": {
            "spender": "Address that may be allowed to operate on tokens without being their owner."
          }
        }
      ]
    },
    "events": {
      "Approval(address,address,uint256)": {
        "details": "Emitted when the allowance of a `spender` for an `owner` is set by a call to {approve}. `value` is the new allowance."
      },
      "Transfer(address,address,uint256)": {
        "details": "Emitted when `value` tokens are moved from one account (`from`) to another (`to`). Note that `value` may be zero."
      }
    },
    "kind": "dev",
    "methods": {
      "allowance(address,address)": {
        "details": "See {IERC20-allowance}."
      },
      "approve(address,uint256)": {
        "details": "See {IERC20-approve}. NOTE: If `value` is the maximum `uint256`, the allowance is not updated on `transferFrom`. This is semantically equivalent to an infinite approval. Requirements: - `spender` cannot be the zero address."
      },
      "balanceOf(address)": {
        "details": "See {IERC20-balanceOf}."
      },
      "decimals()": {
        "details": "Returns the number of decimals used to get its user representation. For example, if `decimals` equals `2`, a balance of `505` tokens should be displayed to a user as `5.05` (`505 / 10 ** 2`). Tokens usually opt for a value of 18, imitating the relationship between Ether and Wei. This is the default value returned by this function, unless it's overridden. NOTE: This information is only used for _display_ purposes: it in no way affects any of the arithmetic of the contract, including {IERC20-balanceOf} and {IERC20-transfer}."
      },
      "name()": {
        "details": "Returns the name of the token."
      },
      "symbol()": {
        "details": "Returns the symbol of the token, usually a shorter version of the name."
      },
      "totalSupply()": {
        "details": "See {IERC20-totalSupply}."
      },
      "transfer(address,uint256)": {
        "details": "See {IERC20-transfer}. Requirements: - `to` cannot be the zero address. - the caller must have a balance of at least `value`."
      },
      "transferFrom(address,address,uint256)": {
        "details": "See {IERC20-transferFrom}. Emits an {Approval} event indicating the updated allowance. This is not required by the EIP. See the note at the beginning of {ERC20}. NOTE: Does not update the allowance if the current allowance is the maximum `uint256`. Requirements: - `from` and `to` cannot be the zero address. - `from` must have a balance of at least `value`. - the caller must have allowance for ``from``'s tokens of at least `value`."
      }
    },
    "version": 1
  },
  "userdoc": {
    "kind": "user",
    "methods": {},
    "version": 1
  }
}