{
  "contractName": "BlogCraftNFT",
  "abi": [
    {
      "inputs": [],
      "stateMutability": "nonpayable",
      "type": "constructor"
    },
    {
      "anonymous": false,
      "inputs": [
        {
          "indexed": true,
          "internalType": "address",
          "name": "owner",
          "type": "address"
        },
        {
          "indexed": true,
          "internalType": "address",
          "name": "approved",
          "type": "address"
        },
        {
          "indexed": true,
          "internalType": "uint256",
          "name": "tokenId",
          "type": "uint256"
        }
      ],
      "name": "Approval",
      "type": "event"
    },
    {
      "anonymous": false,
      "inputs": [
        {
          "indexed": true,
          "internalType": "address",
          "name": "owner",
          "type": "address"
        },
        {
          "indexed": true,
          "internalType": "address",
          "name": "operator",
          "type": "address"
        },
        {
          "indexed": false,
          "internalType": "bool",
          "name": "approved",
          "type": "bool"
        }
      ],
      "name": "ApprovalForAll",
      "type": "event"
    },
    {
      "anonymous": false,
      "inputs": [
        {
          "indexed": false,
          "internalType": "uint256",
          "name": "_fromTokenId",
          "type": "uint256"
        },
        {
          "indexed": false,
          "internalType": "uint256",
          "name": "_toTokenId",
          "type": "uint256"
        }
      ],
      "name": "BatchMetadataUpdate",
      "type": "event"
    },
    {
      "anonymous": false,
      "inputs": [
        {
          "indexed": false,
          "internalType": "uint256",
          "name": "_tokenId",
          "type": "uint256"
        }
      ],
      "name": "MetadataUpdate",
      "type": "event"
    },
    {
      "anonymous": false,
      "inputs": [
        {
          "indexed": true,
          "internalType": "address",
          "name": "from",
          "type": "address"
        },
        {
          "indexed": true,
          "internalType": "address",
          "name": "to",
          "type": "address"
        },
        {
          "indexed": true,
          "internalType": "uint256",
          "name": "tokenId",
          "type": "uint256"
        }
      ],
      "name": "Transfer",
      "type": "event"
    },
    {
      "anonymous": false,
      "inputs": [
        {
          "indexed": true,
          "internalType": "address",
          "name": "author",
          "type": "address"
        },
        {
          "indexed": true,
          "internalType": "uint256",
          "name": "tokenId",
          "type": "uint256"
        },
        {
          "indexed": false,
          "internalType": "string",
          "name": "tokenURI",
          "type": "string"
        }
      ],
      "name": "postnftcreated",
      "type": "event"
    },
    {
      "inputs": [
        {
          "internalType": "address",
          "name": "to",
          "type": "address"
        },
        {
          "internalType": "uint256",
          "name": "tokenId",
          "type": "uint256"
        }
      ],
      "name": "approve",
      "outputs": [],
      "stateMutability": "nonpayable",
      "type": "function"
    },
    {
      "inputs": [
        {
          "internalType": "address",
          "name": "owner",
          "type": "address"
        }
      ],
      "name": "balanceOf",
      "outputs": [
        {
          "internalType": "uint256",
          "name": "",
          "type": "uint256"
        }
      ],
      "stateMutability": "view",
      "type": "function",
      "constant": true
    },
    {
      "inputs": [
        {
          "internalType": "uint256",
          "name": "tokenId",
          "type": "uint256"
        }
      ],
      "name": "getApproved",
      "outputs": [
        {
          "internalType": "address",
          "name": "",
          "type": "address"
        }
      ],
      "stateMutability": "view",
      "type": "function",
      "constant": true
    },
    {
      "inputs": [
        {
          "internalType": "address",
          "name": "owner",
          "type": "address"
        },
        {
          "internalType": "address",
          "name": "operator",
          "type": "address"
        }
      ],
      "name": "isApprovedForAll",
      "outputs": [
        {
          "internalType": "bool",
          "name": "",
          "type": "bool"
        }
      ],
      "stateMutability": "view",
      "type": "function",
      "constant": true
    },
    {
      "inputs": [],
      "name": "name",
      "outputs": [
        {
          "internalType": "string",
          "name": "",
          "type": "string"
        }
      ],
      "stateMutability": "view",
      "type": "function",
      "constant": true
    },
    {
      "inputs": [
        {
          "internalType": "uint256",
          "name": "tokenId",
          "type": "uint256"
        }
      ],
      "name": "ownerOf",
      "outputs": [
        {
          "internalType": "address",
          "name": "",
          "type": "address"
        }
      ],
      "stateMutability": "view",
      "type": "function",
      "constant": true
    },
    {
      "inputs": [
        {
          "internalType": "address",
          "name": "from",
          "type": "address"
        },
        {
          "internalType": "address",
          "name": "to",
          "type": "address"
        },
        {
          "internalType": "uint256",
          "name": "tokenId",
          "type": "uint256"
        }
      ],
      "name": "safeTransferFrom",
      "outputs": [],
      "stateMutability": "nonpayable",
      "type": "function"
    },
    {
      "inputs": [
        {
          "internalType": "address",
          "name": "from",
          "type": "address"
        },
        {
          "internalType": "address",
          "name": "to",
          "type": "address"
        },
        {
          "internalType": "uint256",
          "name": "tokenId",
          "type": "uint256"
        },
        {
          "internalType": "bytes",
          "name": "data",
          "type": "bytes"
        }
      ],
      "name": "safeTransferFrom",
      "outputs": [],
      "stateMutability": "nonpayable",
      "type": "function"
    },
    {
      "inputs": [
        {
          "internalType": "address",
          "name": "operator",
          "type": "address"
        },
        {
          "internalType": "bool",
          "name": "approved",
          "type": "bool"
        }
      ],
      "name": "setApprovalForAll",
      "outputs": [],
      "stateMutability": "nonpayable",
      "type": "function"
    },
    {
      "inputs": [
        {
          "internalType": "bytes4",
          "name": "interfaceId",
          "type": "bytes4"
        }
      ],
      "name": "supportsInterface",
      "outputs": [
        {
          "internalType": "bool",
          "name": "",
          "type": "bool"
        }
      ],
      "stateMutability": "view",
      "type": "function",
      "constant": true
    },
    {
      "inputs": [],
      "name": "symbol",
      "outputs": [
        {
          "internalType": "string",
          "name": "",
          "type": "string"
        }
      ],
      "stateMutability": "view",
      "type": "function",
      "constant": true
    },
    {
      "inputs": [
        {
          "internalType": "uint256",
          "name": "tokenId",
          "type": "uint256"
        }
      ],
      "name": "tokenURI",
      "outputs": [
        {
          "internalType": "string",
          "name": "",
          "type": "string"
        }
      ],
      "stateMutability": "view",
      "type": "function",
      "constant": true
    },
    {
      "inputs": [
        {
          "internalType": "address",
          "name": "from",
          "type": "address"
        },
        {
          "internalType": "address",
          "name": "to",
          "type": "address"
        },
        {
          "internalType": "uint256",
          "name": "tokenId",
          "type": "uint256"
        }
      ],
      "name": "transferFrom",
      "outputs": [],
      "stateMutability": "nonpayable",
      "type": "function"
    },
    {
      "inputs": [
        {
          "internalType": "address",
          "name": "author",
          "type": "address"
        },
        {
          "internalType": "string",
          "name": "tokenURI",
          "type": "string"
        }
      ],
      "name": "createPostNFT",
      "outputs": [
        {
          "internalType": "uint256",
          "name": "",
          "type": "uint256"
        }
      ],
      "stateMutability": "nonpayable",
      "type": "function"
    }
  ],
  "bytecode": "0x60806040523480156200001157600080fd5b506040518060400160405280600c81526020017f426c6f6743726166744e544600000000000000000000000000000000000000008152506040518060400160405280600381526020017f4250540000000000000000000000000000000000000000000000000000000000815250816000908051906020019062000096929190620000b8565b508060019080519060200190620000af929190620000b8565b505050620001cc565b828054620000c69062000197565b90600052602060002090601f016020900481019282620000ea576000855562000136565b82601f106200010557805160ff191683800117855562000136565b8280016001018555821562000136579182015b828111156200013557825182559160200191906001019062000118565b5b50905062000145919062000149565b5090565b5b80821115620001645760008160009055506001016200014a565b5090565b7f4e487b7100000000000000000000000000000000000000000000000000000000600052602260045260246000fd5b60006002820490506001821680620001b057607f821691505b602082108103620001c657620001c562000168565b5b50919050565b61296480620001dc6000396000f3fe608060405234801561001057600080fd5b50600436106100ea5760003560e01c80636352211e1161008c578063a22cb46511610066578063a22cb4651461026f578063b88d4fde1461028b578063c87b56dd146102a7578063e985e9c5146102d7576100ea565b80636352211e146101f157806370a082311461022157806395d89b4114610251576100ea565b8063095ea7b3116100c8578063095ea7b31461016d57806323b872dd146101895780633501e32e146101a557806342842e0e146101d5576100ea565b806301ffc9a7146100ef57806306fdde031461011f578063081812fc1461013d575b600080fd5b61010960048036038101906101049190611ac8565b610307565b6040516101169190611b10565b60405180910390f35b610127610368565b6040516101349190611bc4565b60405180910390f35b61015760048036038101906101529190611c1c565b6103fa565b6040516101649190611c8a565b60405180910390f35b61018760048036038101906101829190611cd1565b610440565b005b6101a3600480360381019061019e9190611d11565b610557565b005b6101bf60048036038101906101ba9190611e99565b6105b7565b6040516101cc9190611f04565b60405180910390f35b6101ef60048036038101906101ea9190611d11565b61063e565b005b61020b60048036038101906102069190611c1c565b61065e565b6040516102189190611c8a565b60405180910390f35b61023b60048036038101906102369190611f1f565b6106e4565b6040516102489190611f04565b60405180910390f35b61025961079b565b6040516102669190611bc4565b60405180910390f35b61028960048036038101906102849190611f78565b61082d565b005b6102a560048036038101906102a09190612059565b610843565b005b6102c160048036038101906102bc9190611c1c565b6108a5565b6040516102ce9190611bc4565b60405180910390f35b6102f160048036038101906102ec91906120dc565b6109b7565b6040516102fe9190611b10565b60405180910390f35b6000634906490660e01b7bffffffffffffffffffffffffffffffffffffffffffffffffffffffff1916827bffffffffffffffffffffffffffffffffffffffffffffffffffffffff19161480610361575061036082610a4b565b5b9050919050565b6060600080546103779061214b565b80601f01602080910402602001604051908101604052809291908181526020018280546103a39061214b565b80156103f05780601f106103c5576101008083540402835291602001916103f0565b820191906000526020600020905b8154815290600101906020018083116103d357829003601f168201915b5050505050905090565b600061040582610b2d565b6004600083815260200190815260200160002060009054906101000a900473ffffffffffffffffffffffffffffffffffffffff169050919050565b600061044b8261065e565b90508073ffffffffffffffffffffffffffffffffffffffff168373ffffffffffffffffffffffffffffffffffffffff16036104bb576040517f08c379a00000000000000000000000000000000000000000000000000000000081526004016104b2906121ee565b60405180910390fd5b8073ffffffffffffffffffffffffffffffffffffffff166104da610b78565b73ffffffffffffffffffffffffffffffffffffffff161480610509575061050881610503610b78565b6109b7565b5b610548576040517f08c379a000000000000000000000000000000000000000000000000000000000815260040161053f90612280565b60405180910390fd5b6105528383610b80565b505050565b610568610562610b78565b82610c39565b6105a7576040517f08c379a000000000000000000000000000000000000000000000000000000000815260040161059e90612312565b60405180910390fd5b6105b2838383610cce565b505050565b60006105c36007610fc7565b60006105cf6007610fdd565b90506105db8482610feb565b6105e58184611208565b808473ffffffffffffffffffffffffffffffffffffffff167f897fe813740e6ba4ee552166a01c5d4f60f074ee0f88367f93a1e0fcdc9ca5278560405161062c9190611bc4565b60405180910390a38091505092915050565b61065983838360405180602001604052806000815250610843565b505050565b60008061066a836112b3565b9050600073ffffffffffffffffffffffffffffffffffffffff168173ffffffffffffffffffffffffffffffffffffffff16036106db576040517f08c379a00000000000000000000000000000000000000000000000000000000081526004016106d29061237e565b60405180910390fd5b80915050919050565b60008073ffffffffffffffffffffffffffffffffffffffff168273ffffffffffffffffffffffffffffffffffffffff1603610754576040517f08c379a000000000000000000000000000000000000000000000000000000000815260040161074b90612410565b60405180910390fd5b600360008373ffffffffffffffffffffffffffffffffffffffff1673ffffffffffffffffffffffffffffffffffffffff168152602001908152602001600020549050919050565b6060600180546107aa9061214b565b80601f01602080910402602001604051908101604052809291908181526020018280546107d69061214b565b80156108235780601f106107f857610100808354040283529160200191610823565b820191906000526020600020905b81548152906001019060200180831161080657829003601f168201915b5050505050905090565b61083f610838610b78565b83836112f0565b5050565b61085461084e610b78565b83610c39565b610893576040517f08c379a000000000000000000000000000000000000000000000000000000000815260040161088a90612312565b60405180910390fd5b61089f8484848461145c565b50505050565b60606108b082610b2d565b60006006600084815260200190815260200160002080546108d09061214b565b80601f01602080910402602001604051908101604052809291908181526020018280546108fc9061214b565b80156109495780601f1061091e57610100808354040283529160200191610949565b820191906000526020600020905b81548152906001019060200180831161092c57829003601f168201915b50505050509050600061095a6114b8565b9050600081510361096f5781925050506109b2565b6000825111156109a457808260405160200161098c92919061246c565b604051602081830303815290604052925050506109b2565b6109ad846114cf565b925050505b919050565b6000600560008473ffffffffffffffffffffffffffffffffffffffff1673ffffffffffffffffffffffffffffffffffffffff16815260200190815260200160002060008373ffffffffffffffffffffffffffffffffffffffff1673ffffffffffffffffffffffffffffffffffffffff16815260200190815260200160002060009054906101000a900460ff16905092915050565b60007f80ac58cd000000000000000000000000000000000000000000000000000000007bffffffffffffffffffffffffffffffffffffffffffffffffffffffff1916827bffffffffffffffffffffffffffffffffffffffffffffffffffffffff19161480610b1657507f5b5e139f000000000000000000000000000000000000000000000000000000007bffffffffffffffffffffffffffffffffffffffffffffffffffffffff1916827bffffffffffffffffffffffffffffffffffffffffffffffffffffffff1916145b80610b265750610b2582611537565b5b9050919050565b610b36816115a1565b610b75576040517f08c379a0000000000000000000000000000000000000000000000000000000008152600401610b6c9061237e565b60405180910390fd5b50565b600033905090565b816004600083815260200190815260200160002060006101000a81548173ffffffffffffffffffffffffffffffffffffffff021916908373ffffffffffffffffffffffffffffffffffffffff160217905550808273ffffffffffffffffffffffffffffffffffffffff16610bf38361065e565b73ffffffffffffffffffffffffffffffffffffffff167f8c5be1e5ebec7d5bd14f71427d1e84f3dd0314c0f7b2291e5b200ac8c7c3b92560405160405180910390a45050565b600080610c458361065e565b90508073ffffffffffffffffffffffffffffffffffffffff168473ffffffffffffffffffffffffffffffffffffffff161480610c875750610c8681856109b7565b5b80610cc557508373ffffffffffffffffffffffffffffffffffffffff16610cad846103fa565b73ffffffffffffffffffffffffffffffffffffffff16145b91505092915050565b8273ffffffffffffffffffffffffffffffffffffffff16610cee8261065e565b73ffffffffffffffffffffffffffffffffffffffff1614610d44576040517f08c379a0000000000000000000000000000000000000000000000000000000008152600401610d3b90612502565b60405180910390fd5b600073ffffffffffffffffffffffffffffffffffffffff168273ffffffffffffffffffffffffffffffffffffffff1603610db3576040517f08c379a0000000000000000000000000000000000000000000000000000000008152600401610daa90612594565b60405180910390fd5b610dc083838360016115e2565b8273ffffffffffffffffffffffffffffffffffffffff16610de08261065e565b73ffffffffffffffffffffffffffffffffffffffff1614610e36576040517f08c379a0000000000000000000000000000000000000000000000000000000008152600401610e2d90612502565b60405180910390fd5b6004600082815260200190815260200160002060006101000a81549073ffffffffffffffffffffffffffffffffffffffff02191690556001600360008573ffffffffffffffffffffffffffffffffffffffff1673ffffffffffffffffffffffffffffffffffffffff168152602001908152602001600020600082825403925050819055506001600360008473ffffffffffffffffffffffffffffffffffffffff1673ffffffffffffffffffffffffffffffffffffffff16815260200190815260200160002060008282540192505081905550816002600083815260200190815260200160002060006101000a81548173ffffffffffffffffffffffffffffffffffffffff021916908373ffffffffffffffffffffffffffffffffffffffff160217905550808273ffffffffffffffffffffffffffffffffffffffff168473ffffffffffffffffffffffffffffffffffffffff167fddf252ad1be2c89b69c2b068fc378daa952ba7f163c4a11628f55a4df523b3ef60405160405180910390a4610fc283838360016115e8565b505050565b6001816000016000828254019250508190555050565b600081600001549050919050565b600073ffffffffffffffffffffffffffffffffffffffff168273ffffffffffffffffffffffffffffffffffffffff160361105a576040517f08c379a000000000000000000000000000000000000000000000000000000000815260040161105190612600565b60405180910390fd5b611063816115a1565b156110a3576040517f08c379a000000000000000000000000000000000000000000000000000000000815260040161109a9061266c565b60405180910390fd5b6110b16000838360016115e2565b6110ba816115a1565b156110fa576040517f08c379a00000000000000000000000000000000000000000000000000000000081526004016110f19061266c565b60405180910390fd5b6001600360008473ffffffffffffffffffffffffffffffffffffffff1673ffffffffffffffffffffffffffffffffffffffff16815260200190815260200160002060008282540192505081905550816002600083815260200190815260200160002060006101000a81548173ffffffffffffffffffffffffffffffffffffffff021916908373ffffffffffffffffffffffffffffffffffffffff160217905550808273ffffffffffffffffffffffffffffffffffffffff16600073ffffffffffffffffffffffffffffffffffffffff167fddf252ad1be2c89b69c2b068fc378daa952ba7f163c4a11628f55a4df523b3ef60405160405180910390a46112046000838360016115e8565b5050565b611211826115a1565b611250576040517f08c379a0000000000000000000000000000000000000000000000000000000008152600401611247906126fe565b60405180910390fd5b806006600084815260200190815260200160002090805190602001906112779291906119b9565b507ff8e1a15aba9398e019f0b49df1a4fde98ee17ae345cb5f6b5e2c27f5033e8ce7826040516112a79190611f04565b60405180910390a15050565b60006002600083815260200190815260200160002060009054906101000a900473ffffffffffffffffffffffffffffffffffffffff169050919050565b8173ffffffffffffffffffffffffffffffffffffffff168373ffffffffffffffffffffffffffffffffffffffff160361135e576040517f08c379a00000000000000000000000000000000000000000000000000000000081526004016113559061276a565b60405180910390fd5b80600560008573ffffffffffffffffffffffffffffffffffffffff1673ffffffffffffffffffffffffffffffffffffffff16815260200190815260200160002060008473ffffffffffffffffffffffffffffffffffffffff1673ffffffffffffffffffffffffffffffffffffffff16815260200190815260200160002060006101000a81548160ff0219169083151502179055508173ffffffffffffffffffffffffffffffffffffffff168373ffffffffffffffffffffffffffffffffffffffff167f17307eab39ab6107e8899845ad3d59bd9653f200f220920489ca2b5937696c318360405161144f9190611b10565b60405180910390a3505050565b611467848484610cce565b611473848484846115ee565b6114b2576040517f08c379a00000000000000000000000000000000000000000000000000000000081526004016114a9906127fc565b60405180910390fd5b50505050565b606060405180602001604052806000815250905090565b60606114da82610b2d565b60006114e46114b8565b90506000815111611504576040518060200160405280600081525061152f565b8061150e84611775565b60405160200161151f92919061246c565b6040516020818303038152906040525b915050919050565b60007f01ffc9a7000000000000000000000000000000000000000000000000000000007bffffffffffffffffffffffffffffffffffffffffffffffffffffffff1916827bffffffffffffffffffffffffffffffffffffffffffffffffffffffff1916149050919050565b60008073ffffffffffffffffffffffffffffffffffffffff166115c3836112b3565b73ffffffffffffffffffffffffffffffffffffffff1614159050919050565b50505050565b50505050565b600061160f8473ffffffffffffffffffffffffffffffffffffffff16611843565b15611768578373ffffffffffffffffffffffffffffffffffffffff1663150b7a02611638610b78565b8786866040518563ffffffff1660e01b815260040161165a9493929190612871565b6020604051808303816000875af192505050801561169657506040513d601f19601f8201168201806040525081019061169391906128d2565b60015b611718573d80600081146116c6576040519150601f19603f3d011682016040523d82523d6000602084013e6116cb565b606091505b506000815103611710576040517f08c379a0000000000000000000000000000000000000000000000000000000008152600401611707906127fc565b60405180910390fd5b805181602001fd5b63150b7a0260e01b7bffffffffffffffffffffffffffffffffffffffffffffffffffffffff1916817bffffffffffffffffffffffffffffffffffffffffffffffffffffffff19161491505061176d565b600190505b949350505050565b60606000600161178484611866565b01905060008167ffffffffffffffff8111156117a3576117a2611d6e565b5b6040519080825280601f01601f1916602001820160405280156117d55781602001600182028036833780820191505090505b509050600082602001820190505b600115611838578080600190039150507f3031323334353637383961626364656600000000000000000000000000000000600a86061a8153600a858161182c5761182b6128ff565b5b049450600085036117e3575b819350505050919050565b6000808273ffffffffffffffffffffffffffffffffffffffff163b119050919050565b600080600090507a184f03e93ff9f4daa797ed6e38ed64bf6a1f01000000000000000083106118c4577a184f03e93ff9f4daa797ed6e38ed64bf6a1f01000000000000000083816118ba576118b96128ff565b5b0492506040810190505b6d04ee2d6d415b85acef81000000008310611901576d04ee2d6d415b85acef810000000083816118f7576118f66128ff565b5b0492506020810190505b662386f26fc10000831061193057662386f26fc100008381611926576119256128ff565b5b0492506010810190505b6305f5e1008310611959576305f5e100838161194f5761194e6128ff565b5b0492506008810190505b612710831061197e576127108381611974576119736128ff565b5b0492506004810190505b606483106119a15760648381611997576119966128ff565b5b0492506002810190505b600a83106119b0576001810190505b80915050919050565b8280546119c59061214b565b90600052602060002090601f0160209004810192826119e75760008555611a2e565b82601f10611a0057805160ff1916838001178555611a2e565b82800160010185558215611a2e579182015b82811115611a2d578251825591602001919060010190611a12565b5b509050611a3b9190611a3f565b5090565b5b80821115611a58576000816000905550600101611a40565b5090565b6000604051905090565b600080fd5b600080fd5b60007fffffffff0000000000000000000000000000000000000000000000000000000082169050919050565b611aa581611a70565b8114611ab057600080fd5b50565b600081359050611ac281611a9c565b92915050565b600060208284031215611ade57611add611a66565b5b6000611aec84828501611ab3565b91505092915050565b60008115159050919050565b611b0a81611af5565b82525050565b6000602082019050611b256000830184611b01565b92915050565b600081519050919050565b600082825260208201905092915050565b60005b83811015611b65578082015181840152602081019050611b4a565b83811115611b74576000848401525b50505050565b6000601f19601f8301169050919050565b6000611b9682611b2b565b611ba08185611b36565b9350611bb0818560208601611b47565b611bb981611b7a565b840191505092915050565b60006020820190508181036000830152611bde8184611b8b565b905092915050565b6000819050919050565b611bf981611be6565b8114611c0457600080fd5b50565b600081359050611c1681611bf0565b92915050565b600060208284031215611c3257611c31611a66565b5b6000611c4084828501611c07565b91505092915050565b600073ffffffffffffffffffffffffffffffffffffffff82169050919050565b6000611c7482611c49565b9050919050565b611c8481611c69565b82525050565b6000602082019050611c9f6000830184611c7b565b92915050565b611cae81611c69565b8114611cb957600080fd5b50565b600081359050611ccb81611ca5565b92915050565b60008060408385031215611ce857611ce7611a66565b5b6000611cf685828601611cbc565b9250506020611d0785828601611c07565b9150509250929050565b600080600060608486031215611d2a57611d29611a66565b5b6000611d3886828701611cbc565b9350506020611d4986828701611cbc565b9250506040611d5a86828701611c07565b9150509250925092565b600080fd5b600080fd5b7f4e487b7100000000000000000000000000000000000000000000000000000000600052604160045260246000fd5b611da682611b7a565b810181811067ffffffffffffffff82111715611dc557611dc4611d6e565b5b80604052505050565b6000611dd8611a5c565b9050611de48282611d9d565b919050565b600067ffffffffffffffff821115611e0457611e03611d6e565b5b611e0d82611b7a565b9050602081019050919050565b82818337600083830152505050565b6000611e3c611e3784611de9565b611dce565b905082815260208101848484011115611e5857611e57611d69565b5b611e63848285611e1a565b509392505050565b600082601f830112611e8057611e7f611d64565b5b8135611e90848260208601611e29565b91505092915050565b60008060408385031215611eb057611eaf611a66565b5b6000611ebe85828601611cbc565b925050602083013567ffffffffffffffff811115611edf57611ede611a6b565b5b611eeb85828601611e6b565b9150509250929050565b611efe81611be6565b82525050565b6000602082019050611f196000830184611ef5565b92915050565b600060208284031215611f3557611f34611a66565b5b6000611f4384828501611cbc565b91505092915050565b611f5581611af5565b8114611f6057600080fd5b50565b600081359050611f7281611f4c565b92915050565b60008060408385031215611f8f57611f8e611a66565b5b6000611f9d85828601611cbc565b9250506020611fae85828601611f63565b9150509250929050565b600067ffffffffffffffff821115611fd357611fd2611d6e565b5b611fdc82611b7a565b9050602081019050919050565b6000611ffc611ff784611fb8565b611dce565b90508281526020810184848401111561201857612017611d69565b5b612023848285611e1a565b509392505050565b600082601f8301126120405761203f611d64565b5b8135612050848260208601611fe9565b91505092915050565b6000806000806080858703121561207357612072611a66565b5b600061208187828801611cbc565b945050602061209287828801611cbc565b93505060406120a387828801611c07565b925050606085013567ffffffffffffffff8111156120c4576120c3611a6b565b5b6120d08782880161202b565b91505092959194509250565b600080604083850312156120f3576120f2611a66565b5b600061210185828601611cbc565b925050602061211285828601611cbc565b9150509250929050565b7f4e487b7100000000000000000000000000000000000000000000000000000000600052602260045260246000fd5b6000600282049050600182168061216357607f821691505b6020821081036121765761217561211c565b5b50919050565b7f4552433732313a20617070726f76616c20746f2063757272656e74206f776e6560008201527f7200000000000000000000000000000000000000000000000000000000000000602082015250565b60006121d8602183611b36565b91506121e38261217c565b604082019050919050565b60006020820190508181036000830152612207816121cb565b9050919050565b7f4552433732313a20617070726f76652063616c6c6572206973206e6f7420746f60008201527f6b656e206f776e6572206f7220617070726f76656420666f7220616c6c000000602082015250565b600061226a603d83611b36565b91506122758261220e565b604082019050919050565b600060208201905081810360008301526122998161225d565b9050919050565b7f4552433732313a2063616c6c6572206973206e6f7420746f6b656e206f776e6560008201527f72206f7220617070726f76656400000000000000000000000000000000000000602082015250565b60006122fc602d83611b36565b9150612307826122a0565b604082019050919050565b6000602082019050818103600083015261232b816122ef565b9050919050565b7f4552433732313a20696e76616c696420746f6b656e2049440000000000000000600082015250565b6000612368601883611b36565b915061237382612332565b602082019050919050565b600060208201905081810360008301526123978161235b565b9050919050565b7f4552433732313a2061646472657373207a65726f206973206e6f74206120766160008201527f6c6964206f776e65720000000000000000000000000000000000000000000000602082015250565b60006123fa602983611b36565b91506124058261239e565b604082019050919050565b60006020820190508181036000830152612429816123ed565b9050919050565b600081905092915050565b600061244682611b2b565b6124508185612430565b9350612460818560208601611b47565b80840191505092915050565b6000612478828561243b565b9150612484828461243b565b91508190509392505050565b7f4552433732313a207472616e736665722066726f6d20696e636f72726563742060008201527f6f776e6572000000000000000000000000000000000000000000000000000000602082015250565b60006124ec602583611b36565b91506124f782612490565b604082019050919050565b6000602082019050818103600083015261251b816124df565b9050919050565b7f4552433732313a207472616e7366657220746f20746865207a65726f2061646460008201527f7265737300000000000000000000000000000000000000000000000000000000602082015250565b600061257e602483611b36565b915061258982612522565b604082019050919050565b600060208201905081810360008301526125ad81612571565b9050919050565b7f4552433732313a206d696e7420746f20746865207a65726f2061646472657373600082015250565b60006125ea602083611b36565b91506125f5826125b4565b602082019050919050565b60006020820190508181036000830152612619816125dd565b9050919050565b7f4552433732313a20746f6b656e20616c7265616479206d696e74656400000000600082015250565b6000612656601c83611b36565b915061266182612620565b602082019050919050565b6000602082019050818103600083015261268581612649565b9050919050565b7f45524337323155524953746f726167653a2055524920736574206f66206e6f6e60008201527f6578697374656e7420746f6b656e000000000000000000000000000000000000602082015250565b60006126e8602e83611b36565b91506126f38261268c565b604082019050919050565b60006020820190508181036000830152612717816126db565b9050919050565b7f4552433732313a20617070726f766520746f2063616c6c657200000000000000600082015250565b6000612754601983611b36565b915061275f8261271e565b602082019050919050565b6000602082019050818103600083015261278381612747565b9050919050565b7f4552433732313a207472616e7366657220746f206e6f6e20455243373231526560008201527f63656976657220696d706c656d656e7465720000000000000000000000000000602082015250565b60006127e6603283611b36565b91506127f18261278a565b604082019050919050565b60006020820190508181036000830152612815816127d9565b9050919050565b600081519050919050565b600082825260208201905092915050565b60006128438261281c565b61284d8185612827565b935061285d818560208601611b47565b61286681611b7a565b840191505092915050565b60006080820190506128866000830187611c7b565b6128936020830186611c7b565b6128a06040830185611ef5565b81810360608301526128b28184612838565b905095945050505050565b6000815190506128cc81611a9c565b92915050565b6000602082840312156128e8576128e7611a66565b5b60006128f6848285016128bd565b91505092915050565b7f4e487b7100000000000000000000000000000000000000000000000000000000600052601260045260246000fdfea264697066735822122099886b75cda0f6984a95e142677272db6ded6032a8e916cde57f1a35e3a1f3d464736f6c634300080d0033",
  "immutableReferences": {},
  "source": "// SPDX-License-Identifier: MIT\npragma solidity ^0.8.13;\n\nimport \"@openzeppelin/contracts/token/ERC721/extensions/ERC721URIStorage.sol\";\nimport \"@openzeppelin/contracts/utils/Counters.sol\";\n\ncontract BlogCraftNFT is ERC721URIStorage {\n    using Counters for Counters.Counter;\n    Counters.Counter private _tokenIds;\n\n    event postnftcreated(address indexed author, uint256 indexed tokenId, string tokenURI);\n\n    constructor() ERC721(\"BlogCraftNTF\", \"BPT\") {}\n\n    function createPostNFT(address author, string memory tokenURI) external returns (uint256) {\n        _tokenIds.increment();\n\n        uint256 newItemId = _tokenIds.current();\n\n        _mint(author, newItemId);\n        _setTokenURI(newItemId, tokenURI);\n        emit postnftcreated(author, newItemId, tokenURI);\n        return newItemId;\n    }\n}\n\n",
  "sourcePath": "/Users/sangmokhan/Documents/CSE426Project/project-contract/contracts/BlogCraftNFT.sol",
  "compiler": {
    "name": "solc",
    "version": "0.8.13+commit.abaa5c0e.Emscripten.clang"
  },
  "schemaVersion": "3.4.16",
  "updatedAt": "2023-11-19T08:34:08.069Z",
  "networkType": "ethereum",
  "devdoc": {
    "kind": "dev",
    "methods": {
      "approve(address,uint256)": {
        "details": "See {IERC721-approve}."
      },
      "balanceOf(address)": {
        "details": "See {IERC721-balanceOf}."
      },
      "getApproved(uint256)": {
        "details": "See {IERC721-getApproved}."
      },
      "isApprovedForAll(address,address)": {
        "details": "See {IERC721-isApprovedForAll}."
      },
      "name()": {
        "details": "See {IERC721Metadata-name}."
      },
      "ownerOf(uint256)": {
        "details": "See {IERC721-ownerOf}."
      },
      "safeTransferFrom(address,address,uint256)": {
        "details": "See {IERC721-safeTransferFrom}."
      },
      "safeTransferFrom(address,address,uint256,bytes)": {
        "details": "See {IERC721-safeTransferFrom}."
      },
      "setApprovalForAll(address,bool)": {
        "details": "See {IERC721-setApprovalForAll}."
      },
      "supportsInterface(bytes4)": {
        "details": "See {IERC165-supportsInterface}"
      },
      "symbol()": {
        "details": "See {IERC721Metadata-symbol}."
      },
      "tokenURI(uint256)": {
        "details": "See {IERC721Metadata-tokenURI}."
      },
      "transferFrom(address,address,uint256)": {
        "details": "See {IERC721-transferFrom}."
      }
    },
    "version": 1
  },
  "userdoc": {
    "kind": "user",
    "methods": {},
    "version": 1
  }
}