{
  "contractName": "BlogCraftNFT",
  "abi": [
    {
      "inputs": [],
      "stateMutability": "nonpayable",
      "type": "constructor"
    },
    {
      "anonymous": false,
      "inputs": [
        {
          "indexed": true,
          "internalType": "address",
          "name": "owner",
          "type": "address"
        },
        {
          "indexed": true,
          "internalType": "address",
          "name": "approved",
          "type": "address"
        },
        {
          "indexed": true,
          "internalType": "uint256",
          "name": "tokenId",
          "type": "uint256"
        }
      ],
      "name": "Approval",
      "type": "event"
    },
    {
      "anonymous": false,
      "inputs": [
        {
          "indexed": true,
          "internalType": "address",
          "name": "owner",
          "type": "address"
        },
        {
          "indexed": true,
          "internalType": "address",
          "name": "operator",
          "type": "address"
        },
        {
          "indexed": false,
          "internalType": "bool",
          "name": "approved",
          "type": "bool"
        }
      ],
      "name": "ApprovalForAll",
      "type": "event"
    },
    {
      "anonymous": false,
      "inputs": [
        {
          "indexed": false,
          "internalType": "uint256",
          "name": "_fromTokenId",
          "type": "uint256"
        },
        {
          "indexed": false,
          "internalType": "uint256",
          "name": "_toTokenId",
          "type": "uint256"
        }
      ],
      "name": "BatchMetadataUpdate",
      "type": "event"
    },
    {
      "anonymous": false,
      "inputs": [
        {
          "indexed": false,
          "internalType": "uint256",
          "name": "_tokenId",
          "type": "uint256"
        }
      ],
      "name": "MetadataUpdate",
      "type": "event"
    },
    {
      "anonymous": false,
      "inputs": [
        {
          "indexed": true,
          "internalType": "address",
          "name": "from",
          "type": "address"
        },
        {
          "indexed": true,
          "internalType": "address",
          "name": "to",
          "type": "address"
        },
        {
          "indexed": true,
          "internalType": "uint256",
          "name": "tokenId",
          "type": "uint256"
        }
      ],
      "name": "Transfer",
      "type": "event"
    },
    {
      "inputs": [
        {
          "internalType": "address",
          "name": "to",
          "type": "address"
        },
        {
          "internalType": "uint256",
          "name": "tokenId",
          "type": "uint256"
        }
      ],
      "name": "approve",
      "outputs": [],
      "stateMutability": "nonpayable",
      "type": "function"
    },
    {
      "inputs": [
        {
          "internalType": "address",
          "name": "owner",
          "type": "address"
        }
      ],
      "name": "balanceOf",
      "outputs": [
        {
          "internalType": "uint256",
          "name": "",
          "type": "uint256"
        }
      ],
      "stateMutability": "view",
      "type": "function",
      "constant": true
    },
    {
      "inputs": [
        {
          "internalType": "uint256",
          "name": "tokenId",
          "type": "uint256"
        }
      ],
      "name": "getApproved",
      "outputs": [
        {
          "internalType": "address",
          "name": "",
          "type": "address"
        }
      ],
      "stateMutability": "view",
      "type": "function",
      "constant": true
    },
    {
      "inputs": [
        {
          "internalType": "address",
          "name": "owner",
          "type": "address"
        },
        {
          "internalType": "address",
          "name": "operator",
          "type": "address"
        }
      ],
      "name": "isApprovedForAll",
      "outputs": [
        {
          "internalType": "bool",
          "name": "",
          "type": "bool"
        }
      ],
      "stateMutability": "view",
      "type": "function",
      "constant": true
    },
    {
      "inputs": [],
      "name": "name",
      "outputs": [
        {
          "internalType": "string",
          "name": "",
          "type": "string"
        }
      ],
      "stateMutability": "view",
      "type": "function",
      "constant": true
    },
    {
      "inputs": [
        {
          "internalType": "uint256",
          "name": "tokenId",
          "type": "uint256"
        }
      ],
      "name": "ownerOf",
      "outputs": [
        {
          "internalType": "address",
          "name": "",
          "type": "address"
        }
      ],
      "stateMutability": "view",
      "type": "function",
      "constant": true
    },
    {
      "inputs": [
        {
          "internalType": "address",
          "name": "from",
          "type": "address"
        },
        {
          "internalType": "address",
          "name": "to",
          "type": "address"
        },
        {
          "internalType": "uint256",
          "name": "tokenId",
          "type": "uint256"
        }
      ],
      "name": "safeTransferFrom",
      "outputs": [],
      "stateMutability": "nonpayable",
      "type": "function"
    },
    {
      "inputs": [
        {
          "internalType": "address",
          "name": "from",
          "type": "address"
        },
        {
          "internalType": "address",
          "name": "to",
          "type": "address"
        },
        {
          "internalType": "uint256",
          "name": "tokenId",
          "type": "uint256"
        },
        {
          "internalType": "bytes",
          "name": "data",
          "type": "bytes"
        }
      ],
      "name": "safeTransferFrom",
      "outputs": [],
      "stateMutability": "nonpayable",
      "type": "function"
    },
    {
      "inputs": [
        {
          "internalType": "address",
          "name": "operator",
          "type": "address"
        },
        {
          "internalType": "bool",
          "name": "approved",
          "type": "bool"
        }
      ],
      "name": "setApprovalForAll",
      "outputs": [],
      "stateMutability": "nonpayable",
      "type": "function"
    },
    {
      "inputs": [
        {
          "internalType": "bytes4",
          "name": "interfaceId",
          "type": "bytes4"
        }
      ],
      "name": "supportsInterface",
      "outputs": [
        {
          "internalType": "bool",
          "name": "",
          "type": "bool"
        }
      ],
      "stateMutability": "view",
      "type": "function",
      "constant": true
    },
    {
      "inputs": [],
      "name": "symbol",
      "outputs": [
        {
          "internalType": "string",
          "name": "",
          "type": "string"
        }
      ],
      "stateMutability": "view",
      "type": "function",
      "constant": true
    },
    {
      "inputs": [
        {
          "internalType": "uint256",
          "name": "tokenId",
          "type": "uint256"
        }
      ],
      "name": "tokenURI",
      "outputs": [
        {
          "internalType": "string",
          "name": "",
          "type": "string"
        }
      ],
      "stateMutability": "view",
      "type": "function",
      "constant": true
    },
    {
      "inputs": [
        {
          "internalType": "address",
          "name": "from",
          "type": "address"
        },
        {
          "internalType": "address",
          "name": "to",
          "type": "address"
        },
        {
          "internalType": "uint256",
          "name": "tokenId",
          "type": "uint256"
        }
      ],
      "name": "transferFrom",
      "outputs": [],
      "stateMutability": "nonpayable",
      "type": "function"
    },
    {
      "inputs": [
        {
          "internalType": "address",
          "name": "author",
          "type": "address"
        },
        {
          "internalType": "string",
          "name": "tokenURI",
          "type": "string"
        }
      ],
      "name": "createPostNFT",
      "outputs": [
        {
          "internalType": "uint256",
          "name": "",
          "type": "uint256"
        }
      ],
      "stateMutability": "nonpayable",
      "type": "function"
    },
    {
      "inputs": [
        {
          "internalType": "string",
          "name": "uri",
          "type": "string"
        }
      ],
      "name": "getTokenIdFromURI",
      "outputs": [
        {
          "internalType": "uint256",
          "name": "",
          "type": "uint256"
        }
      ],
      "stateMutability": "view",
      "type": "function",
      "constant": true
    }
  ],
  "bytecode": "0x60806040523480156200001157600080fd5b506040518060400160405280600c81526020017f426c6f6743726166744e544600000000000000000000000000000000000000008152506040518060400160405280600381526020017f4250540000000000000000000000000000000000000000000000000000000000815250816000908051906020019062000096929190620000b8565b508060019080519060200190620000af929190620000b8565b505050620001cc565b828054620000c69062000197565b90600052602060002090601f016020900481019282620000ea576000855562000136565b82601f106200010557805160ff191683800117855562000136565b8280016001018555821562000136579182015b828111156200013557825182559160200191906001019062000118565b5b50905062000145919062000149565b5090565b5b80821115620001645760008160009055506001016200014a565b5090565b7f4e487b7100000000000000000000000000000000000000000000000000000000600052602260045260246000fd5b60006002820490506001821680620001b057607f821691505b602082108103620001c657620001c562000168565b5b50919050565b6129fb80620001dc6000396000f3fe608060405234801561001057600080fd5b50600436106100f55760003560e01c806342842e0e11610097578063a22cb46511610066578063a22cb465146102aa578063b88d4fde146102c6578063c87b56dd146102e2578063e985e9c514610312576100f5565b806342842e0e146102105780636352211e1461022c57806370a082311461025c57806395d89b411461028c576100f5565b8063095ea7b3116100d3578063095ea7b31461017857806323b872dd146101945780633501e32e146101b05780633576dc9b146101e0576100f5565b806301ffc9a7146100fa57806306fdde031461012a578063081812fc14610148575b600080fd5b610114600480360381019061010f9190611aff565b610342565b6040516101219190611b47565b60405180910390f35b6101326103a3565b60405161013f9190611bfb565b60405180910390f35b610162600480360381019061015d9190611c53565b610435565b60405161016f9190611cc1565b60405180910390f35b610192600480360381019061018d9190611d08565b61047b565b005b6101ae60048036038101906101a99190611d48565b610592565b005b6101ca60048036038101906101c59190611ed0565b6105f2565b6040516101d79190611f3b565b60405180910390f35b6101fa60048036038101906101f59190611f56565b61064d565b6040516102079190611f3b565b60405180910390f35b61022a60048036038101906102259190611d48565b610675565b005b61024660048036038101906102419190611c53565b610695565b6040516102539190611cc1565b60405180910390f35b61027660048036038101906102719190611f9f565b61071b565b6040516102839190611f3b565b60405180910390f35b6102946107d2565b6040516102a19190611bfb565b60405180910390f35b6102c460048036038101906102bf9190611ff8565b610864565b005b6102e060048036038101906102db91906120d9565b61087a565b005b6102fc60048036038101906102f79190611c53565b6108dc565b6040516103099190611bfb565b60405180910390f35b61032c6004803603810190610327919061215c565b6109ee565b6040516103399190611b47565b60405180910390f35b6000634906490660e01b7bffffffffffffffffffffffffffffffffffffffffffffffffffffffff1916827bffffffffffffffffffffffffffffffffffffffffffffffffffffffff1916148061039c575061039b82610a82565b5b9050919050565b6060600080546103b2906121cb565b80601f01602080910402602001604051908101604052809291908181526020018280546103de906121cb565b801561042b5780601f106104005761010080835404028352916020019161042b565b820191906000526020600020905b81548152906001019060200180831161040e57829003601f168201915b5050505050905090565b600061044082610b64565b6004600083815260200190815260200160002060009054906101000a900473ffffffffffffffffffffffffffffffffffffffff169050919050565b600061048682610695565b90508073ffffffffffffffffffffffffffffffffffffffff168373ffffffffffffffffffffffffffffffffffffffff16036104f6576040517f08c379a00000000000000000000000000000000000000000000000000000000081526004016104ed9061226e565b60405180910390fd5b8073ffffffffffffffffffffffffffffffffffffffff16610515610baf565b73ffffffffffffffffffffffffffffffffffffffff16148061054457506105438161053e610baf565b6109ee565b5b610583576040517f08c379a000000000000000000000000000000000000000000000000000000000815260040161057a90612300565b60405180910390fd5b61058d8383610bb7565b505050565b6105a361059d610baf565b82610c70565b6105e2576040517f08c379a00000000000000000000000000000000000000000000000000000000081526004016105d990612392565b60405180910390fd5b6105ed838383610d05565b505050565b60006105fe6007610ffe565b600061060a6007611014565b90506106168482611022565b610620818461123f565b8060088460405161063191906123ee565b9081526020016040518091039020819055508091505092915050565b600060088260405161065f91906123ee565b9081526020016040518091039020549050919050565b6106908383836040518060200160405280600081525061087a565b505050565b6000806106a1836112ea565b9050600073ffffffffffffffffffffffffffffffffffffffff168173ffffffffffffffffffffffffffffffffffffffff1603610712576040517f08c379a000000000000000000000000000000000000000000000000000000000815260040161070990612451565b60405180910390fd5b80915050919050565b60008073ffffffffffffffffffffffffffffffffffffffff168273ffffffffffffffffffffffffffffffffffffffff160361078b576040517f08c379a0000000000000000000000000000000000000000000000000000000008152600401610782906124e3565b60405180910390fd5b600360008373ffffffffffffffffffffffffffffffffffffffff1673ffffffffffffffffffffffffffffffffffffffff168152602001908152602001600020549050919050565b6060600180546107e1906121cb565b80601f016020809104026020016040519081016040528092919081815260200182805461080d906121cb565b801561085a5780601f1061082f5761010080835404028352916020019161085a565b820191906000526020600020905b81548152906001019060200180831161083d57829003601f168201915b5050505050905090565b61087661086f610baf565b8383611327565b5050565b61088b610885610baf565b83610c70565b6108ca576040517f08c379a00000000000000000000000000000000000000000000000000000000081526004016108c190612392565b60405180910390fd5b6108d684848484611493565b50505050565b60606108e782610b64565b6000600660008481526020019081526020016000208054610907906121cb565b80601f0160208091040260200160405190810160405280929190818152602001828054610933906121cb565b80156109805780601f1061095557610100808354040283529160200191610980565b820191906000526020600020905b81548152906001019060200180831161096357829003601f168201915b5050505050905060006109916114ef565b905060008151036109a65781925050506109e9565b6000825111156109db5780826040516020016109c3929190612503565b604051602081830303815290604052925050506109e9565b6109e484611506565b925050505b919050565b6000600560008473ffffffffffffffffffffffffffffffffffffffff1673ffffffffffffffffffffffffffffffffffffffff16815260200190815260200160002060008373ffffffffffffffffffffffffffffffffffffffff1673ffffffffffffffffffffffffffffffffffffffff16815260200190815260200160002060009054906101000a900460ff16905092915050565b60007f80ac58cd000000000000000000000000000000000000000000000000000000007bffffffffffffffffffffffffffffffffffffffffffffffffffffffff1916827bffffffffffffffffffffffffffffffffffffffffffffffffffffffff19161480610b4d57507f5b5e139f000000000000000000000000000000000000000000000000000000007bffffffffffffffffffffffffffffffffffffffffffffffffffffffff1916827bffffffffffffffffffffffffffffffffffffffffffffffffffffffff1916145b80610b5d5750610b5c8261156e565b5b9050919050565b610b6d816115d8565b610bac576040517f08c379a0000000000000000000000000000000000000000000000000000000008152600401610ba390612451565b60405180910390fd5b50565b600033905090565b816004600083815260200190815260200160002060006101000a81548173ffffffffffffffffffffffffffffffffffffffff021916908373ffffffffffffffffffffffffffffffffffffffff160217905550808273ffffffffffffffffffffffffffffffffffffffff16610c2a83610695565b73ffffffffffffffffffffffffffffffffffffffff167f8c5be1e5ebec7d5bd14f71427d1e84f3dd0314c0f7b2291e5b200ac8c7c3b92560405160405180910390a45050565b600080610c7c83610695565b90508073ffffffffffffffffffffffffffffffffffffffff168473ffffffffffffffffffffffffffffffffffffffff161480610cbe5750610cbd81856109ee565b5b80610cfc57508373ffffffffffffffffffffffffffffffffffffffff16610ce484610435565b73ffffffffffffffffffffffffffffffffffffffff16145b91505092915050565b8273ffffffffffffffffffffffffffffffffffffffff16610d2582610695565b73ffffffffffffffffffffffffffffffffffffffff1614610d7b576040517f08c379a0000000000000000000000000000000000000000000000000000000008152600401610d7290612599565b60405180910390fd5b600073ffffffffffffffffffffffffffffffffffffffff168273ffffffffffffffffffffffffffffffffffffffff1603610dea576040517f08c379a0000000000000000000000000000000000000000000000000000000008152600401610de19061262b565b60405180910390fd5b610df78383836001611619565b8273ffffffffffffffffffffffffffffffffffffffff16610e1782610695565b73ffffffffffffffffffffffffffffffffffffffff1614610e6d576040517f08c379a0000000000000000000000000000000000000000000000000000000008152600401610e6490612599565b60405180910390fd5b6004600082815260200190815260200160002060006101000a81549073ffffffffffffffffffffffffffffffffffffffff02191690556001600360008573ffffffffffffffffffffffffffffffffffffffff1673ffffffffffffffffffffffffffffffffffffffff168152602001908152602001600020600082825403925050819055506001600360008473ffffffffffffffffffffffffffffffffffffffff1673ffffffffffffffffffffffffffffffffffffffff16815260200190815260200160002060008282540192505081905550816002600083815260200190815260200160002060006101000a81548173ffffffffffffffffffffffffffffffffffffffff021916908373ffffffffffffffffffffffffffffffffffffffff160217905550808273ffffffffffffffffffffffffffffffffffffffff168473ffffffffffffffffffffffffffffffffffffffff167fddf252ad1be2c89b69c2b068fc378daa952ba7f163c4a11628f55a4df523b3ef60405160405180910390a4610ff9838383600161161f565b505050565b6001816000016000828254019250508190555050565b600081600001549050919050565b600073ffffffffffffffffffffffffffffffffffffffff168273ffffffffffffffffffffffffffffffffffffffff1603611091576040517f08c379a000000000000000000000000000000000000000000000000000000000815260040161108890612697565b60405180910390fd5b61109a816115d8565b156110da576040517f08c379a00000000000000000000000000000000000000000000000000000000081526004016110d190612703565b60405180910390fd5b6110e8600083836001611619565b6110f1816115d8565b15611131576040517f08c379a000000000000000000000000000000000000000000000000000000000815260040161112890612703565b60405180910390fd5b6001600360008473ffffffffffffffffffffffffffffffffffffffff1673ffffffffffffffffffffffffffffffffffffffff16815260200190815260200160002060008282540192505081905550816002600083815260200190815260200160002060006101000a81548173ffffffffffffffffffffffffffffffffffffffff021916908373ffffffffffffffffffffffffffffffffffffffff160217905550808273ffffffffffffffffffffffffffffffffffffffff16600073ffffffffffffffffffffffffffffffffffffffff167fddf252ad1be2c89b69c2b068fc378daa952ba7f163c4a11628f55a4df523b3ef60405160405180910390a461123b60008383600161161f565b5050565b611248826115d8565b611287576040517f08c379a000000000000000000000000000000000000000000000000000000000815260040161127e90612795565b60405180910390fd5b806006600084815260200190815260200160002090805190602001906112ae9291906119f0565b507ff8e1a15aba9398e019f0b49df1a4fde98ee17ae345cb5f6b5e2c27f5033e8ce7826040516112de9190611f3b565b60405180910390a15050565b60006002600083815260200190815260200160002060009054906101000a900473ffffffffffffffffffffffffffffffffffffffff169050919050565b8173ffffffffffffffffffffffffffffffffffffffff168373ffffffffffffffffffffffffffffffffffffffff1603611395576040517f08c379a000000000000000000000000000000000000000000000000000000000815260040161138c90612801565b60405180910390fd5b80600560008573ffffffffffffffffffffffffffffffffffffffff1673ffffffffffffffffffffffffffffffffffffffff16815260200190815260200160002060008473ffffffffffffffffffffffffffffffffffffffff1673ffffffffffffffffffffffffffffffffffffffff16815260200190815260200160002060006101000a81548160ff0219169083151502179055508173ffffffffffffffffffffffffffffffffffffffff168373ffffffffffffffffffffffffffffffffffffffff167f17307eab39ab6107e8899845ad3d59bd9653f200f220920489ca2b5937696c31836040516114869190611b47565b60405180910390a3505050565b61149e848484610d05565b6114aa84848484611625565b6114e9576040517f08c379a00000000000000000000000000000000000000000000000000000000081526004016114e090612893565b60405180910390fd5b50505050565b606060405180602001604052806000815250905090565b606061151182610b64565b600061151b6114ef565b9050600081511161153b5760405180602001604052806000815250611566565b80611545846117ac565b604051602001611556929190612503565b6040516020818303038152906040525b915050919050565b60007f01ffc9a7000000000000000000000000000000000000000000000000000000007bffffffffffffffffffffffffffffffffffffffffffffffffffffffff1916827bffffffffffffffffffffffffffffffffffffffffffffffffffffffff1916149050919050565b60008073ffffffffffffffffffffffffffffffffffffffff166115fa836112ea565b73ffffffffffffffffffffffffffffffffffffffff1614159050919050565b50505050565b50505050565b60006116468473ffffffffffffffffffffffffffffffffffffffff1661187a565b1561179f578373ffffffffffffffffffffffffffffffffffffffff1663150b7a0261166f610baf565b8786866040518563ffffffff1660e01b81526004016116919493929190612908565b6020604051808303816000875af19250505080156116cd57506040513d601f19601f820116820180604052508101906116ca9190612969565b60015b61174f573d80600081146116fd576040519150601f19603f3d011682016040523d82523d6000602084013e611702565b606091505b506000815103611747576040517f08c379a000000000000000000000000000000000000000000000000000000000815260040161173e90612893565b60405180910390fd5b805181602001fd5b63150b7a0260e01b7bffffffffffffffffffffffffffffffffffffffffffffffffffffffff1916817bffffffffffffffffffffffffffffffffffffffffffffffffffffffff1916149150506117a4565b600190505b949350505050565b6060600060016117bb8461189d565b01905060008167ffffffffffffffff8111156117da576117d9611da5565b5b6040519080825280601f01601f19166020018201604052801561180c5781602001600182028036833780820191505090505b509050600082602001820190505b60011561186f578080600190039150507f3031323334353637383961626364656600000000000000000000000000000000600a86061a8153600a858161186357611862612996565b5b0494506000850361181a575b819350505050919050565b6000808273ffffffffffffffffffffffffffffffffffffffff163b119050919050565b600080600090507a184f03e93ff9f4daa797ed6e38ed64bf6a1f01000000000000000083106118fb577a184f03e93ff9f4daa797ed6e38ed64bf6a1f01000000000000000083816118f1576118f0612996565b5b0492506040810190505b6d04ee2d6d415b85acef81000000008310611938576d04ee2d6d415b85acef8100000000838161192e5761192d612996565b5b0492506020810190505b662386f26fc10000831061196757662386f26fc10000838161195d5761195c612996565b5b0492506010810190505b6305f5e1008310611990576305f5e100838161198657611985612996565b5b0492506008810190505b61271083106119b55761271083816119ab576119aa612996565b5b0492506004810190505b606483106119d857606483816119ce576119cd612996565b5b0492506002810190505b600a83106119e7576001810190505b80915050919050565b8280546119fc906121cb565b90600052602060002090601f016020900481019282611a1e5760008555611a65565b82601f10611a3757805160ff1916838001178555611a65565b82800160010185558215611a65579182015b82811115611a64578251825591602001919060010190611a49565b5b509050611a729190611a76565b5090565b5b80821115611a8f576000816000905550600101611a77565b5090565b6000604051905090565b600080fd5b600080fd5b60007fffffffff0000000000000000000000000000000000000000000000000000000082169050919050565b611adc81611aa7565b8114611ae757600080fd5b50565b600081359050611af981611ad3565b92915050565b600060208284031215611b1557611b14611a9d565b5b6000611b2384828501611aea565b91505092915050565b60008115159050919050565b611b4181611b2c565b82525050565b6000602082019050611b5c6000830184611b38565b92915050565b600081519050919050565b600082825260208201905092915050565b60005b83811015611b9c578082015181840152602081019050611b81565b83811115611bab576000848401525b50505050565b6000601f19601f8301169050919050565b6000611bcd82611b62565b611bd78185611b6d565b9350611be7818560208601611b7e565b611bf081611bb1565b840191505092915050565b60006020820190508181036000830152611c158184611bc2565b905092915050565b6000819050919050565b611c3081611c1d565b8114611c3b57600080fd5b50565b600081359050611c4d81611c27565b92915050565b600060208284031215611c6957611c68611a9d565b5b6000611c7784828501611c3e565b91505092915050565b600073ffffffffffffffffffffffffffffffffffffffff82169050919050565b6000611cab82611c80565b9050919050565b611cbb81611ca0565b82525050565b6000602082019050611cd66000830184611cb2565b92915050565b611ce581611ca0565b8114611cf057600080fd5b50565b600081359050611d0281611cdc565b92915050565b60008060408385031215611d1f57611d1e611a9d565b5b6000611d2d85828601611cf3565b9250506020611d3e85828601611c3e565b9150509250929050565b600080600060608486031215611d6157611d60611a9d565b5b6000611d6f86828701611cf3565b9350506020611d8086828701611cf3565b9250506040611d9186828701611c3e565b9150509250925092565b600080fd5b600080fd5b7f4e487b7100000000000000000000000000000000000000000000000000000000600052604160045260246000fd5b611ddd82611bb1565b810181811067ffffffffffffffff82111715611dfc57611dfb611da5565b5b80604052505050565b6000611e0f611a93565b9050611e1b8282611dd4565b919050565b600067ffffffffffffffff821115611e3b57611e3a611da5565b5b611e4482611bb1565b9050602081019050919050565b82818337600083830152505050565b6000611e73611e6e84611e20565b611e05565b905082815260208101848484011115611e8f57611e8e611da0565b5b611e9a848285611e51565b509392505050565b600082601f830112611eb757611eb6611d9b565b5b8135611ec7848260208601611e60565b91505092915050565b60008060408385031215611ee757611ee6611a9d565b5b6000611ef585828601611cf3565b925050602083013567ffffffffffffffff811115611f1657611f15611aa2565b5b611f2285828601611ea2565b9150509250929050565b611f3581611c1d565b82525050565b6000602082019050611f506000830184611f2c565b92915050565b600060208284031215611f6c57611f6b611a9d565b5b600082013567ffffffffffffffff811115611f8a57611f89611aa2565b5b611f9684828501611ea2565b91505092915050565b600060208284031215611fb557611fb4611a9d565b5b6000611fc384828501611cf3565b91505092915050565b611fd581611b2c565b8114611fe057600080fd5b50565b600081359050611ff281611fcc565b92915050565b6000806040838503121561200f5761200e611a9d565b5b600061201d85828601611cf3565b925050602061202e85828601611fe3565b9150509250929050565b600067ffffffffffffffff82111561205357612052611da5565b5b61205c82611bb1565b9050602081019050919050565b600061207c61207784612038565b611e05565b90508281526020810184848401111561209857612097611da0565b5b6120a3848285611e51565b509392505050565b600082601f8301126120c0576120bf611d9b565b5b81356120d0848260208601612069565b91505092915050565b600080600080608085870312156120f3576120f2611a9d565b5b600061210187828801611cf3565b945050602061211287828801611cf3565b935050604061212387828801611c3e565b925050606085013567ffffffffffffffff81111561214457612143611aa2565b5b612150878288016120ab565b91505092959194509250565b6000806040838503121561217357612172611a9d565b5b600061218185828601611cf3565b925050602061219285828601611cf3565b9150509250929050565b7f4e487b7100000000000000000000000000000000000000000000000000000000600052602260045260246000fd5b600060028204905060018216806121e357607f821691505b6020821081036121f6576121f561219c565b5b50919050565b7f4552433732313a20617070726f76616c20746f2063757272656e74206f776e6560008201527f7200000000000000000000000000000000000000000000000000000000000000602082015250565b6000612258602183611b6d565b9150612263826121fc565b604082019050919050565b600060208201905081810360008301526122878161224b565b9050919050565b7f4552433732313a20617070726f76652063616c6c6572206973206e6f7420746f60008201527f6b656e206f776e6572206f7220617070726f76656420666f7220616c6c000000602082015250565b60006122ea603d83611b6d565b91506122f58261228e565b604082019050919050565b60006020820190508181036000830152612319816122dd565b9050919050565b7f4552433732313a2063616c6c6572206973206e6f7420746f6b656e206f776e6560008201527f72206f7220617070726f76656400000000000000000000000000000000000000602082015250565b600061237c602d83611b6d565b915061238782612320565b604082019050919050565b600060208201905081810360008301526123ab8161236f565b9050919050565b600081905092915050565b60006123c882611b62565b6123d281856123b2565b93506123e2818560208601611b7e565b80840191505092915050565b60006123fa82846123bd565b915081905092915050565b7f4552433732313a20696e76616c696420746f6b656e2049440000000000000000600082015250565b600061243b601883611b6d565b915061244682612405565b602082019050919050565b6000602082019050818103600083015261246a8161242e565b9050919050565b7f4552433732313a2061646472657373207a65726f206973206e6f74206120766160008201527f6c6964206f776e65720000000000000000000000000000000000000000000000602082015250565b60006124cd602983611b6d565b91506124d882612471565b604082019050919050565b600060208201905081810360008301526124fc816124c0565b9050919050565b600061250f82856123bd565b915061251b82846123bd565b91508190509392505050565b7f4552433732313a207472616e736665722066726f6d20696e636f72726563742060008201527f6f776e6572000000000000000000000000000000000000000000000000000000602082015250565b6000612583602583611b6d565b915061258e82612527565b604082019050919050565b600060208201905081810360008301526125b281612576565b9050919050565b7f4552433732313a207472616e7366657220746f20746865207a65726f2061646460008201527f7265737300000000000000000000000000000000000000000000000000000000602082015250565b6000612615602483611b6d565b9150612620826125b9565b604082019050919050565b6000602082019050818103600083015261264481612608565b9050919050565b7f4552433732313a206d696e7420746f20746865207a65726f2061646472657373600082015250565b6000612681602083611b6d565b915061268c8261264b565b602082019050919050565b600060208201905081810360008301526126b081612674565b9050919050565b7f4552433732313a20746f6b656e20616c7265616479206d696e74656400000000600082015250565b60006126ed601c83611b6d565b91506126f8826126b7565b602082019050919050565b6000602082019050818103600083015261271c816126e0565b9050919050565b7f45524337323155524953746f726167653a2055524920736574206f66206e6f6e60008201527f6578697374656e7420746f6b656e000000000000000000000000000000000000602082015250565b600061277f602e83611b6d565b915061278a82612723565b604082019050919050565b600060208201905081810360008301526127ae81612772565b9050919050565b7f4552433732313a20617070726f766520746f2063616c6c657200000000000000600082015250565b60006127eb601983611b6d565b91506127f6826127b5565b602082019050919050565b6000602082019050818103600083015261281a816127de565b9050919050565b7f4552433732313a207472616e7366657220746f206e6f6e20455243373231526560008201527f63656976657220696d706c656d656e7465720000000000000000000000000000602082015250565b600061287d603283611b6d565b915061288882612821565b604082019050919050565b600060208201905081810360008301526128ac81612870565b9050919050565b600081519050919050565b600082825260208201905092915050565b60006128da826128b3565b6128e481856128be565b93506128f4818560208601611b7e565b6128fd81611bb1565b840191505092915050565b600060808201905061291d6000830187611cb2565b61292a6020830186611cb2565b6129376040830185611f2c565b818103606083015261294981846128cf565b905095945050505050565b60008151905061296381611ad3565b92915050565b60006020828403121561297f5761297e611a9d565b5b600061298d84828501612954565b91505092915050565b7f4e487b7100000000000000000000000000000000000000000000000000000000600052601260045260246000fdfea2646970667358221220ab46341dbf9ff3885405ca59db25b45f37482ad501ad14d11fc5a9aa9432415564736f6c634300080d0033",
  "immutableReferences": {},
  "source": "// SPDX-License-Identifier: MIT\npragma solidity ^0.8.13;\n\nimport \"@openzeppelin/contracts/token/ERC721/extensions/ERC721URIStorage.sol\";\nimport \"@openzeppelin/contracts/utils/Counters.sol\";\n\ncontract BlogCraftNFT is ERC721URIStorage {\n    using Counters for Counters.Counter;\n    Counters.Counter private _tokenIds;\n\n    mapping(string => uint256) private uriToTokenId;\n\n\n    constructor() ERC721(\"BlogCraftNTF\", \"BPT\") {}\n\n    function createPostNFT(address author, string memory tokenURI) external returns (uint256) {\n        _tokenIds.increment();\n        uint256 newItemId = _tokenIds.current();\n        _mint(author, newItemId);\n        _setTokenURI(newItemId, tokenURI);\n        uriToTokenId[tokenURI] = newItemId;\n\n        return newItemId;\n    }\n\n    function getTokenIdFromURI(string memory uri) public view returns (uint256) {\n        return uriToTokenId[uri];\n    }\n}\n\n",
  "sourcePath": "/Users/sangmokhan/Documents/CSE426Project/project-contract/contracts/BlogCraftNFT.sol",
  "compiler": {
    "name": "solc",
    "version": "0.8.13+commit.abaa5c0e.Emscripten.clang"
  },
  "schemaVersion": "3.4.16",
  "updatedAt": "2023-11-19T22:29:57.775Z",
  "networkType": "ethereum",
  "devdoc": {
    "kind": "dev",
    "methods": {
      "approve(address,uint256)": {
        "details": "See {IERC721-approve}."
      },
      "balanceOf(address)": {
        "details": "See {IERC721-balanceOf}."
      },
      "getApproved(uint256)": {
        "details": "See {IERC721-getApproved}."
      },
      "isApprovedForAll(address,address)": {
        "details": "See {IERC721-isApprovedForAll}."
      },
      "name()": {
        "details": "See {IERC721Metadata-name}."
      },
      "ownerOf(uint256)": {
        "details": "See {IERC721-ownerOf}."
      },
      "safeTransferFrom(address,address,uint256)": {
        "details": "See {IERC721-safeTransferFrom}."
      },
      "safeTransferFrom(address,address,uint256,bytes)": {
        "details": "See {IERC721-safeTransferFrom}."
      },
      "setApprovalForAll(address,bool)": {
        "details": "See {IERC721-setApprovalForAll}."
      },
      "supportsInterface(bytes4)": {
        "details": "See {IERC165-supportsInterface}"
      },
      "symbol()": {
        "details": "See {IERC721Metadata-symbol}."
      },
      "tokenURI(uint256)": {
        "details": "See {IERC721Metadata-tokenURI}."
      },
      "transferFrom(address,address,uint256)": {
        "details": "See {IERC721-transferFrom}."
      }
    },
    "version": 1
  },
  "userdoc": {
    "kind": "user",
    "methods": {},
    "version": 1
  }
}