{
  "contractName": "BlogCraftNFT",
  "abi": [
    {
      "inputs": [],
      "stateMutability": "nonpayable",
      "type": "constructor"
    },
    {
      "anonymous": false,
      "inputs": [
        {
          "indexed": true,
          "internalType": "address",
          "name": "owner",
          "type": "address"
        },
        {
          "indexed": true,
          "internalType": "address",
          "name": "approved",
          "type": "address"
        },
        {
          "indexed": true,
          "internalType": "uint256",
          "name": "tokenId",
          "type": "uint256"
        }
      ],
      "name": "Approval",
      "type": "event"
    },
    {
      "anonymous": false,
      "inputs": [
        {
          "indexed": true,
          "internalType": "address",
          "name": "owner",
          "type": "address"
        },
        {
          "indexed": true,
          "internalType": "address",
          "name": "operator",
          "type": "address"
        },
        {
          "indexed": false,
          "internalType": "bool",
          "name": "approved",
          "type": "bool"
        }
      ],
      "name": "ApprovalForAll",
      "type": "event"
    },
    {
      "anonymous": false,
      "inputs": [
        {
          "indexed": false,
          "internalType": "uint256",
          "name": "_fromTokenId",
          "type": "uint256"
        },
        {
          "indexed": false,
          "internalType": "uint256",
          "name": "_toTokenId",
          "type": "uint256"
        }
      ],
      "name": "BatchMetadataUpdate",
      "type": "event"
    },
    {
      "anonymous": false,
      "inputs": [
        {
          "indexed": false,
          "internalType": "uint256",
          "name": "_tokenId",
          "type": "uint256"
        }
      ],
      "name": "MetadataUpdate",
      "type": "event"
    },
    {
      "anonymous": false,
      "inputs": [
        {
          "indexed": true,
          "internalType": "address",
          "name": "from",
          "type": "address"
        },
        {
          "indexed": true,
          "internalType": "address",
          "name": "to",
          "type": "address"
        },
        {
          "indexed": true,
          "internalType": "uint256",
          "name": "tokenId",
          "type": "uint256"
        }
      ],
      "name": "Transfer",
      "type": "event"
    },
    {
      "inputs": [
        {
          "internalType": "address",
          "name": "to",
          "type": "address"
        },
        {
          "internalType": "uint256",
          "name": "tokenId",
          "type": "uint256"
        }
      ],
      "name": "approve",
      "outputs": [],
      "stateMutability": "nonpayable",
      "type": "function"
    },
    {
      "inputs": [
        {
          "internalType": "address",
          "name": "owner",
          "type": "address"
        }
      ],
      "name": "balanceOf",
      "outputs": [
        {
          "internalType": "uint256",
          "name": "",
          "type": "uint256"
        }
      ],
      "stateMutability": "view",
      "type": "function",
      "constant": true
    },
    {
      "inputs": [
        {
          "internalType": "uint256",
          "name": "tokenId",
          "type": "uint256"
        }
      ],
      "name": "getApproved",
      "outputs": [
        {
          "internalType": "address",
          "name": "",
          "type": "address"
        }
      ],
      "stateMutability": "view",
      "type": "function",
      "constant": true
    },
    {
      "inputs": [
        {
          "internalType": "address",
          "name": "owner",
          "type": "address"
        },
        {
          "internalType": "address",
          "name": "operator",
          "type": "address"
        }
      ],
      "name": "isApprovedForAll",
      "outputs": [
        {
          "internalType": "bool",
          "name": "",
          "type": "bool"
        }
      ],
      "stateMutability": "view",
      "type": "function",
      "constant": true
    },
    {
      "inputs": [],
      "name": "name",
      "outputs": [
        {
          "internalType": "string",
          "name": "",
          "type": "string"
        }
      ],
      "stateMutability": "view",
      "type": "function",
      "constant": true
    },
    {
      "inputs": [
        {
          "internalType": "uint256",
          "name": "tokenId",
          "type": "uint256"
        }
      ],
      "name": "ownerOf",
      "outputs": [
        {
          "internalType": "address",
          "name": "",
          "type": "address"
        }
      ],
      "stateMutability": "view",
      "type": "function",
      "constant": true
    },
    {
      "inputs": [
        {
          "internalType": "address",
          "name": "from",
          "type": "address"
        },
        {
          "internalType": "address",
          "name": "to",
          "type": "address"
        },
        {
          "internalType": "uint256",
          "name": "tokenId",
          "type": "uint256"
        }
      ],
      "name": "safeTransferFrom",
      "outputs": [],
      "stateMutability": "nonpayable",
      "type": "function"
    },
    {
      "inputs": [
        {
          "internalType": "address",
          "name": "from",
          "type": "address"
        },
        {
          "internalType": "address",
          "name": "to",
          "type": "address"
        },
        {
          "internalType": "uint256",
          "name": "tokenId",
          "type": "uint256"
        },
        {
          "internalType": "bytes",
          "name": "data",
          "type": "bytes"
        }
      ],
      "name": "safeTransferFrom",
      "outputs": [],
      "stateMutability": "nonpayable",
      "type": "function"
    },
    {
      "inputs": [
        {
          "internalType": "address",
          "name": "operator",
          "type": "address"
        },
        {
          "internalType": "bool",
          "name": "approved",
          "type": "bool"
        }
      ],
      "name": "setApprovalForAll",
      "outputs": [],
      "stateMutability": "nonpayable",
      "type": "function"
    },
    {
      "inputs": [
        {
          "internalType": "bytes4",
          "name": "interfaceId",
          "type": "bytes4"
        }
      ],
      "name": "supportsInterface",
      "outputs": [
        {
          "internalType": "bool",
          "name": "",
          "type": "bool"
        }
      ],
      "stateMutability": "view",
      "type": "function",
      "constant": true
    },
    {
      "inputs": [],
      "name": "symbol",
      "outputs": [
        {
          "internalType": "string",
          "name": "",
          "type": "string"
        }
      ],
      "stateMutability": "view",
      "type": "function",
      "constant": true
    },
    {
      "inputs": [
        {
          "internalType": "uint256",
          "name": "tokenId",
          "type": "uint256"
        }
      ],
      "name": "tokenURI",
      "outputs": [
        {
          "internalType": "string",
          "name": "",
          "type": "string"
        }
      ],
      "stateMutability": "view",
      "type": "function",
      "constant": true
    },
    {
      "inputs": [
        {
          "internalType": "address",
          "name": "from",
          "type": "address"
        },
        {
          "internalType": "address",
          "name": "to",
          "type": "address"
        },
        {
          "internalType": "uint256",
          "name": "tokenId",
          "type": "uint256"
        }
      ],
      "name": "transferFrom",
      "outputs": [],
      "stateMutability": "nonpayable",
      "type": "function"
    },
    {
      "inputs": [
        {
          "internalType": "address",
          "name": "author",
          "type": "address"
        },
        {
          "internalType": "string",
          "name": "tokenURI",
          "type": "string"
        },
        {
          "internalType": "uint256",
          "name": "newItemId",
          "type": "uint256"
        }
      ],
      "name": "createPostNFT",
      "outputs": [
        {
          "internalType": "uint256",
          "name": "",
          "type": "uint256"
        }
      ],
      "stateMutability": "nonpayable",
      "type": "function"
    }
  ],
  "bytecode": "0x60806040523480156200001157600080fd5b506040518060400160405280600c81526020017f426c6f6743726166744e544600000000000000000000000000000000000000008152506040518060400160405280600381526020017f4250540000000000000000000000000000000000000000000000000000000000815250816000908051906020019062000096929190620000b8565b508060019080519060200190620000af929190620000b8565b505050620001cc565b828054620000c69062000197565b90600052602060002090601f016020900481019282620000ea576000855562000136565b82601f106200010557805160ff191683800117855562000136565b8280016001018555821562000136579182015b828111156200013557825182559160200191906001019062000118565b5b50905062000145919062000149565b5090565b5b80821115620001645760008160009055506001016200014a565b5090565b7f4e487b7100000000000000000000000000000000000000000000000000000000600052602260045260246000fd5b60006002820490506001821680620001b057607f821691505b602082108103620001c657620001c562000168565b5b50919050565b6128ec80620001dc6000396000f3fe608060405234801561001057600080fd5b50600436106100ea5760003560e01c80636352211e1161008c578063a22cb46511610066578063a22cb4651461026f578063b88d4fde1461028b578063c87b56dd146102a7578063e985e9c5146102d7576100ea565b80636352211e146101f157806370a082311461022157806395d89b4114610251576100ea565b8063095ea7b3116100c8578063095ea7b31461016d57806323b872dd1461018957806325734c79146101a557806342842e0e146101d5576100ea565b806301ffc9a7146100ef57806306fdde031461011f578063081812fc1461013d575b600080fd5b61010960048036038101906101049190611a3d565b610307565b6040516101169190611a85565b60405180910390f35b610127610368565b6040516101349190611b39565b60405180910390f35b61015760048036038101906101529190611b91565b6103fa565b6040516101649190611bff565b60405180910390f35b61018760048036038101906101829190611c46565b610440565b005b6101a3600480360381019061019e9190611c86565b610557565b005b6101bf60048036038101906101ba9190611e0e565b6105b7565b6040516101cc9190611e8c565b60405180910390f35b6101ef60048036038101906101ea9190611c86565b6105d7565b005b61020b60048036038101906102069190611b91565b6105f7565b6040516102189190611bff565b60405180910390f35b61023b60048036038101906102369190611ea7565b61067d565b6040516102489190611e8c565b60405180910390f35b610259610734565b6040516102669190611b39565b60405180910390f35b61028960048036038101906102849190611f00565b6107c6565b005b6102a560048036038101906102a09190611fe1565b6107dc565b005b6102c160048036038101906102bc9190611b91565b61083e565b6040516102ce9190611b39565b60405180910390f35b6102f160048036038101906102ec9190612064565b610950565b6040516102fe9190611a85565b60405180910390f35b6000634906490660e01b7bffffffffffffffffffffffffffffffffffffffffffffffffffffffff1916827bffffffffffffffffffffffffffffffffffffffffffffffffffffffff191614806103615750610360826109e4565b5b9050919050565b606060008054610377906120d3565b80601f01602080910402602001604051908101604052809291908181526020018280546103a3906120d3565b80156103f05780601f106103c5576101008083540402835291602001916103f0565b820191906000526020600020905b8154815290600101906020018083116103d357829003601f168201915b5050505050905090565b600061040582610ac6565b6004600083815260200190815260200160002060009054906101000a900473ffffffffffffffffffffffffffffffffffffffff169050919050565b600061044b826105f7565b90508073ffffffffffffffffffffffffffffffffffffffff168373ffffffffffffffffffffffffffffffffffffffff16036104bb576040517f08c379a00000000000000000000000000000000000000000000000000000000081526004016104b290612176565b60405180910390fd5b8073ffffffffffffffffffffffffffffffffffffffff166104da610b11565b73ffffffffffffffffffffffffffffffffffffffff161480610509575061050881610503610b11565b610950565b5b610548576040517f08c379a000000000000000000000000000000000000000000000000000000000815260040161053f90612208565b60405180910390fd5b6105528383610b19565b505050565b610568610562610b11565b82610bd2565b6105a7576040517f08c379a000000000000000000000000000000000000000000000000000000000815260040161059e9061229a565b60405180910390fd5b6105b2838383610c67565b505050565b60006105c38483610f60565b6105cd828461117d565b8190509392505050565b6105f2838383604051806020016040528060008152506107dc565b505050565b60008061060383611228565b9050600073ffffffffffffffffffffffffffffffffffffffff168173ffffffffffffffffffffffffffffffffffffffff1603610674576040517f08c379a000000000000000000000000000000000000000000000000000000000815260040161066b90612306565b60405180910390fd5b80915050919050565b60008073ffffffffffffffffffffffffffffffffffffffff168273ffffffffffffffffffffffffffffffffffffffff16036106ed576040517f08c379a00000000000000000000000000000000000000000000000000000000081526004016106e490612398565b60405180910390fd5b600360008373ffffffffffffffffffffffffffffffffffffffff1673ffffffffffffffffffffffffffffffffffffffff168152602001908152602001600020549050919050565b606060018054610743906120d3565b80601f016020809104026020016040519081016040528092919081815260200182805461076f906120d3565b80156107bc5780601f10610791576101008083540402835291602001916107bc565b820191906000526020600020905b81548152906001019060200180831161079f57829003601f168201915b5050505050905090565b6107d86107d1610b11565b8383611265565b5050565b6107ed6107e7610b11565b83610bd2565b61082c576040517f08c379a00000000000000000000000000000000000000000000000000000000081526004016108239061229a565b60405180910390fd5b610838848484846113d1565b50505050565b606061084982610ac6565b6000600660008481526020019081526020016000208054610869906120d3565b80601f0160208091040260200160405190810160405280929190818152602001828054610895906120d3565b80156108e25780601f106108b7576101008083540402835291602001916108e2565b820191906000526020600020905b8154815290600101906020018083116108c557829003601f168201915b5050505050905060006108f361142d565b9050600081510361090857819250505061094b565b60008251111561093d5780826040516020016109259291906123f4565b6040516020818303038152906040529250505061094b565b61094684611444565b925050505b919050565b6000600560008473ffffffffffffffffffffffffffffffffffffffff1673ffffffffffffffffffffffffffffffffffffffff16815260200190815260200160002060008373ffffffffffffffffffffffffffffffffffffffff1673ffffffffffffffffffffffffffffffffffffffff16815260200190815260200160002060009054906101000a900460ff16905092915050565b60007f80ac58cd000000000000000000000000000000000000000000000000000000007bffffffffffffffffffffffffffffffffffffffffffffffffffffffff1916827bffffffffffffffffffffffffffffffffffffffffffffffffffffffff19161480610aaf57507f5b5e139f000000000000000000000000000000000000000000000000000000007bffffffffffffffffffffffffffffffffffffffffffffffffffffffff1916827bffffffffffffffffffffffffffffffffffffffffffffffffffffffff1916145b80610abf5750610abe826114ac565b5b9050919050565b610acf81611516565b610b0e576040517f08c379a0000000000000000000000000000000000000000000000000000000008152600401610b0590612306565b60405180910390fd5b50565b600033905090565b816004600083815260200190815260200160002060006101000a81548173ffffffffffffffffffffffffffffffffffffffff021916908373ffffffffffffffffffffffffffffffffffffffff160217905550808273ffffffffffffffffffffffffffffffffffffffff16610b8c836105f7565b73ffffffffffffffffffffffffffffffffffffffff167f8c5be1e5ebec7d5bd14f71427d1e84f3dd0314c0f7b2291e5b200ac8c7c3b92560405160405180910390a45050565b600080610bde836105f7565b90508073ffffffffffffffffffffffffffffffffffffffff168473ffffffffffffffffffffffffffffffffffffffff161480610c205750610c1f8185610950565b5b80610c5e57508373ffffffffffffffffffffffffffffffffffffffff16610c46846103fa565b73ffffffffffffffffffffffffffffffffffffffff16145b91505092915050565b8273ffffffffffffffffffffffffffffffffffffffff16610c87826105f7565b73ffffffffffffffffffffffffffffffffffffffff1614610cdd576040517f08c379a0000000000000000000000000000000000000000000000000000000008152600401610cd49061248a565b60405180910390fd5b600073ffffffffffffffffffffffffffffffffffffffff168273ffffffffffffffffffffffffffffffffffffffff1603610d4c576040517f08c379a0000000000000000000000000000000000000000000000000000000008152600401610d439061251c565b60405180910390fd5b610d598383836001611557565b8273ffffffffffffffffffffffffffffffffffffffff16610d79826105f7565b73ffffffffffffffffffffffffffffffffffffffff1614610dcf576040517f08c379a0000000000000000000000000000000000000000000000000000000008152600401610dc69061248a565b60405180910390fd5b6004600082815260200190815260200160002060006101000a81549073ffffffffffffffffffffffffffffffffffffffff02191690556001600360008573ffffffffffffffffffffffffffffffffffffffff1673ffffffffffffffffffffffffffffffffffffffff168152602001908152602001600020600082825403925050819055506001600360008473ffffffffffffffffffffffffffffffffffffffff1673ffffffffffffffffffffffffffffffffffffffff16815260200190815260200160002060008282540192505081905550816002600083815260200190815260200160002060006101000a81548173ffffffffffffffffffffffffffffffffffffffff021916908373ffffffffffffffffffffffffffffffffffffffff160217905550808273ffffffffffffffffffffffffffffffffffffffff168473ffffffffffffffffffffffffffffffffffffffff167fddf252ad1be2c89b69c2b068fc378daa952ba7f163c4a11628f55a4df523b3ef60405160405180910390a4610f5b838383600161155d565b505050565b600073ffffffffffffffffffffffffffffffffffffffff168273ffffffffffffffffffffffffffffffffffffffff1603610fcf576040517f08c379a0000000000000000000000000000000000000000000000000000000008152600401610fc690612588565b60405180910390fd5b610fd881611516565b15611018576040517f08c379a000000000000000000000000000000000000000000000000000000000815260040161100f906125f4565b60405180910390fd5b611026600083836001611557565b61102f81611516565b1561106f576040517f08c379a0000000000000000000000000000000000000000000000000000000008152600401611066906125f4565b60405180910390fd5b6001600360008473ffffffffffffffffffffffffffffffffffffffff1673ffffffffffffffffffffffffffffffffffffffff16815260200190815260200160002060008282540192505081905550816002600083815260200190815260200160002060006101000a81548173ffffffffffffffffffffffffffffffffffffffff021916908373ffffffffffffffffffffffffffffffffffffffff160217905550808273ffffffffffffffffffffffffffffffffffffffff16600073ffffffffffffffffffffffffffffffffffffffff167fddf252ad1be2c89b69c2b068fc378daa952ba7f163c4a11628f55a4df523b3ef60405160405180910390a461117960008383600161155d565b5050565b61118682611516565b6111c5576040517f08c379a00000000000000000000000000000000000000000000000000000000081526004016111bc90612686565b60405180910390fd5b806006600084815260200190815260200160002090805190602001906111ec92919061192e565b507ff8e1a15aba9398e019f0b49df1a4fde98ee17ae345cb5f6b5e2c27f5033e8ce78260405161121c9190611e8c565b60405180910390a15050565b60006002600083815260200190815260200160002060009054906101000a900473ffffffffffffffffffffffffffffffffffffffff169050919050565b8173ffffffffffffffffffffffffffffffffffffffff168373ffffffffffffffffffffffffffffffffffffffff16036112d3576040517f08c379a00000000000000000000000000000000000000000000000000000000081526004016112ca906126f2565b60405180910390fd5b80600560008573ffffffffffffffffffffffffffffffffffffffff1673ffffffffffffffffffffffffffffffffffffffff16815260200190815260200160002060008473ffffffffffffffffffffffffffffffffffffffff1673ffffffffffffffffffffffffffffffffffffffff16815260200190815260200160002060006101000a81548160ff0219169083151502179055508173ffffffffffffffffffffffffffffffffffffffff168373ffffffffffffffffffffffffffffffffffffffff167f17307eab39ab6107e8899845ad3d59bd9653f200f220920489ca2b5937696c31836040516113c49190611a85565b60405180910390a3505050565b6113dc848484610c67565b6113e884848484611563565b611427576040517f08c379a000000000000000000000000000000000000000000000000000000000815260040161141e90612784565b60405180910390fd5b50505050565b606060405180602001604052806000815250905090565b606061144f82610ac6565b600061145961142d565b9050600081511161147957604051806020016040528060008152506114a4565b80611483846116ea565b6040516020016114949291906123f4565b6040516020818303038152906040525b915050919050565b60007f01ffc9a7000000000000000000000000000000000000000000000000000000007bffffffffffffffffffffffffffffffffffffffffffffffffffffffff1916827bffffffffffffffffffffffffffffffffffffffffffffffffffffffff1916149050919050565b60008073ffffffffffffffffffffffffffffffffffffffff1661153883611228565b73ffffffffffffffffffffffffffffffffffffffff1614159050919050565b50505050565b50505050565b60006115848473ffffffffffffffffffffffffffffffffffffffff166117b8565b156116dd578373ffffffffffffffffffffffffffffffffffffffff1663150b7a026115ad610b11565b8786866040518563ffffffff1660e01b81526004016115cf94939291906127f9565b6020604051808303816000875af192505050801561160b57506040513d601f19601f82011682018060405250810190611608919061285a565b60015b61168d573d806000811461163b576040519150601f19603f3d011682016040523d82523d6000602084013e611640565b606091505b506000815103611685576040517f08c379a000000000000000000000000000000000000000000000000000000000815260040161167c90612784565b60405180910390fd5b805181602001fd5b63150b7a0260e01b7bffffffffffffffffffffffffffffffffffffffffffffffffffffffff1916817bffffffffffffffffffffffffffffffffffffffffffffffffffffffff1916149150506116e2565b600190505b949350505050565b6060600060016116f9846117db565b01905060008167ffffffffffffffff81111561171857611717611ce3565b5b6040519080825280601f01601f19166020018201604052801561174a5781602001600182028036833780820191505090505b509050600082602001820190505b6001156117ad578080600190039150507f3031323334353637383961626364656600000000000000000000000000000000600a86061a8153600a85816117a1576117a0612887565b5b04945060008503611758575b819350505050919050565b6000808273ffffffffffffffffffffffffffffffffffffffff163b119050919050565b600080600090507a184f03e93ff9f4daa797ed6e38ed64bf6a1f0100000000000000008310611839577a184f03e93ff9f4daa797ed6e38ed64bf6a1f010000000000000000838161182f5761182e612887565b5b0492506040810190505b6d04ee2d6d415b85acef81000000008310611876576d04ee2d6d415b85acef8100000000838161186c5761186b612887565b5b0492506020810190505b662386f26fc1000083106118a557662386f26fc10000838161189b5761189a612887565b5b0492506010810190505b6305f5e10083106118ce576305f5e10083816118c4576118c3612887565b5b0492506008810190505b61271083106118f35761271083816118e9576118e8612887565b5b0492506004810190505b60648310611916576064838161190c5761190b612887565b5b0492506002810190505b600a8310611925576001810190505b80915050919050565b82805461193a906120d3565b90600052602060002090601f01602090048101928261195c57600085556119a3565b82601f1061197557805160ff19168380011785556119a3565b828001600101855582156119a3579182015b828111156119a2578251825591602001919060010190611987565b5b5090506119b091906119b4565b5090565b5b808211156119cd5760008160009055506001016119b5565b5090565b6000604051905090565b600080fd5b600080fd5b60007fffffffff0000000000000000000000000000000000000000000000000000000082169050919050565b611a1a816119e5565b8114611a2557600080fd5b50565b600081359050611a3781611a11565b92915050565b600060208284031215611a5357611a526119db565b5b6000611a6184828501611a28565b91505092915050565b60008115159050919050565b611a7f81611a6a565b82525050565b6000602082019050611a9a6000830184611a76565b92915050565b600081519050919050565b600082825260208201905092915050565b60005b83811015611ada578082015181840152602081019050611abf565b83811115611ae9576000848401525b50505050565b6000601f19601f8301169050919050565b6000611b0b82611aa0565b611b158185611aab565b9350611b25818560208601611abc565b611b2e81611aef565b840191505092915050565b60006020820190508181036000830152611b538184611b00565b905092915050565b6000819050919050565b611b6e81611b5b565b8114611b7957600080fd5b50565b600081359050611b8b81611b65565b92915050565b600060208284031215611ba757611ba66119db565b5b6000611bb584828501611b7c565b91505092915050565b600073ffffffffffffffffffffffffffffffffffffffff82169050919050565b6000611be982611bbe565b9050919050565b611bf981611bde565b82525050565b6000602082019050611c146000830184611bf0565b92915050565b611c2381611bde565b8114611c2e57600080fd5b50565b600081359050611c4081611c1a565b92915050565b60008060408385031215611c5d57611c5c6119db565b5b6000611c6b85828601611c31565b9250506020611c7c85828601611b7c565b9150509250929050565b600080600060608486031215611c9f57611c9e6119db565b5b6000611cad86828701611c31565b9350506020611cbe86828701611c31565b9250506040611ccf86828701611b7c565b9150509250925092565b600080fd5b600080fd5b7f4e487b7100000000000000000000000000000000000000000000000000000000600052604160045260246000fd5b611d1b82611aef565b810181811067ffffffffffffffff82111715611d3a57611d39611ce3565b5b80604052505050565b6000611d4d6119d1565b9050611d598282611d12565b919050565b600067ffffffffffffffff821115611d7957611d78611ce3565b5b611d8282611aef565b9050602081019050919050565b82818337600083830152505050565b6000611db1611dac84611d5e565b611d43565b905082815260208101848484011115611dcd57611dcc611cde565b5b611dd8848285611d8f565b509392505050565b600082601f830112611df557611df4611cd9565b5b8135611e05848260208601611d9e565b91505092915050565b600080600060608486031215611e2757611e266119db565b5b6000611e3586828701611c31565b935050602084013567ffffffffffffffff811115611e5657611e556119e0565b5b611e6286828701611de0565b9250506040611e7386828701611b7c565b9150509250925092565b611e8681611b5b565b82525050565b6000602082019050611ea16000830184611e7d565b92915050565b600060208284031215611ebd57611ebc6119db565b5b6000611ecb84828501611c31565b91505092915050565b611edd81611a6a565b8114611ee857600080fd5b50565b600081359050611efa81611ed4565b92915050565b60008060408385031215611f1757611f166119db565b5b6000611f2585828601611c31565b9250506020611f3685828601611eeb565b9150509250929050565b600067ffffffffffffffff821115611f5b57611f5a611ce3565b5b611f6482611aef565b9050602081019050919050565b6000611f84611f7f84611f40565b611d43565b905082815260208101848484011115611fa057611f9f611cde565b5b611fab848285611d8f565b509392505050565b600082601f830112611fc857611fc7611cd9565b5b8135611fd8848260208601611f71565b91505092915050565b60008060008060808587031215611ffb57611ffa6119db565b5b600061200987828801611c31565b945050602061201a87828801611c31565b935050604061202b87828801611b7c565b925050606085013567ffffffffffffffff81111561204c5761204b6119e0565b5b61205887828801611fb3565b91505092959194509250565b6000806040838503121561207b5761207a6119db565b5b600061208985828601611c31565b925050602061209a85828601611c31565b9150509250929050565b7f4e487b7100000000000000000000000000000000000000000000000000000000600052602260045260246000fd5b600060028204905060018216806120eb57607f821691505b6020821081036120fe576120fd6120a4565b5b50919050565b7f4552433732313a20617070726f76616c20746f2063757272656e74206f776e6560008201527f7200000000000000000000000000000000000000000000000000000000000000602082015250565b6000612160602183611aab565b915061216b82612104565b604082019050919050565b6000602082019050818103600083015261218f81612153565b9050919050565b7f4552433732313a20617070726f76652063616c6c6572206973206e6f7420746f60008201527f6b656e206f776e6572206f7220617070726f76656420666f7220616c6c000000602082015250565b60006121f2603d83611aab565b91506121fd82612196565b604082019050919050565b60006020820190508181036000830152612221816121e5565b9050919050565b7f4552433732313a2063616c6c6572206973206e6f7420746f6b656e206f776e6560008201527f72206f7220617070726f76656400000000000000000000000000000000000000602082015250565b6000612284602d83611aab565b915061228f82612228565b604082019050919050565b600060208201905081810360008301526122b381612277565b9050919050565b7f4552433732313a20696e76616c696420746f6b656e2049440000000000000000600082015250565b60006122f0601883611aab565b91506122fb826122ba565b602082019050919050565b6000602082019050818103600083015261231f816122e3565b9050919050565b7f4552433732313a2061646472657373207a65726f206973206e6f74206120766160008201527f6c6964206f776e65720000000000000000000000000000000000000000000000602082015250565b6000612382602983611aab565b915061238d82612326565b604082019050919050565b600060208201905081810360008301526123b181612375565b9050919050565b600081905092915050565b60006123ce82611aa0565b6123d881856123b8565b93506123e8818560208601611abc565b80840191505092915050565b600061240082856123c3565b915061240c82846123c3565b91508190509392505050565b7f4552433732313a207472616e736665722066726f6d20696e636f72726563742060008201527f6f776e6572000000000000000000000000000000000000000000000000000000602082015250565b6000612474602583611aab565b915061247f82612418565b604082019050919050565b600060208201905081810360008301526124a381612467565b9050919050565b7f4552433732313a207472616e7366657220746f20746865207a65726f2061646460008201527f7265737300000000000000000000000000000000000000000000000000000000602082015250565b6000612506602483611aab565b9150612511826124aa565b604082019050919050565b60006020820190508181036000830152612535816124f9565b9050919050565b7f4552433732313a206d696e7420746f20746865207a65726f2061646472657373600082015250565b6000612572602083611aab565b915061257d8261253c565b602082019050919050565b600060208201905081810360008301526125a181612565565b9050919050565b7f4552433732313a20746f6b656e20616c7265616479206d696e74656400000000600082015250565b60006125de601c83611aab565b91506125e9826125a8565b602082019050919050565b6000602082019050818103600083015261260d816125d1565b9050919050565b7f45524337323155524953746f726167653a2055524920736574206f66206e6f6e60008201527f6578697374656e7420746f6b656e000000000000000000000000000000000000602082015250565b6000612670602e83611aab565b915061267b82612614565b604082019050919050565b6000602082019050818103600083015261269f81612663565b9050919050565b7f4552433732313a20617070726f766520746f2063616c6c657200000000000000600082015250565b60006126dc601983611aab565b91506126e7826126a6565b602082019050919050565b6000602082019050818103600083015261270b816126cf565b9050919050565b7f4552433732313a207472616e7366657220746f206e6f6e20455243373231526560008201527f63656976657220696d706c656d656e7465720000000000000000000000000000602082015250565b600061276e603283611aab565b915061277982612712565b604082019050919050565b6000602082019050818103600083015261279d81612761565b9050919050565b600081519050919050565b600082825260208201905092915050565b60006127cb826127a4565b6127d581856127af565b93506127e5818560208601611abc565b6127ee81611aef565b840191505092915050565b600060808201905061280e6000830187611bf0565b61281b6020830186611bf0565b6128286040830185611e7d565b818103606083015261283a81846127c0565b905095945050505050565b60008151905061285481611a11565b92915050565b6000602082840312156128705761286f6119db565b5b600061287e84828501612845565b91505092915050565b7f4e487b7100000000000000000000000000000000000000000000000000000000600052601260045260246000fdfea2646970667358221220b8dfd3b36bf8d650e1f7c3045c6859fd7492c1830233fc31fdfed982fc08a54c64736f6c634300080d0033",
  "immutableReferences": {},
  "source": "// SPDX-License-Identifier: MIT\npragma solidity ^0.8.13;\n\nimport \"@openzeppelin/contracts/token/ERC721/extensions/ERC721URIStorage.sol\";\n\ncontract BlogCraftNFT is ERC721URIStorage {\n\n    constructor() ERC721(\"BlogCraftNTF\", \"BPT\") {}\n\n    function createPostNFT(address author, string memory tokenURI, uint256 newItemId) external returns (uint256) {\n        _mint(author, newItemId);\n        _setTokenURI(newItemId, tokenURI);\n\n        return newItemId;\n    }\n}\n\n",
  "sourcePath": "/Users/sangmokhan/Documents/CSE426Project/project-contract/contracts/BlogCraftNFT.sol",
  "compiler": {
    "name": "solc",
    "version": "0.8.13+commit.abaa5c0e.Emscripten.clang"
  },
  "schemaVersion": "3.4.16",
  "updatedAt": "2023-11-26T22:45:37.984Z",
  "networkType": "ethereum",
  "devdoc": {
    "kind": "dev",
    "methods": {
      "approve(address,uint256)": {
        "details": "See {IERC721-approve}."
      },
      "balanceOf(address)": {
        "details": "See {IERC721-balanceOf}."
      },
      "getApproved(uint256)": {
        "details": "See {IERC721-getApproved}."
      },
      "isApprovedForAll(address,address)": {
        "details": "See {IERC721-isApprovedForAll}."
      },
      "name()": {
        "details": "See {IERC721Metadata-name}."
      },
      "ownerOf(uint256)": {
        "details": "See {IERC721-ownerOf}."
      },
      "safeTransferFrom(address,address,uint256)": {
        "details": "See {IERC721-safeTransferFrom}."
      },
      "safeTransferFrom(address,address,uint256,bytes)": {
        "details": "See {IERC721-safeTransferFrom}."
      },
      "setApprovalForAll(address,bool)": {
        "details": "See {IERC721-setApprovalForAll}."
      },
      "supportsInterface(bytes4)": {
        "details": "See {IERC165-supportsInterface}"
      },
      "symbol()": {
        "details": "See {IERC721Metadata-symbol}."
      },
      "tokenURI(uint256)": {
        "details": "See {IERC721Metadata-tokenURI}."
      },
      "transferFrom(address,address,uint256)": {
        "details": "See {IERC721-transferFrom}."
      }
    },
    "version": 1
  },
  "userdoc": {
    "kind": "user",
    "methods": {},
    "version": 1
  }
}