{
  "contractName": "TokenSwap",
  "abi": [
    {
      "inputs": [
        {
          "internalType": "address",
          "name": "_blogNFT",
          "type": "address"
        },
        {
          "internalType": "address",
          "name": "_writeToken",
          "type": "address"
        }
      ],
      "stateMutability": "nonpayable",
      "type": "constructor"
    },
    {
      "anonymous": false,
      "inputs": [
        {
          "indexed": true,
          "internalType": "address",
          "name": "viewer",
          "type": "address"
        },
        {
          "indexed": false,
          "internalType": "uint256",
          "name": "amount",
          "type": "uint256"
        }
      ],
      "name": "LikedPost",
      "type": "event"
    },
    {
      "anonymous": false,
      "inputs": [
        {
          "indexed": true,
          "internalType": "uint256",
          "name": "tokenId",
          "type": "uint256"
        },
        {
          "indexed": true,
          "internalType": "address",
          "name": "buyer",
          "type": "address"
        }
      ],
      "name": "OfferAccepted",
      "type": "event"
    },
    {
      "anonymous": false,
      "inputs": [
        {
          "indexed": true,
          "internalType": "uint256",
          "name": "postId",
          "type": "uint256"
        },
        {
          "indexed": true,
          "internalType": "address",
          "name": "buyer",
          "type": "address"
        },
        {
          "indexed": true,
          "internalType": "address",
          "name": "seller",
          "type": "address"
        },
        {
          "indexed": false,
          "internalType": "uint256",
          "name": "amount",
          "type": "uint256"
        },
        {
          "indexed": false,
          "internalType": "string",
          "name": "message",
          "type": "string"
        }
      ],
      "name": "OfferMade",
      "type": "event"
    },
    {
      "anonymous": false,
      "inputs": [
        {
          "indexed": true,
          "internalType": "uint256",
          "name": "tokenId",
          "type": "uint256"
        },
        {
          "indexed": true,
          "internalType": "address",
          "name": "buyer",
          "type": "address"
        }
      ],
      "name": "OfferRejected",
      "type": "event"
    },
    {
      "anonymous": false,
      "inputs": [
        {
          "indexed": true,
          "internalType": "address",
          "name": "publisher",
          "type": "address"
        },
        {
          "indexed": false,
          "internalType": "uint256",
          "name": "amount",
          "type": "uint256"
        }
      ],
      "name": "RewardedPublisher",
      "type": "event"
    },
    {
      "anonymous": false,
      "inputs": [
        {
          "indexed": true,
          "internalType": "address",
          "name": "author",
          "type": "address"
        },
        {
          "indexed": true,
          "internalType": "uint256",
          "name": "tokenId",
          "type": "uint256"
        },
        {
          "indexed": false,
          "internalType": "string",
          "name": "tokenURI",
          "type": "string"
        }
      ],
      "name": "postnftcreated",
      "type": "event"
    },
    {
      "inputs": [
        {
          "internalType": "uint256",
          "name": "",
          "type": "uint256"
        }
      ],
      "name": "postOffers",
      "outputs": [
        {
          "internalType": "address",
          "name": "buyer",
          "type": "address"
        },
        {
          "internalType": "uint256",
          "name": "amount",
          "type": "uint256"
        },
        {
          "internalType": "string",
          "name": "message",
          "type": "string"
        },
        {
          "internalType": "bool",
          "name": "exists",
          "type": "bool"
        }
      ],
      "stateMutability": "view",
      "type": "function",
      "constant": true
    },
    {
      "inputs": [
        {
          "internalType": "address",
          "name": "publisher",
          "type": "address"
        }
      ],
      "name": "getWTT",
      "outputs": [
        {
          "internalType": "uint256",
          "name": "",
          "type": "uint256"
        }
      ],
      "stateMutability": "view",
      "type": "function",
      "constant": true
    },
    {
      "inputs": [
        {
          "internalType": "address",
          "name": "publisher",
          "type": "address"
        }
      ],
      "name": "rewardPublisher",
      "outputs": [],
      "stateMutability": "nonpayable",
      "type": "function"
    },
    {
      "inputs": [
        {
          "internalType": "string",
          "name": "uri",
          "type": "string"
        }
      ],
      "name": "getTokenIdFromURI",
      "outputs": [
        {
          "internalType": "uint256",
          "name": "",
          "type": "uint256"
        }
      ],
      "stateMutability": "view",
      "type": "function",
      "constant": true
    },
    {
      "inputs": [
        {
          "internalType": "address",
          "name": "viewer",
          "type": "address"
        }
      ],
      "name": "likePost",
      "outputs": [],
      "stateMutability": "nonpayable",
      "type": "function"
    },
    {
      "inputs": [
        {
          "internalType": "string",
          "name": "tokenURI",
          "type": "string"
        }
      ],
      "name": "createPostNFT",
      "outputs": [
        {
          "internalType": "uint256",
          "name": "",
          "type": "uint256"
        }
      ],
      "stateMutability": "nonpayable",
      "type": "function"
    },
    {
      "inputs": [
        {
          "internalType": "uint256",
          "name": "postId",
          "type": "uint256"
        },
        {
          "internalType": "uint256",
          "name": "offerAmount",
          "type": "uint256"
        },
        {
          "internalType": "string",
          "name": "message",
          "type": "string"
        }
      ],
      "name": "makeOffer",
      "outputs": [],
      "stateMutability": "nonpayable",
      "type": "function"
    },
    {
      "inputs": [
        {
          "internalType": "uint256",
          "name": "postId",
          "type": "uint256"
        }
      ],
      "name": "acceptOffer",
      "outputs": [],
      "stateMutability": "nonpayable",
      "type": "function"
    },
    {
      "inputs": [
        {
          "internalType": "uint256",
          "name": "postId",
          "type": "uint256"
        }
      ],
      "name": "rejectOffer",
      "outputs": [],
      "stateMutability": "nonpayable",
      "type": "function"
    }
  ],
  "bytecode": "0x60806040523480156200001157600080fd5b50604051620023433803806200234383398181016040528101906200003791906200012a565b816000806101000a81548173ffffffffffffffffffffffffffffffffffffffff021916908373ffffffffffffffffffffffffffffffffffffffff16021790555080600160006101000a81548173ffffffffffffffffffffffffffffffffffffffff021916908373ffffffffffffffffffffffffffffffffffffffff160217905550505062000171565b600080fd5b600073ffffffffffffffffffffffffffffffffffffffff82169050919050565b6000620000f282620000c5565b9050919050565b6200010481620000e5565b81146200011057600080fd5b50565b6000815190506200012481620000f9565b92915050565b60008060408385031215620001445762000143620000c0565b5b6000620001548582860162000113565b9250506020620001678582860162000113565b9150509250929050565b6121c280620001816000396000f3fe608060405234801561001057600080fd5b50600436106100935760003560e01c806388b10c751161006657806388b10c7514610133578063ab7e12781461014f578063c74eea981461016b578063c815729d1461019b578063d46074d9146101b757610093565b806302397a821461009857806306b71665146100b45780633576dc9b146100d0578063578a2b8114610100575b600080fd5b6100b260048036038101906100ad919061165b565b6101e7565b005b6100ce60048036038101906100c9919061165b565b610375565b005b6100ea60048036038101906100e591906117ce565b610503565b6040516100f79190611830565b60405180910390f35b61011a60048036038101906101159190611877565b610681565b60405161012a9493929190611956565b60405180910390f35b61014d60048036038101906101489190611877565b610766565b005b610169600480360381019061016491906119a2565b610b61565b005b6101856004803603810190610180919061165b565b610edc565b6040516101929190611830565b60405180910390f35b6101b560048036038101906101b09190611877565b610f81565b005b6101d160048036038101906101cc91906117ce565b61140b565b6040516101de9190611830565b60405180910390f35b6000600160009054906101000a900473ffffffffffffffffffffffffffffffffffffffff1673ffffffffffffffffffffffffffffffffffffffff1663313ce5676040518163ffffffff1660e01b8152600401602060405180830381865afa158015610256573d6000803e3d6000fd5b505050506040513d601f19601f8201168201806040525081019061027a9190611a4a565b600a6102869190611bd9565b60016102929190611c24565b9050600160009054906101000a900473ffffffffffffffffffffffffffffffffffffffff1673ffffffffffffffffffffffffffffffffffffffff16634835152983836040518363ffffffff1660e01b81526004016102f1929190611c7e565b600060405180830381600087803b15801561030b57600080fd5b505af115801561031f573d6000803e3d6000fd5b505050508173ffffffffffffffffffffffffffffffffffffffff167ffa8a92ebf776575fb7c2efc630a26b9ee094c224c4c7544cf434dbbf28e061f2826040516103699190611830565b60405180910390a25050565b6000600160009054906101000a900473ffffffffffffffffffffffffffffffffffffffff1673ffffffffffffffffffffffffffffffffffffffff1663313ce5676040518163ffffffff1660e01b8152600401602060405180830381865afa1580156103e4573d6000803e3d6000fd5b505050506040513d601f19601f820116820180604052508101906104089190611a4a565b600a6104149190611bd9565b60146104209190611c24565b9050600160009054906101000a900473ffffffffffffffffffffffffffffffffffffffff1673ffffffffffffffffffffffffffffffffffffffff16638a9df63483836040518363ffffffff1660e01b815260040161047f929190611c7e565b600060405180830381600087803b15801561049957600080fd5b505af11580156104ad573d6000803e3d6000fd5b505050508173ffffffffffffffffffffffffffffffffffffffff167fdff4eebbbcc937c4fce2a467a1b76874a440554c2001250279d496e5f4338764826040516104f79190611830565b60405180910390a25050565b60008060008054906101000a900473ffffffffffffffffffffffffffffffffffffffff1673ffffffffffffffffffffffffffffffffffffffff16633576dc9b846040518263ffffffff1660e01b815260040161055f9190611ca7565b602060405180830381865afa15801561057c573d6000803e3d6000fd5b505050506040513d601f19601f820116820180604052508101906105a09190611cde565b036105e0576040517f08c379a00000000000000000000000000000000000000000000000000000000081526004016105d790611d57565b60405180910390fd5b60008054906101000a900473ffffffffffffffffffffffffffffffffffffffff1673ffffffffffffffffffffffffffffffffffffffff16633576dc9b836040518263ffffffff1660e01b81526004016106399190611ca7565b602060405180830381865afa158015610656573d6000803e3d6000fd5b505050506040513d601f19601f8201168201806040525081019061067a9190611cde565b9050919050565b60026020528060005260406000206000915090508060000160009054906101000a900473ffffffffffffffffffffffffffffffffffffffff16908060010154908060020180546106d090611da6565b80601f01602080910402602001604051908101604052809291908181526020018280546106fc90611da6565b80156107495780601f1061071e57610100808354040283529160200191610749565b820191906000526020600020905b81548152906001019060200180831161072c57829003601f168201915b5050505050908060030160009054906101000a900460ff16905084565b803373ffffffffffffffffffffffffffffffffffffffff1660008054906101000a900473ffffffffffffffffffffffffffffffffffffffff1673ffffffffffffffffffffffffffffffffffffffff16636352211e836040518263ffffffff1660e01b81526004016107d79190611830565b602060405180830381865afa1580156107f4573d6000803e3d6000fd5b505050506040513d601f19601f820116820180604052508101906108189190611dec565b73ffffffffffffffffffffffffffffffffffffffff161461086e576040517f08c379a000000000000000000000000000000000000000000000000000000000815260040161086590611e8b565b60405180910390fd5b816002600082815260200190815260200160002060030160009054906101000a900460ff166108d2576040517f08c379a00000000000000000000000000000000000000000000000000000000081526004016108c990611ef7565b60405180910390fd5b6000600260008581526020019081526020016000206040518060800160405290816000820160009054906101000a900473ffffffffffffffffffffffffffffffffffffffff1673ffffffffffffffffffffffffffffffffffffffff1673ffffffffffffffffffffffffffffffffffffffff1681526020016001820154815260200160028201805461096290611da6565b80601f016020809104026020016040519081016040528092919081815260200182805461098e90611da6565b80156109db5780601f106109b0576101008083540402835291602001916109db565b820191906000526020600020905b8154815290600101906020018083116109be57829003601f168201915b505050505081526020016003820160009054906101000a900460ff1615151515815250509050600160009054906101000a900473ffffffffffffffffffffffffffffffffffffffff1673ffffffffffffffffffffffffffffffffffffffff1663a9059cbb826000015183602001516040518363ffffffff1660e01b8152600401610a66929190611c7e565b6020604051808303816000875af1158015610a85573d6000803e3d6000fd5b505050506040513d601f19601f82011682018060405250810190610aa99190611f43565b50806000015173ffffffffffffffffffffffffffffffffffffffff16847f1b15bc319d6f29dd5bcf76cd2b89490ed2fe49f1a31fb6b8624b0029fd85c26560405160405180910390a360026000858152602001908152602001600020600080820160006101000a81549073ffffffffffffffffffffffffffffffffffffffff02191690556001820160009055600282016000610b459190611506565b6003820160006101000a81549060ff0219169055505050505050565b826002600082815260200190815260200160002060030160009054906101000a900460ff1615610bc6576040517f08c379a0000000000000000000000000000000000000000000000000000000008152600401610bbd90611fe2565b60405180910390fd5b82600160009054906101000a900473ffffffffffffffffffffffffffffffffffffffff1673ffffffffffffffffffffffffffffffffffffffff166323b872dd3330846040518463ffffffff1660e01b8152600401610c2693929190612002565b6020604051808303816000875af1158015610c45573d6000803e3d6000fd5b505050506040513d601f19601f82011682018060405250810190610c699190611f43565b610ca8576040517f08c379a0000000000000000000000000000000000000000000000000000000008152600401610c9f90612085565b60405180910390fd5b8260c881511115610cee576040517f08c379a0000000000000000000000000000000000000000000000000000000008152600401610ce5906120f1565b60405180910390fd5b60405180608001604052803373ffffffffffffffffffffffffffffffffffffffff168152602001868152602001858152602001600115158152506002600088815260200190815260200160002060008201518160000160006101000a81548173ffffffffffffffffffffffffffffffffffffffff021916908373ffffffffffffffffffffffffffffffffffffffff160217905550602082015181600101556040820151816002019080519060200190610da8929190611546565b5060608201518160030160006101000a81548160ff02191690831515021790555090505060008060009054906101000a900473ffffffffffffffffffffffffffffffffffffffff1673ffffffffffffffffffffffffffffffffffffffff16636352211e886040518263ffffffff1660e01b8152600401610e289190611830565b602060405180830381865afa158015610e45573d6000803e3d6000fd5b505050506040513d601f19601f82011682018060405250810190610e699190611dec565b90508073ffffffffffffffffffffffffffffffffffffffff163373ffffffffffffffffffffffffffffffffffffffff16887f7246e18351fc9342d415e2d6954d5967c351bde093f90b612bb7d76d93ffc7ba8989604051610ecb929190612111565b60405180910390a450505050505050565b6000600160009054906101000a900473ffffffffffffffffffffffffffffffffffffffff1673ffffffffffffffffffffffffffffffffffffffff166370a08231836040518263ffffffff1660e01b8152600401610f399190612141565b602060405180830381865afa158015610f56573d6000803e3d6000fd5b505050506040513d601f19601f82011682018060405250810190610f7a9190611cde565b9050919050565b806002600082815260200190815260200160002060030160009054906101000a900460ff16610fe5576040517f08c379a0000000000000000000000000000000000000000000000000000000008152600401610fdc90611ef7565b60405180910390fd5b813373ffffffffffffffffffffffffffffffffffffffff1660008054906101000a900473ffffffffffffffffffffffffffffffffffffffff1673ffffffffffffffffffffffffffffffffffffffff16636352211e836040518263ffffffff1660e01b81526004016110569190611830565b602060405180830381865afa158015611073573d6000803e3d6000fd5b505050506040513d601f19601f820116820180604052508101906110979190611dec565b73ffffffffffffffffffffffffffffffffffffffff16146110ed576040517f08c379a00000000000000000000000000000000000000000000000000000000081526004016110e490611e8b565b60405180910390fd5b6000600260008581526020019081526020016000206040518060800160405290816000820160009054906101000a900473ffffffffffffffffffffffffffffffffffffffff1673ffffffffffffffffffffffffffffffffffffffff1673ffffffffffffffffffffffffffffffffffffffff1681526020016001820154815260200160028201805461117d90611da6565b80601f01602080910402602001604051908101604052809291908181526020018280546111a990611da6565b80156111f65780601f106111cb576101008083540402835291602001916111f6565b820191906000526020600020905b8154815290600101906020018083116111d957829003601f168201915b505050505081526020016003820160009054906101000a900460ff1615151515815250509050600160009054906101000a900473ffffffffffffffffffffffffffffffffffffffff1673ffffffffffffffffffffffffffffffffffffffff1663a9059cbb3383602001516040518363ffffffff1660e01b815260040161127d929190611c7e565b6020604051808303816000875af115801561129c573d6000803e3d6000fd5b505050506040513d601f19601f820116820180604052508101906112c09190611f43565b5060008054906101000a900473ffffffffffffffffffffffffffffffffffffffff1673ffffffffffffffffffffffffffffffffffffffff166323b872dd338360000151876040518463ffffffff1660e01b815260040161132293929190612002565b600060405180830381600087803b15801561133c57600080fd5b505af1158015611350573d6000803e3d6000fd5b50505050806000015173ffffffffffffffffffffffffffffffffffffffff16847fa7a40af5a1d0c10a3eb94af90cb008170915e8a71a6aaff052794cd762c72fc060405160405180910390a360026000858152602001908152602001600020600080820160006101000a81549073ffffffffffffffffffffffffffffffffffffffff021916905560018201600090556002820160006113ef9190611506565b6003820160006101000a81549060ff0219169055505050505050565b60008060008054906101000a900473ffffffffffffffffffffffffffffffffffffffff1673ffffffffffffffffffffffffffffffffffffffff16633501e32e33856040518363ffffffff1660e01b815260040161146992919061215c565b6020604051808303816000875af1158015611488573d6000803e3d6000fd5b505050506040513d601f19601f820116820180604052508101906114ac9190611cde565b9050803373ffffffffffffffffffffffffffffffffffffffff167f897fe813740e6ba4ee552166a01c5d4f60f074ee0f88367f93a1e0fcdc9ca527856040516114f59190611ca7565b60405180910390a380915050919050565b50805461151290611da6565b6000825580601f106115245750611543565b601f01602090049060005260206000209081019061154291906115cc565b5b50565b82805461155290611da6565b90600052602060002090601f01602090048101928261157457600085556115bb565b82601f1061158d57805160ff19168380011785556115bb565b828001600101855582156115bb579182015b828111156115ba57825182559160200191906001019061159f565b5b5090506115c891906115cc565b5090565b5b808211156115e55760008160009055506001016115cd565b5090565b6000604051905090565b600080fd5b600080fd5b600073ffffffffffffffffffffffffffffffffffffffff82169050919050565b6000611628826115fd565b9050919050565b6116388161161d565b811461164357600080fd5b50565b6000813590506116558161162f565b92915050565b600060208284031215611671576116706115f3565b5b600061167f84828501611646565b91505092915050565b600080fd5b600080fd5b6000601f19601f8301169050919050565b7f4e487b7100000000000000000000000000000000000000000000000000000000600052604160045260246000fd5b6116db82611692565b810181811067ffffffffffffffff821117156116fa576116f96116a3565b5b80604052505050565b600061170d6115e9565b905061171982826116d2565b919050565b600067ffffffffffffffff821115611739576117386116a3565b5b61174282611692565b9050602081019050919050565b82818337600083830152505050565b600061177161176c8461171e565b611703565b90508281526020810184848401111561178d5761178c61168d565b5b61179884828561174f565b509392505050565b600082601f8301126117b5576117b4611688565b5b81356117c584826020860161175e565b91505092915050565b6000602082840312156117e4576117e36115f3565b5b600082013567ffffffffffffffff811115611802576118016115f8565b5b61180e848285016117a0565b91505092915050565b6000819050919050565b61182a81611817565b82525050565b60006020820190506118456000830184611821565b92915050565b61185481611817565b811461185f57600080fd5b50565b6000813590506118718161184b565b92915050565b60006020828403121561188d5761188c6115f3565b5b600061189b84828501611862565b91505092915050565b6118ad8161161d565b82525050565b600081519050919050565b600082825260208201905092915050565b60005b838110156118ed5780820151818401526020810190506118d2565b838111156118fc576000848401525b50505050565b600061190d826118b3565b61191781856118be565b93506119278185602086016118cf565b61193081611692565b840191505092915050565b60008115159050919050565b6119508161193b565b82525050565b600060808201905061196b60008301876118a4565b6119786020830186611821565b818103604083015261198a8185611902565b90506119996060830184611947565b95945050505050565b6000806000606084860312156119bb576119ba6115f3565b5b60006119c986828701611862565b93505060206119da86828701611862565b925050604084013567ffffffffffffffff8111156119fb576119fa6115f8565b5b611a07868287016117a0565b9150509250925092565b600060ff82169050919050565b611a2781611a11565b8114611a3257600080fd5b50565b600081519050611a4481611a1e565b92915050565b600060208284031215611a6057611a5f6115f3565b5b6000611a6e84828501611a35565b91505092915050565b7f4e487b7100000000000000000000000000000000000000000000000000000000600052601160045260246000fd5b60008160011c9050919050565b6000808291508390505b6001851115611afd57808604811115611ad957611ad8611a77565b5b6001851615611ae85780820291505b8081029050611af685611aa6565b9450611abd565b94509492505050565b600082611b165760019050611bd2565b81611b245760009050611bd2565b8160018114611b3a5760028114611b4457611b73565b6001915050611bd2565b60ff841115611b5657611b55611a77565b5b8360020a915084821115611b6d57611b6c611a77565b5b50611bd2565b5060208310610133831016604e8410600b8410161715611ba85782820a905083811115611ba357611ba2611a77565b5b611bd2565b611bb58484846001611ab3565b92509050818404811115611bcc57611bcb611a77565b5b81810290505b9392505050565b6000611be482611817565b9150611bef83611a11565b9250611c1c7fffffffffffffffffffffffffffffffffffffffffffffffffffffffffffffffff8484611b06565b905092915050565b6000611c2f82611817565b9150611c3a83611817565b9250817fffffffffffffffffffffffffffffffffffffffffffffffffffffffffffffffff0483118215151615611c7357611c72611a77565b5b828202905092915050565b6000604082019050611c9360008301856118a4565b611ca06020830184611821565b9392505050565b60006020820190508181036000830152611cc18184611902565b905092915050565b600081519050611cd88161184b565b92915050565b600060208284031215611cf457611cf36115f3565b5b6000611d0284828501611cc9565b91505092915050565b7f546f6b656e2055524920646f6573206e6f742065786973740000000000000000600082015250565b6000611d416018836118be565b9150611d4c82611d0b565b602082019050919050565b60006020820190508181036000830152611d7081611d34565b9050919050565b7f4e487b7100000000000000000000000000000000000000000000000000000000600052602260045260246000fd5b60006002820490506001821680611dbe57607f821691505b602082108103611dd157611dd0611d77565b5b50919050565b600081519050611de68161162f565b92915050565b600060208284031215611e0257611e016115f3565b5b6000611e1084828501611dd7565b91505092915050565b7f4f6e6c7920746865206f776e65722063616e206163636570742f72656a65637460008201527f20746865206f6666657200000000000000000000000000000000000000000000602082015250565b6000611e75602a836118be565b9150611e8082611e19565b604082019050919050565b60006020820190508181036000830152611ea481611e68565b9050919050565b7f4e6f206f6666657220746f206163636570742f72656a65637400000000000000600082015250565b6000611ee16019836118be565b9150611eec82611eab565b602082019050919050565b60006020820190508181036000830152611f1081611ed4565b9050919050565b611f208161193b565b8114611f2b57600080fd5b50565b600081519050611f3d81611f17565b92915050565b600060208284031215611f5957611f586115f3565b5b6000611f6784828501611f2e565b91505092915050565b7f416e206f6666657220616c72656164792065786973747320666f72207468697360008201527f20706f7374000000000000000000000000000000000000000000000000000000602082015250565b6000611fcc6025836118be565b9150611fd782611f70565b604082019050919050565b60006020820190508181036000830152611ffb81611fbf565b9050919050565b600060608201905061201760008301866118a4565b61202460208301856118a4565b6120316040830184611821565b949350505050565b7f546f6b656e207472616e73666572206661696c65640000000000000000000000600082015250565b600061206f6015836118be565b915061207a82612039565b602082019050919050565b6000602082019050818103600083015261209e81612062565b9050919050565b7f537472696e672065786365656473203230302063686172616374657273000000600082015250565b60006120db601d836118be565b91506120e6826120a5565b602082019050919050565b6000602082019050818103600083015261210a816120ce565b9050919050565b60006040820190506121266000830185611821565b81810360208301526121388184611902565b90509392505050565b600060208201905061215660008301846118a4565b92915050565b600060408201905061217160008301856118a4565b81810360208301526121838184611902565b9050939250505056fea264697066735822122076cb4b5ee9eadf6f78c909acf343882b4a342c914c1d34ce92c95b5240d7160b64736f6c634300080d0033",
  "immutableReferences": {},
  "source": "// SPDX-License-Identifier: UNLICENSED\npragma solidity ^0.8.13;\n\nimport \"./BlogCraftNFT.sol\";\nimport \"./WriteToken.sol\";\n\ncontract TokenSwap {\n    BlogCraftNFT private blogNFT;\n    WriteToken private writeToken;\n    event OfferMade(uint256 indexed postId, address indexed buyer, address indexed seller,uint256 amount, string message); // Event when new offer is created\n    event OfferAccepted(uint256 indexed tokenId, address indexed buyer);\n    event OfferRejected(uint256 indexed tokenId, address indexed buyer);\n    event RewardedPublisher(address indexed publisher, uint256 amount);\n    event LikedPost(address indexed viewer, uint256 amount);\n    event postnftcreated(address indexed author, uint256 indexed tokenId, string tokenURI);\n\n    modifier noExistingOffer(uint256 postId) {\n        require(!postOffers[postId].exists, \"An offer already exists for this post\");\n        _;\n    }\n\n    modifier validTokenTransfer(uint256 offerAmount) {\n        require(writeToken.transferFrom(msg.sender, address(this), offerAmount), \"Token transfer failed\");\n        _;\n    }\n\n    modifier validMessageLength(string memory message) {\n    require(bytes(message).length <= 200, \"String exceeds 200 characters\");\n        _;\n    }\n\n    modifier offerExists(uint256 postId) {\n    require(postOffers[postId].exists, \"No offer to accept/reject\");\n    _;\n    }\n\n    modifier onlyPostOwner(uint256 postId) {\n    require(blogNFT.ownerOf(postId) == msg.sender, \"Only the owner can accept/reject the offer\");\n    _;\n    }\n\n    struct Offer {\n        address buyer;\n        uint256 amount;\n        string message;\n        bool exists;\n    }\n\n    mapping(uint256 => Offer) public postOffers; // NFT post ID to its current offer\n\n    constructor(address _blogNFT, address _writeToken) {\n        blogNFT = BlogCraftNFT(_blogNFT);\n        writeToken = WriteToken(_writeToken);\n    }\n\n    function getWTT(address publisher) external view returns (uint256) {\n        return writeToken.balanceOf(publisher);\n    }\n\n    function rewardPublisher(address publisher) external {\n        uint256 rewardAmount = 20 * 10 ** writeToken.decimals();\n\n        writeToken.rewardPublisher(publisher, rewardAmount);\n        emit RewardedPublisher(publisher, rewardAmount); \n\n    }\n\n    function getTokenIdFromURI(string memory uri) external view returns (uint256){\n        require(blogNFT.getTokenIdFromURI(uri) != 0, \"Token URI does not exist\");\n\n        return blogNFT.getTokenIdFromURI(uri);\n    }\n\n    function likePost(address viewer) external {\n        uint256 rewardAmount = 1 * 10 ** writeToken.decimals();\n\n        writeToken.likePost(viewer, rewardAmount);\n        emit LikedPost(viewer, rewardAmount);\n    }\n\n    function createPostNFT(string memory tokenURI) external returns (uint256) {\n        uint256 itemId = blogNFT.createPostNFT(msg.sender, tokenURI);\n        emit postnftcreated(msg.sender, itemId, tokenURI);\n\n        return itemId;\n    }\n    \n    function makeOffer(uint256 postId, uint256 offerAmount, string memory message) \n        external\n        noExistingOffer(postId)\n        validTokenTransfer(offerAmount)\n        validMessageLength(message)\n    {\n        // Record the offer\n        postOffers[postId] = Offer({\n            buyer: msg.sender,\n            amount: offerAmount,\n            message: message,\n            exists: true\n        });\n\n        // Find the owner of the post\n        address postOwner = blogNFT.ownerOf(postId);\n\n        // Emit the event\n        emit OfferMade(postId, msg.sender, postOwner, offerAmount, message);\n    }\n\n    function acceptOffer(uint256 postId) \n        external\n        offerExists(postId)\n        onlyPostOwner(postId)\n    {\n        Offer memory offer = postOffers[postId];\n\n        // Transfer the offer amount to the post owner\n        writeToken.transfer(msg.sender, offer.amount);\n\n        // Transfer the NFT to the buyer\n        blogNFT.transferFrom(msg.sender, offer.buyer, postId);\n\n        // Emit the OfferAccepted event\n        emit OfferAccepted(postId, offer.buyer);\n\n        // Remove the offer\n        delete postOffers[postId];\n    }\n\n\n    function rejectOffer(uint256 postId) \n        external\n        onlyPostOwner(postId)\n        offerExists(postId)\n    {\n        Offer memory offer = postOffers[postId];\n\n        // Refund the buyer\n        writeToken.transfer(offer.buyer, offer.amount);\n        \n        // Emit the OfferRejected event\n        emit OfferRejected(postId, offer.buyer);\n\n        // Remove the offer\n        delete postOffers[postId];\n    }\n\n\n}\n",
  "sourcePath": "/Users/sangmokhan/Documents/CSE426Project/project-contract/contracts/TokenSwap.sol",
  "compiler": {
    "name": "solc",
    "version": "0.8.13+commit.abaa5c0e.Emscripten.clang"
  },
  "schemaVersion": "3.4.16",
  "updatedAt": "2023-11-19T22:29:57.781Z",
  "networkType": "ethereum",
  "devdoc": {
    "kind": "dev",
    "methods": {},
    "version": 1
  },
  "userdoc": {
    "kind": "user",
    "methods": {},
    "version": 1
  }
}