{
  "contractName": "TokenSwap",
  "abi": [
    {
      "inputs": [
        {
          "internalType": "address",
          "name": "_blogNFT",
          "type": "address"
        },
        {
          "internalType": "address",
          "name": "_writeToken",
          "type": "address"
        }
      ],
      "stateMutability": "nonpayable",
      "type": "constructor"
    },
    {
      "anonymous": false,
      "inputs": [
        {
          "indexed": true,
          "internalType": "address",
          "name": "account",
          "type": "address"
        },
        {
          "indexed": true,
          "internalType": "address",
          "name": "operator",
          "type": "address"
        },
        {
          "indexed": false,
          "internalType": "bool",
          "name": "approved",
          "type": "bool"
        }
      ],
      "name": "ApprovalForAll",
      "type": "event"
    },
    {
      "anonymous": false,
      "inputs": [
        {
          "indexed": true,
          "internalType": "address",
          "name": "viewer",
          "type": "address"
        },
        {
          "indexed": false,
          "internalType": "uint256",
          "name": "amount",
          "type": "uint256"
        }
      ],
      "name": "LikedPost",
      "type": "event"
    },
    {
      "anonymous": false,
      "inputs": [
        {
          "indexed": true,
          "internalType": "uint256",
          "name": "tokenId",
          "type": "uint256"
        },
        {
          "indexed": true,
          "internalType": "address",
          "name": "buyer",
          "type": "address"
        }
      ],
      "name": "OfferAccepted",
      "type": "event"
    },
    {
      "anonymous": false,
      "inputs": [
        {
          "indexed": true,
          "internalType": "uint256",
          "name": "postId",
          "type": "uint256"
        },
        {
          "indexed": true,
          "internalType": "address",
          "name": "buyer",
          "type": "address"
        },
        {
          "indexed": true,
          "internalType": "address",
          "name": "seller",
          "type": "address"
        },
        {
          "indexed": false,
          "internalType": "uint256",
          "name": "amount",
          "type": "uint256"
        },
        {
          "indexed": false,
          "internalType": "string",
          "name": "message",
          "type": "string"
        }
      ],
      "name": "OfferMade",
      "type": "event"
    },
    {
      "anonymous": false,
      "inputs": [
        {
          "indexed": true,
          "internalType": "uint256",
          "name": "tokenId",
          "type": "uint256"
        },
        {
          "indexed": true,
          "internalType": "address",
          "name": "buyer",
          "type": "address"
        }
      ],
      "name": "OfferRejected",
      "type": "event"
    },
    {
      "anonymous": false,
      "inputs": [
        {
          "indexed": true,
          "internalType": "address",
          "name": "publisher",
          "type": "address"
        },
        {
          "indexed": false,
          "internalType": "uint256",
          "name": "amount",
          "type": "uint256"
        }
      ],
      "name": "RewardedPublisher",
      "type": "event"
    },
    {
      "anonymous": false,
      "inputs": [
        {
          "indexed": true,
          "internalType": "address",
          "name": "operator",
          "type": "address"
        },
        {
          "indexed": true,
          "internalType": "address",
          "name": "from",
          "type": "address"
        },
        {
          "indexed": true,
          "internalType": "address",
          "name": "to",
          "type": "address"
        },
        {
          "indexed": false,
          "internalType": "uint256[]",
          "name": "ids",
          "type": "uint256[]"
        },
        {
          "indexed": false,
          "internalType": "uint256[]",
          "name": "values",
          "type": "uint256[]"
        }
      ],
      "name": "TransferBatch",
      "type": "event"
    },
    {
      "anonymous": false,
      "inputs": [
        {
          "indexed": true,
          "internalType": "address",
          "name": "operator",
          "type": "address"
        },
        {
          "indexed": true,
          "internalType": "address",
          "name": "from",
          "type": "address"
        },
        {
          "indexed": true,
          "internalType": "address",
          "name": "to",
          "type": "address"
        },
        {
          "indexed": false,
          "internalType": "uint256",
          "name": "id",
          "type": "uint256"
        },
        {
          "indexed": false,
          "internalType": "uint256",
          "name": "value",
          "type": "uint256"
        }
      ],
      "name": "TransferSingle",
      "type": "event"
    },
    {
      "anonymous": false,
      "inputs": [
        {
          "indexed": false,
          "internalType": "string",
          "name": "value",
          "type": "string"
        },
        {
          "indexed": true,
          "internalType": "uint256",
          "name": "id",
          "type": "uint256"
        }
      ],
      "name": "URI",
      "type": "event"
    },
    {
      "anonymous": false,
      "inputs": [
        {
          "indexed": true,
          "internalType": "address",
          "name": "author",
          "type": "address"
        },
        {
          "indexed": true,
          "internalType": "uint256",
          "name": "tokenId",
          "type": "uint256"
        },
        {
          "indexed": false,
          "internalType": "string",
          "name": "tokenURI",
          "type": "string"
        }
      ],
      "name": "postnftcreated",
      "type": "event"
    },
    {
      "inputs": [],
      "name": "BLOGCRAFTNFT",
      "outputs": [
        {
          "internalType": "uint256",
          "name": "",
          "type": "uint256"
        }
      ],
      "stateMutability": "view",
      "type": "function",
      "constant": true
    },
    {
      "inputs": [],
      "name": "WRITETOKEN",
      "outputs": [
        {
          "internalType": "uint256",
          "name": "",
          "type": "uint256"
        }
      ],
      "stateMutability": "view",
      "type": "function",
      "constant": true
    },
    {
      "inputs": [
        {
          "internalType": "address",
          "name": "account",
          "type": "address"
        },
        {
          "internalType": "uint256",
          "name": "id",
          "type": "uint256"
        }
      ],
      "name": "balanceOf",
      "outputs": [
        {
          "internalType": "uint256",
          "name": "",
          "type": "uint256"
        }
      ],
      "stateMutability": "view",
      "type": "function",
      "constant": true
    },
    {
      "inputs": [
        {
          "internalType": "address[]",
          "name": "accounts",
          "type": "address[]"
        },
        {
          "internalType": "uint256[]",
          "name": "ids",
          "type": "uint256[]"
        }
      ],
      "name": "balanceOfBatch",
      "outputs": [
        {
          "internalType": "uint256[]",
          "name": "",
          "type": "uint256[]"
        }
      ],
      "stateMutability": "view",
      "type": "function",
      "constant": true
    },
    {
      "inputs": [
        {
          "internalType": "address",
          "name": "account",
          "type": "address"
        },
        {
          "internalType": "address",
          "name": "operator",
          "type": "address"
        }
      ],
      "name": "isApprovedForAll",
      "outputs": [
        {
          "internalType": "bool",
          "name": "",
          "type": "bool"
        }
      ],
      "stateMutability": "view",
      "type": "function",
      "constant": true
    },
    {
      "inputs": [
        {
          "internalType": "uint256",
          "name": "",
          "type": "uint256"
        }
      ],
      "name": "postOffers",
      "outputs": [
        {
          "internalType": "address",
          "name": "buyer",
          "type": "address"
        },
        {
          "internalType": "uint256",
          "name": "amount",
          "type": "uint256"
        },
        {
          "internalType": "string",
          "name": "message",
          "type": "string"
        },
        {
          "internalType": "bool",
          "name": "exists",
          "type": "bool"
        }
      ],
      "stateMutability": "view",
      "type": "function",
      "constant": true
    },
    {
      "inputs": [
        {
          "internalType": "address",
          "name": "from",
          "type": "address"
        },
        {
          "internalType": "address",
          "name": "to",
          "type": "address"
        },
        {
          "internalType": "uint256[]",
          "name": "ids",
          "type": "uint256[]"
        },
        {
          "internalType": "uint256[]",
          "name": "amounts",
          "type": "uint256[]"
        },
        {
          "internalType": "bytes",
          "name": "data",
          "type": "bytes"
        }
      ],
      "name": "safeBatchTransferFrom",
      "outputs": [],
      "stateMutability": "nonpayable",
      "type": "function"
    },
    {
      "inputs": [
        {
          "internalType": "address",
          "name": "from",
          "type": "address"
        },
        {
          "internalType": "address",
          "name": "to",
          "type": "address"
        },
        {
          "internalType": "uint256",
          "name": "id",
          "type": "uint256"
        },
        {
          "internalType": "uint256",
          "name": "amount",
          "type": "uint256"
        },
        {
          "internalType": "bytes",
          "name": "data",
          "type": "bytes"
        }
      ],
      "name": "safeTransferFrom",
      "outputs": [],
      "stateMutability": "nonpayable",
      "type": "function"
    },
    {
      "inputs": [
        {
          "internalType": "address",
          "name": "operator",
          "type": "address"
        },
        {
          "internalType": "bool",
          "name": "approved",
          "type": "bool"
        }
      ],
      "name": "setApprovalForAll",
      "outputs": [],
      "stateMutability": "nonpayable",
      "type": "function"
    },
    {
      "inputs": [
        {
          "internalType": "bytes4",
          "name": "interfaceId",
          "type": "bytes4"
        }
      ],
      "name": "supportsInterface",
      "outputs": [
        {
          "internalType": "bool",
          "name": "",
          "type": "bool"
        }
      ],
      "stateMutability": "view",
      "type": "function",
      "constant": true
    },
    {
      "inputs": [
        {
          "internalType": "uint256",
          "name": "",
          "type": "uint256"
        }
      ],
      "name": "uri",
      "outputs": [
        {
          "internalType": "string",
          "name": "",
          "type": "string"
        }
      ],
      "stateMutability": "view",
      "type": "function",
      "constant": true
    },
    {
      "inputs": [
        {
          "internalType": "address",
          "name": "publisher",
          "type": "address"
        }
      ],
      "name": "getWTT",
      "outputs": [
        {
          "internalType": "uint256",
          "name": "",
          "type": "uint256"
        }
      ],
      "stateMutability": "view",
      "type": "function",
      "constant": true
    },
    {
      "inputs": [
        {
          "internalType": "address",
          "name": "publisher",
          "type": "address"
        }
      ],
      "name": "rewardPublisher",
      "outputs": [],
      "stateMutability": "nonpayable",
      "type": "function"
    },
    {
      "inputs": [
        {
          "internalType": "string",
          "name": "uri",
          "type": "string"
        }
      ],
      "name": "getTokenIdFromURI",
      "outputs": [
        {
          "internalType": "uint256",
          "name": "",
          "type": "uint256"
        }
      ],
      "stateMutability": "view",
      "type": "function",
      "constant": true
    },
    {
      "inputs": [
        {
          "internalType": "address",
          "name": "viewer",
          "type": "address"
        }
      ],
      "name": "likePost",
      "outputs": [],
      "stateMutability": "nonpayable",
      "type": "function"
    },
    {
      "inputs": [
        {
          "internalType": "string",
          "name": "uri",
          "type": "string"
        }
      ],
      "name": "createPostNFT",
      "outputs": [
        {
          "internalType": "uint256",
          "name": "",
          "type": "uint256"
        }
      ],
      "stateMutability": "nonpayable",
      "type": "function"
    },
    {
      "inputs": [
        {
          "internalType": "uint256",
          "name": "postId",
          "type": "uint256"
        },
        {
          "internalType": "uint256",
          "name": "offerAmount",
          "type": "uint256"
        },
        {
          "internalType": "string",
          "name": "message",
          "type": "string"
        }
      ],
      "name": "makeOffer",
      "outputs": [],
      "stateMutability": "nonpayable",
      "type": "function"
    },
    {
      "inputs": [
        {
          "internalType": "uint256",
          "name": "postId",
          "type": "uint256"
        }
      ],
      "name": "acceptOffer",
      "outputs": [],
      "stateMutability": "nonpayable",
      "type": "function"
    },
    {
      "inputs": [
        {
          "internalType": "uint256",
          "name": "postId",
          "type": "uint256"
        }
      ],
      "name": "rejectOffer",
      "outputs": [],
      "stateMutability": "nonpayable",
      "type": "function"
    }
  ],
  "bytecode": "0x60806040523480156200001157600080fd5b50604051620045dc380380620045dc83398181016040528101906200003791906200023f565b6040518060400160405280601781526020017f6c6f63616c686f73743a383038302f7572692f7b69647d0000000000000000008152506200007e816200010960201b60201c565b5081600360006101000a81548173ffffffffffffffffffffffffffffffffffffffff021916908373ffffffffffffffffffffffffffffffffffffffff16021790555080600460006101000a81548173ffffffffffffffffffffffffffffffffffffffff021916908373ffffffffffffffffffffffffffffffffffffffff1602179055505050620002ea565b80600290805190602001906200012192919062000125565b5050565b8280546200013390620002b5565b90600052602060002090601f016020900481019282620001575760008555620001a3565b82601f106200017257805160ff1916838001178555620001a3565b82800160010185558215620001a3579182015b82811115620001a257825182559160200191906001019062000185565b5b509050620001b29190620001b6565b5090565b5b80821115620001d1576000816000905550600101620001b7565b5090565b600080fd5b600073ffffffffffffffffffffffffffffffffffffffff82169050919050565b60006200020782620001da565b9050919050565b6200021981620001fa565b81146200022557600080fd5b50565b60008151905062000239816200020e565b92915050565b60008060408385031215620002595762000258620001d5565b5b6000620002698582860162000228565b92505060206200027c8582860162000228565b9150509250929050565b7f4e487b7100000000000000000000000000000000000000000000000000000000600052602260045260246000fd5b60006002820490506001821680620002ce57607f821691505b602082108103620002e457620002e362000286565b5b50919050565b6142e280620002fa6000396000f3fe608060405234801561001057600080fd5b50600436106101205760003560e01c806375dde43c116100ad578063c74eea9811610071578063c74eea981461032c578063c815729d1461035c578063d46074d914610378578063e985e9c5146103a8578063f242432a146103d857610120565b806375dde43c1461029c57806388b10c75146102ba5780639d1e36e4146102d6578063a22cb465146102f4578063ab7e12781461031057610120565b80630e89341c116100f45780630e89341c146101bd5780632eb2c2d6146101ed5780633576dc9b146102095780634e1273f414610239578063578a2b811461026957610120565b8062fdd58e1461012557806301ffc9a71461015557806302397a821461018557806306b71665146101a1575b600080fd5b61013f600480360381019061013a91906128f6565b6103f4565b60405161014c9190612945565b60405180910390f35b61016f600480360381019061016a91906129b8565b6104bc565b60405161017c9190612a00565b60405180910390f35b61019f600480360381019061019a9190612a1b565b61059e565b005b6101bb60048036038101906101b69190612a1b565b61072c565b005b6101d760048036038101906101d29190612a48565b6108ba565b6040516101e49190612b0e565b60405180910390f35b61020760048036038101906102029190612d2d565b61094e565b005b610223600480360381019061021e9190612e9d565b6109ef565b6040516102309190612945565b60405180910390f35b610253600480360381019061024e9190612fa9565b610a17565b60405161026091906130df565b60405180910390f35b610283600480360381019061027e9190612a48565b610b30565b6040516102939493929190613110565b60405180910390f35b6102a4610c15565b6040516102b19190612945565b60405180910390f35b6102d460048036038101906102cf9190612a48565b610c1a565b005b6102de611017565b6040516102eb9190612945565b60405180910390f35b61030e60048036038101906103099190613188565b61101c565b005b61032a600480360381019061032591906131c8565b611032565b005b61034660048036038101906103419190612a1b565b6113ae565b6040516103539190612945565b60405180910390f35b61037660048036038101906103719190612a48565b611453565b005b610392600480360381019061038d9190612e9d565b6118e1565b60405161039f9190612945565b60405180910390f35b6103c260048036038101906103bd9190613237565b611a1d565b6040516103cf9190612a00565b60405180910390f35b6103f260048036038101906103ed9190613277565b611ab1565b005b60008073ffffffffffffffffffffffffffffffffffffffff168373ffffffffffffffffffffffffffffffffffffffff1603610464576040517f08c379a000000000000000000000000000000000000000000000000000000000815260040161045b90613380565b60405180910390fd5b60008083815260200190815260200160002060008473ffffffffffffffffffffffffffffffffffffffff1673ffffffffffffffffffffffffffffffffffffffff16815260200190815260200160002054905092915050565b60007fd9b67a26000000000000000000000000000000000000000000000000000000007bffffffffffffffffffffffffffffffffffffffffffffffffffffffff1916827bffffffffffffffffffffffffffffffffffffffffffffffffffffffff1916148061058757507f0e89341c000000000000000000000000000000000000000000000000000000007bffffffffffffffffffffffffffffffffffffffffffffffffffffffff1916827bffffffffffffffffffffffffffffffffffffffffffffffffffffffff1916145b80610597575061059682611b52565b5b9050919050565b6000600460009054906101000a900473ffffffffffffffffffffffffffffffffffffffff1673ffffffffffffffffffffffffffffffffffffffff1663313ce5676040518163ffffffff1660e01b8152600401602060405180830381865afa15801561060d573d6000803e3d6000fd5b505050506040513d601f19601f8201168201806040525081019061063191906133d9565b600a61063d9190613568565b600161064991906135b3565b9050600460009054906101000a900473ffffffffffffffffffffffffffffffffffffffff1673ffffffffffffffffffffffffffffffffffffffff16634835152983836040518363ffffffff1660e01b81526004016106a892919061360d565b600060405180830381600087803b1580156106c257600080fd5b505af11580156106d6573d6000803e3d6000fd5b505050508173ffffffffffffffffffffffffffffffffffffffff167ffa8a92ebf776575fb7c2efc630a26b9ee094c224c4c7544cf434dbbf28e061f2826040516107209190612945565b60405180910390a25050565b6000600460009054906101000a900473ffffffffffffffffffffffffffffffffffffffff1673ffffffffffffffffffffffffffffffffffffffff1663313ce5676040518163ffffffff1660e01b8152600401602060405180830381865afa15801561079b573d6000803e3d6000fd5b505050506040513d601f19601f820116820180604052508101906107bf91906133d9565b600a6107cb9190613568565b60146107d791906135b3565b9050600460009054906101000a900473ffffffffffffffffffffffffffffffffffffffff1673ffffffffffffffffffffffffffffffffffffffff16638a9df63483836040518363ffffffff1660e01b815260040161083692919061360d565b600060405180830381600087803b15801561085057600080fd5b505af1158015610864573d6000803e3d6000fd5b505050508173ffffffffffffffffffffffffffffffffffffffff167fdff4eebbbcc937c4fce2a467a1b76874a440554c2001250279d496e5f4338764826040516108ae9190612945565b60405180910390a25050565b6060600280546108c990613665565b80601f01602080910402602001604051908101604052809291908181526020018280546108f590613665565b80156109425780601f1061091757610100808354040283529160200191610942565b820191906000526020600020905b81548152906001019060200180831161092557829003601f168201915b50505050509050919050565b610956611bbc565b73ffffffffffffffffffffffffffffffffffffffff168573ffffffffffffffffffffffffffffffffffffffff16148061099c575061099b85610996611bbc565b611a1d565b5b6109db576040517f08c379a00000000000000000000000000000000000000000000000000000000081526004016109d290613708565b60405180910390fd5b6109e88585858585611bc4565b5050505050565b6000600582604051610a019190613764565b9081526020016040518091039020549050919050565b60608151835114610a5d576040517f08c379a0000000000000000000000000000000000000000000000000000000008152600401610a54906137ed565b60405180910390fd5b6000835167ffffffffffffffff811115610a7a57610a79612b35565b5b604051908082528060200260200182016040528015610aa85781602001602082028036833780820191505090505b50905060005b8451811015610b2557610af5858281518110610acd57610acc61380d565b5b6020026020010151858381518110610ae857610ae761380d565b5b60200260200101516103f4565b828281518110610b0857610b0761380d565b5b60200260200101818152505080610b1e9061383c565b9050610aae565b508091505092915050565b60076020528060005260406000206000915090508060000160009054906101000a900473ffffffffffffffffffffffffffffffffffffffff1690806001015490806002018054610b7f90613665565b80601f0160208091040260200160405190810160405280929190818152602001828054610bab90613665565b8015610bf85780601f10610bcd57610100808354040283529160200191610bf8565b820191906000526020600020905b815481529060010190602001808311610bdb57829003601f168201915b5050505050908060030160009054906101000a900460ff16905084565b600181565b803373ffffffffffffffffffffffffffffffffffffffff16600360009054906101000a900473ffffffffffffffffffffffffffffffffffffffff1673ffffffffffffffffffffffffffffffffffffffff16636352211e836040518263ffffffff1660e01b8152600401610c8d9190612945565b602060405180830381865afa158015610caa573d6000803e3d6000fd5b505050506040513d601f19601f82011682018060405250810190610cce9190613899565b73ffffffffffffffffffffffffffffffffffffffff1614610d24576040517f08c379a0000000000000000000000000000000000000000000000000000000008152600401610d1b90613938565b60405180910390fd5b816007600082815260200190815260200160002060030160009054906101000a900460ff16610d88576040517f08c379a0000000000000000000000000000000000000000000000000000000008152600401610d7f906139a4565b60405180910390fd5b6000600760008581526020019081526020016000206040518060800160405290816000820160009054906101000a900473ffffffffffffffffffffffffffffffffffffffff1673ffffffffffffffffffffffffffffffffffffffff1673ffffffffffffffffffffffffffffffffffffffff16815260200160018201548152602001600282018054610e1890613665565b80601f0160208091040260200160405190810160405280929190818152602001828054610e4490613665565b8015610e915780601f10610e6657610100808354040283529160200191610e91565b820191906000526020600020905b815481529060010190602001808311610e7457829003601f168201915b505050505081526020016003820160009054906101000a900460ff1615151515815250509050600460009054906101000a900473ffffffffffffffffffffffffffffffffffffffff1673ffffffffffffffffffffffffffffffffffffffff1663a9059cbb826000015183602001516040518363ffffffff1660e01b8152600401610f1c92919061360d565b6020604051808303816000875af1158015610f3b573d6000803e3d6000fd5b505050506040513d601f19601f82011682018060405250810190610f5f91906139d9565b50806000015173ffffffffffffffffffffffffffffffffffffffff16847f1b15bc319d6f29dd5bcf76cd2b89490ed2fe49f1a31fb6b8624b0029fd85c26560405160405180910390a360076000858152602001908152602001600020600080820160006101000a81549073ffffffffffffffffffffffffffffffffffffffff02191690556001820160009055600282016000610ffb919061276b565b6003820160006101000a81549060ff0219169055505050505050565b600081565b61102e611027611bbc565b8383611ee5565b5050565b826007600082815260200190815260200160002060030160009054906101000a900460ff1615611097576040517f08c379a000000000000000000000000000000000000000000000000000000000815260040161108e90613a78565b60405180910390fd5b82600460009054906101000a900473ffffffffffffffffffffffffffffffffffffffff1673ffffffffffffffffffffffffffffffffffffffff166323b872dd3330846040518463ffffffff1660e01b81526004016110f793929190613a98565b6020604051808303816000875af1158015611116573d6000803e3d6000fd5b505050506040513d601f19601f8201168201806040525081019061113a91906139d9565b611179576040517f08c379a000000000000000000000000000000000000000000000000000000000815260040161117090613b1b565b60405180910390fd5b8260c8815111156111bf576040517f08c379a00000000000000000000000000000000000000000000000000000000081526004016111b690613b87565b60405180910390fd5b60405180608001604052803373ffffffffffffffffffffffffffffffffffffffff168152602001868152602001858152602001600115158152506007600088815260200190815260200160002060008201518160000160006101000a81548173ffffffffffffffffffffffffffffffffffffffff021916908373ffffffffffffffffffffffffffffffffffffffff1602179055506020820151816001015560408201518160020190805190602001906112799291906127ab565b5060608201518160030160006101000a81548160ff0219169083151502179055509050506000600360009054906101000a900473ffffffffffffffffffffffffffffffffffffffff1673ffffffffffffffffffffffffffffffffffffffff16636352211e886040518263ffffffff1660e01b81526004016112fa9190612945565b602060405180830381865afa158015611317573d6000803e3d6000fd5b505050506040513d601f19601f8201168201806040525081019061133b9190613899565b90508073ffffffffffffffffffffffffffffffffffffffff163373ffffffffffffffffffffffffffffffffffffffff16887f7246e18351fc9342d415e2d6954d5967c351bde093f90b612bb7d76d93ffc7ba898960405161139d929190613ba7565b60405180910390a450505050505050565b6000600460009054906101000a900473ffffffffffffffffffffffffffffffffffffffff1673ffffffffffffffffffffffffffffffffffffffff166370a08231836040518263ffffffff1660e01b815260040161140b9190613bd7565b602060405180830381865afa158015611428573d6000803e3d6000fd5b505050506040513d601f19601f8201168201806040525081019061144c9190613c07565b9050919050565b806007600082815260200190815260200160002060030160009054906101000a900460ff166114b7576040517f08c379a00000000000000000000000000000000000000000000000000000000081526004016114ae906139a4565b60405180910390fd5b813373ffffffffffffffffffffffffffffffffffffffff16600360009054906101000a900473ffffffffffffffffffffffffffffffffffffffff1673ffffffffffffffffffffffffffffffffffffffff16636352211e836040518263ffffffff1660e01b815260040161152a9190612945565b602060405180830381865afa158015611547573d6000803e3d6000fd5b505050506040513d601f19601f8201168201806040525081019061156b9190613899565b73ffffffffffffffffffffffffffffffffffffffff16146115c1576040517f08c379a00000000000000000000000000000000000000000000000000000000081526004016115b890613938565b60405180910390fd5b6000600760008581526020019081526020016000206040518060800160405290816000820160009054906101000a900473ffffffffffffffffffffffffffffffffffffffff1673ffffffffffffffffffffffffffffffffffffffff1673ffffffffffffffffffffffffffffffffffffffff1681526020016001820154815260200160028201805461165190613665565b80601f016020809104026020016040519081016040528092919081815260200182805461167d90613665565b80156116ca5780601f1061169f576101008083540402835291602001916116ca565b820191906000526020600020905b8154815290600101906020018083116116ad57829003601f168201915b505050505081526020016003820160009054906101000a900460ff1615151515815250509050600460009054906101000a900473ffffffffffffffffffffffffffffffffffffffff1673ffffffffffffffffffffffffffffffffffffffff1663a9059cbb3383602001516040518363ffffffff1660e01b815260040161175192919061360d565b6020604051808303816000875af1158015611770573d6000803e3d6000fd5b505050506040513d601f19601f8201168201806040525081019061179491906139d9565b50600360009054906101000a900473ffffffffffffffffffffffffffffffffffffffff1673ffffffffffffffffffffffffffffffffffffffff166323b872dd338360000151876040518463ffffffff1660e01b81526004016117f893929190613a98565b600060405180830381600087803b15801561181257600080fd5b505af1158015611826573d6000803e3d6000fd5b50505050806000015173ffffffffffffffffffffffffffffffffffffffff16847fa7a40af5a1d0c10a3eb94af90cb008170915e8a71a6aaff052794cd762c72fc060405160405180910390a360076000858152602001908152602001600020600080820160006101000a81549073ffffffffffffffffffffffffffffffffffffffff021916905560018201600090556002820160006118c5919061276b565b6003820160006101000a81549060ff0219169055505050505050565b60006118ed6006612051565b60006118f96006612067565b90506000600360009054906101000a900473ffffffffffffffffffffffffffffffffffffffff1673ffffffffffffffffffffffffffffffffffffffff166325734c793386856040518463ffffffff1660e01b815260040161195c93929190613c34565b6020604051808303816000875af115801561197b573d6000803e3d6000fd5b505050506040513d601f19601f8201168201806040525081019061199f9190613c07565b9050816005856040516119b29190613764565b908152602001604051809103902081905550803373ffffffffffffffffffffffffffffffffffffffff167f897fe813740e6ba4ee552166a01c5d4f60f074ee0f88367f93a1e0fcdc9ca52786604051611a0b9190612b0e565b60405180910390a38092505050919050565b6000600160008473ffffffffffffffffffffffffffffffffffffffff1673ffffffffffffffffffffffffffffffffffffffff16815260200190815260200160002060008373ffffffffffffffffffffffffffffffffffffffff1673ffffffffffffffffffffffffffffffffffffffff16815260200190815260200160002060009054906101000a900460ff16905092915050565b611ab9611bbc565b73ffffffffffffffffffffffffffffffffffffffff168573ffffffffffffffffffffffffffffffffffffffff161480611aff5750611afe85611af9611bbc565b611a1d565b5b611b3e576040517f08c379a0000000000000000000000000000000000000000000000000000000008152600401611b3590613708565b60405180910390fd5b611b4b8585858585612075565b5050505050565b60007f01ffc9a7000000000000000000000000000000000000000000000000000000007bffffffffffffffffffffffffffffffffffffffffffffffffffffffff1916827bffffffffffffffffffffffffffffffffffffffffffffffffffffffff1916149050919050565b600033905090565b8151835114611c08576040517f08c379a0000000000000000000000000000000000000000000000000000000008152600401611bff90613ce4565b60405180910390fd5b600073ffffffffffffffffffffffffffffffffffffffff168473ffffffffffffffffffffffffffffffffffffffff1603611c77576040517f08c379a0000000000000000000000000000000000000000000000000000000008152600401611c6e90613d76565b60405180910390fd5b6000611c81611bbc565b9050611c91818787878787612310565b60005b8451811015611e42576000858281518110611cb257611cb161380d565b5b602002602001015190506000858381518110611cd157611cd061380d565b5b60200260200101519050600080600084815260200190815260200160002060008b73ffffffffffffffffffffffffffffffffffffffff1673ffffffffffffffffffffffffffffffffffffffff16815260200190815260200160002054905081811015611d72576040517f08c379a0000000000000000000000000000000000000000000000000000000008152600401611d6990613e08565b60405180910390fd5b81810360008085815260200190815260200160002060008c73ffffffffffffffffffffffffffffffffffffffff1673ffffffffffffffffffffffffffffffffffffffff168152602001908152602001600020819055508160008085815260200190815260200160002060008b73ffffffffffffffffffffffffffffffffffffffff1673ffffffffffffffffffffffffffffffffffffffff1681526020019081526020016000206000828254611e279190613e28565b9250508190555050505080611e3b9061383c565b9050611c94565b508473ffffffffffffffffffffffffffffffffffffffff168673ffffffffffffffffffffffffffffffffffffffff168273ffffffffffffffffffffffffffffffffffffffff167f4a39dc06d4c0dbc64b70af90fd698a233a518aa5d07e595d983b8c0526c8f7fb8787604051611eb9929190613e7e565b60405180910390a4611ecf818787878787612318565b611edd818787878787612320565b505050505050565b8173ffffffffffffffffffffffffffffffffffffffff168373ffffffffffffffffffffffffffffffffffffffff1603611f53576040517f08c379a0000000000000000000000000000000000000000000000000000000008152600401611f4a90613f27565b60405180910390fd5b80600160008573ffffffffffffffffffffffffffffffffffffffff1673ffffffffffffffffffffffffffffffffffffffff16815260200190815260200160002060008473ffffffffffffffffffffffffffffffffffffffff1673ffffffffffffffffffffffffffffffffffffffff16815260200190815260200160002060006101000a81548160ff0219169083151502179055508173ffffffffffffffffffffffffffffffffffffffff168373ffffffffffffffffffffffffffffffffffffffff167f17307eab39ab6107e8899845ad3d59bd9653f200f220920489ca2b5937696c31836040516120449190612a00565b60405180910390a3505050565b6001816000016000828254019250508190555050565b600081600001549050919050565b600073ffffffffffffffffffffffffffffffffffffffff168473ffffffffffffffffffffffffffffffffffffffff16036120e4576040517f08c379a00000000000000000000000000000000000000000000000000000000081526004016120db90613d76565b60405180910390fd5b60006120ee611bbc565b905060006120fb856124f7565b90506000612108856124f7565b9050612118838989858589612310565b600080600088815260200190815260200160002060008a73ffffffffffffffffffffffffffffffffffffffff1673ffffffffffffffffffffffffffffffffffffffff168152602001908152602001600020549050858110156121af576040517f08c379a00000000000000000000000000000000000000000000000000000000081526004016121a690613e08565b60405180910390fd5b85810360008089815260200190815260200160002060008b73ffffffffffffffffffffffffffffffffffffffff1673ffffffffffffffffffffffffffffffffffffffff168152602001908152602001600020819055508560008089815260200190815260200160002060008a73ffffffffffffffffffffffffffffffffffffffff1673ffffffffffffffffffffffffffffffffffffffff16815260200190815260200160002060008282546122649190613e28565b925050819055508773ffffffffffffffffffffffffffffffffffffffff168973ffffffffffffffffffffffffffffffffffffffff168573ffffffffffffffffffffffffffffffffffffffff167fc3d58168c5ae7397731d063d5bbf3d657854427343f4c083240f7aacaa2d0f628a8a6040516122e1929190613f47565b60405180910390a46122f7848a8a86868a612318565b612305848a8a8a8a8a612571565b505050505050505050565b505050505050565b505050505050565b61233f8473ffffffffffffffffffffffffffffffffffffffff16612748565b156124ef578373ffffffffffffffffffffffffffffffffffffffff1663bc197c8187878686866040518663ffffffff1660e01b8152600401612385959493929190613fc5565b6020604051808303816000875af19250505080156123c157506040513d601f19601f820116820180604052508101906123be9190614042565b60015b612466576123cd61407c565b806308c379a00361242957506123e161409e565b806123ec575061242b565b806040517f08c379a00000000000000000000000000000000000000000000000000000000081526004016124209190612b0e565b60405180910390fd5b505b6040517f08c379a000000000000000000000000000000000000000000000000000000000815260040161245d906141a0565b60405180910390fd5b63bc197c8160e01b7bffffffffffffffffffffffffffffffffffffffffffffffffffffffff1916817bffffffffffffffffffffffffffffffffffffffffffffffffffffffff1916146124ed576040517f08c379a00000000000000000000000000000000000000000000000000000000081526004016124e490614232565b60405180910390fd5b505b505050505050565b60606000600167ffffffffffffffff81111561251657612515612b35565b5b6040519080825280602002602001820160405280156125445781602001602082028036833780820191505090505b509050828160008151811061255c5761255b61380d565b5b60200260200101818152505080915050919050565b6125908473ffffffffffffffffffffffffffffffffffffffff16612748565b15612740578373ffffffffffffffffffffffffffffffffffffffff1663f23a6e6187878686866040518663ffffffff1660e01b81526004016125d6959493929190614252565b6020604051808303816000875af192505050801561261257506040513d601f19601f8201168201806040525081019061260f9190614042565b60015b6126b75761261e61407c565b806308c379a00361267a575061263261409e565b8061263d575061267c565b806040517f08c379a00000000000000000000000000000000000000000000000000000000081526004016126719190612b0e565b60405180910390fd5b505b6040517f08c379a00000000000000000000000000000000000000000000000000000000081526004016126ae906141a0565b60405180910390fd5b63f23a6e6160e01b7bffffffffffffffffffffffffffffffffffffffffffffffffffffffff1916817bffffffffffffffffffffffffffffffffffffffffffffffffffffffff19161461273e576040517f08c379a000000000000000000000000000000000000000000000000000000000815260040161273590614232565b60405180910390fd5b505b505050505050565b6000808273ffffffffffffffffffffffffffffffffffffffff163b119050919050565b50805461277790613665565b6000825580601f1061278957506127a8565b601f0160209004906000526020600020908101906127a79190612831565b5b50565b8280546127b790613665565b90600052602060002090601f0160209004810192826127d95760008555612820565b82601f106127f257805160ff1916838001178555612820565b82800160010185558215612820579182015b8281111561281f578251825591602001919060010190612804565b5b50905061282d9190612831565b5090565b5b8082111561284a576000816000905550600101612832565b5090565b6000604051905090565b600080fd5b600080fd5b600073ffffffffffffffffffffffffffffffffffffffff82169050919050565b600061288d82612862565b9050919050565b61289d81612882565b81146128a857600080fd5b50565b6000813590506128ba81612894565b92915050565b6000819050919050565b6128d3816128c0565b81146128de57600080fd5b50565b6000813590506128f0816128ca565b92915050565b6000806040838503121561290d5761290c612858565b5b600061291b858286016128ab565b925050602061292c858286016128e1565b9150509250929050565b61293f816128c0565b82525050565b600060208201905061295a6000830184612936565b92915050565b60007fffffffff0000000000000000000000000000000000000000000000000000000082169050919050565b61299581612960565b81146129a057600080fd5b50565b6000813590506129b28161298c565b92915050565b6000602082840312156129ce576129cd612858565b5b60006129dc848285016129a3565b91505092915050565b60008115159050919050565b6129fa816129e5565b82525050565b6000602082019050612a1560008301846129f1565b92915050565b600060208284031215612a3157612a30612858565b5b6000612a3f848285016128ab565b91505092915050565b600060208284031215612a5e57612a5d612858565b5b6000612a6c848285016128e1565b91505092915050565b600081519050919050565b600082825260208201905092915050565b60005b83811015612aaf578082015181840152602081019050612a94565b83811115612abe576000848401525b50505050565b6000601f19601f8301169050919050565b6000612ae082612a75565b612aea8185612a80565b9350612afa818560208601612a91565b612b0381612ac4565b840191505092915050565b60006020820190508181036000830152612b288184612ad5565b905092915050565b600080fd5b7f4e487b7100000000000000000000000000000000000000000000000000000000600052604160045260246000fd5b612b6d82612ac4565b810181811067ffffffffffffffff82111715612b8c57612b8b612b35565b5b80604052505050565b6000612b9f61284e565b9050612bab8282612b64565b919050565b600067ffffffffffffffff821115612bcb57612bca612b35565b5b602082029050602081019050919050565b600080fd5b6000612bf4612bef84612bb0565b612b95565b90508083825260208201905060208402830185811115612c1757612c16612bdc565b5b835b81811015612c405780612c2c88826128e1565b845260208401935050602081019050612c19565b5050509392505050565b600082601f830112612c5f57612c5e612b30565b5b8135612c6f848260208601612be1565b91505092915050565b600080fd5b600067ffffffffffffffff821115612c9857612c97612b35565b5b612ca182612ac4565b9050602081019050919050565b82818337600083830152505050565b6000612cd0612ccb84612c7d565b612b95565b905082815260208101848484011115612cec57612ceb612c78565b5b612cf7848285612cae565b509392505050565b600082601f830112612d1457612d13612b30565b5b8135612d24848260208601612cbd565b91505092915050565b600080600080600060a08688031215612d4957612d48612858565b5b6000612d57888289016128ab565b9550506020612d68888289016128ab565b945050604086013567ffffffffffffffff811115612d8957612d8861285d565b5b612d9588828901612c4a565b935050606086013567ffffffffffffffff811115612db657612db561285d565b5b612dc288828901612c4a565b925050608086013567ffffffffffffffff811115612de357612de261285d565b5b612def88828901612cff565b9150509295509295909350565b600067ffffffffffffffff821115612e1757612e16612b35565b5b612e2082612ac4565b9050602081019050919050565b6000612e40612e3b84612dfc565b612b95565b905082815260208101848484011115612e5c57612e5b612c78565b5b612e67848285612cae565b509392505050565b600082601f830112612e8457612e83612b30565b5b8135612e94848260208601612e2d565b91505092915050565b600060208284031215612eb357612eb2612858565b5b600082013567ffffffffffffffff811115612ed157612ed061285d565b5b612edd84828501612e6f565b91505092915050565b600067ffffffffffffffff821115612f0157612f00612b35565b5b602082029050602081019050919050565b6000612f25612f2084612ee6565b612b95565b90508083825260208201905060208402830185811115612f4857612f47612bdc565b5b835b81811015612f715780612f5d88826128ab565b845260208401935050602081019050612f4a565b5050509392505050565b600082601f830112612f9057612f8f612b30565b5b8135612fa0848260208601612f12565b91505092915050565b60008060408385031215612fc057612fbf612858565b5b600083013567ffffffffffffffff811115612fde57612fdd61285d565b5b612fea85828601612f7b565b925050602083013567ffffffffffffffff81111561300b5761300a61285d565b5b61301785828601612c4a565b9150509250929050565b600081519050919050565b600082825260208201905092915050565b6000819050602082019050919050565b613056816128c0565b82525050565b6000613068838361304d565b60208301905092915050565b6000602082019050919050565b600061308c82613021565b613096818561302c565b93506130a18361303d565b8060005b838110156130d25781516130b9888261305c565b97506130c483613074565b9250506001810190506130a5565b5085935050505092915050565b600060208201905081810360008301526130f98184613081565b905092915050565b61310a81612882565b82525050565b60006080820190506131256000830187613101565b6131326020830186612936565b81810360408301526131448185612ad5565b905061315360608301846129f1565b95945050505050565b613165816129e5565b811461317057600080fd5b50565b6000813590506131828161315c565b92915050565b6000806040838503121561319f5761319e612858565b5b60006131ad858286016128ab565b92505060206131be85828601613173565b9150509250929050565b6000806000606084860312156131e1576131e0612858565b5b60006131ef868287016128e1565b9350506020613200868287016128e1565b925050604084013567ffffffffffffffff8111156132215761322061285d565b5b61322d86828701612e6f565b9150509250925092565b6000806040838503121561324e5761324d612858565b5b600061325c858286016128ab565b925050602061326d858286016128ab565b9150509250929050565b600080600080600060a0868803121561329357613292612858565b5b60006132a1888289016128ab565b95505060206132b2888289016128ab565b94505060406132c3888289016128e1565b93505060606132d4888289016128e1565b925050608086013567ffffffffffffffff8111156132f5576132f461285d565b5b61330188828901612cff565b9150509295509295909350565b7f455243313135353a2061646472657373207a65726f206973206e6f742061207660008201527f616c6964206f776e657200000000000000000000000000000000000000000000602082015250565b600061336a602a83612a80565b91506133758261330e565b604082019050919050565b600060208201905081810360008301526133998161335d565b9050919050565b600060ff82169050919050565b6133b6816133a0565b81146133c157600080fd5b50565b6000815190506133d3816133ad565b92915050565b6000602082840312156133ef576133ee612858565b5b60006133fd848285016133c4565b91505092915050565b7f4e487b7100000000000000000000000000000000000000000000000000000000600052601160045260246000fd5b60008160011c9050919050565b6000808291508390505b600185111561348c5780860481111561346857613467613406565b5b60018516156134775780820291505b808102905061348585613435565b945061344c565b94509492505050565b6000826134a55760019050613561565b816134b35760009050613561565b81600181146134c957600281146134d357613502565b6001915050613561565b60ff8411156134e5576134e4613406565b5b8360020a9150848211156134fc576134fb613406565b5b50613561565b5060208310610133831016604e8410600b84101617156135375782820a90508381111561353257613531613406565b5b613561565b6135448484846001613442565b9250905081840481111561355b5761355a613406565b5b81810290505b9392505050565b6000613573826128c0565b915061357e836133a0565b92506135ab7fffffffffffffffffffffffffffffffffffffffffffffffffffffffffffffffff8484613495565b905092915050565b60006135be826128c0565b91506135c9836128c0565b9250817fffffffffffffffffffffffffffffffffffffffffffffffffffffffffffffffff048311821515161561360257613601613406565b5b828202905092915050565b60006040820190506136226000830185613101565b61362f6020830184612936565b9392505050565b7f4e487b7100000000000000000000000000000000000000000000000000000000600052602260045260246000fd5b6000600282049050600182168061367d57607f821691505b6020821081036136905761368f613636565b5b50919050565b7f455243313135353a2063616c6c6572206973206e6f7420746f6b656e206f776e60008201527f6572206f7220617070726f766564000000000000000000000000000000000000602082015250565b60006136f2602e83612a80565b91506136fd82613696565b604082019050919050565b60006020820190508181036000830152613721816136e5565b9050919050565b600081905092915050565b600061373e82612a75565b6137488185613728565b9350613758818560208601612a91565b80840191505092915050565b60006137708284613733565b915081905092915050565b7f455243313135353a206163636f756e747320616e6420696473206c656e67746860008201527f206d69736d617463680000000000000000000000000000000000000000000000602082015250565b60006137d7602983612a80565b91506137e28261377b565b604082019050919050565b60006020820190508181036000830152613806816137ca565b9050919050565b7f4e487b7100000000000000000000000000000000000000000000000000000000600052603260045260246000fd5b6000613847826128c0565b91507fffffffffffffffffffffffffffffffffffffffffffffffffffffffffffffffff820361387957613878613406565b5b600182019050919050565b60008151905061389381612894565b92915050565b6000602082840312156138af576138ae612858565b5b60006138bd84828501613884565b91505092915050565b7f4f6e6c7920746865206f776e65722063616e206163636570742f72656a65637460008201527f20746865206f6666657200000000000000000000000000000000000000000000602082015250565b6000613922602a83612a80565b915061392d826138c6565b604082019050919050565b6000602082019050818103600083015261395181613915565b9050919050565b7f4e6f206f6666657220746f206163636570742f72656a65637400000000000000600082015250565b600061398e601983612a80565b915061399982613958565b602082019050919050565b600060208201905081810360008301526139bd81613981565b9050919050565b6000815190506139d38161315c565b92915050565b6000602082840312156139ef576139ee612858565b5b60006139fd848285016139c4565b91505092915050565b7f416e206f6666657220616c72656164792065786973747320666f72207468697360008201527f20706f7374000000000000000000000000000000000000000000000000000000602082015250565b6000613a62602583612a80565b9150613a6d82613a06565b604082019050919050565b60006020820190508181036000830152613a9181613a55565b9050919050565b6000606082019050613aad6000830186613101565b613aba6020830185613101565b613ac76040830184612936565b949350505050565b7f546f6b656e207472616e73666572206661696c65640000000000000000000000600082015250565b6000613b05601583612a80565b9150613b1082613acf565b602082019050919050565b60006020820190508181036000830152613b3481613af8565b9050919050565b7f537472696e672065786365656473203230302063686172616374657273000000600082015250565b6000613b71601d83612a80565b9150613b7c82613b3b565b602082019050919050565b60006020820190508181036000830152613ba081613b64565b9050919050565b6000604082019050613bbc6000830185612936565b8181036020830152613bce8184612ad5565b90509392505050565b6000602082019050613bec6000830184613101565b92915050565b600081519050613c01816128ca565b92915050565b600060208284031215613c1d57613c1c612858565b5b6000613c2b84828501613bf2565b91505092915050565b6000606082019050613c496000830186613101565b8181036020830152613c5b8185612ad5565b9050613c6a6040830184612936565b949350505050565b7f455243313135353a2069647320616e6420616d6f756e7473206c656e6774682060008201527f6d69736d61746368000000000000000000000000000000000000000000000000602082015250565b6000613cce602883612a80565b9150613cd982613c72565b604082019050919050565b60006020820190508181036000830152613cfd81613cc1565b9050919050565b7f455243313135353a207472616e7366657220746f20746865207a65726f20616460008201527f6472657373000000000000000000000000000000000000000000000000000000602082015250565b6000613d60602583612a80565b9150613d6b82613d04565b604082019050919050565b60006020820190508181036000830152613d8f81613d53565b9050919050565b7f455243313135353a20696e73756666696369656e742062616c616e636520666f60008201527f72207472616e7366657200000000000000000000000000000000000000000000602082015250565b6000613df2602a83612a80565b9150613dfd82613d96565b604082019050919050565b60006020820190508181036000830152613e2181613de5565b9050919050565b6000613e33826128c0565b9150613e3e836128c0565b9250827fffffffffffffffffffffffffffffffffffffffffffffffffffffffffffffffff03821115613e7357613e72613406565b5b828201905092915050565b60006040820190508181036000830152613e988185613081565b90508181036020830152613eac8184613081565b90509392505050565b7f455243313135353a2073657474696e6720617070726f76616c2073746174757360008201527f20666f722073656c660000000000000000000000000000000000000000000000602082015250565b6000613f11602983612a80565b9150613f1c82613eb5565b604082019050919050565b60006020820190508181036000830152613f4081613f04565b9050919050565b6000604082019050613f5c6000830185612936565b613f696020830184612936565b9392505050565b600081519050919050565b600082825260208201905092915050565b6000613f9782613f70565b613fa18185613f7b565b9350613fb1818560208601612a91565b613fba81612ac4565b840191505092915050565b600060a082019050613fda6000830188613101565b613fe76020830187613101565b8181036040830152613ff98186613081565b9050818103606083015261400d8185613081565b905081810360808301526140218184613f8c565b90509695505050505050565b60008151905061403c8161298c565b92915050565b60006020828403121561405857614057612858565b5b60006140668482850161402d565b91505092915050565b60008160e01c9050919050565b600060033d111561409b5760046000803e61409860005161406f565b90505b90565b600060443d1061412b576140b061284e565b60043d036004823e80513d602482011167ffffffffffffffff821117156140d857505061412b565b808201805167ffffffffffffffff8111156140f6575050505061412b565b80602083010160043d03850181111561411357505050505061412b565b61412282602001850186612b64565b82955050505050505b90565b7f455243313135353a207472616e7366657220746f206e6f6e2d4552433131353560008201527f526563656976657220696d706c656d656e746572000000000000000000000000602082015250565b600061418a603483612a80565b91506141958261412e565b604082019050919050565b600060208201905081810360008301526141b98161417d565b9050919050565b7f455243313135353a204552433131353552656365697665722072656a6563746560008201527f6420746f6b656e73000000000000000000000000000000000000000000000000602082015250565b600061421c602883612a80565b9150614227826141c0565b604082019050919050565b6000602082019050818103600083015261424b8161420f565b9050919050565b600060a0820190506142676000830188613101565b6142746020830187613101565b6142816040830186612936565b61428e6060830185612936565b81810360808301526142a08184613f8c565b9050969550505050505056fea26469706673582212202e517980ca6a05624ce2e05fb57f1acfcbc79e442519dad5e39e695914088c3864736f6c634300080d0033",
  "immutableReferences": {},
  "source": "// SPDX-License-Identifier: UNLICENSED\npragma solidity ^0.8.13;\n\nimport \"./BlogCraftNFT.sol\";\nimport \"./WriteToken.sol\";\nimport \"@openzeppelin/contracts/utils/Counters.sol\";\nimport \"@openzeppelin/contracts/token/ERC1155/ERC1155.sol\";\n\ncontract TokenSwap is ERC1155{\n    BlogCraftNFT private blogNFT;\n    WriteToken private writeToken;\n\n    uint256 public constant BLOGCRAFTNFT = 0;\n    uint256 public constant WRITETOKEN = 1;\n\n    event OfferMade(uint256 indexed postId, address indexed buyer, address indexed seller,uint256 amount, string message); // Event when new offer is created\n    event OfferAccepted(uint256 indexed tokenId, address indexed buyer);\n    event OfferRejected(uint256 indexed tokenId, address indexed buyer);\n    event RewardedPublisher(address indexed publisher, uint256 amount);\n    event LikedPost(address indexed viewer, uint256 amount);\n    event postnftcreated(address indexed author, uint256 indexed tokenId, string tokenURI);\n    \n    mapping(string => uint256) private uriToTokenId; \n    using Counters for Counters.Counter;\n    Counters.Counter private _tokenIds;\n\n    modifier noExistingOffer(uint256 postId) {\n        require(!postOffers[postId].exists, \"An offer already exists for this post\");\n        _;\n    }\n\n    modifier validTokenTransfer(uint256 offerAmount) {\n        require(writeToken.transferFrom(msg.sender, address(this), offerAmount), \"Token transfer failed\");\n        _;\n    }\n\n    modifier validMessageLength(string memory message) {\n    require(bytes(message).length <= 200, \"String exceeds 200 characters\");\n        _;\n    }\n\n    modifier offerExists(uint256 postId) {\n    require(postOffers[postId].exists, \"No offer to accept/reject\");\n    _;\n    }\n\n    modifier onlyPostOwner(uint256 postId) {\n    require(blogNFT.ownerOf(postId) == msg.sender, \"Only the owner can accept/reject the offer\");\n    _;\n    }\n\n    struct Offer {\n        address buyer;\n        uint256 amount;\n        string message;\n        bool exists;\n    }\n\n    mapping(uint256 => Offer) public postOffers; // NFT post ID to its current offer\n\n    constructor(address _blogNFT, address _writeToken) ERC1155(\"localhost:8080/uri/{id}\") {\n        blogNFT = BlogCraftNFT(_blogNFT);\n        writeToken = WriteToken(_writeToken);\n    }\n\n    function getWTT(address publisher) external view returns (uint256) {\n        return writeToken.balanceOf(publisher);\n    }\n\n    function rewardPublisher(address publisher) external {\n        uint256 rewardAmount = 20 * 10 ** writeToken.decimals();\n\n        writeToken.rewardPublisher(publisher, rewardAmount);\n        emit RewardedPublisher(publisher, rewardAmount); \n\n    }\n\n    function getTokenIdFromURI(string memory uri) external view returns (uint256){\n        return uriToTokenId[uri];\n    }\n\n    function likePost(address viewer) external {\n        uint256 rewardAmount = 1 * 10 ** writeToken.decimals();\n\n        writeToken.likePost(viewer, rewardAmount);\n        emit LikedPost(viewer, rewardAmount);\n    }\n\n    function createPostNFT(string memory uri) external returns (uint256) {\n        _tokenIds.increment();\n        uint256 newItemId = _tokenIds.current();\n        uint256 itemId = blogNFT.createPostNFT(msg.sender, uri, newItemId);\n        uriToTokenId[uri] = newItemId;\n        emit postnftcreated(msg.sender, itemId, uri);\n        return itemId;\n    }\n    \n    function makeOffer(uint256 postId, uint256 offerAmount, string memory message) \n        external\n        noExistingOffer(postId)\n        validTokenTransfer(offerAmount)\n        validMessageLength(message)\n    {\n        // Record the offer\n        postOffers[postId] = Offer({\n            buyer: msg.sender,\n            amount: offerAmount,\n            message: message,\n            exists: true\n        });\n\n        // Find the owner of the post\n        address postOwner = blogNFT.ownerOf(postId);\n\n        // Emit the event\n        emit OfferMade(postId, msg.sender, postOwner, offerAmount, message);\n    }\n\n    function acceptOffer(uint256 postId) \n        external\n        offerExists(postId)\n        onlyPostOwner(postId)\n    {\n        Offer memory offer = postOffers[postId];\n\n        // Transfer the offer amount to the post owner\n        writeToken.transfer(msg.sender, offer.amount);\n\n        // Transfer the NFT to the buyer\n        blogNFT.transferFrom(msg.sender, offer.buyer, postId);\n\n        // Emit the OfferAccepted event\n        emit OfferAccepted(postId, offer.buyer);\n\n        // Remove the offer\n        delete postOffers[postId];\n    }\n\n\n    function rejectOffer(uint256 postId) \n        external\n        onlyPostOwner(postId)\n        offerExists(postId)\n    {\n        Offer memory offer = postOffers[postId];\n\n        // Refund the buyer\n        writeToken.transfer(offer.buyer, offer.amount);\n        \n        // Emit the OfferRejected event\n        emit OfferRejected(postId, offer.buyer);\n\n        // Remove the offer\n        delete postOffers[postId];\n    }\n\n\n}\n",
  "sourcePath": "/Users/sangmokhan/Documents/CSE426Project/project-contract/contracts/TokenSwap.sol",
  "compiler": {
    "name": "solc",
    "version": "0.8.13+commit.abaa5c0e.Emscripten.clang"
  },
  "schemaVersion": "3.4.16",
  "updatedAt": "2023-11-28T19:15:45.472Z",
  "networkType": "ethereum",
  "devdoc": {
    "kind": "dev",
    "methods": {
      "balanceOf(address,uint256)": {
        "details": "See {IERC1155-balanceOf}. Requirements: - `account` cannot be the zero address."
      },
      "balanceOfBatch(address[],uint256[])": {
        "details": "See {IERC1155-balanceOfBatch}. Requirements: - `accounts` and `ids` must have the same length."
      },
      "isApprovedForAll(address,address)": {
        "details": "See {IERC1155-isApprovedForAll}."
      },
      "safeBatchTransferFrom(address,address,uint256[],uint256[],bytes)": {
        "details": "See {IERC1155-safeBatchTransferFrom}."
      },
      "safeTransferFrom(address,address,uint256,uint256,bytes)": {
        "details": "See {IERC1155-safeTransferFrom}."
      },
      "setApprovalForAll(address,bool)": {
        "details": "See {IERC1155-setApprovalForAll}."
      },
      "supportsInterface(bytes4)": {
        "details": "See {IERC165-supportsInterface}."
      },
      "uri(uint256)": {
        "details": "See {IERC1155MetadataURI-uri}. This implementation returns the same URI for *all* token types. It relies on the token type ID substitution mechanism https://eips.ethereum.org/EIPS/eip-1155#metadata[defined in the EIP]. Clients calling this function must replace the `\\{id\\}` substring with the actual token type ID."
      }
    },
    "version": 1
  },
  "userdoc": {
    "kind": "user",
    "methods": {},
    "version": 1
  }
}