{
  "contractName": "TokenSwap",
  "abi": [
    {
      "inputs": [
        {
          "internalType": "address",
          "name": "_blogNFT",
          "type": "address"
        },
        {
          "internalType": "address",
          "name": "_writeToken",
          "type": "address"
        }
      ],
      "stateMutability": "nonpayable",
      "type": "constructor"
    },
    {
      "anonymous": false,
      "inputs": [
        {
          "indexed": true,
          "internalType": "address",
          "name": "viewer",
          "type": "address"
        },
        {
          "indexed": false,
          "internalType": "uint256",
          "name": "amount",
          "type": "uint256"
        }
      ],
      "name": "LikedPost",
      "type": "event"
    },
    {
      "anonymous": false,
      "inputs": [
        {
          "indexed": true,
          "internalType": "uint256",
          "name": "tokenId",
          "type": "uint256"
        },
        {
          "indexed": true,
          "internalType": "address",
          "name": "buyer",
          "type": "address"
        }
      ],
      "name": "OfferAccepted",
      "type": "event"
    },
    {
      "anonymous": false,
      "inputs": [
        {
          "indexed": true,
          "internalType": "uint256",
          "name": "postId",
          "type": "uint256"
        },
        {
          "indexed": true,
          "internalType": "address",
          "name": "buyer",
          "type": "address"
        },
        {
          "indexed": true,
          "internalType": "address",
          "name": "seller",
          "type": "address"
        },
        {
          "indexed": false,
          "internalType": "uint256",
          "name": "amount",
          "type": "uint256"
        },
        {
          "indexed": false,
          "internalType": "string",
          "name": "message",
          "type": "string"
        }
      ],
      "name": "OfferMade",
      "type": "event"
    },
    {
      "anonymous": false,
      "inputs": [
        {
          "indexed": true,
          "internalType": "uint256",
          "name": "tokenId",
          "type": "uint256"
        },
        {
          "indexed": true,
          "internalType": "address",
          "name": "buyer",
          "type": "address"
        }
      ],
      "name": "OfferRejected",
      "type": "event"
    },
    {
      "anonymous": false,
      "inputs": [
        {
          "indexed": true,
          "internalType": "address",
          "name": "publisher",
          "type": "address"
        },
        {
          "indexed": false,
          "internalType": "uint256",
          "name": "amount",
          "type": "uint256"
        }
      ],
      "name": "RewardedPublisher",
      "type": "event"
    },
    {
      "anonymous": false,
      "inputs": [
        {
          "indexed": true,
          "internalType": "address",
          "name": "author",
          "type": "address"
        },
        {
          "indexed": true,
          "internalType": "uint256",
          "name": "tokenId",
          "type": "uint256"
        },
        {
          "indexed": false,
          "internalType": "string",
          "name": "tokenURI",
          "type": "string"
        }
      ],
      "name": "postnftcreated",
      "type": "event"
    },
    {
      "inputs": [
        {
          "internalType": "uint256",
          "name": "",
          "type": "uint256"
        }
      ],
      "name": "postOffers",
      "outputs": [
        {
          "internalType": "address",
          "name": "buyer",
          "type": "address"
        },
        {
          "internalType": "uint256",
          "name": "amount",
          "type": "uint256"
        },
        {
          "internalType": "string",
          "name": "message",
          "type": "string"
        },
        {
          "internalType": "bool",
          "name": "exists",
          "type": "bool"
        }
      ],
      "stateMutability": "view",
      "type": "function",
      "constant": true
    },
    {
      "inputs": [
        {
          "internalType": "address",
          "name": "publisher",
          "type": "address"
        }
      ],
      "name": "getWTT",
      "outputs": [
        {
          "internalType": "uint256",
          "name": "",
          "type": "uint256"
        }
      ],
      "stateMutability": "view",
      "type": "function",
      "constant": true
    },
    {
      "inputs": [
        {
          "internalType": "address",
          "name": "publisher",
          "type": "address"
        }
      ],
      "name": "rewardPublisher",
      "outputs": [],
      "stateMutability": "nonpayable",
      "type": "function"
    },
    {
      "inputs": [
        {
          "internalType": "string",
          "name": "uri",
          "type": "string"
        }
      ],
      "name": "getTokenIdFromURI",
      "outputs": [
        {
          "internalType": "uint256",
          "name": "",
          "type": "uint256"
        }
      ],
      "stateMutability": "view",
      "type": "function",
      "constant": true
    },
    {
      "inputs": [
        {
          "internalType": "address",
          "name": "viewer",
          "type": "address"
        }
      ],
      "name": "likePost",
      "outputs": [],
      "stateMutability": "nonpayable",
      "type": "function"
    },
    {
      "inputs": [
        {
          "internalType": "string",
          "name": "uri",
          "type": "string"
        }
      ],
      "name": "createPostNFT",
      "outputs": [
        {
          "internalType": "uint256",
          "name": "",
          "type": "uint256"
        }
      ],
      "stateMutability": "nonpayable",
      "type": "function"
    },
    {
      "inputs": [
        {
          "internalType": "uint256",
          "name": "postId",
          "type": "uint256"
        },
        {
          "internalType": "uint256",
          "name": "offerAmount",
          "type": "uint256"
        },
        {
          "internalType": "string",
          "name": "message",
          "type": "string"
        }
      ],
      "name": "makeOffer",
      "outputs": [],
      "stateMutability": "nonpayable",
      "type": "function"
    },
    {
      "inputs": [
        {
          "internalType": "uint256",
          "name": "postId",
          "type": "uint256"
        }
      ],
      "name": "acceptOffer",
      "outputs": [],
      "stateMutability": "nonpayable",
      "type": "function"
    },
    {
      "inputs": [
        {
          "internalType": "uint256",
          "name": "postId",
          "type": "uint256"
        }
      ],
      "name": "rejectOffer",
      "outputs": [],
      "stateMutability": "nonpayable",
      "type": "function"
    }
  ],
  "bytecode": "0x60806040523480156200001157600080fd5b50604051620022463803806200224683398181016040528101906200003791906200012a565b816000806101000a81548173ffffffffffffffffffffffffffffffffffffffff021916908373ffffffffffffffffffffffffffffffffffffffff16021790555080600160006101000a81548173ffffffffffffffffffffffffffffffffffffffff021916908373ffffffffffffffffffffffffffffffffffffffff160217905550505062000171565b600080fd5b600073ffffffffffffffffffffffffffffffffffffffff82169050919050565b6000620000f282620000c5565b9050919050565b6200010481620000e5565b81146200011057600080fd5b50565b6000815190506200012481620000f9565b92915050565b60008060408385031215620001445762000143620000c0565b5b6000620001548582860162000113565b9250506020620001678582860162000113565b9150509250929050565b6120c580620001816000396000f3fe608060405234801561001057600080fd5b50600436106100935760003560e01c806388b10c751161006657806388b10c7514610133578063ab7e12781461014f578063c74eea981461016b578063c815729d1461019b578063d46074d9146101b757610093565b806302397a821461009857806306b71665146100b45780633576dc9b146100d0578063578a2b8114610100575b600080fd5b6100b260048036038101906100ad9190611569565b6101e7565b005b6100ce60048036038101906100c99190611569565b610375565b005b6100ea60048036038101906100e591906116dc565b610503565b6040516100f7919061173e565b60405180910390f35b61011a60048036038101906101159190611785565b61052b565b60405161012a9493929190611864565b60405180910390f35b61014d60048036038101906101489190611785565b610610565b005b610169600480360381019061016491906118b0565b610a0b565b005b61018560048036038101906101809190611569565b610d86565b604051610192919061173e565b60405180910390f35b6101b560048036038101906101b09190611785565b610e2b565b005b6101d160048036038101906101cc91906116dc565b6112b5565b6040516101de919061173e565b60405180910390f35b6000600160009054906101000a900473ffffffffffffffffffffffffffffffffffffffff1673ffffffffffffffffffffffffffffffffffffffff1663313ce5676040518163ffffffff1660e01b8152600401602060405180830381865afa158015610256573d6000803e3d6000fd5b505050506040513d601f19601f8201168201806040525081019061027a9190611958565b600a6102869190611ae7565b60016102929190611b32565b9050600160009054906101000a900473ffffffffffffffffffffffffffffffffffffffff1673ffffffffffffffffffffffffffffffffffffffff16634835152983836040518363ffffffff1660e01b81526004016102f1929190611b8c565b600060405180830381600087803b15801561030b57600080fd5b505af115801561031f573d6000803e3d6000fd5b505050508173ffffffffffffffffffffffffffffffffffffffff167ffa8a92ebf776575fb7c2efc630a26b9ee094c224c4c7544cf434dbbf28e061f282604051610369919061173e565b60405180910390a25050565b6000600160009054906101000a900473ffffffffffffffffffffffffffffffffffffffff1673ffffffffffffffffffffffffffffffffffffffff1663313ce5676040518163ffffffff1660e01b8152600401602060405180830381865afa1580156103e4573d6000803e3d6000fd5b505050506040513d601f19601f820116820180604052508101906104089190611958565b600a6104149190611ae7565b60146104209190611b32565b9050600160009054906101000a900473ffffffffffffffffffffffffffffffffffffffff1673ffffffffffffffffffffffffffffffffffffffff16638a9df63483836040518363ffffffff1660e01b815260040161047f929190611b8c565b600060405180830381600087803b15801561049957600080fd5b505af11580156104ad573d6000803e3d6000fd5b505050508173ffffffffffffffffffffffffffffffffffffffff167fdff4eebbbcc937c4fce2a467a1b76874a440554c2001250279d496e5f4338764826040516104f7919061173e565b60405180910390a25050565b60006002826040516105159190611bf1565b9081526020016040518091039020549050919050565b60046020528060005260406000206000915090508060000160009054906101000a900473ffffffffffffffffffffffffffffffffffffffff169080600101549080600201805461057a90611c37565b80601f01602080910402602001604051908101604052809291908181526020018280546105a690611c37565b80156105f35780601f106105c8576101008083540402835291602001916105f3565b820191906000526020600020905b8154815290600101906020018083116105d657829003601f168201915b5050505050908060030160009054906101000a900460ff16905084565b803373ffffffffffffffffffffffffffffffffffffffff1660008054906101000a900473ffffffffffffffffffffffffffffffffffffffff1673ffffffffffffffffffffffffffffffffffffffff16636352211e836040518263ffffffff1660e01b8152600401610681919061173e565b602060405180830381865afa15801561069e573d6000803e3d6000fd5b505050506040513d601f19601f820116820180604052508101906106c29190611c7d565b73ffffffffffffffffffffffffffffffffffffffff1614610718576040517f08c379a000000000000000000000000000000000000000000000000000000000815260040161070f90611d1c565b60405180910390fd5b816004600082815260200190815260200160002060030160009054906101000a900460ff1661077c576040517f08c379a000000000000000000000000000000000000000000000000000000000815260040161077390611d88565b60405180910390fd5b6000600460008581526020019081526020016000206040518060800160405290816000820160009054906101000a900473ffffffffffffffffffffffffffffffffffffffff1673ffffffffffffffffffffffffffffffffffffffff1673ffffffffffffffffffffffffffffffffffffffff1681526020016001820154815260200160028201805461080c90611c37565b80601f016020809104026020016040519081016040528092919081815260200182805461083890611c37565b80156108855780601f1061085a57610100808354040283529160200191610885565b820191906000526020600020905b81548152906001019060200180831161086857829003601f168201915b505050505081526020016003820160009054906101000a900460ff1615151515815250509050600160009054906101000a900473ffffffffffffffffffffffffffffffffffffffff1673ffffffffffffffffffffffffffffffffffffffff1663a9059cbb826000015183602001516040518363ffffffff1660e01b8152600401610910929190611b8c565b6020604051808303816000875af115801561092f573d6000803e3d6000fd5b505050506040513d601f19601f820116820180604052508101906109539190611dd4565b50806000015173ffffffffffffffffffffffffffffffffffffffff16847f1b15bc319d6f29dd5bcf76cd2b89490ed2fe49f1a31fb6b8624b0029fd85c26560405160405180910390a360046000858152602001908152602001600020600080820160006101000a81549073ffffffffffffffffffffffffffffffffffffffff021916905560018201600090556002820160006109ef9190611414565b6003820160006101000a81549060ff0219169055505050505050565b826004600082815260200190815260200160002060030160009054906101000a900460ff1615610a70576040517f08c379a0000000000000000000000000000000000000000000000000000000008152600401610a6790611e73565b60405180910390fd5b82600160009054906101000a900473ffffffffffffffffffffffffffffffffffffffff1673ffffffffffffffffffffffffffffffffffffffff166323b872dd3330846040518463ffffffff1660e01b8152600401610ad093929190611e93565b6020604051808303816000875af1158015610aef573d6000803e3d6000fd5b505050506040513d601f19601f82011682018060405250810190610b139190611dd4565b610b52576040517f08c379a0000000000000000000000000000000000000000000000000000000008152600401610b4990611f16565b60405180910390fd5b8260c881511115610b98576040517f08c379a0000000000000000000000000000000000000000000000000000000008152600401610b8f90611f82565b60405180910390fd5b60405180608001604052803373ffffffffffffffffffffffffffffffffffffffff168152602001868152602001858152602001600115158152506004600088815260200190815260200160002060008201518160000160006101000a81548173ffffffffffffffffffffffffffffffffffffffff021916908373ffffffffffffffffffffffffffffffffffffffff160217905550602082015181600101556040820151816002019080519060200190610c52929190611454565b5060608201518160030160006101000a81548160ff02191690831515021790555090505060008060009054906101000a900473ffffffffffffffffffffffffffffffffffffffff1673ffffffffffffffffffffffffffffffffffffffff16636352211e886040518263ffffffff1660e01b8152600401610cd2919061173e565b602060405180830381865afa158015610cef573d6000803e3d6000fd5b505050506040513d601f19601f82011682018060405250810190610d139190611c7d565b90508073ffffffffffffffffffffffffffffffffffffffff163373ffffffffffffffffffffffffffffffffffffffff16887f7246e18351fc9342d415e2d6954d5967c351bde093f90b612bb7d76d93ffc7ba8989604051610d75929190611fa2565b60405180910390a450505050505050565b6000600160009054906101000a900473ffffffffffffffffffffffffffffffffffffffff1673ffffffffffffffffffffffffffffffffffffffff166370a08231836040518263ffffffff1660e01b8152600401610de39190611fd2565b602060405180830381865afa158015610e00573d6000803e3d6000fd5b505050506040513d601f19601f82011682018060405250810190610e249190612002565b9050919050565b806004600082815260200190815260200160002060030160009054906101000a900460ff16610e8f576040517f08c379a0000000000000000000000000000000000000000000000000000000008152600401610e8690611d88565b60405180910390fd5b813373ffffffffffffffffffffffffffffffffffffffff1660008054906101000a900473ffffffffffffffffffffffffffffffffffffffff1673ffffffffffffffffffffffffffffffffffffffff16636352211e836040518263ffffffff1660e01b8152600401610f00919061173e565b602060405180830381865afa158015610f1d573d6000803e3d6000fd5b505050506040513d601f19601f82011682018060405250810190610f419190611c7d565b73ffffffffffffffffffffffffffffffffffffffff1614610f97576040517f08c379a0000000000000000000000000000000000000000000000000000000008152600401610f8e90611d1c565b60405180910390fd5b6000600460008581526020019081526020016000206040518060800160405290816000820160009054906101000a900473ffffffffffffffffffffffffffffffffffffffff1673ffffffffffffffffffffffffffffffffffffffff1673ffffffffffffffffffffffffffffffffffffffff1681526020016001820154815260200160028201805461102790611c37565b80601f016020809104026020016040519081016040528092919081815260200182805461105390611c37565b80156110a05780601f10611075576101008083540402835291602001916110a0565b820191906000526020600020905b81548152906001019060200180831161108357829003601f168201915b505050505081526020016003820160009054906101000a900460ff1615151515815250509050600160009054906101000a900473ffffffffffffffffffffffffffffffffffffffff1673ffffffffffffffffffffffffffffffffffffffff1663a9059cbb3383602001516040518363ffffffff1660e01b8152600401611127929190611b8c565b6020604051808303816000875af1158015611146573d6000803e3d6000fd5b505050506040513d601f19601f8201168201806040525081019061116a9190611dd4565b5060008054906101000a900473ffffffffffffffffffffffffffffffffffffffff1673ffffffffffffffffffffffffffffffffffffffff166323b872dd338360000151876040518463ffffffff1660e01b81526004016111cc93929190611e93565b600060405180830381600087803b1580156111e657600080fd5b505af11580156111fa573d6000803e3d6000fd5b50505050806000015173ffffffffffffffffffffffffffffffffffffffff16847fa7a40af5a1d0c10a3eb94af90cb008170915e8a71a6aaff052794cd762c72fc060405160405180910390a360046000858152602001908152602001600020600080820160006101000a81549073ffffffffffffffffffffffffffffffffffffffff021916905560018201600090556002820160006112999190611414565b6003820160006101000a81549060ff0219169055505050505050565b60006112c160036113f0565b60006112cd6003611406565b905060008060009054906101000a900473ffffffffffffffffffffffffffffffffffffffff1673ffffffffffffffffffffffffffffffffffffffff166325734c793386856040518463ffffffff1660e01b815260040161132f9392919061202f565b6020604051808303816000875af115801561134e573d6000803e3d6000fd5b505050506040513d601f19601f820116820180604052508101906113729190612002565b9050816002856040516113859190611bf1565b908152602001604051809103902081905550803373ffffffffffffffffffffffffffffffffffffffff167f897fe813740e6ba4ee552166a01c5d4f60f074ee0f88367f93a1e0fcdc9ca527866040516113de919061206d565b60405180910390a38092505050919050565b6001816000016000828254019250508190555050565b600081600001549050919050565b50805461142090611c37565b6000825580601f106114325750611451565b601f01602090049060005260206000209081019061145091906114da565b5b50565b82805461146090611c37565b90600052602060002090601f01602090048101928261148257600085556114c9565b82601f1061149b57805160ff19168380011785556114c9565b828001600101855582156114c9579182015b828111156114c85782518255916020019190600101906114ad565b5b5090506114d691906114da565b5090565b5b808211156114f35760008160009055506001016114db565b5090565b6000604051905090565b600080fd5b600080fd5b600073ffffffffffffffffffffffffffffffffffffffff82169050919050565b60006115368261150b565b9050919050565b6115468161152b565b811461155157600080fd5b50565b6000813590506115638161153d565b92915050565b60006020828403121561157f5761157e611501565b5b600061158d84828501611554565b91505092915050565b600080fd5b600080fd5b6000601f19601f8301169050919050565b7f4e487b7100000000000000000000000000000000000000000000000000000000600052604160045260246000fd5b6115e9826115a0565b810181811067ffffffffffffffff82111715611608576116076115b1565b5b80604052505050565b600061161b6114f7565b905061162782826115e0565b919050565b600067ffffffffffffffff821115611647576116466115b1565b5b611650826115a0565b9050602081019050919050565b82818337600083830152505050565b600061167f61167a8461162c565b611611565b90508281526020810184848401111561169b5761169a61159b565b5b6116a684828561165d565b509392505050565b600082601f8301126116c3576116c2611596565b5b81356116d384826020860161166c565b91505092915050565b6000602082840312156116f2576116f1611501565b5b600082013567ffffffffffffffff8111156117105761170f611506565b5b61171c848285016116ae565b91505092915050565b6000819050919050565b61173881611725565b82525050565b6000602082019050611753600083018461172f565b92915050565b61176281611725565b811461176d57600080fd5b50565b60008135905061177f81611759565b92915050565b60006020828403121561179b5761179a611501565b5b60006117a984828501611770565b91505092915050565b6117bb8161152b565b82525050565b600081519050919050565b600082825260208201905092915050565b60005b838110156117fb5780820151818401526020810190506117e0565b8381111561180a576000848401525b50505050565b600061181b826117c1565b61182581856117cc565b93506118358185602086016117dd565b61183e816115a0565b840191505092915050565b60008115159050919050565b61185e81611849565b82525050565b600060808201905061187960008301876117b2565b611886602083018661172f565b81810360408301526118988185611810565b90506118a76060830184611855565b95945050505050565b6000806000606084860312156118c9576118c8611501565b5b60006118d786828701611770565b93505060206118e886828701611770565b925050604084013567ffffffffffffffff81111561190957611908611506565b5b611915868287016116ae565b9150509250925092565b600060ff82169050919050565b6119358161191f565b811461194057600080fd5b50565b6000815190506119528161192c565b92915050565b60006020828403121561196e5761196d611501565b5b600061197c84828501611943565b91505092915050565b7f4e487b7100000000000000000000000000000000000000000000000000000000600052601160045260246000fd5b60008160011c9050919050565b6000808291508390505b6001851115611a0b578086048111156119e7576119e6611985565b5b60018516156119f65780820291505b8081029050611a04856119b4565b94506119cb565b94509492505050565b600082611a245760019050611ae0565b81611a325760009050611ae0565b8160018114611a485760028114611a5257611a81565b6001915050611ae0565b60ff841115611a6457611a63611985565b5b8360020a915084821115611a7b57611a7a611985565b5b50611ae0565b5060208310610133831016604e8410600b8410161715611ab65782820a905083811115611ab157611ab0611985565b5b611ae0565b611ac384848460016119c1565b92509050818404811115611ada57611ad9611985565b5b81810290505b9392505050565b6000611af282611725565b9150611afd8361191f565b9250611b2a7fffffffffffffffffffffffffffffffffffffffffffffffffffffffffffffffff8484611a14565b905092915050565b6000611b3d82611725565b9150611b4883611725565b9250817fffffffffffffffffffffffffffffffffffffffffffffffffffffffffffffffff0483118215151615611b8157611b80611985565b5b828202905092915050565b6000604082019050611ba160008301856117b2565b611bae602083018461172f565b9392505050565b600081905092915050565b6000611bcb826117c1565b611bd58185611bb5565b9350611be58185602086016117dd565b80840191505092915050565b6000611bfd8284611bc0565b915081905092915050565b7f4e487b7100000000000000000000000000000000000000000000000000000000600052602260045260246000fd5b60006002820490506001821680611c4f57607f821691505b602082108103611c6257611c61611c08565b5b50919050565b600081519050611c778161153d565b92915050565b600060208284031215611c9357611c92611501565b5b6000611ca184828501611c68565b91505092915050565b7f4f6e6c7920746865206f776e65722063616e206163636570742f72656a65637460008201527f20746865206f6666657200000000000000000000000000000000000000000000602082015250565b6000611d06602a836117cc565b9150611d1182611caa565b604082019050919050565b60006020820190508181036000830152611d3581611cf9565b9050919050565b7f4e6f206f6666657220746f206163636570742f72656a65637400000000000000600082015250565b6000611d726019836117cc565b9150611d7d82611d3c565b602082019050919050565b60006020820190508181036000830152611da181611d65565b9050919050565b611db181611849565b8114611dbc57600080fd5b50565b600081519050611dce81611da8565b92915050565b600060208284031215611dea57611de9611501565b5b6000611df884828501611dbf565b91505092915050565b7f416e206f6666657220616c72656164792065786973747320666f72207468697360008201527f20706f7374000000000000000000000000000000000000000000000000000000602082015250565b6000611e5d6025836117cc565b9150611e6882611e01565b604082019050919050565b60006020820190508181036000830152611e8c81611e50565b9050919050565b6000606082019050611ea860008301866117b2565b611eb560208301856117b2565b611ec2604083018461172f565b949350505050565b7f546f6b656e207472616e73666572206661696c65640000000000000000000000600082015250565b6000611f006015836117cc565b9150611f0b82611eca565b602082019050919050565b60006020820190508181036000830152611f2f81611ef3565b9050919050565b7f537472696e672065786365656473203230302063686172616374657273000000600082015250565b6000611f6c601d836117cc565b9150611f7782611f36565b602082019050919050565b60006020820190508181036000830152611f9b81611f5f565b9050919050565b6000604082019050611fb7600083018561172f565b8181036020830152611fc98184611810565b90509392505050565b6000602082019050611fe760008301846117b2565b92915050565b600081519050611ffc81611759565b92915050565b60006020828403121561201857612017611501565b5b600061202684828501611fed565b91505092915050565b600060608201905061204460008301866117b2565b81810360208301526120568185611810565b9050612065604083018461172f565b949350505050565b600060208201905081810360008301526120878184611810565b90509291505056fea26469706673582212209fefdea0f263a705ee556e8eb10fc40b752593a569a60e338c386aa76b9ad00564736f6c634300080d0033",
  "immutableReferences": {},
  "source": "// SPDX-License-Identifier: UNLICENSED\npragma solidity ^0.8.13;\n\nimport \"./BlogCraftNFT.sol\";\nimport \"./WriteToken.sol\";\nimport \"@openzeppelin/contracts/utils/Counters.sol\";\n\ncontract TokenSwap {\n    BlogCraftNFT private blogNFT;\n    WriteToken private writeToken;\n    event OfferMade(uint256 indexed postId, address indexed buyer, address indexed seller,uint256 amount, string message); // Event when new offer is created\n    event OfferAccepted(uint256 indexed tokenId, address indexed buyer);\n    event OfferRejected(uint256 indexed tokenId, address indexed buyer);\n    event RewardedPublisher(address indexed publisher, uint256 amount);\n    event LikedPost(address indexed viewer, uint256 amount);\n    event postnftcreated(address indexed author, uint256 indexed tokenId, string tokenURI);\n    \n    mapping(string => uint256) private uriToTokenId;\n    using Counters for Counters.Counter;\n    Counters.Counter private _tokenIds;\n\n    modifier noExistingOffer(uint256 postId) {\n        require(!postOffers[postId].exists, \"An offer already exists for this post\");\n        _;\n    }\n\n    modifier validTokenTransfer(uint256 offerAmount) {\n        require(writeToken.transferFrom(msg.sender, address(this), offerAmount), \"Token transfer failed\");\n        _;\n    }\n\n    modifier validMessageLength(string memory message) {\n    require(bytes(message).length <= 200, \"String exceeds 200 characters\");\n        _;\n    }\n\n    modifier offerExists(uint256 postId) {\n    require(postOffers[postId].exists, \"No offer to accept/reject\");\n    _;\n    }\n\n    modifier onlyPostOwner(uint256 postId) {\n    require(blogNFT.ownerOf(postId) == msg.sender, \"Only the owner can accept/reject the offer\");\n    _;\n    }\n\n    struct Offer {\n        address buyer;\n        uint256 amount;\n        string message;\n        bool exists;\n    }\n\n    mapping(uint256 => Offer) public postOffers; // NFT post ID to its current offer\n\n    constructor(address _blogNFT, address _writeToken) {\n        blogNFT = BlogCraftNFT(_blogNFT);\n        writeToken = WriteToken(_writeToken);\n    }\n\n    function getWTT(address publisher) external view returns (uint256) {\n        return writeToken.balanceOf(publisher);\n    }\n\n    function rewardPublisher(address publisher) external {\n        uint256 rewardAmount = 20 * 10 ** writeToken.decimals();\n\n        writeToken.rewardPublisher(publisher, rewardAmount);\n        emit RewardedPublisher(publisher, rewardAmount); \n\n    }\n\n    function getTokenIdFromURI(string memory uri) external view returns (uint256){\n        return uriToTokenId[uri];\n    }\n\n    function likePost(address viewer) external {\n        uint256 rewardAmount = 1 * 10 ** writeToken.decimals();\n\n        writeToken.likePost(viewer, rewardAmount);\n        emit LikedPost(viewer, rewardAmount);\n    }\n\n    function createPostNFT(string memory uri) external returns (uint256) {\n        _tokenIds.increment();\n        uint256 newItemId = _tokenIds.current();\n        uint256 itemId = blogNFT.createPostNFT(msg.sender, uri, newItemId);\n        uriToTokenId[uri] = newItemId;\n        emit postnftcreated(msg.sender, itemId, uri);\n        return itemId;\n    }\n    \n    function makeOffer(uint256 postId, uint256 offerAmount, string memory message) \n        external\n        noExistingOffer(postId)\n        validTokenTransfer(offerAmount)\n        validMessageLength(message)\n    {\n        // Record the offer\n        postOffers[postId] = Offer({\n            buyer: msg.sender,\n            amount: offerAmount,\n            message: message,\n            exists: true\n        });\n\n        // Find the owner of the post\n        address postOwner = blogNFT.ownerOf(postId);\n\n        // Emit the event\n        emit OfferMade(postId, msg.sender, postOwner, offerAmount, message);\n    }\n\n    function acceptOffer(uint256 postId) \n        external\n        offerExists(postId)\n        onlyPostOwner(postId)\n    {\n        Offer memory offer = postOffers[postId];\n\n        // Transfer the offer amount to the post owner\n        writeToken.transfer(msg.sender, offer.amount);\n\n        // Transfer the NFT to the buyer\n        blogNFT.transferFrom(msg.sender, offer.buyer, postId);\n\n        // Emit the OfferAccepted event\n        emit OfferAccepted(postId, offer.buyer);\n\n        // Remove the offer\n        delete postOffers[postId];\n    }\n\n\n    function rejectOffer(uint256 postId) \n        external\n        onlyPostOwner(postId)\n        offerExists(postId)\n    {\n        Offer memory offer = postOffers[postId];\n\n        // Refund the buyer\n        writeToken.transfer(offer.buyer, offer.amount);\n        \n        // Emit the OfferRejected event\n        emit OfferRejected(postId, offer.buyer);\n\n        // Remove the offer\n        delete postOffers[postId];\n    }\n\n\n}\n",
  "sourcePath": "/Users/sangmokhan/Documents/CSE426Project/project-contract/contracts/TokenSwap.sol",
  "compiler": {
    "name": "solc",
    "version": "0.8.13+commit.abaa5c0e.Emscripten.clang"
  },
  "schemaVersion": "3.4.16",
  "updatedAt": "2023-11-26T01:22:46.294Z",
  "networkType": "ethereum",
  "devdoc": {
    "kind": "dev",
    "methods": {},
    "version": 1
  },
  "userdoc": {
    "kind": "user",
    "methods": {},
    "version": 1
  }
}