{
  "contractName": "TokenSwap",
  "abi": [
    {
      "inputs": [
        {
          "internalType": "address",
          "name": "_blogNFT",
          "type": "address"
        },
        {
          "internalType": "address",
          "name": "_writeToken",
          "type": "address"
        }
      ],
      "stateMutability": "nonpayable",
      "type": "constructor"
    },
    {
      "anonymous": false,
      "inputs": [
        {
          "indexed": true,
          "internalType": "address",
          "name": "account",
          "type": "address"
        },
        {
          "indexed": true,
          "internalType": "address",
          "name": "operator",
          "type": "address"
        },
        {
          "indexed": false,
          "internalType": "bool",
          "name": "approved",
          "type": "bool"
        }
      ],
      "name": "ApprovalForAll",
      "type": "event"
    },
    {
      "anonymous": false,
      "inputs": [
        {
          "indexed": true,
          "internalType": "address",
          "name": "viewer",
          "type": "address"
        },
        {
          "indexed": false,
          "internalType": "uint256",
          "name": "amount",
          "type": "uint256"
        }
      ],
      "name": "LikedPost",
      "type": "event"
    },
    {
      "anonymous": false,
      "inputs": [
        {
          "indexed": true,
          "internalType": "uint256",
          "name": "tokenId",
          "type": "uint256"
        },
        {
          "indexed": true,
          "internalType": "address",
          "name": "buyer",
          "type": "address"
        }
      ],
      "name": "OfferAccepted",
      "type": "event"
    },
    {
      "anonymous": false,
      "inputs": [
        {
          "indexed": true,
          "internalType": "uint256",
          "name": "postId",
          "type": "uint256"
        },
        {
          "indexed": true,
          "internalType": "address",
          "name": "buyer",
          "type": "address"
        },
        {
          "indexed": true,
          "internalType": "address",
          "name": "seller",
          "type": "address"
        },
        {
          "indexed": false,
          "internalType": "uint256",
          "name": "amount",
          "type": "uint256"
        },
        {
          "indexed": false,
          "internalType": "string",
          "name": "message",
          "type": "string"
        }
      ],
      "name": "OfferMade",
      "type": "event"
    },
    {
      "anonymous": false,
      "inputs": [
        {
          "indexed": true,
          "internalType": "uint256",
          "name": "tokenId",
          "type": "uint256"
        },
        {
          "indexed": true,
          "internalType": "address",
          "name": "buyer",
          "type": "address"
        }
      ],
      "name": "OfferRejected",
      "type": "event"
    },
    {
      "anonymous": false,
      "inputs": [
        {
          "indexed": true,
          "internalType": "address",
          "name": "publisher",
          "type": "address"
        },
        {
          "indexed": false,
          "internalType": "uint256",
          "name": "amount",
          "type": "uint256"
        }
      ],
      "name": "RewardedPublisher",
      "type": "event"
    },
    {
      "anonymous": false,
      "inputs": [
        {
          "indexed": true,
          "internalType": "address",
          "name": "operator",
          "type": "address"
        },
        {
          "indexed": true,
          "internalType": "address",
          "name": "from",
          "type": "address"
        },
        {
          "indexed": true,
          "internalType": "address",
          "name": "to",
          "type": "address"
        },
        {
          "indexed": false,
          "internalType": "uint256[]",
          "name": "ids",
          "type": "uint256[]"
        },
        {
          "indexed": false,
          "internalType": "uint256[]",
          "name": "values",
          "type": "uint256[]"
        }
      ],
      "name": "TransferBatch",
      "type": "event"
    },
    {
      "anonymous": false,
      "inputs": [
        {
          "indexed": true,
          "internalType": "address",
          "name": "operator",
          "type": "address"
        },
        {
          "indexed": true,
          "internalType": "address",
          "name": "from",
          "type": "address"
        },
        {
          "indexed": true,
          "internalType": "address",
          "name": "to",
          "type": "address"
        },
        {
          "indexed": false,
          "internalType": "uint256",
          "name": "id",
          "type": "uint256"
        },
        {
          "indexed": false,
          "internalType": "uint256",
          "name": "value",
          "type": "uint256"
        }
      ],
      "name": "TransferSingle",
      "type": "event"
    },
    {
      "anonymous": false,
      "inputs": [
        {
          "indexed": false,
          "internalType": "string",
          "name": "value",
          "type": "string"
        },
        {
          "indexed": true,
          "internalType": "uint256",
          "name": "id",
          "type": "uint256"
        }
      ],
      "name": "URI",
      "type": "event"
    },
    {
      "anonymous": false,
      "inputs": [
        {
          "indexed": true,
          "internalType": "address",
          "name": "author",
          "type": "address"
        },
        {
          "indexed": true,
          "internalType": "uint256",
          "name": "tokenId",
          "type": "uint256"
        },
        {
          "indexed": false,
          "internalType": "string",
          "name": "tokenURI",
          "type": "string"
        }
      ],
      "name": "postnftcreated",
      "type": "event"
    },
    {
      "inputs": [
        {
          "internalType": "address",
          "name": "account",
          "type": "address"
        },
        {
          "internalType": "uint256",
          "name": "id",
          "type": "uint256"
        }
      ],
      "name": "balanceOf",
      "outputs": [
        {
          "internalType": "uint256",
          "name": "",
          "type": "uint256"
        }
      ],
      "stateMutability": "view",
      "type": "function",
      "constant": true
    },
    {
      "inputs": [
        {
          "internalType": "address[]",
          "name": "accounts",
          "type": "address[]"
        },
        {
          "internalType": "uint256[]",
          "name": "ids",
          "type": "uint256[]"
        }
      ],
      "name": "balanceOfBatch",
      "outputs": [
        {
          "internalType": "uint256[]",
          "name": "",
          "type": "uint256[]"
        }
      ],
      "stateMutability": "view",
      "type": "function",
      "constant": true
    },
    {
      "inputs": [
        {
          "internalType": "address",
          "name": "account",
          "type": "address"
        },
        {
          "internalType": "address",
          "name": "operator",
          "type": "address"
        }
      ],
      "name": "isApprovedForAll",
      "outputs": [
        {
          "internalType": "bool",
          "name": "",
          "type": "bool"
        }
      ],
      "stateMutability": "view",
      "type": "function",
      "constant": true
    },
    {
      "inputs": [
        {
          "internalType": "uint256",
          "name": "",
          "type": "uint256"
        }
      ],
      "name": "postOffers",
      "outputs": [
        {
          "internalType": "address",
          "name": "buyer",
          "type": "address"
        },
        {
          "internalType": "uint256",
          "name": "amount",
          "type": "uint256"
        },
        {
          "internalType": "string",
          "name": "message",
          "type": "string"
        },
        {
          "internalType": "bool",
          "name": "exists",
          "type": "bool"
        }
      ],
      "stateMutability": "view",
      "type": "function",
      "constant": true
    },
    {
      "inputs": [
        {
          "internalType": "address",
          "name": "from",
          "type": "address"
        },
        {
          "internalType": "address",
          "name": "to",
          "type": "address"
        },
        {
          "internalType": "uint256[]",
          "name": "ids",
          "type": "uint256[]"
        },
        {
          "internalType": "uint256[]",
          "name": "amounts",
          "type": "uint256[]"
        },
        {
          "internalType": "bytes",
          "name": "data",
          "type": "bytes"
        }
      ],
      "name": "safeBatchTransferFrom",
      "outputs": [],
      "stateMutability": "nonpayable",
      "type": "function"
    },
    {
      "inputs": [
        {
          "internalType": "address",
          "name": "from",
          "type": "address"
        },
        {
          "internalType": "address",
          "name": "to",
          "type": "address"
        },
        {
          "internalType": "uint256",
          "name": "id",
          "type": "uint256"
        },
        {
          "internalType": "uint256",
          "name": "amount",
          "type": "uint256"
        },
        {
          "internalType": "bytes",
          "name": "data",
          "type": "bytes"
        }
      ],
      "name": "safeTransferFrom",
      "outputs": [],
      "stateMutability": "nonpayable",
      "type": "function"
    },
    {
      "inputs": [
        {
          "internalType": "address",
          "name": "operator",
          "type": "address"
        },
        {
          "internalType": "bool",
          "name": "approved",
          "type": "bool"
        }
      ],
      "name": "setApprovalForAll",
      "outputs": [],
      "stateMutability": "nonpayable",
      "type": "function"
    },
    {
      "inputs": [
        {
          "internalType": "bytes4",
          "name": "interfaceId",
          "type": "bytes4"
        }
      ],
      "name": "supportsInterface",
      "outputs": [
        {
          "internalType": "bool",
          "name": "",
          "type": "bool"
        }
      ],
      "stateMutability": "view",
      "type": "function",
      "constant": true
    },
    {
      "inputs": [
        {
          "internalType": "uint256",
          "name": "",
          "type": "uint256"
        }
      ],
      "name": "uri",
      "outputs": [
        {
          "internalType": "string",
          "name": "",
          "type": "string"
        }
      ],
      "stateMutability": "view",
      "type": "function",
      "constant": true
    },
    {
      "inputs": [
        {
          "internalType": "address",
          "name": "publisher",
          "type": "address"
        }
      ],
      "name": "getWTT",
      "outputs": [
        {
          "internalType": "uint256",
          "name": "",
          "type": "uint256"
        }
      ],
      "stateMutability": "view",
      "type": "function",
      "constant": true
    },
    {
      "inputs": [
        {
          "internalType": "address",
          "name": "publisher",
          "type": "address"
        }
      ],
      "name": "rewardPublisher",
      "outputs": [],
      "stateMutability": "nonpayable",
      "type": "function"
    },
    {
      "inputs": [
        {
          "internalType": "string",
          "name": "uri",
          "type": "string"
        }
      ],
      "name": "getTokenIdFromURI",
      "outputs": [
        {
          "internalType": "uint256",
          "name": "",
          "type": "uint256"
        }
      ],
      "stateMutability": "view",
      "type": "function",
      "constant": true
    },
    {
      "inputs": [
        {
          "internalType": "address",
          "name": "viewer",
          "type": "address"
        }
      ],
      "name": "likePost",
      "outputs": [],
      "stateMutability": "nonpayable",
      "type": "function"
    },
    {
      "inputs": [
        {
          "internalType": "string",
          "name": "uri",
          "type": "string"
        }
      ],
      "name": "createPostNFT",
      "outputs": [
        {
          "internalType": "uint256",
          "name": "",
          "type": "uint256"
        }
      ],
      "stateMutability": "nonpayable",
      "type": "function"
    },
    {
      "inputs": [
        {
          "internalType": "uint256",
          "name": "postId",
          "type": "uint256"
        },
        {
          "internalType": "uint256",
          "name": "offerAmount",
          "type": "uint256"
        },
        {
          "internalType": "string",
          "name": "message",
          "type": "string"
        }
      ],
      "name": "makeOffer",
      "outputs": [],
      "stateMutability": "nonpayable",
      "type": "function"
    },
    {
      "inputs": [
        {
          "internalType": "uint256",
          "name": "postId",
          "type": "uint256"
        }
      ],
      "name": "acceptOffer",
      "outputs": [],
      "stateMutability": "nonpayable",
      "type": "function"
    },
    {
      "inputs": [
        {
          "internalType": "uint256",
          "name": "postId",
          "type": "uint256"
        }
      ],
      "name": "rejectOffer",
      "outputs": [],
      "stateMutability": "nonpayable",
      "type": "function"
    }
  ],
  "bytecode": "0x60806040523480156200001157600080fd5b506040516200459b3803806200459b83398181016040528101906200003791906200025a565b6040518060200160405280600081525062000058816200012460201b60201c565b5081600360006101000a81548173ffffffffffffffffffffffffffffffffffffffff021916908373ffffffffffffffffffffffffffffffffffffffff16021790555080600460006101000a81548173ffffffffffffffffffffffffffffffffffffffff021916908373ffffffffffffffffffffffffffffffffffffffff16021790555033600760006101000a81548173ffffffffffffffffffffffffffffffffffffffff021916908373ffffffffffffffffffffffffffffffffffffffff160217905550505062000305565b80600290805190602001906200013c92919062000140565b5050565b8280546200014e90620002d0565b90600052602060002090601f016020900481019282620001725760008555620001be565b82601f106200018d57805160ff1916838001178555620001be565b82800160010185558215620001be579182015b82811115620001bd578251825591602001919060010190620001a0565b5b509050620001cd9190620001d1565b5090565b5b80821115620001ec576000816000905550600101620001d2565b5090565b600080fd5b600073ffffffffffffffffffffffffffffffffffffffff82169050919050565b60006200022282620001f5565b9050919050565b620002348162000215565b81146200024057600080fd5b50565b600081519050620002548162000229565b92915050565b60008060408385031215620002745762000273620001f0565b5b6000620002848582860162000243565b9250506020620002978582860162000243565b9150509250929050565b7f4e487b7100000000000000000000000000000000000000000000000000000000600052602260045260246000fd5b60006002820490506001821680620002e957607f821691505b602082108103620002ff57620002fe620002a1565b5b50919050565b61428680620003156000396000f3fe608060405234801561001057600080fd5b506004361061010a5760003560e01c8063578a2b81116100a2578063c74eea9811610071578063c74eea98146102da578063c815729d1461030a578063d46074d914610326578063e985e9c514610356578063f242432a146103865761010a565b8063578a2b811461025357806388b10c7514610286578063a22cb465146102a2578063ab7e1278146102be5761010a565b80630e89341c116100de5780630e89341c146101a75780632eb2c2d6146101d75780633576dc9b146101f35780634e1273f4146102235761010a565b8062fdd58e1461010f57806301ffc9a71461013f57806302397a821461016f57806306b716651461018b575b600080fd5b6101296004803603810190610124919061289a565b6103a2565b60405161013691906128e9565b60405180910390f35b6101596004803603810190610154919061295c565b61046a565b60405161016691906129a4565b60405180910390f35b610189600480360381019061018491906129bf565b61054c565b005b6101a560048036038101906101a091906129bf565b6106da565b005b6101c160048036038101906101bc91906129ec565b610868565b6040516101ce9190612ab2565b60405180910390f35b6101f160048036038101906101ec9190612cd1565b6108fc565b005b61020d60048036038101906102089190612e41565b61099d565b60405161021a91906128e9565b60405180910390f35b61023d60048036038101906102389190612f4d565b6109c5565b60405161024a9190613083565b60405180910390f35b61026d600480360381019061026891906129ec565b610ade565b60405161027d94939291906130b4565b60405180910390f35b6102a0600480360381019061029b91906129ec565b610bc3565b005b6102bc60048036038101906102b7919061312c565b610fc0565b005b6102d860048036038101906102d3919061316c565b610fd6565b005b6102f460048036038101906102ef91906129bf565b611352565b60405161030191906128e9565b60405180910390f35b610324600480360381019061031f91906129ec565b6113f7565b005b610340600480360381019061033b9190612e41565b611885565b60405161034d91906128e9565b60405180910390f35b610370600480360381019061036b91906131db565b6119c1565b60405161037d91906129a4565b60405180910390f35b6103a0600480360381019061039b919061321b565b611a55565b005b60008073ffffffffffffffffffffffffffffffffffffffff168373ffffffffffffffffffffffffffffffffffffffff1603610412576040517f08c379a000000000000000000000000000000000000000000000000000000000815260040161040990613324565b60405180910390fd5b60008083815260200190815260200160002060008473ffffffffffffffffffffffffffffffffffffffff1673ffffffffffffffffffffffffffffffffffffffff16815260200190815260200160002054905092915050565b60007fd9b67a26000000000000000000000000000000000000000000000000000000007bffffffffffffffffffffffffffffffffffffffffffffffffffffffff1916827bffffffffffffffffffffffffffffffffffffffffffffffffffffffff1916148061053557507f0e89341c000000000000000000000000000000000000000000000000000000007bffffffffffffffffffffffffffffffffffffffffffffffffffffffff1916827bffffffffffffffffffffffffffffffffffffffffffffffffffffffff1916145b80610545575061054482611af6565b5b9050919050565b6000600460009054906101000a900473ffffffffffffffffffffffffffffffffffffffff1673ffffffffffffffffffffffffffffffffffffffff1663313ce5676040518163ffffffff1660e01b8152600401602060405180830381865afa1580156105bb573d6000803e3d6000fd5b505050506040513d601f19601f820116820180604052508101906105df919061337d565b600a6105eb919061350c565b60016105f79190613557565b9050600460009054906101000a900473ffffffffffffffffffffffffffffffffffffffff1673ffffffffffffffffffffffffffffffffffffffff16634835152983836040518363ffffffff1660e01b81526004016106569291906135b1565b600060405180830381600087803b15801561067057600080fd5b505af1158015610684573d6000803e3d6000fd5b505050508173ffffffffffffffffffffffffffffffffffffffff167ffa8a92ebf776575fb7c2efc630a26b9ee094c224c4c7544cf434dbbf28e061f2826040516106ce91906128e9565b60405180910390a25050565b6000600460009054906101000a900473ffffffffffffffffffffffffffffffffffffffff1673ffffffffffffffffffffffffffffffffffffffff1663313ce5676040518163ffffffff1660e01b8152600401602060405180830381865afa158015610749573d6000803e3d6000fd5b505050506040513d601f19601f8201168201806040525081019061076d919061337d565b600a610779919061350c565b60146107859190613557565b9050600460009054906101000a900473ffffffffffffffffffffffffffffffffffffffff1673ffffffffffffffffffffffffffffffffffffffff16638a9df63483836040518363ffffffff1660e01b81526004016107e49291906135b1565b600060405180830381600087803b1580156107fe57600080fd5b505af1158015610812573d6000803e3d6000fd5b505050508173ffffffffffffffffffffffffffffffffffffffff167fdff4eebbbcc937c4fce2a467a1b76874a440554c2001250279d496e5f43387648260405161085c91906128e9565b60405180910390a25050565b60606002805461087790613609565b80601f01602080910402602001604051908101604052809291908181526020018280546108a390613609565b80156108f05780601f106108c5576101008083540402835291602001916108f0565b820191906000526020600020905b8154815290600101906020018083116108d357829003601f168201915b50505050509050919050565b610904611b60565b73ffffffffffffffffffffffffffffffffffffffff168573ffffffffffffffffffffffffffffffffffffffff16148061094a575061094985610944611b60565b6119c1565b5b610989576040517f08c379a0000000000000000000000000000000000000000000000000000000008152600401610980906136ac565b60405180910390fd5b6109968585858585611b68565b5050505050565b60006005826040516109af9190613708565b9081526020016040518091039020549050919050565b60608151835114610a0b576040517f08c379a0000000000000000000000000000000000000000000000000000000008152600401610a0290613791565b60405180910390fd5b6000835167ffffffffffffffff811115610a2857610a27612ad9565b5b604051908082528060200260200182016040528015610a565781602001602082028036833780820191505090505b50905060005b8451811015610ad357610aa3858281518110610a7b57610a7a6137b1565b5b6020026020010151858381518110610a9657610a956137b1565b5b60200260200101516103a2565b828281518110610ab657610ab56137b1565b5b60200260200101818152505080610acc906137e0565b9050610a5c565b508091505092915050565b60086020528060005260406000206000915090508060000160009054906101000a900473ffffffffffffffffffffffffffffffffffffffff1690806001015490806002018054610b2d90613609565b80601f0160208091040260200160405190810160405280929190818152602001828054610b5990613609565b8015610ba65780601f10610b7b57610100808354040283529160200191610ba6565b820191906000526020600020905b815481529060010190602001808311610b8957829003601f168201915b5050505050908060030160009054906101000a900460ff16905084565b803373ffffffffffffffffffffffffffffffffffffffff16600360009054906101000a900473ffffffffffffffffffffffffffffffffffffffff1673ffffffffffffffffffffffffffffffffffffffff16636352211e836040518263ffffffff1660e01b8152600401610c3691906128e9565b602060405180830381865afa158015610c53573d6000803e3d6000fd5b505050506040513d601f19601f82011682018060405250810190610c77919061383d565b73ffffffffffffffffffffffffffffffffffffffff1614610ccd576040517f08c379a0000000000000000000000000000000000000000000000000000000008152600401610cc4906138dc565b60405180910390fd5b816008600082815260200190815260200160002060030160009054906101000a900460ff16610d31576040517f08c379a0000000000000000000000000000000000000000000000000000000008152600401610d2890613948565b60405180910390fd5b6000600860008581526020019081526020016000206040518060800160405290816000820160009054906101000a900473ffffffffffffffffffffffffffffffffffffffff1673ffffffffffffffffffffffffffffffffffffffff1673ffffffffffffffffffffffffffffffffffffffff16815260200160018201548152602001600282018054610dc190613609565b80601f0160208091040260200160405190810160405280929190818152602001828054610ded90613609565b8015610e3a5780601f10610e0f57610100808354040283529160200191610e3a565b820191906000526020600020905b815481529060010190602001808311610e1d57829003601f168201915b505050505081526020016003820160009054906101000a900460ff1615151515815250509050600460009054906101000a900473ffffffffffffffffffffffffffffffffffffffff1673ffffffffffffffffffffffffffffffffffffffff1663a9059cbb826000015183602001516040518363ffffffff1660e01b8152600401610ec59291906135b1565b6020604051808303816000875af1158015610ee4573d6000803e3d6000fd5b505050506040513d601f19601f82011682018060405250810190610f08919061397d565b50806000015173ffffffffffffffffffffffffffffffffffffffff16847f1b15bc319d6f29dd5bcf76cd2b89490ed2fe49f1a31fb6b8624b0029fd85c26560405160405180910390a360086000858152602001908152602001600020600080820160006101000a81549073ffffffffffffffffffffffffffffffffffffffff02191690556001820160009055600282016000610fa4919061270f565b6003820160006101000a81549060ff0219169055505050505050565b610fd2610fcb611b60565b8383611e89565b5050565b826008600082815260200190815260200160002060030160009054906101000a900460ff161561103b576040517f08c379a000000000000000000000000000000000000000000000000000000000815260040161103290613a1c565b60405180910390fd5b82600460009054906101000a900473ffffffffffffffffffffffffffffffffffffffff1673ffffffffffffffffffffffffffffffffffffffff166323b872dd3330846040518463ffffffff1660e01b815260040161109b93929190613a3c565b6020604051808303816000875af11580156110ba573d6000803e3d6000fd5b505050506040513d601f19601f820116820180604052508101906110de919061397d565b61111d576040517f08c379a000000000000000000000000000000000000000000000000000000000815260040161111490613abf565b60405180910390fd5b8260c881511115611163576040517f08c379a000000000000000000000000000000000000000000000000000000000815260040161115a90613b2b565b60405180910390fd5b60405180608001604052803373ffffffffffffffffffffffffffffffffffffffff168152602001868152602001858152602001600115158152506008600088815260200190815260200160002060008201518160000160006101000a81548173ffffffffffffffffffffffffffffffffffffffff021916908373ffffffffffffffffffffffffffffffffffffffff16021790555060208201518160010155604082015181600201908051906020019061121d92919061274f565b5060608201518160030160006101000a81548160ff0219169083151502179055509050506000600360009054906101000a900473ffffffffffffffffffffffffffffffffffffffff1673ffffffffffffffffffffffffffffffffffffffff16636352211e886040518263ffffffff1660e01b815260040161129e91906128e9565b602060405180830381865afa1580156112bb573d6000803e3d6000fd5b505050506040513d601f19601f820116820180604052508101906112df919061383d565b90508073ffffffffffffffffffffffffffffffffffffffff163373ffffffffffffffffffffffffffffffffffffffff16887f7246e18351fc9342d415e2d6954d5967c351bde093f90b612bb7d76d93ffc7ba8989604051611341929190613b4b565b60405180910390a450505050505050565b6000600460009054906101000a900473ffffffffffffffffffffffffffffffffffffffff1673ffffffffffffffffffffffffffffffffffffffff166370a08231836040518263ffffffff1660e01b81526004016113af9190613b7b565b602060405180830381865afa1580156113cc573d6000803e3d6000fd5b505050506040513d601f19601f820116820180604052508101906113f09190613bab565b9050919050565b806008600082815260200190815260200160002060030160009054906101000a900460ff1661145b576040517f08c379a000000000000000000000000000000000000000000000000000000000815260040161145290613948565b60405180910390fd5b813373ffffffffffffffffffffffffffffffffffffffff16600360009054906101000a900473ffffffffffffffffffffffffffffffffffffffff1673ffffffffffffffffffffffffffffffffffffffff16636352211e836040518263ffffffff1660e01b81526004016114ce91906128e9565b602060405180830381865afa1580156114eb573d6000803e3d6000fd5b505050506040513d601f19601f8201168201806040525081019061150f919061383d565b73ffffffffffffffffffffffffffffffffffffffff1614611565576040517f08c379a000000000000000000000000000000000000000000000000000000000815260040161155c906138dc565b60405180910390fd5b6000600860008581526020019081526020016000206040518060800160405290816000820160009054906101000a900473ffffffffffffffffffffffffffffffffffffffff1673ffffffffffffffffffffffffffffffffffffffff1673ffffffffffffffffffffffffffffffffffffffff168152602001600182015481526020016002820180546115f590613609565b80601f016020809104026020016040519081016040528092919081815260200182805461162190613609565b801561166e5780601f106116435761010080835404028352916020019161166e565b820191906000526020600020905b81548152906001019060200180831161165157829003601f168201915b505050505081526020016003820160009054906101000a900460ff1615151515815250509050600460009054906101000a900473ffffffffffffffffffffffffffffffffffffffff1673ffffffffffffffffffffffffffffffffffffffff1663a9059cbb3383602001516040518363ffffffff1660e01b81526004016116f59291906135b1565b6020604051808303816000875af1158015611714573d6000803e3d6000fd5b505050506040513d601f19601f82011682018060405250810190611738919061397d565b50600360009054906101000a900473ffffffffffffffffffffffffffffffffffffffff1673ffffffffffffffffffffffffffffffffffffffff166323b872dd338360000151876040518463ffffffff1660e01b815260040161179c93929190613a3c565b600060405180830381600087803b1580156117b657600080fd5b505af11580156117ca573d6000803e3d6000fd5b50505050806000015173ffffffffffffffffffffffffffffffffffffffff16847fa7a40af5a1d0c10a3eb94af90cb008170915e8a71a6aaff052794cd762c72fc060405160405180910390a360086000858152602001908152602001600020600080820160006101000a81549073ffffffffffffffffffffffffffffffffffffffff02191690556001820160009055600282016000611869919061270f565b6003820160006101000a81549060ff0219169055505050505050565b60006118916006611ff5565b600061189d600661200b565b90506000600360009054906101000a900473ffffffffffffffffffffffffffffffffffffffff1673ffffffffffffffffffffffffffffffffffffffff166325734c793386856040518463ffffffff1660e01b815260040161190093929190613bd8565b6020604051808303816000875af115801561191f573d6000803e3d6000fd5b505050506040513d601f19601f820116820180604052508101906119439190613bab565b9050816005856040516119569190613708565b908152602001604051809103902081905550803373ffffffffffffffffffffffffffffffffffffffff167f897fe813740e6ba4ee552166a01c5d4f60f074ee0f88367f93a1e0fcdc9ca527866040516119af9190612ab2565b60405180910390a38092505050919050565b6000600160008473ffffffffffffffffffffffffffffffffffffffff1673ffffffffffffffffffffffffffffffffffffffff16815260200190815260200160002060008373ffffffffffffffffffffffffffffffffffffffff1673ffffffffffffffffffffffffffffffffffffffff16815260200190815260200160002060009054906101000a900460ff16905092915050565b611a5d611b60565b73ffffffffffffffffffffffffffffffffffffffff168573ffffffffffffffffffffffffffffffffffffffff161480611aa35750611aa285611a9d611b60565b6119c1565b5b611ae2576040517f08c379a0000000000000000000000000000000000000000000000000000000008152600401611ad9906136ac565b60405180910390fd5b611aef8585858585612019565b5050505050565b60007f01ffc9a7000000000000000000000000000000000000000000000000000000007bffffffffffffffffffffffffffffffffffffffffffffffffffffffff1916827bffffffffffffffffffffffffffffffffffffffffffffffffffffffff1916149050919050565b600033905090565b8151835114611bac576040517f08c379a0000000000000000000000000000000000000000000000000000000008152600401611ba390613c88565b60405180910390fd5b600073ffffffffffffffffffffffffffffffffffffffff168473ffffffffffffffffffffffffffffffffffffffff1603611c1b576040517f08c379a0000000000000000000000000000000000000000000000000000000008152600401611c1290613d1a565b60405180910390fd5b6000611c25611b60565b9050611c358187878787876122b4565b60005b8451811015611de6576000858281518110611c5657611c556137b1565b5b602002602001015190506000858381518110611c7557611c746137b1565b5b60200260200101519050600080600084815260200190815260200160002060008b73ffffffffffffffffffffffffffffffffffffffff1673ffffffffffffffffffffffffffffffffffffffff16815260200190815260200160002054905081811015611d16576040517f08c379a0000000000000000000000000000000000000000000000000000000008152600401611d0d90613dac565b60405180910390fd5b81810360008085815260200190815260200160002060008c73ffffffffffffffffffffffffffffffffffffffff1673ffffffffffffffffffffffffffffffffffffffff168152602001908152602001600020819055508160008085815260200190815260200160002060008b73ffffffffffffffffffffffffffffffffffffffff1673ffffffffffffffffffffffffffffffffffffffff1681526020019081526020016000206000828254611dcb9190613dcc565b9250508190555050505080611ddf906137e0565b9050611c38565b508473ffffffffffffffffffffffffffffffffffffffff168673ffffffffffffffffffffffffffffffffffffffff168273ffffffffffffffffffffffffffffffffffffffff167f4a39dc06d4c0dbc64b70af90fd698a233a518aa5d07e595d983b8c0526c8f7fb8787604051611e5d929190613e22565b60405180910390a4611e738187878787876122bc565b611e818187878787876122c4565b505050505050565b8173ffffffffffffffffffffffffffffffffffffffff168373ffffffffffffffffffffffffffffffffffffffff1603611ef7576040517f08c379a0000000000000000000000000000000000000000000000000000000008152600401611eee90613ecb565b60405180910390fd5b80600160008573ffffffffffffffffffffffffffffffffffffffff1673ffffffffffffffffffffffffffffffffffffffff16815260200190815260200160002060008473ffffffffffffffffffffffffffffffffffffffff1673ffffffffffffffffffffffffffffffffffffffff16815260200190815260200160002060006101000a81548160ff0219169083151502179055508173ffffffffffffffffffffffffffffffffffffffff168373ffffffffffffffffffffffffffffffffffffffff167f17307eab39ab6107e8899845ad3d59bd9653f200f220920489ca2b5937696c3183604051611fe891906129a4565b60405180910390a3505050565b6001816000016000828254019250508190555050565b600081600001549050919050565b600073ffffffffffffffffffffffffffffffffffffffff168473ffffffffffffffffffffffffffffffffffffffff1603612088576040517f08c379a000000000000000000000000000000000000000000000000000000000815260040161207f90613d1a565b60405180910390fd5b6000612092611b60565b9050600061209f8561249b565b905060006120ac8561249b565b90506120bc8389898585896122b4565b600080600088815260200190815260200160002060008a73ffffffffffffffffffffffffffffffffffffffff1673ffffffffffffffffffffffffffffffffffffffff16815260200190815260200160002054905085811015612153576040517f08c379a000000000000000000000000000000000000000000000000000000000815260040161214a90613dac565b60405180910390fd5b85810360008089815260200190815260200160002060008b73ffffffffffffffffffffffffffffffffffffffff1673ffffffffffffffffffffffffffffffffffffffff168152602001908152602001600020819055508560008089815260200190815260200160002060008a73ffffffffffffffffffffffffffffffffffffffff1673ffffffffffffffffffffffffffffffffffffffff16815260200190815260200160002060008282546122089190613dcc565b925050819055508773ffffffffffffffffffffffffffffffffffffffff168973ffffffffffffffffffffffffffffffffffffffff168573ffffffffffffffffffffffffffffffffffffffff167fc3d58168c5ae7397731d063d5bbf3d657854427343f4c083240f7aacaa2d0f628a8a604051612285929190613eeb565b60405180910390a461229b848a8a86868a6122bc565b6122a9848a8a8a8a8a612515565b505050505050505050565b505050505050565b505050505050565b6122e38473ffffffffffffffffffffffffffffffffffffffff166126ec565b15612493578373ffffffffffffffffffffffffffffffffffffffff1663bc197c8187878686866040518663ffffffff1660e01b8152600401612329959493929190613f69565b6020604051808303816000875af192505050801561236557506040513d601f19601f820116820180604052508101906123629190613fe6565b60015b61240a57612371614020565b806308c379a0036123cd5750612385614042565b8061239057506123cf565b806040517f08c379a00000000000000000000000000000000000000000000000000000000081526004016123c49190612ab2565b60405180910390fd5b505b6040517f08c379a000000000000000000000000000000000000000000000000000000000815260040161240190614144565b60405180910390fd5b63bc197c8160e01b7bffffffffffffffffffffffffffffffffffffffffffffffffffffffff1916817bffffffffffffffffffffffffffffffffffffffffffffffffffffffff191614612491576040517f08c379a0000000000000000000000000000000000000000000000000000000008152600401612488906141d6565b60405180910390fd5b505b505050505050565b60606000600167ffffffffffffffff8111156124ba576124b9612ad9565b5b6040519080825280602002602001820160405280156124e85781602001602082028036833780820191505090505b5090508281600081518110612500576124ff6137b1565b5b60200260200101818152505080915050919050565b6125348473ffffffffffffffffffffffffffffffffffffffff166126ec565b156126e4578373ffffffffffffffffffffffffffffffffffffffff1663f23a6e6187878686866040518663ffffffff1660e01b815260040161257a9594939291906141f6565b6020604051808303816000875af19250505080156125b657506040513d601f19601f820116820180604052508101906125b39190613fe6565b60015b61265b576125c2614020565b806308c379a00361261e57506125d6614042565b806125e15750612620565b806040517f08c379a00000000000000000000000000000000000000000000000000000000081526004016126159190612ab2565b60405180910390fd5b505b6040517f08c379a000000000000000000000000000000000000000000000000000000000815260040161265290614144565b60405180910390fd5b63f23a6e6160e01b7bffffffffffffffffffffffffffffffffffffffffffffffffffffffff1916817bffffffffffffffffffffffffffffffffffffffffffffffffffffffff1916146126e2576040517f08c379a00000000000000000000000000000000000000000000000000000000081526004016126d9906141d6565b60405180910390fd5b505b505050505050565b6000808273ffffffffffffffffffffffffffffffffffffffff163b119050919050565b50805461271b90613609565b6000825580601f1061272d575061274c565b601f01602090049060005260206000209081019061274b91906127d5565b5b50565b82805461275b90613609565b90600052602060002090601f01602090048101928261277d57600085556127c4565b82601f1061279657805160ff19168380011785556127c4565b828001600101855582156127c4579182015b828111156127c35782518255916020019190600101906127a8565b5b5090506127d191906127d5565b5090565b5b808211156127ee5760008160009055506001016127d6565b5090565b6000604051905090565b600080fd5b600080fd5b600073ffffffffffffffffffffffffffffffffffffffff82169050919050565b600061283182612806565b9050919050565b61284181612826565b811461284c57600080fd5b50565b60008135905061285e81612838565b92915050565b6000819050919050565b61287781612864565b811461288257600080fd5b50565b6000813590506128948161286e565b92915050565b600080604083850312156128b1576128b06127fc565b5b60006128bf8582860161284f565b92505060206128d085828601612885565b9150509250929050565b6128e381612864565b82525050565b60006020820190506128fe60008301846128da565b92915050565b60007fffffffff0000000000000000000000000000000000000000000000000000000082169050919050565b61293981612904565b811461294457600080fd5b50565b60008135905061295681612930565b92915050565b600060208284031215612972576129716127fc565b5b600061298084828501612947565b91505092915050565b60008115159050919050565b61299e81612989565b82525050565b60006020820190506129b96000830184612995565b92915050565b6000602082840312156129d5576129d46127fc565b5b60006129e38482850161284f565b91505092915050565b600060208284031215612a0257612a016127fc565b5b6000612a1084828501612885565b91505092915050565b600081519050919050565b600082825260208201905092915050565b60005b83811015612a53578082015181840152602081019050612a38565b83811115612a62576000848401525b50505050565b6000601f19601f8301169050919050565b6000612a8482612a19565b612a8e8185612a24565b9350612a9e818560208601612a35565b612aa781612a68565b840191505092915050565b60006020820190508181036000830152612acc8184612a79565b905092915050565b600080fd5b7f4e487b7100000000000000000000000000000000000000000000000000000000600052604160045260246000fd5b612b1182612a68565b810181811067ffffffffffffffff82111715612b3057612b2f612ad9565b5b80604052505050565b6000612b436127f2565b9050612b4f8282612b08565b919050565b600067ffffffffffffffff821115612b6f57612b6e612ad9565b5b602082029050602081019050919050565b600080fd5b6000612b98612b9384612b54565b612b39565b90508083825260208201905060208402830185811115612bbb57612bba612b80565b5b835b81811015612be45780612bd08882612885565b845260208401935050602081019050612bbd565b5050509392505050565b600082601f830112612c0357612c02612ad4565b5b8135612c13848260208601612b85565b91505092915050565b600080fd5b600067ffffffffffffffff821115612c3c57612c3b612ad9565b5b612c4582612a68565b9050602081019050919050565b82818337600083830152505050565b6000612c74612c6f84612c21565b612b39565b905082815260208101848484011115612c9057612c8f612c1c565b5b612c9b848285612c52565b509392505050565b600082601f830112612cb857612cb7612ad4565b5b8135612cc8848260208601612c61565b91505092915050565b600080600080600060a08688031215612ced57612cec6127fc565b5b6000612cfb8882890161284f565b9550506020612d0c8882890161284f565b945050604086013567ffffffffffffffff811115612d2d57612d2c612801565b5b612d3988828901612bee565b935050606086013567ffffffffffffffff811115612d5a57612d59612801565b5b612d6688828901612bee565b925050608086013567ffffffffffffffff811115612d8757612d86612801565b5b612d9388828901612ca3565b9150509295509295909350565b600067ffffffffffffffff821115612dbb57612dba612ad9565b5b612dc482612a68565b9050602081019050919050565b6000612de4612ddf84612da0565b612b39565b905082815260208101848484011115612e0057612dff612c1c565b5b612e0b848285612c52565b509392505050565b600082601f830112612e2857612e27612ad4565b5b8135612e38848260208601612dd1565b91505092915050565b600060208284031215612e5757612e566127fc565b5b600082013567ffffffffffffffff811115612e7557612e74612801565b5b612e8184828501612e13565b91505092915050565b600067ffffffffffffffff821115612ea557612ea4612ad9565b5b602082029050602081019050919050565b6000612ec9612ec484612e8a565b612b39565b90508083825260208201905060208402830185811115612eec57612eeb612b80565b5b835b81811015612f155780612f01888261284f565b845260208401935050602081019050612eee565b5050509392505050565b600082601f830112612f3457612f33612ad4565b5b8135612f44848260208601612eb6565b91505092915050565b60008060408385031215612f6457612f636127fc565b5b600083013567ffffffffffffffff811115612f8257612f81612801565b5b612f8e85828601612f1f565b925050602083013567ffffffffffffffff811115612faf57612fae612801565b5b612fbb85828601612bee565b9150509250929050565b600081519050919050565b600082825260208201905092915050565b6000819050602082019050919050565b612ffa81612864565b82525050565b600061300c8383612ff1565b60208301905092915050565b6000602082019050919050565b600061303082612fc5565b61303a8185612fd0565b935061304583612fe1565b8060005b8381101561307657815161305d8882613000565b975061306883613018565b925050600181019050613049565b5085935050505092915050565b6000602082019050818103600083015261309d8184613025565b905092915050565b6130ae81612826565b82525050565b60006080820190506130c960008301876130a5565b6130d660208301866128da565b81810360408301526130e88185612a79565b90506130f76060830184612995565b95945050505050565b61310981612989565b811461311457600080fd5b50565b60008135905061312681613100565b92915050565b60008060408385031215613143576131426127fc565b5b60006131518582860161284f565b925050602061316285828601613117565b9150509250929050565b600080600060608486031215613185576131846127fc565b5b600061319386828701612885565b93505060206131a486828701612885565b925050604084013567ffffffffffffffff8111156131c5576131c4612801565b5b6131d186828701612e13565b9150509250925092565b600080604083850312156131f2576131f16127fc565b5b60006132008582860161284f565b92505060206132118582860161284f565b9150509250929050565b600080600080600060a08688031215613237576132366127fc565b5b60006132458882890161284f565b95505060206132568882890161284f565b945050604061326788828901612885565b935050606061327888828901612885565b925050608086013567ffffffffffffffff81111561329957613298612801565b5b6132a588828901612ca3565b9150509295509295909350565b7f455243313135353a2061646472657373207a65726f206973206e6f742061207660008201527f616c6964206f776e657200000000000000000000000000000000000000000000602082015250565b600061330e602a83612a24565b9150613319826132b2565b604082019050919050565b6000602082019050818103600083015261333d81613301565b9050919050565b600060ff82169050919050565b61335a81613344565b811461336557600080fd5b50565b60008151905061337781613351565b92915050565b600060208284031215613393576133926127fc565b5b60006133a184828501613368565b91505092915050565b7f4e487b7100000000000000000000000000000000000000000000000000000000600052601160045260246000fd5b60008160011c9050919050565b6000808291508390505b60018511156134305780860481111561340c5761340b6133aa565b5b600185161561341b5780820291505b8081029050613429856133d9565b94506133f0565b94509492505050565b6000826134495760019050613505565b816134575760009050613505565b816001811461346d5760028114613477576134a6565b6001915050613505565b60ff841115613489576134886133aa565b5b8360020a9150848211156134a05761349f6133aa565b5b50613505565b5060208310610133831016604e8410600b84101617156134db5782820a9050838111156134d6576134d56133aa565b5b613505565b6134e884848460016133e6565b925090508184048111156134ff576134fe6133aa565b5b81810290505b9392505050565b600061351782612864565b915061352283613344565b925061354f7fffffffffffffffffffffffffffffffffffffffffffffffffffffffffffffffff8484613439565b905092915050565b600061356282612864565b915061356d83612864565b9250817fffffffffffffffffffffffffffffffffffffffffffffffffffffffffffffffff04831182151516156135a6576135a56133aa565b5b828202905092915050565b60006040820190506135c660008301856130a5565b6135d360208301846128da565b9392505050565b7f4e487b7100000000000000000000000000000000000000000000000000000000600052602260045260246000fd5b6000600282049050600182168061362157607f821691505b602082108103613634576136336135da565b5b50919050565b7f455243313135353a2063616c6c6572206973206e6f7420746f6b656e206f776e60008201527f6572206f7220617070726f766564000000000000000000000000000000000000602082015250565b6000613696602e83612a24565b91506136a18261363a565b604082019050919050565b600060208201905081810360008301526136c581613689565b9050919050565b600081905092915050565b60006136e282612a19565b6136ec81856136cc565b93506136fc818560208601612a35565b80840191505092915050565b600061371482846136d7565b915081905092915050565b7f455243313135353a206163636f756e747320616e6420696473206c656e67746860008201527f206d69736d617463680000000000000000000000000000000000000000000000602082015250565b600061377b602983612a24565b91506137868261371f565b604082019050919050565b600060208201905081810360008301526137aa8161376e565b9050919050565b7f4e487b7100000000000000000000000000000000000000000000000000000000600052603260045260246000fd5b60006137eb82612864565b91507fffffffffffffffffffffffffffffffffffffffffffffffffffffffffffffffff820361381d5761381c6133aa565b5b600182019050919050565b60008151905061383781612838565b92915050565b600060208284031215613853576138526127fc565b5b600061386184828501613828565b91505092915050565b7f4f6e6c7920746865206f776e65722063616e206163636570742f72656a65637460008201527f20746865206f6666657200000000000000000000000000000000000000000000602082015250565b60006138c6602a83612a24565b91506138d18261386a565b604082019050919050565b600060208201905081810360008301526138f5816138b9565b9050919050565b7f4e6f206f6666657220746f206163636570742f72656a65637400000000000000600082015250565b6000613932601983612a24565b915061393d826138fc565b602082019050919050565b6000602082019050818103600083015261396181613925565b9050919050565b60008151905061397781613100565b92915050565b600060208284031215613993576139926127fc565b5b60006139a184828501613968565b91505092915050565b7f416e206f6666657220616c72656164792065786973747320666f72207468697360008201527f20706f7374000000000000000000000000000000000000000000000000000000602082015250565b6000613a06602583612a24565b9150613a11826139aa565b604082019050919050565b60006020820190508181036000830152613a35816139f9565b9050919050565b6000606082019050613a5160008301866130a5565b613a5e60208301856130a5565b613a6b60408301846128da565b949350505050565b7f546f6b656e207472616e73666572206661696c65640000000000000000000000600082015250565b6000613aa9601583612a24565b9150613ab482613a73565b602082019050919050565b60006020820190508181036000830152613ad881613a9c565b9050919050565b7f537472696e672065786365656473203230302063686172616374657273000000600082015250565b6000613b15601d83612a24565b9150613b2082613adf565b602082019050919050565b60006020820190508181036000830152613b4481613b08565b9050919050565b6000604082019050613b6060008301856128da565b8181036020830152613b728184612a79565b90509392505050565b6000602082019050613b9060008301846130a5565b92915050565b600081519050613ba58161286e565b92915050565b600060208284031215613bc157613bc06127fc565b5b6000613bcf84828501613b96565b91505092915050565b6000606082019050613bed60008301866130a5565b8181036020830152613bff8185612a79565b9050613c0e60408301846128da565b949350505050565b7f455243313135353a2069647320616e6420616d6f756e7473206c656e6774682060008201527f6d69736d61746368000000000000000000000000000000000000000000000000602082015250565b6000613c72602883612a24565b9150613c7d82613c16565b604082019050919050565b60006020820190508181036000830152613ca181613c65565b9050919050565b7f455243313135353a207472616e7366657220746f20746865207a65726f20616460008201527f6472657373000000000000000000000000000000000000000000000000000000602082015250565b6000613d04602583612a24565b9150613d0f82613ca8565b604082019050919050565b60006020820190508181036000830152613d3381613cf7565b9050919050565b7f455243313135353a20696e73756666696369656e742062616c616e636520666f60008201527f72207472616e7366657200000000000000000000000000000000000000000000602082015250565b6000613d96602a83612a24565b9150613da182613d3a565b604082019050919050565b60006020820190508181036000830152613dc581613d89565b9050919050565b6000613dd782612864565b9150613de283612864565b9250827fffffffffffffffffffffffffffffffffffffffffffffffffffffffffffffffff03821115613e1757613e166133aa565b5b828201905092915050565b60006040820190508181036000830152613e3c8185613025565b90508181036020830152613e508184613025565b90509392505050565b7f455243313135353a2073657474696e6720617070726f76616c2073746174757360008201527f20666f722073656c660000000000000000000000000000000000000000000000602082015250565b6000613eb5602983612a24565b9150613ec082613e59565b604082019050919050565b60006020820190508181036000830152613ee481613ea8565b9050919050565b6000604082019050613f0060008301856128da565b613f0d60208301846128da565b9392505050565b600081519050919050565b600082825260208201905092915050565b6000613f3b82613f14565b613f458185613f1f565b9350613f55818560208601612a35565b613f5e81612a68565b840191505092915050565b600060a082019050613f7e60008301886130a5565b613f8b60208301876130a5565b8181036040830152613f9d8186613025565b90508181036060830152613fb18185613025565b90508181036080830152613fc58184613f30565b90509695505050505050565b600081519050613fe081612930565b92915050565b600060208284031215613ffc57613ffb6127fc565b5b600061400a84828501613fd1565b91505092915050565b60008160e01c9050919050565b600060033d111561403f5760046000803e61403c600051614013565b90505b90565b600060443d106140cf576140546127f2565b60043d036004823e80513d602482011167ffffffffffffffff8211171561407c5750506140cf565b808201805167ffffffffffffffff81111561409a57505050506140cf565b80602083010160043d0385018111156140b75750505050506140cf565b6140c682602001850186612b08565b82955050505050505b90565b7f455243313135353a207472616e7366657220746f206e6f6e2d4552433131353560008201527f526563656976657220696d706c656d656e746572000000000000000000000000602082015250565b600061412e603483612a24565b9150614139826140d2565b604082019050919050565b6000602082019050818103600083015261415d81614121565b9050919050565b7f455243313135353a204552433131353552656365697665722072656a6563746560008201527f6420746f6b656e73000000000000000000000000000000000000000000000000602082015250565b60006141c0602883612a24565b91506141cb82614164565b604082019050919050565b600060208201905081810360008301526141ef816141b3565b9050919050565b600060a08201905061420b60008301886130a5565b61421860208301876130a5565b61422560408301866128da565b61423260608301856128da565b81810360808301526142448184613f30565b9050969550505050505056fea2646970667358221220f48d47af39865b958800647ee008be68c5d4b8c918099d2ec1e9334a7504288a64736f6c634300080d0033",
  "immutableReferences": {},
  "source": "// SPDX-License-Identifier: UNLICENSED\npragma solidity ^0.8.13;\n\nimport \"./BlogCraftNFT.sol\";\nimport \"./WriteToken.sol\";\nimport \"@openzeppelin/contracts/utils/Counters.sol\";\nimport \"@openzeppelin/contracts/token/ERC1155/ERC1155.sol\";\nimport \"@openzeppelin/contracts/access/Ownable.sol\";\n\ncontract TokenSwap is ERC1155{\n    BlogCraftNFT private blogNFT;\n    WriteToken private writeToken;\n    event OfferMade(uint256 indexed postId, address indexed buyer, address indexed seller,uint256 amount, string message); // Event when new offer is created\n    event OfferAccepted(uint256 indexed tokenId, address indexed buyer);\n    event OfferRejected(uint256 indexed tokenId, address indexed buyer);\n    event RewardedPublisher(address indexed publisher, uint256 amount);\n    event LikedPost(address indexed viewer, uint256 amount);\n    event postnftcreated(address indexed author, uint256 indexed tokenId, string tokenURI);\n    \n    mapping(string => uint256) private uriToTokenId; \n    using Counters for Counters.Counter;\n    Counters.Counter private _tokenIds;\n    \n    address private owner;\n\n    modifier noExistingOffer(uint256 postId) {\n        require(!postOffers[postId].exists, \"An offer already exists for this post\");\n        _;\n    }\n\n    modifier validTokenTransfer(uint256 offerAmount) {\n        require(writeToken.transferFrom(msg.sender, address(this), offerAmount), \"Token transfer failed\");\n        _;\n    }\n\n    modifier validMessageLength(string memory message) {\n    require(bytes(message).length <= 200, \"String exceeds 200 characters\");\n        _;\n    }\n\n    modifier offerExists(uint256 postId) {\n    require(postOffers[postId].exists, \"No offer to accept/reject\");\n    _;\n    }\n\n    modifier onlyPostOwner(uint256 postId) {\n    require(blogNFT.ownerOf(postId) == msg.sender, \"Only the owner can accept/reject the offer\");\n    _;\n    }\n\n    struct Offer {\n        address buyer;\n        uint256 amount;\n        string message;\n        bool exists;\n    }\n\n    mapping(uint256 => Offer) public postOffers; // NFT post ID to its current offer\n\n    constructor(address _blogNFT, address _writeToken) ERC1155(\"\"){\n        blogNFT = BlogCraftNFT(_blogNFT);\n        writeToken = WriteToken(_writeToken);\n        owner = msg.sender;\n    }\n\n    function getWTT(address publisher) external view returns (uint256) {\n        return writeToken.balanceOf(publisher);\n    }\n\n    function rewardPublisher(address publisher) external {\n        uint256 rewardAmount = 20 * 10 ** writeToken.decimals();\n\n        writeToken.rewardPublisher(publisher, rewardAmount);\n        emit RewardedPublisher(publisher, rewardAmount); \n\n    }\n\n    function getTokenIdFromURI(string memory uri) external view returns (uint256){\n        return uriToTokenId[uri];\n    }\n\n    function likePost(address viewer) external {\n        uint256 rewardAmount = 1 * 10 ** writeToken.decimals();\n\n        writeToken.likePost(viewer, rewardAmount);\n        emit LikedPost(viewer, rewardAmount);\n    }\n\n    function createPostNFT(string memory uri) external returns (uint256) {\n        _tokenIds.increment();\n        uint256 newItemId = _tokenIds.current();\n        uint256 itemId = blogNFT.createPostNFT(msg.sender, uri, newItemId);\n        uriToTokenId[uri] = newItemId;\n        emit postnftcreated(msg.sender, itemId, uri);\n        return itemId;\n    }\n    \n    function makeOffer(uint256 postId, uint256 offerAmount, string memory message) \n        external\n        noExistingOffer(postId)\n        validTokenTransfer(offerAmount)\n        validMessageLength(message)\n    {\n        // Record the offer\n        postOffers[postId] = Offer({\n            buyer: msg.sender,\n            amount: offerAmount,\n            message: message,\n            exists: true\n        });\n\n        // Find the owner of the post\n        address postOwner = blogNFT.ownerOf(postId);\n\n        // Emit the event\n        emit OfferMade(postId, msg.sender, postOwner, offerAmount, message);\n    }\n\n    function acceptOffer(uint256 postId) \n        external\n        offerExists(postId)\n        onlyPostOwner(postId)\n    {\n        Offer memory offer = postOffers[postId];\n\n        // Transfer the offer amount to the post owner\n        writeToken.transfer(msg.sender, offer.amount);\n\n        // Transfer the NFT to the buyer\n        blogNFT.transferFrom(msg.sender, offer.buyer, postId);\n\n        // Emit the OfferAccepted event\n        emit OfferAccepted(postId, offer.buyer);\n\n        // Remove the offer\n        delete postOffers[postId];\n    }\n\n\n    function rejectOffer(uint256 postId) \n        external\n        onlyPostOwner(postId)\n        offerExists(postId)\n    {\n        Offer memory offer = postOffers[postId];\n\n        // Refund the buyer\n        writeToken.transfer(offer.buyer, offer.amount);\n        \n        // Emit the OfferRejected event\n        emit OfferRejected(postId, offer.buyer);\n\n        // Remove the offer\n        delete postOffers[postId];\n    }\n\n\n}\n",
  "sourcePath": "/Users/sangmokhan/Documents/CSE426Project/project-contract/contracts/TokenSwap.sol",
  "compiler": {
    "name": "solc",
    "version": "0.8.13+commit.abaa5c0e.Emscripten.clang"
  },
  "schemaVersion": "3.4.16",
  "updatedAt": "2023-11-29T01:11:01.680Z",
  "networkType": "ethereum",
  "devdoc": {
    "kind": "dev",
    "methods": {
      "balanceOf(address,uint256)": {
        "details": "See {IERC1155-balanceOf}. Requirements: - `account` cannot be the zero address."
      },
      "balanceOfBatch(address[],uint256[])": {
        "details": "See {IERC1155-balanceOfBatch}. Requirements: - `accounts` and `ids` must have the same length."
      },
      "isApprovedForAll(address,address)": {
        "details": "See {IERC1155-isApprovedForAll}."
      },
      "safeBatchTransferFrom(address,address,uint256[],uint256[],bytes)": {
        "details": "See {IERC1155-safeBatchTransferFrom}."
      },
      "safeTransferFrom(address,address,uint256,uint256,bytes)": {
        "details": "See {IERC1155-safeTransferFrom}."
      },
      "setApprovalForAll(address,bool)": {
        "details": "See {IERC1155-setApprovalForAll}."
      },
      "supportsInterface(bytes4)": {
        "details": "See {IERC165-supportsInterface}."
      },
      "uri(uint256)": {
        "details": "See {IERC1155MetadataURI-uri}. This implementation returns the same URI for *all* token types. It relies on the token type ID substitution mechanism https://eips.ethereum.org/EIPS/eip-1155#metadata[defined in the EIP]. Clients calling this function must replace the `\\{id\\}` substring with the actual token type ID."
      }
    },
    "version": 1
  },
  "userdoc": {
    "kind": "user",
    "methods": {},
    "version": 1
  }
}