{
  "contractName": "TokenSwap",
  "abi": [
    {
      "inputs": [
        {
          "internalType": "address",
          "name": "_blogNFT",
          "type": "address"
        },
        {
          "internalType": "address",
          "name": "_writeToken",
          "type": "address"
        }
      ],
      "stateMutability": "nonpayable",
      "type": "constructor"
    },
    {
      "anonymous": false,
      "inputs": [
        {
          "indexed": true,
          "internalType": "address",
          "name": "account",
          "type": "address"
        },
        {
          "indexed": true,
          "internalType": "address",
          "name": "operator",
          "type": "address"
        },
        {
          "indexed": false,
          "internalType": "bool",
          "name": "approved",
          "type": "bool"
        }
      ],
      "name": "ApprovalForAll",
      "type": "event"
    },
    {
      "anonymous": false,
      "inputs": [
        {
          "indexed": true,
          "internalType": "address",
          "name": "viewer",
          "type": "address"
        },
        {
          "indexed": false,
          "internalType": "uint256",
          "name": "amount",
          "type": "uint256"
        }
      ],
      "name": "LikedPost",
      "type": "event"
    },
    {
      "anonymous": false,
      "inputs": [
        {
          "indexed": true,
          "internalType": "uint256",
          "name": "tokenId",
          "type": "uint256"
        },
        {
          "indexed": true,
          "internalType": "address",
          "name": "buyer",
          "type": "address"
        }
      ],
      "name": "OfferAccepted",
      "type": "event"
    },
    {
      "anonymous": false,
      "inputs": [
        {
          "indexed": true,
          "internalType": "uint256",
          "name": "postId",
          "type": "uint256"
        },
        {
          "indexed": true,
          "internalType": "address",
          "name": "buyer",
          "type": "address"
        },
        {
          "indexed": true,
          "internalType": "address",
          "name": "seller",
          "type": "address"
        },
        {
          "indexed": false,
          "internalType": "uint256",
          "name": "amount",
          "type": "uint256"
        },
        {
          "indexed": false,
          "internalType": "string",
          "name": "message",
          "type": "string"
        }
      ],
      "name": "OfferMade",
      "type": "event"
    },
    {
      "anonymous": false,
      "inputs": [
        {
          "indexed": true,
          "internalType": "uint256",
          "name": "tokenId",
          "type": "uint256"
        },
        {
          "indexed": true,
          "internalType": "address",
          "name": "buyer",
          "type": "address"
        }
      ],
      "name": "OfferRejected",
      "type": "event"
    },
    {
      "anonymous": false,
      "inputs": [
        {
          "indexed": true,
          "internalType": "address",
          "name": "publisher",
          "type": "address"
        },
        {
          "indexed": false,
          "internalType": "uint256",
          "name": "amount",
          "type": "uint256"
        }
      ],
      "name": "RewardedPublisher",
      "type": "event"
    },
    {
      "anonymous": false,
      "inputs": [
        {
          "indexed": true,
          "internalType": "address",
          "name": "operator",
          "type": "address"
        },
        {
          "indexed": true,
          "internalType": "address",
          "name": "from",
          "type": "address"
        },
        {
          "indexed": true,
          "internalType": "address",
          "name": "to",
          "type": "address"
        },
        {
          "indexed": false,
          "internalType": "uint256[]",
          "name": "ids",
          "type": "uint256[]"
        },
        {
          "indexed": false,
          "internalType": "uint256[]",
          "name": "values",
          "type": "uint256[]"
        }
      ],
      "name": "TransferBatch",
      "type": "event"
    },
    {
      "anonymous": false,
      "inputs": [
        {
          "indexed": true,
          "internalType": "address",
          "name": "operator",
          "type": "address"
        },
        {
          "indexed": true,
          "internalType": "address",
          "name": "from",
          "type": "address"
        },
        {
          "indexed": true,
          "internalType": "address",
          "name": "to",
          "type": "address"
        },
        {
          "indexed": false,
          "internalType": "uint256",
          "name": "id",
          "type": "uint256"
        },
        {
          "indexed": false,
          "internalType": "uint256",
          "name": "value",
          "type": "uint256"
        }
      ],
      "name": "TransferSingle",
      "type": "event"
    },
    {
      "anonymous": false,
      "inputs": [
        {
          "indexed": false,
          "internalType": "string",
          "name": "value",
          "type": "string"
        },
        {
          "indexed": true,
          "internalType": "uint256",
          "name": "id",
          "type": "uint256"
        }
      ],
      "name": "URI",
      "type": "event"
    },
    {
      "anonymous": false,
      "inputs": [
        {
          "indexed": true,
          "internalType": "address",
          "name": "author",
          "type": "address"
        },
        {
          "indexed": true,
          "internalType": "uint256",
          "name": "tokenId",
          "type": "uint256"
        },
        {
          "indexed": false,
          "internalType": "string",
          "name": "tokenURI",
          "type": "string"
        }
      ],
      "name": "postnftcreated",
      "type": "event"
    },
    {
      "inputs": [
        {
          "internalType": "address",
          "name": "account",
          "type": "address"
        },
        {
          "internalType": "uint256",
          "name": "id",
          "type": "uint256"
        }
      ],
      "name": "balanceOf",
      "outputs": [
        {
          "internalType": "uint256",
          "name": "",
          "type": "uint256"
        }
      ],
      "stateMutability": "view",
      "type": "function",
      "constant": true
    },
    {
      "inputs": [
        {
          "internalType": "address[]",
          "name": "accounts",
          "type": "address[]"
        },
        {
          "internalType": "uint256[]",
          "name": "ids",
          "type": "uint256[]"
        }
      ],
      "name": "balanceOfBatch",
      "outputs": [
        {
          "internalType": "uint256[]",
          "name": "",
          "type": "uint256[]"
        }
      ],
      "stateMutability": "view",
      "type": "function",
      "constant": true
    },
    {
      "inputs": [
        {
          "internalType": "address",
          "name": "account",
          "type": "address"
        },
        {
          "internalType": "address",
          "name": "operator",
          "type": "address"
        }
      ],
      "name": "isApprovedForAll",
      "outputs": [
        {
          "internalType": "bool",
          "name": "",
          "type": "bool"
        }
      ],
      "stateMutability": "view",
      "type": "function",
      "constant": true
    },
    {
      "inputs": [
        {
          "internalType": "uint256",
          "name": "",
          "type": "uint256"
        }
      ],
      "name": "postOffers",
      "outputs": [
        {
          "internalType": "address",
          "name": "buyer",
          "type": "address"
        },
        {
          "internalType": "uint256",
          "name": "amount",
          "type": "uint256"
        },
        {
          "internalType": "string",
          "name": "message",
          "type": "string"
        },
        {
          "internalType": "bool",
          "name": "exists",
          "type": "bool"
        }
      ],
      "stateMutability": "view",
      "type": "function",
      "constant": true
    },
    {
      "inputs": [
        {
          "internalType": "address",
          "name": "from",
          "type": "address"
        },
        {
          "internalType": "address",
          "name": "to",
          "type": "address"
        },
        {
          "internalType": "uint256[]",
          "name": "ids",
          "type": "uint256[]"
        },
        {
          "internalType": "uint256[]",
          "name": "amounts",
          "type": "uint256[]"
        },
        {
          "internalType": "bytes",
          "name": "data",
          "type": "bytes"
        }
      ],
      "name": "safeBatchTransferFrom",
      "outputs": [],
      "stateMutability": "nonpayable",
      "type": "function"
    },
    {
      "inputs": [
        {
          "internalType": "address",
          "name": "from",
          "type": "address"
        },
        {
          "internalType": "address",
          "name": "to",
          "type": "address"
        },
        {
          "internalType": "uint256",
          "name": "id",
          "type": "uint256"
        },
        {
          "internalType": "uint256",
          "name": "amount",
          "type": "uint256"
        },
        {
          "internalType": "bytes",
          "name": "data",
          "type": "bytes"
        }
      ],
      "name": "safeTransferFrom",
      "outputs": [],
      "stateMutability": "nonpayable",
      "type": "function"
    },
    {
      "inputs": [
        {
          "internalType": "address",
          "name": "operator",
          "type": "address"
        },
        {
          "internalType": "bool",
          "name": "approved",
          "type": "bool"
        }
      ],
      "name": "setApprovalForAll",
      "outputs": [],
      "stateMutability": "nonpayable",
      "type": "function"
    },
    {
      "inputs": [
        {
          "internalType": "bytes4",
          "name": "interfaceId",
          "type": "bytes4"
        }
      ],
      "name": "supportsInterface",
      "outputs": [
        {
          "internalType": "bool",
          "name": "",
          "type": "bool"
        }
      ],
      "stateMutability": "view",
      "type": "function",
      "constant": true
    },
    {
      "inputs": [
        {
          "internalType": "uint256",
          "name": "",
          "type": "uint256"
        }
      ],
      "name": "uri",
      "outputs": [
        {
          "internalType": "string",
          "name": "",
          "type": "string"
        }
      ],
      "stateMutability": "view",
      "type": "function",
      "constant": true
    },
    {
      "inputs": [
        {
          "internalType": "address",
          "name": "publisher",
          "type": "address"
        }
      ],
      "name": "getWTT",
      "outputs": [
        {
          "internalType": "uint256",
          "name": "",
          "type": "uint256"
        }
      ],
      "stateMutability": "view",
      "type": "function",
      "constant": true
    },
    {
      "inputs": [
        {
          "internalType": "address",
          "name": "publisher",
          "type": "address"
        }
      ],
      "name": "rewardPublisher",
      "outputs": [],
      "stateMutability": "nonpayable",
      "type": "function"
    },
    {
      "inputs": [
        {
          "internalType": "string",
          "name": "uri",
          "type": "string"
        }
      ],
      "name": "getTokenIdFromURI",
      "outputs": [
        {
          "internalType": "uint256",
          "name": "",
          "type": "uint256"
        }
      ],
      "stateMutability": "view",
      "type": "function",
      "constant": true
    },
    {
      "inputs": [
        {
          "internalType": "address",
          "name": "viewer",
          "type": "address"
        }
      ],
      "name": "likePost",
      "outputs": [],
      "stateMutability": "nonpayable",
      "type": "function"
    },
    {
      "inputs": [
        {
          "internalType": "string",
          "name": "uri",
          "type": "string"
        }
      ],
      "name": "createPostNFT",
      "outputs": [
        {
          "internalType": "uint256",
          "name": "",
          "type": "uint256"
        }
      ],
      "stateMutability": "nonpayable",
      "type": "function"
    },
    {
      "inputs": [
        {
          "internalType": "uint256",
          "name": "postId",
          "type": "uint256"
        },
        {
          "internalType": "uint256",
          "name": "offerAmount",
          "type": "uint256"
        },
        {
          "internalType": "string",
          "name": "message",
          "type": "string"
        }
      ],
      "name": "makeOffer",
      "outputs": [],
      "stateMutability": "nonpayable",
      "type": "function"
    },
    {
      "inputs": [
        {
          "internalType": "uint256",
          "name": "postId",
          "type": "uint256"
        },
        {
          "internalType": "address",
          "name": "buyer",
          "type": "address"
        },
        {
          "internalType": "uint256",
          "name": "amount",
          "type": "uint256"
        }
      ],
      "name": "acceptOffer",
      "outputs": [],
      "stateMutability": "nonpayable",
      "type": "function"
    },
    {
      "inputs": [
        {
          "internalType": "uint256",
          "name": "postId",
          "type": "uint256"
        },
        {
          "internalType": "address",
          "name": "buyer",
          "type": "address"
        },
        {
          "internalType": "uint256",
          "name": "amount",
          "type": "uint256"
        }
      ],
      "name": "rejectOffer",
      "outputs": [],
      "stateMutability": "nonpayable",
      "type": "function"
    }
  ],
  "bytecode": "0x60806040523480156200001157600080fd5b506040516200437a3803806200437a83398181016040528101906200003791906200025a565b6040518060200160405280600081525062000058816200012460201b60201c565b5081600360006101000a81548173ffffffffffffffffffffffffffffffffffffffff021916908373ffffffffffffffffffffffffffffffffffffffff16021790555080600460006101000a81548173ffffffffffffffffffffffffffffffffffffffff021916908373ffffffffffffffffffffffffffffffffffffffff16021790555033600760006101000a81548173ffffffffffffffffffffffffffffffffffffffff021916908373ffffffffffffffffffffffffffffffffffffffff160217905550505062000305565b80600290805190602001906200013c92919062000140565b5050565b8280546200014e90620002d0565b90600052602060002090601f016020900481019282620001725760008555620001be565b82601f106200018d57805160ff1916838001178555620001be565b82800160010185558215620001be579182015b82811115620001bd578251825591602001919060010190620001a0565b5b509050620001cd9190620001d1565b5090565b5b80821115620001ec576000816000905550600101620001d2565b5090565b600080fd5b600073ffffffffffffffffffffffffffffffffffffffff82169050919050565b60006200022282620001f5565b9050919050565b620002348162000215565b81146200024057600080fd5b50565b600081519050620002548162000229565b92915050565b60008060408385031215620002745762000273620001f0565b5b6000620002848582860162000243565b9250506020620002978582860162000243565b9150509250929050565b7f4e487b7100000000000000000000000000000000000000000000000000000000600052602260045260246000fd5b60006002820490506001821680620002e957607f821691505b602082108103620002ff57620002fe620002a1565b5b50919050565b61406580620003156000396000f3fe608060405234801561001057600080fd5b506004361061010a5760003560e01c8063578a2b81116100a2578063c74eea9811610071578063c74eea98146102da578063d46074d91461030a578063e985e9c51461033a578063f242432a1461036a578063f9735efd146103865761010a565b8063578a2b81146102535780639589d7b914610286578063a22cb465146102a2578063ab7e1278146102be5761010a565b80630e89341c116100de5780630e89341c146101a75780632eb2c2d6146101d75780633576dc9b146101f35780634e1273f4146102235761010a565b8062fdd58e1461010f57806301ffc9a71461013f57806302397a821461016f57806306b716651461018b575b600080fd5b61012960048036038101906101249190612626565b6103a2565b6040516101369190612675565b60405180910390f35b610159600480360381019061015491906126e8565b61046a565b6040516101669190612730565b60405180910390f35b6101896004803603810190610184919061274b565b61054c565b005b6101a560048036038101906101a0919061274b565b6106da565b005b6101c160048036038101906101bc9190612778565b610868565b6040516101ce919061283e565b60405180910390f35b6101f160048036038101906101ec9190612a5d565b6108fc565b005b61020d60048036038101906102089190612bcd565b61099d565b60405161021a9190612675565b60405180910390f35b61023d60048036038101906102389190612cd9565b6109c5565b60405161024a9190612e0f565b60405180910390f35b61026d60048036038101906102689190612778565b610ade565b60405161027d9493929190612e40565b60405180910390f35b6102a0600480360381019061029b9190612e8c565b610bc3565b005b6102bc60048036038101906102b79190612f0b565b610f17565b005b6102d860048036038101906102d39190612f4b565b610f2d565b005b6102f460048036038101906102ef919061274b565b6112a9565b6040516103019190612675565b60405180910390f35b610324600480360381019061031f9190612bcd565b61134e565b6040516103319190612675565b60405180910390f35b610354600480360381019061034f9190612fba565b61148a565b6040516103619190612730565b60405180910390f35b610384600480360381019061037f9190612ffa565b61151e565b005b6103a0600480360381019061039b9190612e8c565b6115bf565b005b60008073ffffffffffffffffffffffffffffffffffffffff168373ffffffffffffffffffffffffffffffffffffffff1603610412576040517f08c379a000000000000000000000000000000000000000000000000000000000815260040161040990613103565b60405180910390fd5b60008083815260200190815260200160002060008473ffffffffffffffffffffffffffffffffffffffff1673ffffffffffffffffffffffffffffffffffffffff16815260200190815260200160002054905092915050565b60007fd9b67a26000000000000000000000000000000000000000000000000000000007bffffffffffffffffffffffffffffffffffffffffffffffffffffffff1916827bffffffffffffffffffffffffffffffffffffffffffffffffffffffff1916148061053557507f0e89341c000000000000000000000000000000000000000000000000000000007bffffffffffffffffffffffffffffffffffffffffffffffffffffffff1916827bffffffffffffffffffffffffffffffffffffffffffffffffffffffff1916145b80610545575061054482611882565b5b9050919050565b6000600460009054906101000a900473ffffffffffffffffffffffffffffffffffffffff1673ffffffffffffffffffffffffffffffffffffffff1663313ce5676040518163ffffffff1660e01b8152600401602060405180830381865afa1580156105bb573d6000803e3d6000fd5b505050506040513d601f19601f820116820180604052508101906105df919061315c565b600a6105eb91906132eb565b60016105f79190613336565b9050600460009054906101000a900473ffffffffffffffffffffffffffffffffffffffff1673ffffffffffffffffffffffffffffffffffffffff16634835152983836040518363ffffffff1660e01b8152600401610656929190613390565b600060405180830381600087803b15801561067057600080fd5b505af1158015610684573d6000803e3d6000fd5b505050508173ffffffffffffffffffffffffffffffffffffffff167ffa8a92ebf776575fb7c2efc630a26b9ee094c224c4c7544cf434dbbf28e061f2826040516106ce9190612675565b60405180910390a25050565b6000600460009054906101000a900473ffffffffffffffffffffffffffffffffffffffff1673ffffffffffffffffffffffffffffffffffffffff1663313ce5676040518163ffffffff1660e01b8152600401602060405180830381865afa158015610749573d6000803e3d6000fd5b505050506040513d601f19601f8201168201806040525081019061076d919061315c565b600a61077991906132eb565b60146107859190613336565b9050600460009054906101000a900473ffffffffffffffffffffffffffffffffffffffff1673ffffffffffffffffffffffffffffffffffffffff16638a9df63483836040518363ffffffff1660e01b81526004016107e4929190613390565b600060405180830381600087803b1580156107fe57600080fd5b505af1158015610812573d6000803e3d6000fd5b505050508173ffffffffffffffffffffffffffffffffffffffff167fdff4eebbbcc937c4fce2a467a1b76874a440554c2001250279d496e5f43387648260405161085c9190612675565b60405180910390a25050565b606060028054610877906133e8565b80601f01602080910402602001604051908101604052809291908181526020018280546108a3906133e8565b80156108f05780601f106108c5576101008083540402835291602001916108f0565b820191906000526020600020905b8154815290600101906020018083116108d357829003601f168201915b50505050509050919050565b6109046118ec565b73ffffffffffffffffffffffffffffffffffffffff168573ffffffffffffffffffffffffffffffffffffffff16148061094a5750610949856109446118ec565b61148a565b5b610989576040517f08c379a00000000000000000000000000000000000000000000000000000000081526004016109809061348b565b60405180910390fd5b61099685858585856118f4565b5050505050565b60006005826040516109af91906134e7565b9081526020016040518091039020549050919050565b60608151835114610a0b576040517f08c379a0000000000000000000000000000000000000000000000000000000008152600401610a0290613570565b60405180910390fd5b6000835167ffffffffffffffff811115610a2857610a27612865565b5b604051908082528060200260200182016040528015610a565781602001602082028036833780820191505090505b50905060005b8451811015610ad357610aa3858281518110610a7b57610a7a613590565b5b6020026020010151858381518110610a9657610a95613590565b5b60200260200101516103a2565b828281518110610ab657610ab5613590565b5b60200260200101818152505080610acc906135bf565b9050610a5c565b508091505092915050565b60086020528060005260406000206000915090508060000160009054906101000a900473ffffffffffffffffffffffffffffffffffffffff1690806001015490806002018054610b2d906133e8565b80601f0160208091040260200160405190810160405280929190818152602001828054610b59906133e8565b8015610ba65780601f10610b7b57610100808354040283529160200191610ba6565b820191906000526020600020905b815481529060010190602001808311610b8957829003601f168201915b5050505050908060030160009054906101000a900460ff16905084565b826008600082815260200190815260200160002060030160009054906101000a900460ff16610c27576040517f08c379a0000000000000000000000000000000000000000000000000000000008152600401610c1e90613653565b60405180910390fd5b833373ffffffffffffffffffffffffffffffffffffffff16600360009054906101000a900473ffffffffffffffffffffffffffffffffffffffff1673ffffffffffffffffffffffffffffffffffffffff16636352211e836040518263ffffffff1660e01b8152600401610c9a9190612675565b602060405180830381865afa158015610cb7573d6000803e3d6000fd5b505050506040513d601f19601f82011682018060405250810190610cdb9190613688565b73ffffffffffffffffffffffffffffffffffffffff1614610d31576040517f08c379a0000000000000000000000000000000000000000000000000000000008152600401610d2890613727565b60405180910390fd5b600460009054906101000a900473ffffffffffffffffffffffffffffffffffffffff1673ffffffffffffffffffffffffffffffffffffffff1663a9059cbb33856040518363ffffffff1660e01b8152600401610d8e929190613390565b6020604051808303816000875af1158015610dad573d6000803e3d6000fd5b505050506040513d601f19601f82011682018060405250810190610dd1919061375c565b50600360009054906101000a900473ffffffffffffffffffffffffffffffffffffffff1673ffffffffffffffffffffffffffffffffffffffff166323b872dd3386886040518463ffffffff1660e01b8152600401610e3193929190613789565b600060405180830381600087803b158015610e4b57600080fd5b505af1158015610e5f573d6000803e3d6000fd5b505050508373ffffffffffffffffffffffffffffffffffffffff16857fa7a40af5a1d0c10a3eb94af90cb008170915e8a71a6aaff052794cd762c72fc060405160405180910390a360086000868152602001908152602001600020600080820160006101000a81549073ffffffffffffffffffffffffffffffffffffffff02191690556001820160009055600282016000610efa919061249b565b6003820160006101000a81549060ff021916905550505050505050565b610f29610f226118ec565b8383611c15565b5050565b826008600082815260200190815260200160002060030160009054906101000a900460ff1615610f92576040517f08c379a0000000000000000000000000000000000000000000000000000000008152600401610f8990613832565b60405180910390fd5b82600460009054906101000a900473ffffffffffffffffffffffffffffffffffffffff1673ffffffffffffffffffffffffffffffffffffffff166323b872dd3330846040518463ffffffff1660e01b8152600401610ff293929190613789565b6020604051808303816000875af1158015611011573d6000803e3d6000fd5b505050506040513d601f19601f82011682018060405250810190611035919061375c565b611074576040517f08c379a000000000000000000000000000000000000000000000000000000000815260040161106b9061389e565b60405180910390fd5b8260c8815111156110ba576040517f08c379a00000000000000000000000000000000000000000000000000000000081526004016110b19061390a565b60405180910390fd5b60405180608001604052803373ffffffffffffffffffffffffffffffffffffffff168152602001868152602001858152602001600115158152506008600088815260200190815260200160002060008201518160000160006101000a81548173ffffffffffffffffffffffffffffffffffffffff021916908373ffffffffffffffffffffffffffffffffffffffff1602179055506020820151816001015560408201518160020190805190602001906111749291906124db565b5060608201518160030160006101000a81548160ff0219169083151502179055509050506000600360009054906101000a900473ffffffffffffffffffffffffffffffffffffffff1673ffffffffffffffffffffffffffffffffffffffff16636352211e886040518263ffffffff1660e01b81526004016111f59190612675565b602060405180830381865afa158015611212573d6000803e3d6000fd5b505050506040513d601f19601f820116820180604052508101906112369190613688565b90508073ffffffffffffffffffffffffffffffffffffffff163373ffffffffffffffffffffffffffffffffffffffff16887f7246e18351fc9342d415e2d6954d5967c351bde093f90b612bb7d76d93ffc7ba898960405161129892919061392a565b60405180910390a450505050505050565b6000600460009054906101000a900473ffffffffffffffffffffffffffffffffffffffff1673ffffffffffffffffffffffffffffffffffffffff166370a08231836040518263ffffffff1660e01b8152600401611306919061395a565b602060405180830381865afa158015611323573d6000803e3d6000fd5b505050506040513d601f19601f82011682018060405250810190611347919061398a565b9050919050565b600061135a6006611d81565b60006113666006611d97565b90506000600360009054906101000a900473ffffffffffffffffffffffffffffffffffffffff1673ffffffffffffffffffffffffffffffffffffffff166325734c793386856040518463ffffffff1660e01b81526004016113c9939291906139b7565b6020604051808303816000875af11580156113e8573d6000803e3d6000fd5b505050506040513d601f19601f8201168201806040525081019061140c919061398a565b90508160058560405161141f91906134e7565b908152602001604051809103902081905550803373ffffffffffffffffffffffffffffffffffffffff167f897fe813740e6ba4ee552166a01c5d4f60f074ee0f88367f93a1e0fcdc9ca52786604051611478919061283e565b60405180910390a38092505050919050565b6000600160008473ffffffffffffffffffffffffffffffffffffffff1673ffffffffffffffffffffffffffffffffffffffff16815260200190815260200160002060008373ffffffffffffffffffffffffffffffffffffffff1673ffffffffffffffffffffffffffffffffffffffff16815260200190815260200160002060009054906101000a900460ff16905092915050565b6115266118ec565b73ffffffffffffffffffffffffffffffffffffffff168573ffffffffffffffffffffffffffffffffffffffff16148061156c575061156b856115666118ec565b61148a565b5b6115ab576040517f08c379a00000000000000000000000000000000000000000000000000000000081526004016115a29061348b565b60405180910390fd5b6115b88585858585611da5565b5050505050565b823373ffffffffffffffffffffffffffffffffffffffff16600360009054906101000a900473ffffffffffffffffffffffffffffffffffffffff1673ffffffffffffffffffffffffffffffffffffffff16636352211e836040518263ffffffff1660e01b81526004016116329190612675565b602060405180830381865afa15801561164f573d6000803e3d6000fd5b505050506040513d601f19601f820116820180604052508101906116739190613688565b73ffffffffffffffffffffffffffffffffffffffff16146116c9576040517f08c379a00000000000000000000000000000000000000000000000000000000081526004016116c090613727565b60405180910390fd5b836008600082815260200190815260200160002060030160009054906101000a900460ff1661172d576040517f08c379a000000000000000000000000000000000000000000000000000000000815260040161172490613653565b60405180910390fd5b600460009054906101000a900473ffffffffffffffffffffffffffffffffffffffff1673ffffffffffffffffffffffffffffffffffffffff1663a9059cbb85856040518363ffffffff1660e01b815260040161178a929190613390565b6020604051808303816000875af11580156117a9573d6000803e3d6000fd5b505050506040513d601f19601f820116820180604052508101906117cd919061375c565b508373ffffffffffffffffffffffffffffffffffffffff16857f1b15bc319d6f29dd5bcf76cd2b89490ed2fe49f1a31fb6b8624b0029fd85c26560405160405180910390a360086000868152602001908152602001600020600080820160006101000a81549073ffffffffffffffffffffffffffffffffffffffff02191690556001820160009055600282016000611865919061249b565b6003820160006101000a81549060ff021916905550505050505050565b60007f01ffc9a7000000000000000000000000000000000000000000000000000000007bffffffffffffffffffffffffffffffffffffffffffffffffffffffff1916827bffffffffffffffffffffffffffffffffffffffffffffffffffffffff1916149050919050565b600033905090565b8151835114611938576040517f08c379a000000000000000000000000000000000000000000000000000000000815260040161192f90613a67565b60405180910390fd5b600073ffffffffffffffffffffffffffffffffffffffff168473ffffffffffffffffffffffffffffffffffffffff16036119a7576040517f08c379a000000000000000000000000000000000000000000000000000000000815260040161199e90613af9565b60405180910390fd5b60006119b16118ec565b90506119c1818787878787612040565b60005b8451811015611b725760008582815181106119e2576119e1613590565b5b602002602001015190506000858381518110611a0157611a00613590565b5b60200260200101519050600080600084815260200190815260200160002060008b73ffffffffffffffffffffffffffffffffffffffff1673ffffffffffffffffffffffffffffffffffffffff16815260200190815260200160002054905081811015611aa2576040517f08c379a0000000000000000000000000000000000000000000000000000000008152600401611a9990613b8b565b60405180910390fd5b81810360008085815260200190815260200160002060008c73ffffffffffffffffffffffffffffffffffffffff1673ffffffffffffffffffffffffffffffffffffffff168152602001908152602001600020819055508160008085815260200190815260200160002060008b73ffffffffffffffffffffffffffffffffffffffff1673ffffffffffffffffffffffffffffffffffffffff1681526020019081526020016000206000828254611b579190613bab565b9250508190555050505080611b6b906135bf565b90506119c4565b508473ffffffffffffffffffffffffffffffffffffffff168673ffffffffffffffffffffffffffffffffffffffff168273ffffffffffffffffffffffffffffffffffffffff167f4a39dc06d4c0dbc64b70af90fd698a233a518aa5d07e595d983b8c0526c8f7fb8787604051611be9929190613c01565b60405180910390a4611bff818787878787612048565b611c0d818787878787612050565b505050505050565b8173ffffffffffffffffffffffffffffffffffffffff168373ffffffffffffffffffffffffffffffffffffffff1603611c83576040517f08c379a0000000000000000000000000000000000000000000000000000000008152600401611c7a90613caa565b60405180910390fd5b80600160008573ffffffffffffffffffffffffffffffffffffffff1673ffffffffffffffffffffffffffffffffffffffff16815260200190815260200160002060008473ffffffffffffffffffffffffffffffffffffffff1673ffffffffffffffffffffffffffffffffffffffff16815260200190815260200160002060006101000a81548160ff0219169083151502179055508173ffffffffffffffffffffffffffffffffffffffff168373ffffffffffffffffffffffffffffffffffffffff167f17307eab39ab6107e8899845ad3d59bd9653f200f220920489ca2b5937696c3183604051611d749190612730565b60405180910390a3505050565b6001816000016000828254019250508190555050565b600081600001549050919050565b600073ffffffffffffffffffffffffffffffffffffffff168473ffffffffffffffffffffffffffffffffffffffff1603611e14576040517f08c379a0000000000000000000000000000000000000000000000000000000008152600401611e0b90613af9565b60405180910390fd5b6000611e1e6118ec565b90506000611e2b85612227565b90506000611e3885612227565b9050611e48838989858589612040565b600080600088815260200190815260200160002060008a73ffffffffffffffffffffffffffffffffffffffff1673ffffffffffffffffffffffffffffffffffffffff16815260200190815260200160002054905085811015611edf576040517f08c379a0000000000000000000000000000000000000000000000000000000008152600401611ed690613b8b565b60405180910390fd5b85810360008089815260200190815260200160002060008b73ffffffffffffffffffffffffffffffffffffffff1673ffffffffffffffffffffffffffffffffffffffff168152602001908152602001600020819055508560008089815260200190815260200160002060008a73ffffffffffffffffffffffffffffffffffffffff1673ffffffffffffffffffffffffffffffffffffffff1681526020019081526020016000206000828254611f949190613bab565b925050819055508773ffffffffffffffffffffffffffffffffffffffff168973ffffffffffffffffffffffffffffffffffffffff168573ffffffffffffffffffffffffffffffffffffffff167fc3d58168c5ae7397731d063d5bbf3d657854427343f4c083240f7aacaa2d0f628a8a604051612011929190613cca565b60405180910390a4612027848a8a86868a612048565b612035848a8a8a8a8a6122a1565b505050505050505050565b505050505050565b505050505050565b61206f8473ffffffffffffffffffffffffffffffffffffffff16612478565b1561221f578373ffffffffffffffffffffffffffffffffffffffff1663bc197c8187878686866040518663ffffffff1660e01b81526004016120b5959493929190613d48565b6020604051808303816000875af19250505080156120f157506040513d601f19601f820116820180604052508101906120ee9190613dc5565b60015b612196576120fd613dff565b806308c379a0036121595750612111613e21565b8061211c575061215b565b806040517f08c379a0000000000000000000000000000000000000000000000000000000008152600401612150919061283e565b60405180910390fd5b505b6040517f08c379a000000000000000000000000000000000000000000000000000000000815260040161218d90613f23565b60405180910390fd5b63bc197c8160e01b7bffffffffffffffffffffffffffffffffffffffffffffffffffffffff1916817bffffffffffffffffffffffffffffffffffffffffffffffffffffffff19161461221d576040517f08c379a000000000000000000000000000000000000000000000000000000000815260040161221490613fb5565b60405180910390fd5b505b505050505050565b60606000600167ffffffffffffffff81111561224657612245612865565b5b6040519080825280602002602001820160405280156122745781602001602082028036833780820191505090505b509050828160008151811061228c5761228b613590565b5b60200260200101818152505080915050919050565b6122c08473ffffffffffffffffffffffffffffffffffffffff16612478565b15612470578373ffffffffffffffffffffffffffffffffffffffff1663f23a6e6187878686866040518663ffffffff1660e01b8152600401612306959493929190613fd5565b6020604051808303816000875af192505050801561234257506040513d601f19601f8201168201806040525081019061233f9190613dc5565b60015b6123e75761234e613dff565b806308c379a0036123aa5750612362613e21565b8061236d57506123ac565b806040517f08c379a00000000000000000000000000000000000000000000000000000000081526004016123a1919061283e565b60405180910390fd5b505b6040517f08c379a00000000000000000000000000000000000000000000000000000000081526004016123de90613f23565b60405180910390fd5b63f23a6e6160e01b7bffffffffffffffffffffffffffffffffffffffffffffffffffffffff1916817bffffffffffffffffffffffffffffffffffffffffffffffffffffffff19161461246e576040517f08c379a000000000000000000000000000000000000000000000000000000000815260040161246590613fb5565b60405180910390fd5b505b505050505050565b6000808273ffffffffffffffffffffffffffffffffffffffff163b119050919050565b5080546124a7906133e8565b6000825580601f106124b957506124d8565b601f0160209004906000526020600020908101906124d79190612561565b5b50565b8280546124e7906133e8565b90600052602060002090601f0160209004810192826125095760008555612550565b82601f1061252257805160ff1916838001178555612550565b82800160010185558215612550579182015b8281111561254f578251825591602001919060010190612534565b5b50905061255d9190612561565b5090565b5b8082111561257a576000816000905550600101612562565b5090565b6000604051905090565b600080fd5b600080fd5b600073ffffffffffffffffffffffffffffffffffffffff82169050919050565b60006125bd82612592565b9050919050565b6125cd816125b2565b81146125d857600080fd5b50565b6000813590506125ea816125c4565b92915050565b6000819050919050565b612603816125f0565b811461260e57600080fd5b50565b600081359050612620816125fa565b92915050565b6000806040838503121561263d5761263c612588565b5b600061264b858286016125db565b925050602061265c85828601612611565b9150509250929050565b61266f816125f0565b82525050565b600060208201905061268a6000830184612666565b92915050565b60007fffffffff0000000000000000000000000000000000000000000000000000000082169050919050565b6126c581612690565b81146126d057600080fd5b50565b6000813590506126e2816126bc565b92915050565b6000602082840312156126fe576126fd612588565b5b600061270c848285016126d3565b91505092915050565b60008115159050919050565b61272a81612715565b82525050565b60006020820190506127456000830184612721565b92915050565b60006020828403121561276157612760612588565b5b600061276f848285016125db565b91505092915050565b60006020828403121561278e5761278d612588565b5b600061279c84828501612611565b91505092915050565b600081519050919050565b600082825260208201905092915050565b60005b838110156127df5780820151818401526020810190506127c4565b838111156127ee576000848401525b50505050565b6000601f19601f8301169050919050565b6000612810826127a5565b61281a81856127b0565b935061282a8185602086016127c1565b612833816127f4565b840191505092915050565b600060208201905081810360008301526128588184612805565b905092915050565b600080fd5b7f4e487b7100000000000000000000000000000000000000000000000000000000600052604160045260246000fd5b61289d826127f4565b810181811067ffffffffffffffff821117156128bc576128bb612865565b5b80604052505050565b60006128cf61257e565b90506128db8282612894565b919050565b600067ffffffffffffffff8211156128fb576128fa612865565b5b602082029050602081019050919050565b600080fd5b600061292461291f846128e0565b6128c5565b905080838252602082019050602084028301858111156129475761294661290c565b5b835b81811015612970578061295c8882612611565b845260208401935050602081019050612949565b5050509392505050565b600082601f83011261298f5761298e612860565b5b813561299f848260208601612911565b91505092915050565b600080fd5b600067ffffffffffffffff8211156129c8576129c7612865565b5b6129d1826127f4565b9050602081019050919050565b82818337600083830152505050565b6000612a006129fb846129ad565b6128c5565b905082815260208101848484011115612a1c57612a1b6129a8565b5b612a278482856129de565b509392505050565b600082601f830112612a4457612a43612860565b5b8135612a548482602086016129ed565b91505092915050565b600080600080600060a08688031215612a7957612a78612588565b5b6000612a87888289016125db565b9550506020612a98888289016125db565b945050604086013567ffffffffffffffff811115612ab957612ab861258d565b5b612ac58882890161297a565b935050606086013567ffffffffffffffff811115612ae657612ae561258d565b5b612af28882890161297a565b925050608086013567ffffffffffffffff811115612b1357612b1261258d565b5b612b1f88828901612a2f565b9150509295509295909350565b600067ffffffffffffffff821115612b4757612b46612865565b5b612b50826127f4565b9050602081019050919050565b6000612b70612b6b84612b2c565b6128c5565b905082815260208101848484011115612b8c57612b8b6129a8565b5b612b978482856129de565b509392505050565b600082601f830112612bb457612bb3612860565b5b8135612bc4848260208601612b5d565b91505092915050565b600060208284031215612be357612be2612588565b5b600082013567ffffffffffffffff811115612c0157612c0061258d565b5b612c0d84828501612b9f565b91505092915050565b600067ffffffffffffffff821115612c3157612c30612865565b5b602082029050602081019050919050565b6000612c55612c5084612c16565b6128c5565b90508083825260208201905060208402830185811115612c7857612c7761290c565b5b835b81811015612ca15780612c8d88826125db565b845260208401935050602081019050612c7a565b5050509392505050565b600082601f830112612cc057612cbf612860565b5b8135612cd0848260208601612c42565b91505092915050565b60008060408385031215612cf057612cef612588565b5b600083013567ffffffffffffffff811115612d0e57612d0d61258d565b5b612d1a85828601612cab565b925050602083013567ffffffffffffffff811115612d3b57612d3a61258d565b5b612d478582860161297a565b9150509250929050565b600081519050919050565b600082825260208201905092915050565b6000819050602082019050919050565b612d86816125f0565b82525050565b6000612d988383612d7d565b60208301905092915050565b6000602082019050919050565b6000612dbc82612d51565b612dc68185612d5c565b9350612dd183612d6d565b8060005b83811015612e02578151612de98882612d8c565b9750612df483612da4565b925050600181019050612dd5565b5085935050505092915050565b60006020820190508181036000830152612e298184612db1565b905092915050565b612e3a816125b2565b82525050565b6000608082019050612e556000830187612e31565b612e626020830186612666565b8181036040830152612e748185612805565b9050612e836060830184612721565b95945050505050565b600080600060608486031215612ea557612ea4612588565b5b6000612eb386828701612611565b9350506020612ec4868287016125db565b9250506040612ed586828701612611565b9150509250925092565b612ee881612715565b8114612ef357600080fd5b50565b600081359050612f0581612edf565b92915050565b60008060408385031215612f2257612f21612588565b5b6000612f30858286016125db565b9250506020612f4185828601612ef6565b9150509250929050565b600080600060608486031215612f6457612f63612588565b5b6000612f7286828701612611565b9350506020612f8386828701612611565b925050604084013567ffffffffffffffff811115612fa457612fa361258d565b5b612fb086828701612b9f565b9150509250925092565b60008060408385031215612fd157612fd0612588565b5b6000612fdf858286016125db565b9250506020612ff0858286016125db565b9150509250929050565b600080600080600060a0868803121561301657613015612588565b5b6000613024888289016125db565b9550506020613035888289016125db565b945050604061304688828901612611565b935050606061305788828901612611565b925050608086013567ffffffffffffffff8111156130785761307761258d565b5b61308488828901612a2f565b9150509295509295909350565b7f455243313135353a2061646472657373207a65726f206973206e6f742061207660008201527f616c6964206f776e657200000000000000000000000000000000000000000000602082015250565b60006130ed602a836127b0565b91506130f882613091565b604082019050919050565b6000602082019050818103600083015261311c816130e0565b9050919050565b600060ff82169050919050565b61313981613123565b811461314457600080fd5b50565b60008151905061315681613130565b92915050565b60006020828403121561317257613171612588565b5b600061318084828501613147565b91505092915050565b7f4e487b7100000000000000000000000000000000000000000000000000000000600052601160045260246000fd5b60008160011c9050919050565b6000808291508390505b600185111561320f578086048111156131eb576131ea613189565b5b60018516156131fa5780820291505b8081029050613208856131b8565b94506131cf565b94509492505050565b60008261322857600190506132e4565b8161323657600090506132e4565b816001811461324c576002811461325657613285565b60019150506132e4565b60ff84111561326857613267613189565b5b8360020a91508482111561327f5761327e613189565b5b506132e4565b5060208310610133831016604e8410600b84101617156132ba5782820a9050838111156132b5576132b4613189565b5b6132e4565b6132c784848460016131c5565b925090508184048111156132de576132dd613189565b5b81810290505b9392505050565b60006132f6826125f0565b915061330183613123565b925061332e7fffffffffffffffffffffffffffffffffffffffffffffffffffffffffffffffff8484613218565b905092915050565b6000613341826125f0565b915061334c836125f0565b9250817fffffffffffffffffffffffffffffffffffffffffffffffffffffffffffffffff048311821515161561338557613384613189565b5b828202905092915050565b60006040820190506133a56000830185612e31565b6133b26020830184612666565b9392505050565b7f4e487b7100000000000000000000000000000000000000000000000000000000600052602260045260246000fd5b6000600282049050600182168061340057607f821691505b602082108103613413576134126133b9565b5b50919050565b7f455243313135353a2063616c6c6572206973206e6f7420746f6b656e206f776e60008201527f6572206f7220617070726f766564000000000000000000000000000000000000602082015250565b6000613475602e836127b0565b915061348082613419565b604082019050919050565b600060208201905081810360008301526134a481613468565b9050919050565b600081905092915050565b60006134c1826127a5565b6134cb81856134ab565b93506134db8185602086016127c1565b80840191505092915050565b60006134f382846134b6565b915081905092915050565b7f455243313135353a206163636f756e747320616e6420696473206c656e67746860008201527f206d69736d617463680000000000000000000000000000000000000000000000602082015250565b600061355a6029836127b0565b9150613565826134fe565b604082019050919050565b600060208201905081810360008301526135898161354d565b9050919050565b7f4e487b7100000000000000000000000000000000000000000000000000000000600052603260045260246000fd5b60006135ca826125f0565b91507fffffffffffffffffffffffffffffffffffffffffffffffffffffffffffffffff82036135fc576135fb613189565b5b600182019050919050565b7f4e6f206f6666657220746f206163636570742f72656a65637400000000000000600082015250565b600061363d6019836127b0565b915061364882613607565b602082019050919050565b6000602082019050818103600083015261366c81613630565b9050919050565b600081519050613682816125c4565b92915050565b60006020828403121561369e5761369d612588565b5b60006136ac84828501613673565b91505092915050565b7f4f6e6c7920746865206f776e65722063616e206163636570742f72656a65637460008201527f20746865206f6666657200000000000000000000000000000000000000000000602082015250565b6000613711602a836127b0565b915061371c826136b5565b604082019050919050565b6000602082019050818103600083015261374081613704565b9050919050565b60008151905061375681612edf565b92915050565b60006020828403121561377257613771612588565b5b600061378084828501613747565b91505092915050565b600060608201905061379e6000830186612e31565b6137ab6020830185612e31565b6137b86040830184612666565b949350505050565b7f416e206f6666657220616c72656164792065786973747320666f72207468697360008201527f20706f7374000000000000000000000000000000000000000000000000000000602082015250565b600061381c6025836127b0565b9150613827826137c0565b604082019050919050565b6000602082019050818103600083015261384b8161380f565b9050919050565b7f546f6b656e207472616e73666572206661696c65640000000000000000000000600082015250565b60006138886015836127b0565b915061389382613852565b602082019050919050565b600060208201905081810360008301526138b78161387b565b9050919050565b7f537472696e672065786365656473203230302063686172616374657273000000600082015250565b60006138f4601d836127b0565b91506138ff826138be565b602082019050919050565b60006020820190508181036000830152613923816138e7565b9050919050565b600060408201905061393f6000830185612666565b81810360208301526139518184612805565b90509392505050565b600060208201905061396f6000830184612e31565b92915050565b600081519050613984816125fa565b92915050565b6000602082840312156139a05761399f612588565b5b60006139ae84828501613975565b91505092915050565b60006060820190506139cc6000830186612e31565b81810360208301526139de8185612805565b90506139ed6040830184612666565b949350505050565b7f455243313135353a2069647320616e6420616d6f756e7473206c656e6774682060008201527f6d69736d61746368000000000000000000000000000000000000000000000000602082015250565b6000613a516028836127b0565b9150613a5c826139f5565b604082019050919050565b60006020820190508181036000830152613a8081613a44565b9050919050565b7f455243313135353a207472616e7366657220746f20746865207a65726f20616460008201527f6472657373000000000000000000000000000000000000000000000000000000602082015250565b6000613ae36025836127b0565b9150613aee82613a87565b604082019050919050565b60006020820190508181036000830152613b1281613ad6565b9050919050565b7f455243313135353a20696e73756666696369656e742062616c616e636520666f60008201527f72207472616e7366657200000000000000000000000000000000000000000000602082015250565b6000613b75602a836127b0565b9150613b8082613b19565b604082019050919050565b60006020820190508181036000830152613ba481613b68565b9050919050565b6000613bb6826125f0565b9150613bc1836125f0565b9250827fffffffffffffffffffffffffffffffffffffffffffffffffffffffffffffffff03821115613bf657613bf5613189565b5b828201905092915050565b60006040820190508181036000830152613c1b8185612db1565b90508181036020830152613c2f8184612db1565b90509392505050565b7f455243313135353a2073657474696e6720617070726f76616c2073746174757360008201527f20666f722073656c660000000000000000000000000000000000000000000000602082015250565b6000613c946029836127b0565b9150613c9f82613c38565b604082019050919050565b60006020820190508181036000830152613cc381613c87565b9050919050565b6000604082019050613cdf6000830185612666565b613cec6020830184612666565b9392505050565b600081519050919050565b600082825260208201905092915050565b6000613d1a82613cf3565b613d248185613cfe565b9350613d348185602086016127c1565b613d3d816127f4565b840191505092915050565b600060a082019050613d5d6000830188612e31565b613d6a6020830187612e31565b8181036040830152613d7c8186612db1565b90508181036060830152613d908185612db1565b90508181036080830152613da48184613d0f565b90509695505050505050565b600081519050613dbf816126bc565b92915050565b600060208284031215613ddb57613dda612588565b5b6000613de984828501613db0565b91505092915050565b60008160e01c9050919050565b600060033d1115613e1e5760046000803e613e1b600051613df2565b90505b90565b600060443d10613eae57613e3361257e565b60043d036004823e80513d602482011167ffffffffffffffff82111715613e5b575050613eae565b808201805167ffffffffffffffff811115613e795750505050613eae565b80602083010160043d038501811115613e96575050505050613eae565b613ea582602001850186612894565b82955050505050505b90565b7f455243313135353a207472616e7366657220746f206e6f6e2d4552433131353560008201527f526563656976657220696d706c656d656e746572000000000000000000000000602082015250565b6000613f0d6034836127b0565b9150613f1882613eb1565b604082019050919050565b60006020820190508181036000830152613f3c81613f00565b9050919050565b7f455243313135353a204552433131353552656365697665722072656a6563746560008201527f6420746f6b656e73000000000000000000000000000000000000000000000000602082015250565b6000613f9f6028836127b0565b9150613faa82613f43565b604082019050919050565b60006020820190508181036000830152613fce81613f92565b9050919050565b600060a082019050613fea6000830188612e31565b613ff76020830187612e31565b6140046040830186612666565b6140116060830185612666565b81810360808301526140238184613d0f565b9050969550505050505056fea26469706673582212206d8f46c710d18e65e54f6fad378f1e970406f69df6a81f7496d56676feec496664736f6c634300080d0033",
  "immutableReferences": {},
  "source": "// SPDX-License-Identifier: UNLICENSED\npragma solidity ^0.8.13;\n\nimport \"./BlogCraftNFT.sol\";\nimport \"./WriteToken.sol\";\nimport \"@openzeppelin/contracts/utils/Counters.sol\";\nimport \"@openzeppelin/contracts/token/ERC1155/ERC1155.sol\";\nimport \"@openzeppelin/contracts/access/Ownable.sol\";\n\ncontract TokenSwap is ERC1155{\n    BlogCraftNFT private blogNFT;\n    WriteToken private writeToken;\n    event OfferMade(uint256 indexed postId, address indexed buyer, address indexed seller,uint256 amount, string message); // Event when new offer is created\n    event OfferAccepted(uint256 indexed tokenId, address indexed buyer);\n    event OfferRejected(uint256 indexed tokenId, address indexed buyer);\n    event RewardedPublisher(address indexed publisher, uint256 amount);\n    event LikedPost(address indexed viewer, uint256 amount);\n    event postnftcreated(address indexed author, uint256 indexed tokenId, string tokenURI);\n    \n    mapping(string => uint256) private uriToTokenId; \n    using Counters for Counters.Counter;\n    Counters.Counter private _tokenIds;\n    \n    address private owner;\n\n    modifier noExistingOffer(uint256 postId) {\n        require(!postOffers[postId].exists, \"An offer already exists for this post\");\n        _;\n    }\n\n    modifier validTokenTransfer(uint256 offerAmount) {\n        require(writeToken.transferFrom(msg.sender, address(this), offerAmount), \"Token transfer failed\");\n        _;\n    }\n\n    modifier validMessageLength(string memory message) {\n    require(bytes(message).length <= 200, \"String exceeds 200 characters\");\n        _;\n    }\n\n    modifier offerExists(uint256 postId) {\n    require(postOffers[postId].exists, \"No offer to accept/reject\");\n    _;\n    }\n\n    modifier onlyPostOwner(uint256 postId) {\n    require(blogNFT.ownerOf(postId) == msg.sender, \"Only the owner can accept/reject the offer\");\n    _;\n    }\n\n    struct Offer {\n        address buyer;\n        uint256 amount;\n        string message;\n        bool exists;\n    }\n\n    mapping(uint256 => Offer) public postOffers; // NFT post ID to its current offer\n\n    constructor(address _blogNFT, address _writeToken) ERC1155(\"\"){\n        blogNFT = BlogCraftNFT(_blogNFT);\n        writeToken = WriteToken(_writeToken);\n        owner = msg.sender;\n    }\n\n    function getWTT(address publisher) external view returns (uint256) {\n        return writeToken.balanceOf(publisher);\n    }\n\n    function rewardPublisher(address publisher) external {\n        uint256 rewardAmount = 20 * 10 ** writeToken.decimals();\n\n        writeToken.rewardPublisher(publisher, rewardAmount);\n        emit RewardedPublisher(publisher, rewardAmount); \n\n    }\n\n    function getTokenIdFromURI(string memory uri) external view returns (uint256){\n        return uriToTokenId[uri];\n    }\n\n    function likePost(address viewer) external {\n        uint256 rewardAmount = 1 * 10 ** writeToken.decimals();\n\n        writeToken.likePost(viewer, rewardAmount);\n        emit LikedPost(viewer, rewardAmount);\n    }\n\n    function createPostNFT(string memory uri) external returns (uint256) {\n        _tokenIds.increment();\n        uint256 newItemId = _tokenIds.current();\n        uint256 itemId = blogNFT.createPostNFT(msg.sender, uri, newItemId);\n        uriToTokenId[uri] = newItemId;\n        emit postnftcreated(msg.sender, itemId, uri);\n        return itemId;\n    }\n    \n    function makeOffer(uint256 postId, uint256 offerAmount, string memory message) \n        external\n        noExistingOffer(postId)\n        validTokenTransfer(offerAmount)\n        validMessageLength(message)\n    {\n        // Record the offer\n        postOffers[postId] = Offer({\n            buyer: msg.sender,\n            amount: offerAmount,\n            message: message,\n            exists: true\n        });\n\n        // Find the owner of the post\n        address postOwner = blogNFT.ownerOf(postId);\n\n        // Emit the event\n        emit OfferMade(postId, msg.sender, postOwner, offerAmount, message);\n    }\n\n    function acceptOffer(uint256 postId, address buyer, uint256 amount) \n        external\n        offerExists(postId)\n        onlyPostOwner(postId)\n    {\n        // Transfer the offer amount to the post owner\n        writeToken.transfer(msg.sender, amount);\n\n        // Transfer the NFT to the buyer\n        blogNFT.transferFrom(msg.sender, buyer, postId);\n\n        // Emit the OfferAccepted event\n        emit OfferAccepted(postId, buyer);\n\n        // Remove the offer\n        delete postOffers[postId];\n    }\n\n\n    function rejectOffer(uint256 postId, address buyer, uint256 amount) \n        external\n        onlyPostOwner(postId)\n        offerExists(postId)\n    {\n        // Refund the buyer\n        writeToken.transfer(buyer, amount);\n        \n        // Emit the OfferRejected event\n        emit OfferRejected(postId, buyer);\n\n        // Remove the offer\n        delete postOffers[postId];\n    }\n\n\n}\n",
  "sourcePath": "/Users/sangmokhan/Documents/CSE426Project/project-contract/contracts/TokenSwap.sol",
  "compiler": {
    "name": "solc",
    "version": "0.8.13+commit.abaa5c0e.Emscripten.clang"
  },
  "schemaVersion": "3.4.16",
  "updatedAt": "2023-11-30T21:58:53.823Z",
  "networkType": "ethereum",
  "devdoc": {
    "kind": "dev",
    "methods": {
      "balanceOf(address,uint256)": {
        "details": "See {IERC1155-balanceOf}. Requirements: - `account` cannot be the zero address."
      },
      "balanceOfBatch(address[],uint256[])": {
        "details": "See {IERC1155-balanceOfBatch}. Requirements: - `accounts` and `ids` must have the same length."
      },
      "isApprovedForAll(address,address)": {
        "details": "See {IERC1155-isApprovedForAll}."
      },
      "safeBatchTransferFrom(address,address,uint256[],uint256[],bytes)": {
        "details": "See {IERC1155-safeBatchTransferFrom}."
      },
      "safeTransferFrom(address,address,uint256,uint256,bytes)": {
        "details": "See {IERC1155-safeTransferFrom}."
      },
      "setApprovalForAll(address,bool)": {
        "details": "See {IERC1155-setApprovalForAll}."
      },
      "supportsInterface(bytes4)": {
        "details": "See {IERC165-supportsInterface}."
      },
      "uri(uint256)": {
        "details": "See {IERC1155MetadataURI-uri}. This implementation returns the same URI for *all* token types. It relies on the token type ID substitution mechanism https://eips.ethereum.org/EIPS/eip-1155#metadata[defined in the EIP]. Clients calling this function must replace the `\\{id\\}` substring with the actual token type ID."
      }
    },
    "version": 1
  },
  "userdoc": {
    "kind": "user",
    "methods": {},
    "version": 1
  }
}