{
  "contractName": "TokenSwap",
  "abi": [
    {
      "inputs": [
        {
          "internalType": "address",
          "name": "_blogNFT",
          "type": "address"
        },
        {
          "internalType": "address",
          "name": "_writeToken",
          "type": "address"
        }
      ],
      "stateMutability": "nonpayable",
      "type": "constructor"
    },
    {
      "anonymous": false,
      "inputs": [
        {
          "indexed": true,
          "internalType": "uint256",
          "name": "tokenId",
          "type": "uint256"
        },
        {
          "indexed": true,
          "internalType": "address",
          "name": "buyer",
          "type": "address"
        }
      ],
      "name": "OfferAccepted",
      "type": "event"
    },
    {
      "anonymous": false,
      "inputs": [
        {
          "indexed": true,
          "internalType": "uint256",
          "name": "postId",
          "type": "uint256"
        },
        {
          "indexed": true,
          "internalType": "address",
          "name": "buyer",
          "type": "address"
        },
        {
          "indexed": true,
          "internalType": "address",
          "name": "seller",
          "type": "address"
        },
        {
          "indexed": false,
          "internalType": "uint256",
          "name": "amount",
          "type": "uint256"
        },
        {
          "indexed": false,
          "internalType": "string",
          "name": "message",
          "type": "string"
        }
      ],
      "name": "OfferMade",
      "type": "event"
    },
    {
      "anonymous": false,
      "inputs": [
        {
          "indexed": true,
          "internalType": "uint256",
          "name": "tokenId",
          "type": "uint256"
        },
        {
          "indexed": true,
          "internalType": "address",
          "name": "buyer",
          "type": "address"
        }
      ],
      "name": "OfferRejected",
      "type": "event"
    },
    {
      "inputs": [
        {
          "internalType": "uint256",
          "name": "",
          "type": "uint256"
        }
      ],
      "name": "postOffers",
      "outputs": [
        {
          "internalType": "address",
          "name": "buyer",
          "type": "address"
        },
        {
          "internalType": "uint256",
          "name": "amount",
          "type": "uint256"
        },
        {
          "internalType": "string",
          "name": "message",
          "type": "string"
        },
        {
          "internalType": "bool",
          "name": "exists",
          "type": "bool"
        }
      ],
      "stateMutability": "view",
      "type": "function",
      "constant": true
    },
    {
      "inputs": [
        {
          "internalType": "address",
          "name": "publisher",
          "type": "address"
        }
      ],
      "name": "getWTT",
      "outputs": [
        {
          "internalType": "uint256",
          "name": "",
          "type": "uint256"
        }
      ],
      "stateMutability": "view",
      "type": "function",
      "constant": true
    },
    {
      "inputs": [
        {
          "internalType": "address",
          "name": "publisher",
          "type": "address"
        }
      ],
      "name": "rewardPublisher",
      "outputs": [],
      "stateMutability": "nonpayable",
      "type": "function"
    },
    {
      "inputs": [
        {
          "internalType": "address",
          "name": "viewer",
          "type": "address"
        }
      ],
      "name": "likePost",
      "outputs": [],
      "stateMutability": "nonpayable",
      "type": "function"
    },
    {
      "inputs": [
        {
          "internalType": "address",
          "name": "author",
          "type": "address"
        },
        {
          "internalType": "string",
          "name": "tokenURI",
          "type": "string"
        }
      ],
      "name": "createPostNFT",
      "outputs": [
        {
          "internalType": "uint256",
          "name": "",
          "type": "uint256"
        }
      ],
      "stateMutability": "nonpayable",
      "type": "function"
    },
    {
      "inputs": [
        {
          "internalType": "uint256",
          "name": "postId",
          "type": "uint256"
        },
        {
          "internalType": "uint256",
          "name": "offerAmount",
          "type": "uint256"
        },
        {
          "internalType": "string",
          "name": "message",
          "type": "string"
        }
      ],
      "name": "makeOffer",
      "outputs": [],
      "stateMutability": "nonpayable",
      "type": "function"
    },
    {
      "inputs": [
        {
          "internalType": "uint256",
          "name": "postId",
          "type": "uint256"
        }
      ],
      "name": "acceptOffer",
      "outputs": [],
      "stateMutability": "nonpayable",
      "type": "function"
    },
    {
      "inputs": [
        {
          "internalType": "uint256",
          "name": "postId",
          "type": "uint256"
        }
      ],
      "name": "rejectOffer",
      "outputs": [],
      "stateMutability": "nonpayable",
      "type": "function"
    }
  ],
  "bytecode": "0x60806040523480156200001157600080fd5b5060405162001d0638038062001d0683398181016040528101906200003791906200012a565b816000806101000a81548173ffffffffffffffffffffffffffffffffffffffff021916908373ffffffffffffffffffffffffffffffffffffffff16021790555080600160006101000a81548173ffffffffffffffffffffffffffffffffffffffff021916908373ffffffffffffffffffffffffffffffffffffffff160217905550505062000171565b600080fd5b600073ffffffffffffffffffffffffffffffffffffffff82169050919050565b6000620000f282620000c5565b9050919050565b6200010481620000e5565b81146200011057600080fd5b50565b6000815190506200012481620000f9565b92915050565b60008060408385031215620001445762000143620000c0565b5b6000620001548582860162000113565b9250506020620001678582860162000113565b9150509250929050565b611b8580620001816000396000f3fe608060405234801561001057600080fd5b50600436106100885760003560e01c806388b10c751161005b57806388b10c7514610128578063ab7e127814610144578063c74eea9814610160578063c815729d1461019057610088565b806302397a821461008d57806306b71665146100a95780633501e32e146100c5578063578a2b81146100f5575b600080fd5b6100a760048036038101906100a29190611208565b6101ac565b005b6100c360048036038101906100be9190611208565b61023c565b005b6100df60048036038101906100da919061137b565b6102cc565b6040516100ec91906113f0565b60405180910390f35b61010f600480360381019061010a9190611437565b610375565b60405161011f9493929190611516565b60405180910390f35b610142600480360381019061013d9190611437565b61045a565b005b61015e60048036038101906101599190611562565b610832565b005b61017a60048036038101906101759190611208565b610ba7565b60405161018791906113f0565b60405180910390f35b6101aa60048036038101906101a59190611437565b610c4c565b005b600160009054906101000a900473ffffffffffffffffffffffffffffffffffffffff1673ffffffffffffffffffffffffffffffffffffffff166302397a82826040518263ffffffff1660e01b815260040161020791906115d1565b600060405180830381600087803b15801561022157600080fd5b505af1158015610235573d6000803e3d6000fd5b5050505050565b600160009054906101000a900473ffffffffffffffffffffffffffffffffffffffff1673ffffffffffffffffffffffffffffffffffffffff166306b71665826040518263ffffffff1660e01b815260040161029791906115d1565b600060405180830381600087803b1580156102b157600080fd5b505af11580156102c5573d6000803e3d6000fd5b5050505050565b60008060009054906101000a900473ffffffffffffffffffffffffffffffffffffffff1673ffffffffffffffffffffffffffffffffffffffff16633501e32e84846040518363ffffffff1660e01b815260040161032a9291906115ec565b6020604051808303816000875af1158015610349573d6000803e3d6000fd5b505050506040513d601f19601f8201168201806040525081019061036d9190611631565b905092915050565b60026020528060005260406000206000915090508060000160009054906101000a900473ffffffffffffffffffffffffffffffffffffffff16908060010154908060020180546103c49061168d565b80601f01602080910402602001604051908101604052809291908181526020018280546103f09061168d565b801561043d5780601f106104125761010080835404028352916020019161043d565b820191906000526020600020905b81548152906001019060200180831161042057829003601f168201915b5050505050908060030160009054906101000a900460ff16905084565b3373ffffffffffffffffffffffffffffffffffffffff1660008054906101000a900473ffffffffffffffffffffffffffffffffffffffff1673ffffffffffffffffffffffffffffffffffffffff16636352211e836040518263ffffffff1660e01b81526004016104ca91906113f0565b602060405180830381865afa1580156104e7573d6000803e3d6000fd5b505050506040513d601f19601f8201168201806040525081019061050b91906116d3565b73ffffffffffffffffffffffffffffffffffffffff1614610561576040517f08c379a000000000000000000000000000000000000000000000000000000000815260040161055890611772565b60405180910390fd5b6000600260008381526020019081526020016000206040518060800160405290816000820160009054906101000a900473ffffffffffffffffffffffffffffffffffffffff1673ffffffffffffffffffffffffffffffffffffffff1673ffffffffffffffffffffffffffffffffffffffff168152602001600182015481526020016002820180546105f19061168d565b80601f016020809104026020016040519081016040528092919081815260200182805461061d9061168d565b801561066a5780601f1061063f5761010080835404028352916020019161066a565b820191906000526020600020905b81548152906001019060200180831161064d57829003601f168201915b505050505081526020016003820160009054906101000a900460ff161515151581525050905080606001516106d4576040517f08c379a00000000000000000000000000000000000000000000000000000000081526004016106cb906117de565b60405180910390fd5b600160009054906101000a900473ffffffffffffffffffffffffffffffffffffffff1673ffffffffffffffffffffffffffffffffffffffff1663a9059cbb826000015183602001516040518363ffffffff1660e01b81526004016107399291906117fe565b6020604051808303816000875af1158015610758573d6000803e3d6000fd5b505050506040513d601f19601f8201168201806040525081019061077c9190611853565b50806000015173ffffffffffffffffffffffffffffffffffffffff16827f1b15bc319d6f29dd5bcf76cd2b89490ed2fe49f1a31fb6b8624b0029fd85c26560405160405180910390a360026000838152602001908152602001600020600080820160006101000a81549073ffffffffffffffffffffffffffffffffffffffff0219169055600182016000905560028201600061081891906110b3565b6003820160006101000a81549060ff021916905550505050565b6002600084815260200190815260200160002060030160009054906101000a900460ff1615610896576040517f08c379a000000000000000000000000000000000000000000000000000000000815260040161088d906118f2565b60405180910390fd5b600160009054906101000a900473ffffffffffffffffffffffffffffffffffffffff1673ffffffffffffffffffffffffffffffffffffffff166323b872dd3330856040518463ffffffff1660e01b81526004016108f593929190611912565b6020604051808303816000875af1158015610914573d6000803e3d6000fd5b505050506040513d601f19601f820116820180604052508101906109389190611853565b610977576040517f08c379a000000000000000000000000000000000000000000000000000000000815260040161096e90611995565b60405180910390fd5b60c8815111156109bc576040517f08c379a00000000000000000000000000000000000000000000000000000000081526004016109b390611a01565b60405180910390fd5b60405180608001604052803373ffffffffffffffffffffffffffffffffffffffff168152602001838152602001828152602001600115158152506002600085815260200190815260200160002060008201518160000160006101000a81548173ffffffffffffffffffffffffffffffffffffffff021916908373ffffffffffffffffffffffffffffffffffffffff160217905550602082015181600101556040820151816002019080519060200190610a769291906110f3565b5060608201518160030160006101000a81548160ff02191690831515021790555090505060008060009054906101000a900473ffffffffffffffffffffffffffffffffffffffff1673ffffffffffffffffffffffffffffffffffffffff16636352211e856040518263ffffffff1660e01b8152600401610af691906113f0565b602060405180830381865afa158015610b13573d6000803e3d6000fd5b505050506040513d601f19601f82011682018060405250810190610b3791906116d3565b90508073ffffffffffffffffffffffffffffffffffffffff163373ffffffffffffffffffffffffffffffffffffffff16857f7246e18351fc9342d415e2d6954d5967c351bde093f90b612bb7d76d93ffc7ba8686604051610b99929190611a21565b60405180910390a450505050565b6000600160009054906101000a900473ffffffffffffffffffffffffffffffffffffffff1673ffffffffffffffffffffffffffffffffffffffff166370a08231836040518263ffffffff1660e01b8152600401610c0491906115d1565b602060405180830381865afa158015610c21573d6000803e3d6000fd5b505050506040513d601f19601f82011682018060405250810190610c459190611631565b9050919050565b6000600260008381526020019081526020016000206040518060800160405290816000820160009054906101000a900473ffffffffffffffffffffffffffffffffffffffff1673ffffffffffffffffffffffffffffffffffffffff1673ffffffffffffffffffffffffffffffffffffffff16815260200160018201548152602001600282018054610cdc9061168d565b80601f0160208091040260200160405190810160405280929190818152602001828054610d089061168d565b8015610d555780601f10610d2a57610100808354040283529160200191610d55565b820191906000526020600020905b815481529060010190602001808311610d3857829003601f168201915b505050505081526020016003820160009054906101000a900460ff16151515158152505090508060600151610dbf576040517f08c379a0000000000000000000000000000000000000000000000000000000008152600401610db690611a9d565b60405180910390fd5b3373ffffffffffffffffffffffffffffffffffffffff1660008054906101000a900473ffffffffffffffffffffffffffffffffffffffff1673ffffffffffffffffffffffffffffffffffffffff16636352211e846040518263ffffffff1660e01b8152600401610e2f91906113f0565b602060405180830381865afa158015610e4c573d6000803e3d6000fd5b505050506040513d601f19601f82011682018060405250810190610e7091906116d3565b73ffffffffffffffffffffffffffffffffffffffff1614610ec6576040517f08c379a0000000000000000000000000000000000000000000000000000000008152600401610ebd90611b2f565b60405180910390fd5b600160009054906101000a900473ffffffffffffffffffffffffffffffffffffffff1673ffffffffffffffffffffffffffffffffffffffff1663a9059cbb3383602001516040518363ffffffff1660e01b8152600401610f279291906117fe565b6020604051808303816000875af1158015610f46573d6000803e3d6000fd5b505050506040513d601f19601f82011682018060405250810190610f6a9190611853565b5060008054906101000a900473ffffffffffffffffffffffffffffffffffffffff1673ffffffffffffffffffffffffffffffffffffffff166323b872dd338360000151856040518463ffffffff1660e01b8152600401610fcc93929190611912565b600060405180830381600087803b158015610fe657600080fd5b505af1158015610ffa573d6000803e3d6000fd5b50505050806000015173ffffffffffffffffffffffffffffffffffffffff16827fa7a40af5a1d0c10a3eb94af90cb008170915e8a71a6aaff052794cd762c72fc060405160405180910390a360026000838152602001908152602001600020600080820160006101000a81549073ffffffffffffffffffffffffffffffffffffffff0219169055600182016000905560028201600061109991906110b3565b6003820160006101000a81549060ff021916905550505050565b5080546110bf9061168d565b6000825580601f106110d157506110f0565b601f0160209004906000526020600020908101906110ef9190611179565b5b50565b8280546110ff9061168d565b90600052602060002090601f0160209004810192826111215760008555611168565b82601f1061113a57805160ff1916838001178555611168565b82800160010185558215611168579182015b8281111561116757825182559160200191906001019061114c565b5b5090506111759190611179565b5090565b5b8082111561119257600081600090555060010161117a565b5090565b6000604051905090565b600080fd5b600080fd5b600073ffffffffffffffffffffffffffffffffffffffff82169050919050565b60006111d5826111aa565b9050919050565b6111e5816111ca565b81146111f057600080fd5b50565b600081359050611202816111dc565b92915050565b60006020828403121561121e5761121d6111a0565b5b600061122c848285016111f3565b91505092915050565b600080fd5b600080fd5b6000601f19601f8301169050919050565b7f4e487b7100000000000000000000000000000000000000000000000000000000600052604160045260246000fd5b6112888261123f565b810181811067ffffffffffffffff821117156112a7576112a6611250565b5b80604052505050565b60006112ba611196565b90506112c6828261127f565b919050565b600067ffffffffffffffff8211156112e6576112e5611250565b5b6112ef8261123f565b9050602081019050919050565b82818337600083830152505050565b600061131e611319846112cb565b6112b0565b90508281526020810184848401111561133a5761133961123a565b5b6113458482856112fc565b509392505050565b600082601f83011261136257611361611235565b5b813561137284826020860161130b565b91505092915050565b60008060408385031215611392576113916111a0565b5b60006113a0858286016111f3565b925050602083013567ffffffffffffffff8111156113c1576113c06111a5565b5b6113cd8582860161134d565b9150509250929050565b6000819050919050565b6113ea816113d7565b82525050565b600060208201905061140560008301846113e1565b92915050565b611414816113d7565b811461141f57600080fd5b50565b6000813590506114318161140b565b92915050565b60006020828403121561144d5761144c6111a0565b5b600061145b84828501611422565b91505092915050565b61146d816111ca565b82525050565b600081519050919050565b600082825260208201905092915050565b60005b838110156114ad578082015181840152602081019050611492565b838111156114bc576000848401525b50505050565b60006114cd82611473565b6114d7818561147e565b93506114e781856020860161148f565b6114f08161123f565b840191505092915050565b60008115159050919050565b611510816114fb565b82525050565b600060808201905061152b6000830187611464565b61153860208301866113e1565b818103604083015261154a81856114c2565b90506115596060830184611507565b95945050505050565b60008060006060848603121561157b5761157a6111a0565b5b600061158986828701611422565b935050602061159a86828701611422565b925050604084013567ffffffffffffffff8111156115bb576115ba6111a5565b5b6115c78682870161134d565b9150509250925092565b60006020820190506115e66000830184611464565b92915050565b60006040820190506116016000830185611464565b818103602083015261161381846114c2565b90509392505050565b60008151905061162b8161140b565b92915050565b600060208284031215611647576116466111a0565b5b60006116558482850161161c565b91505092915050565b7f4e487b7100000000000000000000000000000000000000000000000000000000600052602260045260246000fd5b600060028204905060018216806116a557607f821691505b6020821081036116b8576116b761165e565b5b50919050565b6000815190506116cd816111dc565b92915050565b6000602082840312156116e9576116e86111a0565b5b60006116f7848285016116be565b91505092915050565b7f4f6e6c7920746865206f776e65722063616e2072656a65637420746865206f6660008201527f6665720000000000000000000000000000000000000000000000000000000000602082015250565b600061175c60238361147e565b915061176782611700565b604082019050919050565b6000602082019050818103600083015261178b8161174f565b9050919050565b7f4e6f206f6666657220746f2072656a6563740000000000000000000000000000600082015250565b60006117c860128361147e565b91506117d382611792565b602082019050919050565b600060208201905081810360008301526117f7816117bb565b9050919050565b60006040820190506118136000830185611464565b61182060208301846113e1565b9392505050565b611830816114fb565b811461183b57600080fd5b50565b60008151905061184d81611827565b92915050565b600060208284031215611869576118686111a0565b5b60006118778482850161183e565b91505092915050565b7f416e206f6666657220616c72656164792065786973747320666f72207468697360008201527f20706f7374000000000000000000000000000000000000000000000000000000602082015250565b60006118dc60258361147e565b91506118e782611880565b604082019050919050565b6000602082019050818103600083015261190b816118cf565b9050919050565b60006060820190506119276000830186611464565b6119346020830185611464565b61194160408301846113e1565b949350505050565b7f546f6b656e207472616e73666572206661696c65640000000000000000000000600082015250565b600061197f60158361147e565b915061198a82611949565b602082019050919050565b600060208201905081810360008301526119ae81611972565b9050919050565b7f537472696e672065786365656473203230302063686172616374657273000000600082015250565b60006119eb601d8361147e565b91506119f6826119b5565b602082019050919050565b60006020820190508181036000830152611a1a816119de565b9050919050565b6000604082019050611a3660008301856113e1565b8181036020830152611a4881846114c2565b90509392505050565b7f4e6f206f6666657220746f206163636570740000000000000000000000000000600082015250565b6000611a8760128361147e565b9150611a9282611a51565b602082019050919050565b60006020820190508181036000830152611ab681611a7a565b9050919050565b7f4f6e6c7920746865206f776e65722063616e2061636365707420746865206f6660008201527f6665720000000000000000000000000000000000000000000000000000000000602082015250565b6000611b1960238361147e565b9150611b2482611abd565b604082019050919050565b60006020820190508181036000830152611b4881611b0c565b905091905056fea2646970667358221220d518bf44139db858591d8706015df90fa3085ca4021608b3c44a440a2490167c64736f6c634300080d0033",
  "immutableReferences": {},
  "source": "// SPDX-License-Identifier: UNLICENSED\npragma solidity ^0.8.13;\n\nimport \"./BlogCraftNFT.sol\";\nimport \"./WriteToken.sol\";\n\ncontract TokenSwap {\n    BlogCraftNFT private blogNFT;\n    WriteToken private writeToken;\n    event OfferMade(uint256 indexed postId, address indexed buyer, address indexed seller,uint256 amount, string message); // Event when new offer is created\n    event OfferAccepted(uint256 indexed tokenId, address indexed buyer);\n    event OfferRejected(uint256 indexed tokenId, address indexed buyer);\n\n    struct Offer {\n        address buyer;\n        uint256 amount;\n        string message;\n        bool exists;\n    }\n\n    mapping(uint256 => Offer) public postOffers; // NFT post ID to its current offer\n\n    constructor(address _blogNFT, address _writeToken) {\n        blogNFT = BlogCraftNFT(_blogNFT);\n        writeToken = WriteToken(_writeToken);\n    }\n\n    function getWTT(address publisher) external view returns (uint256) {\n        return writeToken.balanceOf(publisher);\n    }\n\n    function rewardPublisher(address publisher) external {\n        writeToken.rewardPublisher(publisher);\n    }\n\n    function likePost(address viewer) external {\n        writeToken.likePost(viewer);\n    }\n\n    function createPostNFT(address author, string memory tokenURI) external returns (uint256) {\n        return blogNFT.createPostNFT(author, tokenURI);\n    }\n    \n    function makeOffer(uint256 postId, uint256 offerAmount, string memory message) external {\n        require(!postOffers[postId].exists, \"An offer already exists for this post\");\n\n        // Transfer the offer amount from the buyer to this contract as escrow\n        require(writeToken.transferFrom(msg.sender, address(this), offerAmount), \"Token transfer failed\");\n        \n        require(bytes(message).length <= 200, \"String exceeds 200 characters\");\n\n        // Record the offer\n        postOffers[postId] = Offer({\n            buyer: msg.sender,\n            amount: offerAmount,\n            message: message,\n            exists: true\n        });\n\n        // Find the owner of the post\n        address postOwner = blogNFT.ownerOf(postId);\n\n        // Emit the event\n        emit OfferMade(postId, msg.sender, postOwner, offerAmount, message);\n    }\n\n    function acceptOffer(uint256 postId) external {\n        Offer memory offer = postOffers[postId];\n        require(offer.exists, \"No offer to accept\");\n        require(blogNFT.ownerOf(postId) == msg.sender, \"Only the owner can accept the offer\");\n\n        // Transfer the offer amount to the post owner\n        writeToken.transfer(msg.sender, offer.amount);\n\n        // Transfer the NFT to the buyer\n        blogNFT.transferFrom(msg.sender, offer.buyer, postId);\n\n        // Emit the OfferRejected event\n        emit OfferAccepted(postId, offer.buyer);\n\n        // Remove the offer\n        delete postOffers[postId];\n    }\n\n    function rejectOffer(uint256 postId) external {\n        require(blogNFT.ownerOf(postId) == msg.sender, \"Only the owner can reject the offer\");\n\n        Offer memory offer = postOffers[postId];\n        require(offer.exists, \"No offer to reject\");\n\n        // Refund the buyer\n        writeToken.transfer(offer.buyer, offer.amount);\n        \n        // Emit the OfferRejected event\n        emit OfferRejected(postId, offer.buyer);\n\n        // Remove the offer\n        delete postOffers[postId];\n    }\n\n}\n",
  "sourcePath": "/Users/sangmokhan/Documents/CSE426Project/project-contract/contracts/TokenSwap.sol",
  "compiler": {
    "name": "solc",
    "version": "0.8.13+commit.abaa5c0e.Emscripten.clang"
  },
  "schemaVersion": "3.4.16",
  "updatedAt": "2023-11-19T08:34:08.075Z",
  "networkType": "ethereum",
  "devdoc": {
    "kind": "dev",
    "methods": {},
    "version": 1
  },
  "userdoc": {
    "kind": "user",
    "methods": {},
    "version": 1
  }
}